:020000040800F2
:100000000000032049B40008B5130008B913000824
:10001000BD130008C1130008C5130008000000004C
:10002000000000000000000000000000A194000893
:10003000C9130008000000003195000895950008DC
:1000400099B4000899B4000899B4000899B400085C
:1000500099B4000899B4000899B4000899B400084C
:1000600099B4000899B40008CD130008D51300080E
:10007000E113000899B40008ED130008F913000813
:1000800099B4000805140008111400081D14000894
:100090002914000899B4000899B400083514000820
:1000A00099B4000899B4000899B4000899B40008FC
:1000B00099B400084914000899B4000899B40008DC
:1000C00099B4000899B4000899B4000899B40008DC
:1000D00099B400085514000899B400086D1400087C
:1000E00099B4000899B4000899B400088514000870
:1000F00099B4000899B4000899B4000899B40008AC
:1001000099B400089114000899B4000899B4000843
:1001100099B4000899B4000899B4000899B400088B
:100120009D140008A9140008B5140008C1140008A3
:10013000CD14000899B4000899B40008D914000837
:10014000E514000899B4000899B40008F1140008F7
:10015000FD140008091500081515000821150008F0
:1001600099B4000899B4000899B4000899B400083B
:1001700099B4000899B4000899B400080000000080
:1001800099B4000899B40008391500085115000801
:1001900099B4000899B4000899B4000899B400080B
:0C01A000000000000000000099B40008FE
:1001B00010B5054C237833B9044B13B10448AFF3A1
:1001C00000800123237010BD880100200000000082
:1001D000D0BB000808B5034B1BB103490348AFF37C
:1001E000008008BD000000008C010020D0BB00088A
:1001F00053B94AB9002908BF00281CBF4FF0FF318E
:100200004FF0FF3000F074B9ADF1080C6DE904CE89
:1002100000F006F8DDF804E0DDE9022304B07047E1
:100220002DE9F047089D04468E46002B4DD18A42A9
:10023000944669D9B2FA82F252B101FA02F3C2F1DC
:10024000200120FA01F10CFA02FC41EA030E94406D
:100250004FEA1C48210CBEFBF8F61FFA8CF708FB8E
:1002600016E341EA034306FB07F199420AD91CEB66
:10027000030306F1FF3080F01F81994240F21C8198
:10028000023E63445B1AA4B2B3FBF8F008FB1033E0
:1002900044EA034400FB07F7A7420AD91CEB040415
:1002A00000F1FF3380F00A81A74240F207816444E5
:1002B000023840EA0640E41B00261DB1D44000236A
:1002C000C5E900433146BDE8F0878B4209D9002DCE
:1002D00000F0EF800026C5E9000130463146BDE858
:1002E000F087B3FA83F6002E4AD18B4202D38242C2
:1002F00000F2F980841A61EB030301209E46002D71
:10030000E0D0C5E9004EDDE702B9FFDEB2FA82F2C5
:10031000002A40F09280A1EB0C014FEA1C471FFA23
:100320008CFE0126200CB1FBF7F307FB131140EA0A
:1003300001410EFB03F0884208D91CEB010103F1D7
:10034000FF3802D2884200F2CB804346091AA4B299
:10035000B1FBF7F007FB101144EA01440EFB00FE6D
:10036000A64508D91CEB040400F1FF3102D2A645D2
:1003700000F2BB800846A4EB0E0440EA03409CE771
:10038000C6F12007B34022FA07FC4CEA030C20FA1E
:1003900007F401FA06F31C43F9404FEA1C4900FA3E
:1003A00006F3B1FBF9F8200C1FFA8CFE09FB1811BB
:1003B00040EA014108FB0EF0884202FA06F20BD92E
:1003C0001CEB010108F1FF3A80F08880884240F27E
:1003D0008580A8F102086144091AA4B2B1FBF9F0C2
:1003E00009FB101144EA014100FB0EFE8E4508D9BD
:1003F0001CEB010100F1FF346CD28E456AD9023842
:10040000614440EA0840A0FB0294A1EB0E01A14226
:10041000C846A64656D353D05DB1B3EB080261EB94
:100420000E0101FA07F722FA06F3F1401F43C5E96E
:10043000007100263146BDE8F087C2F12003D840A4
:100440000CFA02FC21FA03F3914001434FEA1C47E6
:100450001FFA8CFEB3FBF7F007FB10360B0C43EAD8
:10046000064300FB0EF69E4204FA02F408D91CEB88
:10047000030300F1FF382FD29E422DD90238634486
:100480009B1B89B2B3FBF7F607FB163341EA034126
:1004900006FB0EF38B4208D91CEB010106F1FF3875
:1004A00016D28B4214D9023E6144C91A46EA00466C
:1004B00038E72E46284605E70646E3E61846F8E6FE
:1004C0004B45A9D2B9EB020864EB0C0E0138A3E747
:1004D0004646EAE7204694E74046D1E7D0467BE728
:1004E000023B614432E7304609E76444023842E7A0
:1004F000704700BF70B508200BF08EF90D4E0E4905
:100500000E4D4FF4006204460BF06AF80820346088
:100510000BF082F90A494FF4804204460BF060F870
:1005200030682C600BF064F82868BDE870400BF070
:1005300069B800BFA801002000100240A4010020FB
:100540000014024008B5064D064C28680BF064F80C
:1005500020680BF061F84FF4FA7008F0E5FDF4E75D
:10056000A8010020A401002000B52F482F490160F8
:100570000122002385B04FF480310261027680F8B9
:1005800030202B4A80F82030CDE90033CDE902330A
:10059000C0E90113C36043610023C0E90A230423B7
:1005A000C36102F0ABFA40BB9FED1D7B06231E48E2
:1005B000029369468DED007B02F0EAFB58BB0A22EC
:1005C000022319486946CDE9002302F0E1FBF8B99E
:1005D0000B22032314486946CDE9002302F0D8FB1F
:1005E00098B90622042310486946CDE9002302F099
:1005F000CFFB28B905B05DF804FB00F0B3FCD3E7EE
:1006000000F0B0FC05B05DF804FB00F0ABFCE8E7DF
:1006100000F0A8FCDCE700F0A5FCD0E7AFF3008019
:100620000E00000001000000B00100200020014089
:100630000100000F70B5334B02688AB000249A4263
:10064000CDE90444CDE90644089401D00AB070BD58
:1006500003F58C3301945A6C2B4E42F480725A6429
:100660005A6C02F480720192019A02941A6B42F061
:1006700004021A631A6B02F004020292029A0394B3
:100680001A6B42F001021A631B6B03F00103039320
:100690001322032304A905461C48CDE90423039B28
:1006A00003F072F8402203231948069404A9CDE907
:1006B000042303F069F8174A74624FF48063C6E9B3
:1006C000002433614FF400624FF40053C6E9052360
:1006D00030464FF48073C6E90244C6E9073402F09D
:1006E00077FE58B9AE63002205211220B56302F0EF
:1006F00023FE122002F05EFE0AB070BD00F032FC54
:10070000F0E700BF00200140F8010020000802408F
:1007100000000240106402400D480E49032210B54B
:100720000023C0E900124FF001224FF400244FF4DF
:10073000401182618383C0E90233C0E9044102F0C1
:1007400001FC00B910BDBDE8104000F00BBC00BFBB
:100750005C020020006400400D480E49032210B5E1
:100760000023C0E900124FF001224FF400244FF49F
:10077000401182618383C0E90233C0E9044102F081
:10078000E1FB00B910BDBDE8104000F0EBBB00BFBD
:10079000C00200200068004030B502684C498DB0AE
:1007A00000238A42CDE90633CDE908330A933FD0CE
:1007B00048498A4201D00DB030BD474A0393116CBD
:1007C000464841F080611164116C01F08061039131
:1007D0000168039C01310129016065D03E4B002274
:1007E0000592186B40F0020018631B6B3C489FEDAC
:1007F000347B03F00203059306A9092303248DED3E
:10080000067BCDE90943059D02F0BEFF00220521CC
:100810003F2002F091FD3F2002F0CCFD0022052197
:10082000402002F089FD402002F0C4FD0DB030BD33
:100830002A490A680132012A0A6029D0264B00227F
:100840000292186B40F0080018631B6B25489FED5F
:100850001E7B03F00803029306A9092303248DEDF0
:10086000067BCDE90943029D02F08EFF002205219F
:10087000132002F061FD132002F09CFD00220521EF
:10088000142002F059FD142002F094FD0DB030BD8B
:10089000114A0193136C43F000731364136C03F05B
:1008A00000730193019BC9E70493136C43F0007339
:1008B0001364136C03F000730493049B8EE700BF72
:1008C00000300000020000000300000002000000F1
:1008D00000640040006800400038024058020020D8
:1008E00000040240000C024010B582B00024404BCE
:1008F00000941A6B42F480021A63186B00F48000B3
:10090000009000980194186B40F4001018631B6B62
:1009100003F400132246052101930B20019B02F0F2
:100920000BFD0B2002F046FD224605210C2002F0B3
:1009300003FD0C2002F03EFD224605210E2002F0B0
:10094000FBFC0E2002F036FD224605210F2002F0AE
:10095000F3FC0F2002F02EFD22460521112002F0AB
:10096000EBFC112002F026FD22460521382002F082
:10097000E3FC382002F01EFD22460521392002F05A
:10098000DBFC392002F016FD224605213A2002F058
:10099000D3FC3A2002F00EFD224605213B2002F056
:1009A000CBFC3B2002F006FD224605213C2002F054
:1009B000C3FC3C2002F0FEFC22460521442002F04C
:1009C000BBFC442002F0F6FC22460521452002F043
:1009D000B3FC452002F0EEFC22464620052102F041
:1009E000ABFC462002B0BDE8104002F0E3BC00BF03
:1009F00000380240704700BF704700BF704700BF1B
:100A0000704700BF704700BF704700BF00B583B09C
:100A1000019001F053FD0198FFF794FD012008F0CB
:100A200083FBFBE708B5FFF765FDFFF7E3FFFFF783
:100A3000E3FFFFF7E3FFFFF7E3FF064A0648002165
:100A400008F018FB054B1860FFF7DCFFFFF7DCFF31
:100A500008BD00BFF4BB00080D0A000824030020F5
:100A60002DE9F04F2DED028B002491B0CDE90A4421
:100A7000CDE90C44B04B01940E941A6BDFF8D08290
:100A8000AE4EDFF8D0B2DFF8D0A2AD4FAD4D42F0A0
:100A900010021A631A6B02F010020192019A02947A
:100AA0001A6B42F002021A631A6B02F002020292FF
:100AB000029A03941A6B42F040021A631A6B02F016
:100AC00040020392039A04941A6B42F004021A63E0
:100AD0001A6B02F004020492049A05941A6B42F015
:100AE00001021A631A6B02F001020592059A06943C
:100AF0001A6B42F008021A631A6B02F0080206929F
:100B0000069A07941A6B42F480721A631A6B02F405
:100B100080720792079A08941A6B42F020021A63B7
:100B20001A6B02F020020892089A09941A6B42F09C
:100B300080021A631B6B03F0800309932246404630
:100B400042F2FE11099B02F06FFF2246304640F24E
:100B5000036102F069FF7C4B224618464FF4007196
:100B600002F062FF584601223C2102F05DFF22465E
:100B7000504644F2400102F057FF22463846102109
:100B800002F052FF224628464FF4C05102F04CFFBB
:100B90009FED5D7B0AA930468DED0A7B0C9402F037
:100BA000F3FD9FED5B7B4FF0000940460AA94FF033
:100BB00000088DED0A7BCDE90C8902F0E5FD9FED83
:100BC000567B0AA928468DED0A7B0C9402F0DCFDC9
:100BD0009FED537B0AA928468DED0A7B0C9402F009
:100BE000D3FD9FED517B0AA930468DED0A7B9FED29
:100BF000508BCDE90C8902F0C7FD534B0AA918466A
:100C00004FF400720123CDE90A238DED0C8B02F025
:100C1000BBFD58460AA93C220123CDE90A23CDE9B0
:100C20000C8902F0B1FD0AA9504644F240020123AA
:100C3000CDE90A23CDE90C8902F0A6FD50460AA9A8
:100C40004FF480620023CDE90A230C9402F09CFD4E
:100C50000AA90C2200233D480C94CDE90A2302F096
:100C600093FD0AA9304604220023CDE90A230C94FF
:100C700002F08AFD0AA9384610220123CDE90A2391
:100C80008DED0C8B02F080FD38460AA9202200234E
:100C9000CDE90A230C9402F077FD0AA928464FF407
:100CA00000620123CDE90A23CDE90C8902F06CFD35
:100CB00030460AA903220123CDE90A238DED0C8BCE
:100CC00002F062FD01230AA928464FF48052CDE9C3
:100CD0000A238DED0C8B02F057FD224605210A20D8
:100CE00002F02AFB0A2002F065FB224605211720AC
:100CF00002F022FB172002F05DFB11B0BDEC028B6D
:100D0000BDE8F08FAFF3008000010000000011107B
:100D1000FE21000001000000300000000000111062
:100D200040800000000000000006000001000000FC
:100D300000000000030000000038024000040240F0
:100D40000000024000100240002002400008024063
:100D500000180240001C02400014024010B5184860
:100D6000184C194900234FF48042C0E90041C0E902
:100D70000233C0E90423C0E90633036202F06CFECB
:100D800050B90F48002102F02FFF68B90C4800212C
:100D900002F04AFF80B910BD00F0E4F808480021D5
:100DA00002F022FF0028F1D000F0DCF80448002116
:100DB00002F03AFF0028EED0BDE8104000F0D2B8B3
:100DC0002803002000580040A086010030B5194BD0
:100DD000026889B000249A42CDE90244CDE9044476
:100DE000069401D009B030BD134D00942B6B13480D
:100DF00043F020032B632B6B03F0200300930322AB
:100E00001223CDE9022301220323CDE9042302A901
:100E100004230693009A02F0B7FC01942B6C43F470
:100E200080032B642B6C03F480030193019B09B0B6
:100E300030BD00BF0058004000380240001402409E
:100E400010B5002394B0CDE90A33CDE90C33CDE9D8
:100E50000233CDE90433224900930693086C214AFA
:100E600040F080500864096C01F0805100910099B5
:100E70000193136843F44043136013689FED147BA0
:100E800003F44043022101934FF480000623CDE98F
:100E90000E10A822109308A80723CDE911218DED8B
:100EA000087B1393019C03F021FC9FED0B7B002238
:100EB0004FF4A053CDE9042302A84FF48053052139
:100EC0008DED027B069303F021FE14B010BD00BF30
:100ED00001000000000001000F00000002000000FF
:100EE000003802400070004008B501F0C9FDFFF76E
:100EF000A7FFFFF7B5FDFFF7F7FC00F035F800F0AE
:100F00001BFF00F049FE00F0F5F8FFF72DFB00F0A5
:100F100013F9FFF701FCFFF71FFC00F0F1FE00F0F2
:100F200097FE00F0B1FE00F033FD00F0B5FD00F0DB
:100F3000C7FE00F0A1FCFFF711FF01F027F900F058
:100F40003BFB08F02DF8FFF76DFD08F057F8FEE7C2
:100F5000034B02689A4200D0704701F0ABBD00BF5E
:100F600000040040704700BF054B06490022C3E95A
:100F70000012C3E90222C3E904229A61704700BF4C
:100F80003C040020002C01402DE9F041524B026846
:100F90008AB000249A42CDE90444CDE9064408947D
:100FA00002D00AB0BDE8F08103F5863301945A6C93
:100FB0004A4E42F400625A645A6C02F40062019292
:100FC000019A02941A6B42F004021A631A6B02F03F
:100FD00004020292029A03941A6B42F008021A6306
:100FE0001B6B03F0080303934FF4F852022303270B
:100FF0004FF00C0804A905463948CDE90423CDE992
:101000000778039B02F0C0FB04220223CDE90423EE
:101010003448CDF820800022032304A9CDE906231B
:1010200002F0B2FB304A4FF00063C6E900234023D0
:10103000B3604FF48063C6E903434FF480514FF42B
:101040008043C6E905132023F3610423C6E908435E
:101050004FF400024FF400133046C6E90A723363BE
:1010600002F0B6F988BB214C2149EE634FF00062D3
:10107000C4E900124FF480614FF48052C4E90412B5
:101080004FF4804120220023C4E906120422C4E95F
:101090000832C4E9023303214FF400024FF4001375
:1010A0002046C4E90A12B563236302F091F978B9C6
:1010B0000022052131202C64A56302F03DF9312086
:1010C00002F078F90AB0BDE8F081FFF74BFFCAE7FC
:1010D000FFF748FFECE700BF002C0140DC030020D5
:1010E00000080240000C0240586402407C030020CB
:1010F000A06402400E480F494FF4827210B50023DD
:10110000C0E900124FF4007428210A22C0E902331A
:10111000C0E90433C0E90641C0E90833C0E90A3236
:1011200004F03EFC00B910BDBDE81040FFF71ABF47
:1011300080050020003001400E480F494FF48272B4
:1011400010B50023C0E900124FF4007430210A22C8
:10115000C0E90233C0E90433C0E90641C0E90833FD
:10116000C0E90A3204F01CFC00B910BDBDE8104013
:10117000FFF7F8BE000600200050014070B503687C
:10118000524A8CB000249342CDE90644CDE908448C
:101190000A9404D04E4A93423BD00CB070BD4D4BE4
:1011A00001945A6C4C4842F480525A645A6C02F4CE
:1011B00080520192019A02941A6B42F002021A6361
:1011C0001A6B02F002020292029A03941A6B42F026
:1011D00001021A631B6B03F001030393182202231D
:1011E000CDE90623052406A90323CDE90934039A92
:1011F00002F0CAFA80220223CDE9062337480A9476
:101200000022032306A9CDE9082302F0BDFA0CB0A1
:1012100070BD304B04945A6C314E42F480125A64C3
:101220005A6C02F480120492049A05941A6B42F0EC
:1012300020021A631B6B03F0200305934FF46072C6
:101240000223CDE90623032309930546059B254880
:10125000052306A90A9302F097FA234A74624FF015
:101260006063C6E9002330464FF480624FF40033D8
:10127000C6E90244C6E90424C6E90644336202F022
:10128000A7F8E8B9194C1A49EE644FF08062C4E936
:1012900000124FF4806200234021226120464FF467
:1012A0000032C4E90213C4E90533C4E90732B56367
:1012B000636202F08DF830B9AC64A5630CB070BD08
:1012C000FFF750FEDEE7FFF74DFEF5E70030014087
:1012D000005001400038024000040240000002407B
:1012E000C004002000140240886402402005002051
:1012F0007064024082B00E4B00220092596C41F49F
:1013000080415964586C00F480400090009801922C
:10131000186C40F0805018641B6C03F080530193EC
:10132000019B0F216FF0010002B002F005B800BF71
:101330000038024030B5014689B000221D2001F07E
:10134000FBFF1D2002F036F80025164B02951A6CA3
:10135000154C42F002021A641B6C03F0020301A94F
:1013600003A80293029B03F095FC03F073FC0F4A61
:101370000F4921604300A2FB03239B0C013B40F279
:10138000E7322046C4E903256360A56004F082FBD0
:1013900010B1012009B030BD204604F031FC09B085
:1013A00030BD00BF003802408006002083DE1B43B2
:1013B00000040040704700BFFEE700BFFEE700BF2B
:1013C000FEE700BFFEE700BF704700BF102002F03D
:1013D00037BB00BF014802F0E5B800BF480B002052
:1013E000014802F0DFB800BF080C0020014802F0FD
:1013F000D9B800BF880A0020014802F0D3B800BF66
:10140000680C0020014802F0CDB800BFE80A0020B7
:10141000014801F027BC00BFB0010020014801F0E5
:101420004DBE00BF5C020020014801F047BE00BF76
:101430005C02002008B5202002F002FBBDE8084055
:101440004FF4807002F0FCBA014804F09FBC00BF6A
:101450008006002008B504480AF08CFABDE8084070
:10146000014805F08FB800BF880D002008B504487A
:101470000AF080FABDE80840014805F083B800BFD3
:10148000F40D0020014804F081BC00BFD807002003
:10149000014803F07DBE00BF3C040020014802F07B
:1014A00081B800BFF8010020014802F07BB800BFFE
:1014B000C80C0020014802F075B800BFA80B00203E
:1014C000014802F06FB800BFDC030020014802F0C1
:1014D00069B800BF20050020014801F0EFBD00BF42
:1014E000C0020020014801F0E9BD00BFC002002099
:1014F000014802F06BBC00BF88240020014802F0C4
:1015000051B800BFC0040020014802F04BB800BF32
:101510007C030020014802F045B800BF280D0020E0
:1015200008B504480AF026FABDE80840014805F06D
:1015300029B800BF600E002008B504480AF01AFA66
:10154000BDE80840014805F01DB800BFCC0E0020E2
:1015500008B504480AF00EFABDE80840014805F055
:1015600011B800BF380F00201049114BD1F8882066
:1015700042F4700210B4C1F888201A680D4C0020A3
:1015800042F001021A6098601A6822F0847222F414
:1015900080321A605C601A684FF0006422F4802286
:1015A0001A60D8608C605DF8044B704700ED00E075
:1015B000003802401030002400B51B484FF0804234
:1015C00002605322002387B042604FF0FF32CDE922
:1015D0000233CDE90433CDE90033C0E902320361BF
:1015E000836104F057FA98B94FF480530E48029380
:1015F00002A904F08FFD98B9002200230A48694629
:10160000CDE9002304F02AFE28B907B05DF804FBF9
:10161000FFF7A8FCE8E7FFF7A5FC07B05DF804FBBF
:10162000FFF7A0FCE8E700BF8408002000B5324ABD
:101630000368934287B031D0B3F1804F1ED02F4A58
:1016400093423AD02E4A934246D02E4A934222D118
:101650002D4B00220592196C41F0400119641B6C5E
:1016600003F0400305932B200521059B01F064FE48
:101670002B2007B05DF804EB01F09CBE03F50E33A0
:10168000002202921A6C42F001021A641B6C03F0F1
:1016900001030293029B07B05DF804FB1A4B002282
:1016A00001925A6C42F001025A645B6C03F0010330
:1016B0000193019B07B05DF804FB134B00220392DA
:1016C0001A6C42F004021A641B6C03F004030393C7
:1016D000039B07B05DF804FB0B4B002204921A6CCD
:1016E00042F008021A641B6C03F008030493049B85
:1016F00007B05DF804FB00BF000001400008004097
:10170000000C0040001800400038024000000000BB
:1017100010B502684E498CB000238A42CDE90633E9
:10172000CDE908330A9320D04A498A424DD04A492C
:101730008A4261D049498A4201D00CB010BD484A62
:101740000593136B474843F080031363136B9FEDBE
:101750003C7B03F08003059306A909238DED067BEE
:10176000059A0A9302F010F8E7E73D4A0093116BDF
:101770003D4841F001011163116B01F0010100913D
:1017800000990193136B43F010031363136B03F081
:10179000100301934FF480720223012406A9CDE9BE
:1017A00006230A94019B01F0EFFF30484FF480427A
:1017B0000223CDE9062306A900220023CDE9082350
:1017C0000A9401F0E1FF0CB010BD254A0293136B9F
:1017D000274843F008031363136B9FED1B7B03F053
:1017E0000803029306A902238DED067B029A0A9351
:1017F00001F0CAFF0CB010BD194A0393116B1D48CC
:1018000041F480711163116B01F4807103910399AC
:101810000493136B43F080031363136B03F0800393
:10182000049301220223022406A9CDE906230A9487
:10183000049B01F0A9FF0B484FF4E0520223B8E7E4
:10184000400200000200000000F000000200000062
:101850000000014000080040000C0040001800405B
:1018600000380240001C024000000240001002400C
:10187000000C02400020024010B5002496B0202247
:1018800021460EA8CDE90344CDE90744CDE909443A
:10189000CDE90B44029400940694059401940AF057
:1018A0008FF93948394A8461A723C0E9002340F6FB
:1018B000C313C0E90243C0E9044404F0EBF8002874
:1018C00045D14FF480533048029302A904F022FC22
:1018D000002852D12C4804F0A3F900284AD1002254
:1018E000002329486946CDE9002304F0B7FC00280D
:1018F0003DD160204FF47A71CDE90601002000212E
:10190000CDE90801CDE90A0100221F480C9206A981
:1019100004F0F8FA40BB1C480C2206A904F0F2FAC5
:10192000F8B99FED177B00230022CDE90E23CDE906
:101930001023154800230EA98DED127B159304F09A
:10194000CDFC38B91048FFF7E3FE16B010BDFFF725
:1019500009FBB6E7FFF706FB0B48FFF7D9FE16B009
:1019600010BDFFF7FFFADCE7FFF7FCFAD3E7FFF75C
:10197000F9FABEE7FFF7F6FAB1E7FFF7F3FAA9E7DE
:1019800000000000002000002C07002000000140A3
:1019900000B53F483F4A8FB00023CDE90233CDE97F
:1019A0000433CDE90033CDE90633CDE90833CDE981
:1019B0000A330C938360036183615323C0E90023DE
:1019C00040F6C313C36004F065F800283DD14FF41E
:1019D00080532F48029302A904F09CFB00284ED1AB
:1019E0002B4804F01DF9002846D100220023284886
:1019F0006946CDE9002304F031FC002839D19FED80
:101A0000227B00222248089206A98DED067B0A92CD
:101A100004F078FA50BB1E48042206A904F072FABA
:101A200008BB00231A480793082206A904F06AFAA3
:101A3000B0B917480C2206A904F064FA40B914485A
:101A4000FFF766FE0FB05DF804FBFFF78BFABEE709
:101A5000FFF788FA0E48FFF75BFE0FB05DF804FB56
:101A6000FFF780FAE5E7FFF77DFADAE7FFF77AFAA2
:101A7000D1E7FFF777FAC2E7FFF774FAB5E7FFF7A8
:101A800071FAADE7AFF3008060000000E8030000EA
:101A9000300900200008004000B53D488FB0002309
:101AA000CDE90233CDE90433CDE90033CDE9063386
:101AB000CDE90833CDE90A33C0E901330C93036162
:101AC0008361344B03604FF0FF33C36003F0E2FFE8
:101AD00000283BD14FF480532D48029302A904F013
:101AE00019FB00284CD12A4804F09AF8002844D168
:101AF0000022002326486946CDE9002304F0AEFB0E
:101B0000002837D19FED207B00222148089206A9AA
:101B10008DED067B0A9204F0F5F940BB1C480422C7
:101B200006A904F0EFF9F8B91948082206A904F04B
:101B3000E9F9B0B916480C2206A904F0E3F940B956
:101B40001348FFF7E5FD0FB05DF804FBFFF70AFA55
:101B5000C0E7FFF707FA0E48FFF7DAFD0FB05DF8B0
:101B600004FBFFF7FFF9E5E7FFF7FCF9DCE7FFF718
:101B7000F9F9D3E7FFF7F6F9C4E7FFF7F3F9B7E7A9
:101B8000FFF7F0F9AFE700BF6000000000000000C1
:101B9000DC090020000C004000B52B482B4A0260F5
:101BA0008DB000235322CDE90033CDE90233CDE9D6
:101BB0000433CDE90633CDE90833C0E90123C0E998
:101BC00003330A93836103F065FF18BB4FF480531E
:101BD0001D480093694604F09DFA60BB1A4804F062
:101BE0001FF828BB9FED167B00221748069204A918
:101BF0008DED047B089204F085F9B0B912480422F7
:101C000004A904F07FF940B90F48FFF781FD0DB03A
:101C10005DF804FBFFF7A6F9D8E7FFF7A3F90A4838
:101C2000FFF776FD0DB05DF804FBFFF79BF9E5E7E4
:101C3000FFF798F9D6E7FFF795F9CFE7AFF3008004
:101C40006000000000000000D807002000180040DD
:101C500010B50B480B4C00234FF4E1310C22C0E9C6
:101C60000041C0E90233C0E90432C0E9063304F0A0
:101C700031FC00B910BDBDE81040FFF773B900BFDB
:101C8000CC0E00200078004010B50B480B4C002310
:101C90004FF4E1310C22C0E90041C0E90233C0E950
:101CA0000432C0E9063304F015FC00B910BDBDE8EC
:101CB0001040FFF757B900BF380F0020007C0040EC
:101CC0000C480D490D4A10B50023C0E900124FF42D
:101CD00080544FF480610C22C0E90243C0E9041231
:101CE000C0E9063304F0F6FB00B910BDBDE81040B2
:101CF000FFF738B9880D002000100140A0860100D0
:101D000010B50B480B4C00234FF4E1310C22C0E915
:101D10000041C0E90233C0E90432C0E9063304F0EF
:101D2000D9FB00B910BDBDE81040FFF71BB900BFDB
:101D3000F40D00200048004010B50B480B4C002368
:101D40004FF4E1310C22C0E90041C0E90233C0E99F
:101D50000432C0E9063304F0BDFB00B910BDBDE894
:101D60001040FFF7FFB800BF600E002000140140D4
:101D700070B50368B14A90B000249342CDE90A449B
:101D8000CDE90C4405460E946DD0AD4A934200F067
:101D9000B080AC4A934200F00B81AB4A934205D02D
:101DA000AA4A934200F0748110B070BDA84B06940B
:101DB0001A6CA848A84E42F480221A641A6C02F4E5
:101DC00080220692069A07941A6B42F008021A6360
:101DD0001B6B03F0080307934FF440720223CDE915
:101DE0000A2303230D930AA9079B07230E9301F0EF
:101DF000CBFC9A4A4FF00063C6E9002330464FF40B
:101E00008063C6E90244C6E90434C6E90644C6E96B
:101E1000084401F0DDFA002840F0A281904C91497D
:101E20006E634FF060620023C4E900122046402137
:101E30004FF48062C4E90213C4E90533C4E90733EF
:101E4000B5632261636201F0C3FA002840F0858126
:101E50002C63002205212720A56301F06DFA2720BD
:101E600001F0A8FAA0E77A4B00941A6C7E487F4EE6
:101E700042F080421A641A6C02F080420092009A8A
:101E800001941A6B42F010021A631B6B03F01003EB
:101E900001934FF4C0720223CDE90A2301220323E8
:101EA000CDE90C230AA908230E93019B01F06CFCD9
:101EB0006F4A4FF02063C6E9002330464FF4806339
:101EC000C6E90244C6E90434C6E90644C6E9084442
:101ED00001F07EFA002840F034816E630022052173
:101EE0005220B56301F028FA522001F063FA10B0D5
:101EF00070BD574B02941A6C5B485E4E42F0004234
:101F00001A641A6C02F000420292029A03941A6B4D
:101F100042F010021A631B6B03F0100303930322B9
:101F20000223CDE90A2301220323CDE90C230AA9C8
:101F300008230E93039B01F027FC4F4A4FF02063C8
:101F4000C6E9002330464FF48063C6E90244C6E97F
:101F50000434C6E90644C6E9084401F039FA002809
:101F600040F0F280454C46496E634FF020620023FA
:101F7000C4E90012204640214FF48062C4E90213F4
:101F8000C4E90533C4E90733B5632261636201F034
:101F90001FFA002840F0DB802C630022052153202B
:101FA000A56301F0C9F9532001F004FA10B070BD27
:101FB000274B04945A6C3348334E42F010025A6453
:101FC0005A6C02F010020492049A05941A6B42F0C3
:101FD00002021A631B6B03F002030593C022022363
:101FE000CDE90A2303230D930AA9059B07230E932A
:101FF00001F0CAFB254A74624FF00063C6E9002372
:1020000030464FF480624FF40033C6E90244C6E91B
:102010000424C6E90644336201F0DAF9002840F0EE
:1020200099806E63002205212520B56301F084F9B3
:10203000252001F0BFF910B070BD00BF007800404E
:10204000007C0040001001400048004000140140A6
:1020500000380240000C0240080C002028600240BA
:10206000680C00207060024000100240880A0020C6
:1020700058600240E80A0020A0600240480B00209F
:102080001060024000040240A80B0020406402409F
:10209000384B08945A6C3848384E42F020025A6443
:1020A0005A6C02F020020892089A09941A6B42F0C6
:1020B00040021A631B6B03F0400309934FF4844200
:1020C0000223CDE90A2303230D930AA9099B0823C0
:1020D0000E9301F059FB2A4A4FF02063C6E9002312
:1020E00030464FF48063C6E90244C6E90434C6E9C9
:1020F0000644C6E9084401F06BF9B8BB214C2249FB
:102100006E634FF020620023C4E900122046402194
:102110004FF48062C4E90213C4E90533C4E907330C
:10212000B5632261636201F053F9E0B92C63472083
:1021300000220521A56301F0FFF8472001F03AF9DC
:1021400032E6FEF70FFFC8E6FEF70CFF0AE7FEF7E0
:1021500009FF21E7FEF706FF63E7FEF703FF77E6D7
:10216000FEF700FF5AE6FEF7FDFEDFE7FEF7FAFE98
:10217000C4E700BF0038024000180240C80C00202D
:1021800028640240280D0020B864024008B50349C5
:10219000034806F0E1FE034B187008BDA40F0020B1
:1021A00030BC0008A80F0020844608B50448134638
:1021B0000A46614602F00AFE003818BF012008BD39
:1021C0003C040020844608B5044813460A4661468C
:1021D00002F09AFE003818BF012008BD3C04002020
:1021E00008B5034803F0B8FB043818BF012008BD48
:1021F0003C0400200146014803F010BB3C040020D1
:10220000704700BF08B5FFF7FBFF08BD08B500F039
:102210002DF908BD08B500F03DF908BD00B583B043
:1022200001238DF8073000F021F808B98DF8070078
:102230009DF8070003B05DF804FB00BF08B5FFF789
:10224000EDFF012801D0012008BD074803F0C8FABE
:102250000028F9D14FF40061034803F0F3FA003885
:1022600018BF012008BD00BF3C04002008B54FF492
:102270000041034801F0D2FBB0FA80F0400908BDEC
:102280000010024038B5154C0125257006F0A4FE5B
:10229000022801D0207838BDFFF7D0FF90B1237815
:1022A000012BF7D00E4D2A68002AF3D102210A2013
:1022B00006F05AFF28600028ECD1237843F0010390
:1022C0002370E7E72570FFF78BFF18B9237803F039
:1022D000FE0323702378DBB22370E0E708000020C0
:1022E000AC0F002010B5064C01232370FFF778FFD8
:1022F00018B9237803F0FE032370207810BD00BFC7
:102300000800002030B5184B187810F0010489B08F
:1023100006D11546032924D8DFE801F0060A121A6F
:102320000324204609B030BD0C46204609B030BD1C
:102330006846FFF75FFF069B2B60204609B030BD63
:102340006846FFF757FF079B2B80204609B030BD3A
:102350006846FFF74FFF079B20465B0A2B6009B0DA
:1023600030BD0424DDE700BF080000202DE9F04166
:1023700082B00D4616461F4606F062FE47F22F5801
:10238000044602E0FFF72CFF40B106F059FE001BA7
:102390004045F7D9012002B0BDE8F0813A46314608
:1023A0002846FFF701FF02460028F3D10E4947F205
:1023B000305308680DF1060106F06AFF0028E9D1E4
:1023C000BDF80630012BE5D106F03AFE47F22F5555
:1023D000044603E0FFF704FF0028DCD006F030FEDF
:1023E000001BA842F6D9D5E7AC0F00202DE9F0413B
:1023F00082B00D4616461F4606F022FE47F22F58C1
:10240000044602E0FFF7ECFE40B106F019FE001BA7
:102410004045F7D9012002B0BDE8F0813A46314687
:102420002846FFF7CFFE02460028F3D10E4947F2B7
:10243000305308680DF1060106F02AFF0028E9D1A3
:10244000BDF80630022BE5D106F0FAFD47F22F5514
:10245000044603E0FFF7C4FE0028DCD006F0F0FDE0
:10246000001BA842F6D9D5E7AC0F002000B5084AFA
:1024700083B000234FF0020C1068ADF806C01A4676
:102480000DF1060106F0BCFE03B05DF804FB00BFD1
:10249000AC0F002000B5084A83B000234FF0010CB8
:1024A0001068ADF806C01A460DF1060106F0A8FE48
:1024B00003B05DF804FB00BFAC0F002008B518495D
:1024C0001848002206F0F4F870B91749154806F0CC
:1024D00007F988B91549134806F0A2F8A0B91148C0
:1024E00006F014F9B8B908BDFEF73CFD0E490D48D9
:1024F00006F0F6F80028EDD0FEF734FD0B49094848
:1025000006F08EF80028EAD0FEF72CFD054806F00C
:10251000FDF80028E7D0BDE80840FEF723BD00BF66
:1025200020000020B00F0020740000200C000020CC
:102530000020704710B5064C06490022204606F0E0
:1025400077F80549204606F07BF8002010BD00BF53
:10255000B00F0020801A00208012002020280CD00C
:10256000212808D10D4B1A680A601A790A715A7924
:102570004A719B798B7100207047084B91F804C019
:1025800048798A7910B40C681C60587183F804C0CB
:102590009A7100205DF8044B704700BF8022002034
:1025A00010B5094CD4F8BC32D3F814320BB1012069
:1025B00010BD0A460146204606F03AF82046BDE81E
:1025C000104006F043B800BFB00F002008B509F076
:1025D00031FA002008BD00BF70B5084E04460D4614
:1025E0000146304606F02CF8304606F047F8204603
:1025F000296809F041FA002070BD00BFB00F00202B
:10260000122301480B8070473C000020042301483E
:102610000B8070475000002010B5044C04480A4657
:10262000214606F02BFC204610BD00BF882200206A
:1026300044BC000810B5044C04480A46214606F084
:102640001DFC204610BD00BF8822002058BC000899
:1026500010B5044C04480A46214606F00FFC2046FB
:1026600010BD00BF8822002070BC000810B5044CCB
:1026700004480A46214606F001FC204610BD00BF72
:10268000882200207CBC0008454AD2F8100AD2F803
:10269000183A4FF01A0CC318A1F800C001D14148F4
:1026A0007047D2F8141A3F4A180FB3F1204F2CBFCD
:1026B000373030309070C3F3036009288CBF373057
:1026C00030301071C3F3035009288CBF37303030DD
:1026D0009071C3F3034009288CBF3730303010723B
:1026E000C3F3033009288CBF373030309072C3F306
:1026F000032009288CBF373030301073C3F3031028
:10270000092803F00F038CBF37303030092B94BFFA
:102710003033373313740023B1F1204F53744FEA31
:1027200011732CBF373330339374C1F30363092B18
:102730008CBF373330331375C1F30353092B4FF07C
:10274000000C8CBF3733303382F803C04FF0000CDD
:1027500082F805C090734FF0000C00209375C1F310
:102760000343092B82F807C0D0734FF0000C4FF0E1
:10277000000094BF3033373382F809C0D0744FF073
:10278000000C002082F80BC050754FF0000C0020A8
:1027900013760023D07582F80DC002485376704737
:1027A0000070FF1F5400002030B5036889B000247A
:1027B000B3F1A04FCDE90244CDE90444069401D021
:1027C00009B030BD174D00942B6B174843F001033F
:1027D0002B632B6B03F0010300934FF4C0520223D1
:1027E000CDE90223032302A905930A23009A069345
:1027F00000F0CAFF6B6B43F080036B6301946B6C5A
:1028000043F480436B646B6C03F4804322460521E0
:1028100001934320019B00F08FFD432000F0CAFD8F
:1028200009B030BD003802400000024000F571716F
:10283000D0F8040405F07CBFC1EBC10300EB8303B7
:10284000D0F80404D3F8082205F0A2BFC1EBC103FD
:1028500000EB8303D0F804049A6C05F0CFBF00BFEF
:10286000D0F8040406F062B8C16810B5044611B18E
:1028700002290AD10121D4F8040406F03FF8D4F863
:102880000404BDE8104006F011B8FEF76BFB01210F
:10289000F1E700BF10B50446D0F8040406F032F8A2
:1028A0002268D2F8003E43F00103C2F8003E236ADA
:1028B00023B1034A136943F00603136110BD00BF3F
:1028C00000ED00E0D0F8040406F026B8D0F80404C7
:1028D00006F03CB8D0F8040406F036B8D0F804048A
:1028E00006F036B8D0F8040406F034B80000000052
:1028F00002780AB1002070479FED177B1A4B10B584
:1029000083ED067B9FED167B4FF0A041C3F80404D6
:102910000424C0F8C432196083ED087B02211846F4
:10292000C3E90B225C60D9601A6101F0A1F978B9A2
:1029300080210D4801F0D4FE402200210A4801F018
:10294000A5FE80220121084801F0A0FE002010BD54
:10295000FEF708FBECE700BF0200000000000000EB
:1029600000000000000000008824002008B5D0F816
:10297000C40201F00BFA032896BF024B0320185C37
:1029800008BD00BF8CBC0008944608B51A46D0F8B4
:10299000C402634601F038FD032896BF014B0320B3
:1029A000185C08BD8CBC000808B5D0F8C40201F062
:1029B00069FD032896BF024B0320185C08BD00BFC9
:1029C0008CBC000808B5D0F8C40201F0E3FD032870
:1029D00096BF024B0320185C08BD00BF8CBC0008EA
:1029E00008B5D0F8C40201F019FE032896BF024BC7
:1029F0000320185C08BD00BF8CBC00080A06D0F894
:102A0000C43206D4C1EBC10103EB810191F8FE0190
:102A1000704701F07F01C1EBC10103EB810191F827
:102A20003E00704708B5D0F8C40201F0D9FC032875
:102A300096BF024B0320185C08BD00BF8CBC000889
:102A400008B5D0F8C40201F07DFD032896BF024B03
:102A50000320185C08BD00BF8CBC000808B5D0F886
:102A6000C40201F03DFD032896BF024B0320185C11
:102A700008BD00BF8CBC0008D0F8C40201F058BDEE
:102A800008B50B4B1A6842F400721A601A6842F4D7
:102A900080621A601A6842F480721A60032000F0A3
:102AA00039FC0020FEF746FCFEF724FC002008BDA0
:102AB000003C0240034A044B11681B780B4413602E
:102AC000704700BF902800206E000020014B18685E
:102AD000704700BF9028002038B50446FFF7F6FF86
:102AE000631C054602D0044B1B781C44FFF7EEFF25
:102AF000431BA342FAD338BD6E000020002800F02B
:102B00009F8038B5056C04463DB1236CDB060CD5BF
:102B1000002384F83C30012038BDFDF78BFD65644F
:102B2000236C84F83C50DB06F2D4236C484A23F42F
:102B3000885323F0020343F002032364516823689F
:102B400021F44031516051686068014351605A6816
:102B50002569A06822F480725A60596841EA05210B
:102B60005960596821F0407159605A6802435A60AF
:102B70009968E06821F4006199609A68A16A02434B
:102B80009A60344A914252D09868E56A20F07060A9
:102B900098609A6811439960996821F04051996052
:102BA0009A682A439A609A6822F002029A609A68A8
:102BB000217E42EA41029A6094F82020002A41D006
:102BC0005968626A41F400615960586820F46040B5
:102BD0005860511E5A6842EA41325A60DA6AE16925
:102BE000656922F47002DA62DA6A013942EA015256
:102BF000DA62996821F400719960996894F830203C
:102C000041EA42219960996821F4806199609A684B
:102C1000002042EA85229A606064236C23F003035B
:102C200043F001032364002384F83C3038BD9A68E4
:102C300022F070629A609A6822F040529A60B2E77D
:102C4000012070475A6822F400625A60C6E700BF4C
:102C5000002301400100000F704700BF704700BF14
:102C6000704700BF38B503681A6859680446900772
:102C700001D58A0653D41A685968520701D50D0642
:102C80001BD41A685968D00701D54A0606D41A68B9
:102C90005968900601D54A0169D438BD1A68D5072C
:102CA000F5D5236C43F4803323642046FFF7D6FF29
:102CB00023686FF001021A60E9E7226CD00603D4A2
:102CC000226C42F4005222649A6812F4401F1ED112
:102CD0009A6B12F4401F02D09A68510517D45A68B3
:102CE000520514D49A6812F0405F10D1227E72B956
:102CF0005A6822F080025A60236C23F480532364C4
:102D0000236CDD0503D4236C43F0010323642046C8
:102D100000F0FCF823686FF00C021A60B1E7226C37
:102D2000D50603D4226C42F4007222649A6812F031
:102D3000405F14D1227E92B9DA6A12F4700F23D167
:102D40005A6822F020025A60236C23F480732364B3
:102D5000236CD90403D4236C43F00103236420467D
:102D6000FFF77AFF23686FF012021A6083E7626C44
:102D70006FF0200542F00202626420461D60FFF7FA
:102D80006FFF23681D6038BD9A685005E7D4D7E708
:102D900030B590F83C3083B00022012B019200F056
:102DA0009B80012380F83C300C680368092C2DD8E7
:102DB0001D698A6804EB440E4FF0070C0CFA0EFCF8
:102DC00025EA0C051D611D6902FA0EF22A431A61FB
:102DD0004A68062AA4462FD802EB8202596B053AAC
:102DE0004FF01F0E0CFA02FC0EFA02F221EA020268
:102DF0005A635A6B4CEA02025A633F4A934230D0FC
:102E0000002380F83C30184603B030BD1FFA84FC24
:102E10000CEB4C02DD68A2F11E0E072202FA0EF244
:102E200025EA0202DA608A68DD6802FA0EF22A43B5
:102E3000DA604A68062ACFD90C2A02EB820232D81D
:102E4000196B233A1F250CFA02FC05FA02F221EA5B
:102E500002021A631A6B4CEA02021A63264A934270
:102E6000CED1122C2ED0254B9C4238D1244A254B52
:102E70005168254C21F480015160516841F40001F2
:102E800051601B68A4FB03239B0C03EB83035B00D3
:102E90000193019B002BB3D0019B013B0193019B4C
:102EA000002BF9D1ACE7D96A413A1F250CFA02FC94
:102EB00005FA02F221EA0202DA62DA6A4CEA020256
:102EC000DA629AE70E4B5A6822F400025A605A6896
:102ED00042F480025A6093E7022003B030BD112C07
:102EE0008ED1074B5A6822F480025A605A6842F425
:102EF00000025A6084E700BF002001401200001069
:102F0000002301400400002083DE1B43704700BF04
:102F1000704700BF704700BF704700BF704700BFD9
:102F2000704700BF704700BF704700BF704700BFC9
:102F3000704700BF704700BF704700BF704700BFB9
:102F4000704700BF002800F0988038B590F8203016
:102F50000446002B72D02268136823F0020313602A
:102F6000FFF7B4FD054604E0FFF7B0FD431B0A2B55
:102F70005BD823685A689107F6D41A6842F00102B8
:102F80001A60FFF7A3FD054604E0FFF79FFD401B15
:102F90000A284AD823685A68D207F6D5227E012A21
:102FA0001A680CBF42F0800222F080021A60627E32
:102FB000012A1A680CBF42F0400222F040021A6057
:102FC000A27E012A1A680CBF42F0200222F02002E1
:102FD0001A60E27E012A1A680CBF22F0100242F049
:102FE00010021A60227F012A1A680CBF42F0080200
:102FF00022F008021A60627F012A1A680CBF42F0B0
:10300000040222F004021A60D4E90220216902437A
:103010000A4360696168024301390A4300200121C3
:10302000DA61606284F8201038BD636A052243F4D7
:103030000033636284F82020012038BD1149124A10
:10304000C36D1248C4E91012114A1249C4E91202B0
:10305000114A1248C4E90A12114A1249C4E90C0281
:10306000114A1248C4E90E121149124AA265C4E974
:10307000140123B1204698476DE7012070470E4B9D
:10308000E365F7E72D2F0008312F0008352F0008E2
:10309000392F0008152F0008192F00081D2F0008D0
:1030A000212F0008252F0008292F00083D2F000898
:1030B000412F0008112F0008990700082DE9F04F53
:1030C00003685D69D3F804809F68D3F80CA0D3F837
:1030D0001090D3F818B015F0010681B0044625D041
:1030E00017F0010640F0B9804FF400524FF48041D0
:1030F000F8050DD523684FF480709860BB0500F18A
:10310000CB80780500F1EC803B0540F1F2800E4663
:10311000F8030BD523684FF48032B9039A6000F1AD
:10312000AF807A0340F1D78046F400462F0703D5DD
:103130001AF0100F40F08B80680702D51AF0080FC4
:103140007ED1A90703D52368DB689A0774D16B0683
:1031500002D519F0100F69D1AF0602D519F0080F8A
:103160005DD1E80603D523681B69990753D1AA03EB
:1031700002D518F0100F47D1EB0302D518F0080F55
:103180003BD12F0405D518F0040F0DD1236804227C
:103190005A60002E71D0636AA26D1E43204666629B
:1031A00001B0BDE8F04F1047E80504D51BF0010F52
:1031B00018BF46F00106A90504D51BF0020F18BF81
:1031C00046F002066A0504D51BF0040F18BF46F04E
:1031D00004062B05DAD51BF0700BD7D0BBF1400FDE
:1031E00000F095805CD8BBF1200F00F08D80BBF122
:1031F000300F63D146F020065AE0236808225A6057
:103200002046636D9847BCE7236810225A60204629
:10321000236D9847B0E7A36C20469847A7E723683B
:1032200008221A612046E36C98479AE72368102227
:1032300046F480661A618FE7236C2046984786E73C
:1032400023680822DA602046636C984779E7236890
:10325000102246F40076DA606EE701229A60BB071E
:1032600012D47E0730D417F008063BD04FF44052FA
:103270004FF4A0414FF480563AE701B0BDE8F08F1B
:10328000236B2046984751E7836A984700264FF4FE
:1032900000524FF480412BE7E36A2046984737E716
:1032A000BBF1500F2DD0BBF1600F08BF46F4807604
:1032B00023689A6922F070029A6168E7BBF1100FE7
:1032C000F6D146F00806F3E74FF420524FF4904150
:1032D0004FF400660CE73B030FD546F4803625E734
:1032E000164615E7436B98474FF400524FF4804160
:1032F000FEE6A36B204698470AE7E36B2046984713
:1033000014E746F08006D3E746F01006D0E746F013
:103310004006CDE70749CA6803024FF6FF0003F4F1
:10332000E0630240134343F0BF6343F40033CB60D8
:10333000704700BF00ED00E01C4BDB68C3F30223C5
:1033400000B5C3F1070EBEF1040F03F1040C28BF52
:103350004FF0040EBCF1060F1BD9033B4FF0FF3CAE
:103360000CFA03FC22EA0C024FF0FF3C0CFA0EFCB4
:1033700021EA0C019940002841EA02010CDB00F12E
:103380006040090100F56140C9B280F800135DF8A2
:1033900004FB00221346E7E7054B00F00F0009018C
:1033A0000344C9B219765DF804FB00BF00ED00E0EC
:1033B000FCEC00E0002808DB4109044A00F01F0093
:1033C000012303FA00F042F82100704700E100E019
:1033D00038B50446FFF77AFB002C52D0236802224E
:1033E000002184F8341084F835201A6822F0010294
:1033F00005461A6005E0FFF769FB431B052B39D82A
:1034000023681A68D107F6D4D4E90120E1680243A1
:103410000A43D4E90451A0692A430A43E1691D68BB
:1034200002430A4333492940256A2A430A43616A11
:10343000042928D01A605A6922F007021143D8B231
:103440002D4A59611038A2FB005212092B4923F46E
:103450007F73895CE16523F003035F2888BF043331
:103460003F228A40A36500209A600123606584F8AA
:10347000353038BD03232022626584F83530184684
:1034800038BD012038BDD4E90B5129430A431A60E5
:103490005969A26A21F00701114341F00401002D8E
:1034A000CDD078B1B0F5005F16D0022A03D9032A37
:1034B000C5D1EA01C3D501234022626584F83530C5
:1034C000184638BD012A03D032F00202B7D1F0E726
:1034D000B5F1C07FB3D1EEE7032AB0D801A050F810
:1034E00022F000BFB7340008B3340008B734000836
:1034F000D13400083F8010F0ABAAAAAA90BC000803
:1035000070B490F83440856D012C35D090F835407A
:103510004FF0010C644580F834C005D0002380F8DA
:10352000343070BC02207047022680F83560046891
:1035300000264665266826F4802626606360836838
:10354000402B0EBFA260A160E260C26D08BFE160C7
:103550003F239340AB602368026C43F01603236063
:103560001AB1236843F008032360236843F0010382
:103570000020236070BC7047022070BC704700BF01
:1035800090F83530022B03D080234365012070472B
:103590000268052380F83530136823F0010300200A
:1035A000136070472DE9F04182B0744A866D15684A
:1035B00000230193C36D346808229A40224280465A
:1035C00004D001680F68780700F18A8001229A40D0
:1035D000224204D0D8F800104969090678D40422A0
:1035E0009A40224204D0D8F8001009688F0767D4A7
:1035F00010229A40224204D0D8F800100F683807F1
:1036000049D420229A40224217D0D8F800100C68E2
:10361000E00612D5B26098F83520052A73D00B6801
:1036200013F4802F0B6800F09080190340F19B8009
:10363000D8F83C300BB140469847D8F854303BB3EB
:10364000D8F85430DA071BD5D8F800204C490523A8
:1036500088F835301368A1FB051523F00103AD0A86
:10366000136002E01368DB0704D5019B0133AB4212
:103670000193F7D90022012388F8342088F83530E7
:10368000D8F84C3023B1404602B0BDE8F0411847AD
:1036900002B0BDE8F081B2600A6812F4802F0A68B7
:1036A0002AD1D70503D40A6822F008020A60D8F8A4
:1036B0004020002AA5D040469047D8F85C30A0E7CB
:1036C000B260D8F8542042F00402C8F854208FE7C2
:1036D000B260D8F8542042F00202C8F854207EE7C5
:1036E0000F6827F004070F60B260D8F8542042F04A
:1036F0000102C8F8542069E71203D8D5D8F8482049
:10370000002AD8D17DE70A6822F016020A604A69C9
:1037100022F080024A61D8F8402052B30A6822F0B1
:1037200008020A603F2202FA03F3D8F85010B3608F
:103730000022012388F8342088F835300029A7D0EA
:10374000404602B0BDE8F041084713F480737FF4AF
:103750006FAF0A6822F010020A60012288F8343044
:1037600088F8352064E7D8F84430002B7FF463AF45
:1037700063E7D8F84820002AD0D1D3E7040000201E
:10378000B5814E1B406D70472DE9F04F00220D684A
:10379000DFF878A285B0134605E00133102B02F163
:1037A000020200F0AA8001249C4004EA050BAC430D
:1037B000F3D14F6827F0100E0EF1FF34012C40F2C8
:1037C0009F80D0F80CE08C684FF0030C0CFA02FCE0
:1037D00094402EEA0C0E44EA0E04C4606FEA0C0416
:1037E000D0F800C00CEA040C07F00304944044EA4B
:1037F0000C040460FC00D0D500240394DAF84440A3
:103800007B4E44F48044CAF84440DAF8444004F45F
:1038100080440394039C23F0030404F1804404F5E2
:103820009C3403F0030ED4F808804FEA8E0E4FF05C
:103830000F0C0CFA0EFCB04228EA0C0C2ED006F548
:103840008066B04200F09C806A4EB04200F09F80DB
:10385000694EB04200F0A280684EB04200F0A580F0
:10386000674EB04200F0AF80664EB04200F0B280CA
:10387000DFF89C81404500F09F80DFF8988140454B
:1038800000F0AF80DFF8908140450CBF4FF0090891
:103890004FF00A0808FA0EFE4CEA0E0CC4F808C0F5
:1038A000594C24686FEA0B0CFE03574E54BF0CEAC8
:1038B00004044BEA040434607468BE03524E54BFDF
:1038C0000CEA04044BEA04047460B468FE024E4E31
:1038D00054BF0CEA04044BEA0404B460F4680133F6
:1038E000BE02494E54BF0CEA04044BEA0404102BF8
:1038F000F46002F102027FF456AF05B0BDE8F08F2C
:10390000D0F808C0CC688E684FF0030909FA02F9B4
:103910002CEA090C944044EA0C048460446824EACC
:103920000B0CC7F300149C4044EA0C044460C468C8
:1039300006FA02FC24EA09084CEA080CBEF1020F60
:103940006FEA0904C0F80CC07FF44AAF4FEAD30E07
:1039500000EB8E0E03F00708DEF8206001960E697A
:103960004FEA880806FA08FC4FF00F09019E09FA91
:1039700008F826EA08094CEA090CCEF820C02FE71F
:103980004FF0010808FA0EFE4CEA0E0C86E74FF0E5
:10399000020808FA0EFE4CEA0E0C7FE74FF003080F
:1039A00008FA0EFE4CEA0E0C78E74FF0040808FA0D
:1039B0000EFE4CEA0E0C71E74FF0070808FA0EFEF7
:1039C0004CEA0E0C6AE74FF0050808FA0EFE4CEAC6
:1039D0000E0C63E74FF0060808FA0EFE4CEA0E0CD8
:1039E0005CE74FF0080808FA0EFE4CEA0E0C55E7AB
:1039F0000000024000080240000C0240001002409B
:103A00000014024000180240003C0140003802400F
:103A1000001C0240002002400024024003691942B9
:103A200014BF01200020704702B90904816170476A
:103A3000436931EA030308BF09048161704700BF8D
:103A4000044A5169014200D1704708B5506107F03E
:103A5000EFFD08BD003C0140002800F0B98070B5C2
:103A600090F83D30044603F0FF02002B00F09880F0
:103A70002368242284F83D201A6822F001021A608B
:103A80001A6842F400421A601A6822F400421A606E
:103A900001F0E0F863684F498B424FD84E4A90429C
:103AA0007CD94E4D5A00A5FB0035431EB3FBF2F303
:103AB0002268506820F03F0040EA95405060A90C11
:103AC00001F1010C116A21F03F0141EA0C01116280
:103AD000D16940F6FC7E013321F44F4113EA0E0F09
:103AE00021F0FF0161D104230B43D361D4E90730F6
:103AF0001168034321F0C0010B4313609168D4E9BE
:103B0000030321F40341034321F0FF010B439360BE
:103B1000D4E90530D168034321F0FF010B43D360A2
:103B20001168002341F0010120201160236484F812
:103B30003D00236384F83E30184670BD284A904209
:103B40002CD9264D274EA5FB002C2268556825F060
:103B50003F0545EA9C4555604FEA9C414FF49675F8
:103B600005FB01F1A6FB0151156A890925F03F0506
:103B7000013129431162D169A56821F44F4121F037
:103B8000FF01ADB9013803EB4303B0FBF3F301339D
:103B9000C3F30B03D3B143F40043A5E7012070BD89
:103BA00080F83C20FDF712F962E7C3F30B039BE7B3
:103BB00003EB8303013803EB8303B0FBF3F301331F
:103BC000C3F30B0313B143F440438DE701238BE7A9
:103BD00001207047A08601007F841E0083DE1B4306
:103BE000FF083D00D34D621090F83D20202A034687
:103BF0005FFA82FC01D0022070470268242083F81B
:103C00003D00106820F001001060506A20F01000A4
:103C10005062506A01435162116841F00101116024
:103C2000002083F83DC0704790F83D20202A01D045
:103C30000220704710B45FFA82FC0468242280F8E6
:103C40003D20226822F0010222600346606A4FF69E
:103C5000F07202400A4392B26262226842F00102AC
:103C6000226083F83DC000205DF8044B704700BF20
:103C7000F0B58BB0002800F0858090F8BD33046863
:103C8000054603F0FF02002B76D02046032385F87B
:103C9000BD33E36B2E4613F4807308BF2B6103F032
:103CA000B1FE56F810EBB446BCE80F006C460FC4EA
:103CB000BCE80F000FC49CE8030084E803002F1D3C
:103CC00097E80E00704603F0B1FD044630B10124C0
:103CD0000223204685F8BD330BB0F0BD01462868AD
:103CE00003F098FE686858B322464FF0010E214653
:103CF000C2EBC20305EB830302F1010C83F83C2005
:103D0000A3F842205FFA8CF28242C3E9111183F8D2
:103D10003DE083F83F101965EAD30022C4EBC403E9
:103D200005EB8303611C83F8FC41CCB28442C3E9F8
:103D3000812283F8FD2183F8FF21C3F81022EDD3FF
:103D40000FCE6C460FC40FCE0FC496E8030084E874
:103D5000030097E80E00286803F074FE044600286C
:103D6000B5D1012385F83800286885F8BD3304F003
:103D70007DFA20460BB0F0BD80F8BC23FEF714FDA1
:103D8000286883E7012420460BB0F0BD10B590F8F9
:103D9000BC33012B0446006816D0A36A012293426B
:103DA00084F8BC2308D003F025FE206804F04EFA06
:103DB000002084F8BC0310BDA3699342F3D0836B49
:103DC00043F480338363EEE7022010BD2DE9F04F0A
:103DD000076887B00446384604F086FA10B107B089
:103DE000BDE8F08F8346206804F050FA0028F6D032
:103DF000206804F04BFA10F0020F20681EBF4369E0
:103E000003F00203436104F041FA10F0100F206840
:103E100012D0836923F0100383613D6AC5F34343E5
:103E2000022B05F00F0600F04382062B00F098816C
:103E3000836943F01003836104F028FA10F4002F23
:103E4000206840F0B48004F021FA10F4802F20683C
:103E50005AD104F01BFA002842DB206804F016FA5D
:103E6000010532D4206804F011FAC30400F1158171
:103E7000206804F00BFA10F4005F206840F0F68030
:103E800004F004FA070700F1E880206804F0FEF966
:103E9000C60200F1D880206804F0F8F9850200F12C
:103EA000C880206804F0F2F9400000F1B980206871
:103EB00004F0ECF9410792D523685D686A0700F1C8
:103EC00018825A682A435A6089E7D7F80838DA070F
:103ED00000F10B822068436903F400634361C2E789
:103EE000D7F8042822F00102C7F8042894F8F43324
:103EF000012B00F02E812046FEF7E4FC2068436988
:103F000003F000434361A9E704F0CCF98046206840
:103F1000B8F1000F9DD0CDE9027B264607F5106968
:103F20004FF0000A09E05FEA58080AF1010A06F1B9
:103F30001C0609F1200900F0288118F0010FF2D0C9
:103F40005FFA8AF7394604F0BFF9C307054615D56D
:103F500002990120D1F834380AF00F0200FA02F277
:103F600023EA0203C1F834382169C9F80800814204
:103F700000F0C48139462046FEF768FC280744BF9C
:103F80000823C9F80830E90644BF1023C9F80830EF
:103F90006A0644BF4023C9F80830AB0744BF022378
:103FA000C9F80830280600F12D812068BBE704F02D
:103FB00071F905462068002D3FF445AF07F53066DE
:103FC000A2464FF00008029708E06D0808F10108CA
:103FD00006F120060AF11C0A00F0D580EF07F4D59F
:103FE0005FFA88F7394604F065F9814619F0010F48
:103FF000206840F0E88019F0080F40F0C98019F0FF
:10400000100F1CBF1023B36019F0200F1CBF20231A
:10401000B36019F4005F1CBF4FF40053B360D4E7E2
:104020002046FEF75BFC2068436903F08043436150
:104030003EE720460021FEF749FC2068436903F46F
:10404000001343612EE720460021FEF743FC206861
:10405000436903F4801343611EE72046FEF700FC2A
:104060002068436903F0080343610FE704F040F957
:10407000206803F0EBFDE060256800F0E5FD227BA1
:104080000146284603F03CFC2046FEF7EDFB206885
:10409000436903F400534361F2E6D7F8043820681B
:1040A00023F001031021C7F8043803F0BDFD606858
:1040B00007F5006500B307F510634FF67F3199608F
:1040C0001A6822F400121A601A6842F000621A603C
:1040D000C3F80812D3F8002222F40012C3F8002219
:1040E000D3F800220BF1010B42F000628345C3F8C4
:1040F000002203F12003E2D1EB69226B43F00113AC
:10410000EB61DAB96B6943F4005343F02B036B6145
:104110002B6943F00B032B61D7F80038217C206812
:1041200023F4FE63C7F8003804F5717204F0F2F866
:104130002068436903F4805343619AE6D5F88430DC
:1041400043F00B03C5F884306B6C43F00B036B64D6
:10415000E2E7002184F8F413204600F0C5FACDE62A
:10416000082204F571713846C6EBC60603F0F4FF69
:1041700004EB8602C5F30A13D2F8141220680B442C
:10418000C2F8143254E6029F5DE6DDE9027B60E688
:104190000823B360026C00EB48138F48D3F8081B68
:1041A000824203F5306340F2BB800A0402D54FF42B
:1041B00000429A602046FEF739FB2169012900F090
:1041C000DA8020681BE70122B2602169D0F840C084
:1041D00000F5306202EB48120129936800F0A580D7
:1041E0007E498C4500F0BA80B8F1000F04D1D4F8B4
:1041F0001022002A00F0EA8020463946FEF71CFB18
:104200002068F8E6D6E91453D4F800B0AB4258461B
:104210003FF689AE0BF5106202EB4A121146964644
:10422000726C8969CDF814B0A5EB030C624528BF08
:10423000624689B20332B1EB920FC0F08B80CDF8A9
:104240001090C146A046744619E0736CB16C9D4253
:1042500028BF1D4698F8103000933A46ABB2584636
:1042600003F064FFB36CA1692B44B364736D89B22E
:104270002B440335B1EB950F736563D3356DAB42BA
:10428000A5EB0305E1D34446C846D4F800B0DDF8F9
:104290001090059B0AF00F0203F500610125D3F889
:1042A000343805FA02F223EA020358464B633AE631
:1042B00047F6F0731D423FF4BBADC6EBC60604EBF8
:1042C0008606C5F30A12D6F808123846154603F0DA
:1042D00043FFD6F8083220682B44C6F80832D6F8D7
:1042E00014322B44C6F81432A2E52046FEF7D2FA67
:1042F000F0E52046FEF7F6FA2368E2E5D6E9112359
:104300001344B364BAF1000F7FF434AE236D002B75
:104310007FF430AE206804F5717203F0FBFF29E6EC
:104320002046FEF783FA206869E619071ED52A4958
:104330008C457FF660AE1F047FF55DAE4FF4004301
:10434000936058E64446356DD4F800B0C846DDF8B1
:10435000109058469D423FF6E6AD9AE71904EDD419
:1043600099067FF549AF2021916045E7990608D568
:10437000202393603FE6206804F5717203F0CAFFC2
:104380001FE713F0280F7FF436AE13498C4501D98F
:104390001B04D3D41269DAF80412C2F312028A1A87
:1043A000CAF81422DAF808220A44CAF80822B8F136
:1043B000000F7FF421AFD4F81022002A7FF41CAF45
:1043C00004F57172012103F0A5FF15E704F5717280
:1043D000414603F09FFF0FE70A30544F0A31544F14
:1043E00090F8BC23012A0DD010B5044601220068C4
:1043F00084F8BC2384F8381003F018FF002084F8F8
:10440000BC0310BD0220704710B501F00F0E090665
:10441000044627D44FF01C0C0CFB0E0C0CF5FE715F
:10442000CEEBCE0C00EB8C0C00208CF8FD018A60EA
:104430004A7881F800E0CB700AB1A1F806E0022BBF
:1044400004BF00230B7194F8BC33012B18D0012357
:1044500084F8BC33206803F005FC002384F8BC33E7
:10446000184610BD1C2000FB0E4000F13C01CEEBB5
:10447000CE0004EB80004FF0010C80F83DC0D6E781
:10448000022010BD01F00F03C3EBC30211F0800F37
:104490004FF01C0110B500EB8202044601FB030142
:1044A00013D101F5FE71002082F8FD010B7094F824
:1044B000BC33012B12D00123206884F8BC3303F0F5
:1044C0001DFC002084F8BC0310BD3C31012082F8A3
:1044D0003D000B7094F8BC33012BECD1022010BDD1
:1044E00010B501F00F04C4EBC40C00EB8C0C1C21C4
:1044F000CCF810320023CCF808228CF8FC41CCF820
:1045000014328CF8FD31036901FB0401012B08BF53
:10451000CCF80C22006801F5FE71DAB21CB903F088
:104520005BFD002010BD03F04BFC002010BD00BF60
:1045300001F00F01C1EBC10100EB8101D1F81402C0
:10454000704700BF10B501F00F04C4EBC40C00EBC2
:104550008C0C1C21CCF850300023CCF854300123B3
:10456000CCF848208CF83C408CF83D30036901FBC6
:104570000401012B08BFCCF84C2000683C31DAB2B2
:104580001CB903F029FD002010BD03F019FC002028
:1045900010BD00BF38B5436801F00F059D4233D808
:1045A0000B0604461CD4C1EBC1031C2202FB010113
:1045B00000EB830301F5FE71002283F8FD21012346
:1045C0008B700D7094F8BC239A421BD0206884F83D
:1045D000BC3303F0D1FDCDB1002084F8BC0338BD5D
:1045E000C5EBC5031C2101FB050100EB8303012280
:1045F0003C3183F83D2001238B700D7094F8BC236F
:104600009A42E3D1022038BD012038BD217C2068C8
:1046100004F5717203F07EFEDEE700BF426838B534
:1046200001F00F0393422ED8C3EBC30211F0800FA9
:104630004FF01C01044600EB820201FB030115D17F
:1046400001F5FE710020002582F8FD018D700B70D0
:1046500094F8BC33012B14D00123206884F8BC33B8
:1046600003F0B8FD84F8BC53284638BD3C31012026
:10467000002582F83D008D700B7094F8BC33012B3F
:10468000EAD1022038BD012038BD00BF10B4046853
:10469000606A31B940EA0240A06200205DF8044B34
:1046A0007047A36AB1F1010C00EB13400BD000235B
:1046B00003F1400104EB810101334968DBB263453A
:1046C00000EB1140F4D30CF1400C04EB8C0C40EAED
:1046D0000240CCF804005DF8044B0020704700BF96
:1046E0000368002059627047704700BF002800F03F
:1046F0009C812DE9F0410368DD0782B004462FD587
:104700009E498A6802F00C02042A00F0ED808A6853
:1047100002F00C02082A00F0E3806368B3F5803FE2
:1047200000F0EC80B3F5A02F00F06F81934D2A6864
:1047300022F480322A602A6822F480222A60002B28
:1047400040F0E180FEF7C2F9064605E0FEF7BEF94B
:10475000801B642800F201812B689B03F6D4236838
:104760009F0728D5854A916811F00C0F00F09080C2
:10477000916801F00C01082900F08680E368002BA5
:1047800000F00E817E4B7D4E01221A60FEF79EF9ED
:10479000054605E0FEF79AF9401B022800F2DD808D
:1047A00033689807F6D53368226923F0F80343EAA3
:1047B000C203336023681A0751D458072FD56F4AB4
:1047C000136C13F080537FD000256E4E3368D905EB
:1047D00040F1B380A368012B00F0C380052B00F0EB
:1047E0002681664E326F22F001023267326F22F06C
:1047F00004023267002B40F0B980FEF767F941F2FE
:104800008838074605E0FEF761F9C01B404500F215
:10481000A480336F9807F6D4002D40F00081A06982
:10482000C8B1564DAB6803F00C03082B00F0C980EB
:10483000534B002202281A6600F00381FEF746F966
:10484000044605E0FEF742F9001B022800F28580CD
:104850002B689B01F6D4002002B0BDE8F0816369AB
:104860000BB3474B454E0122C3F8802EFEF72EF9BD
:10487000054604E0FEF72AF9401B02286DD8736F45
:104880009B07F7D5236898E7526856023FF576AF45
:104890003A4A1268950744D5E268012A41D00120BE
:1048A00002B0BDE8F081364A344EC2F8803EFEF7D1
:1048B0000DF9054604E0FEF709F9401B02284CD823
:1048C000736F9F07F7D4DDE70193136C43F08053B8
:1048D0001364136C03F080530193019B012574E76B
:1048E0004A6850027FF519AF244A126891037FF598
:1048F00037AF6268002A7FF433AFD0E71F4A1368EE
:1049000043F480331360FEF7E1F81C4E054604E0E3
:10491000FEF7DCF8401B64281FD833689A03F7D5EC
:104920001DE7164920690A6822F0F80242EAC0022F
:104930000A601A077FF541AF91E7336843F480734B
:104940003360FEF7C3F807463368DA053FF542AF38
:10495000FEF7BCF8C01B0228F6D9032002B0BDE860
:10496000F081064A136F43F001031367FEF7AEF8B8
:10497000024F064641F288380BE000BF0038024083
:104980000000474200700040FEF7A0F8801B404541
:10499000E3D83B6F9B07F7D5002D3FF440AF3EE0D7
:1049A0003E4A3F4E1360FEF791F8054604E0FEF7DD
:1049B0008DF8401B0228D0D833689907F7D42368B4
:1049C000F9E601283FF448AF6B68E26903F480011F
:1049D00091427FF464AF226A03F03F0191427FF479
:1049E0005EAF616A47F6C0721A408A427FF457AFE1
:1049F000A26A03F4403191427FF451AFE06A03F0C0
:104A00007063181A18BF012026E7254B1A6842F474
:104A100080221A601A6842F480321A6073E7204AD2
:104A2000136C23F080531364F9E6012070471C4B8C
:104A30001A6F42F004021A671A6F42F001021A67F5
:104A400094E7FEF743F8064604E0FEF73FF8801BC4
:104A5000022882D82B689901F7D4D4E90731626A19
:104A60000B4343EA8213D4E90A21520843EA016363
:104A7000013A0A4943EA024301226B600A66FEF7E3
:104A800025F8074D044605E0FEF720F8001B022834
:104A90003FF663AF2B689A01F6D5DCE6000047428B
:104AA00000380240164908B58B6803F00C03042B4C
:104AB0001BD0082B17D14A684B68496813F4800350
:104AC00002F03F0213D10F48C1F38811A1FB00018E
:104AD000FBF78EFB0A4B5B68C3F3014301335B00BA
:104AE000B0FBF3F008BD074808BD074808BD0648FD
:104AF000C1F388110023A1FB0001FBF779FBE9E773
:104B0000003802400024F400001BB700002800F029
:104B10008780484A136803F00F038B422DE9F04168
:104B20000D46044609D2CBB21370136803F00F038D
:104B30008B4202D00120BDE8F0812368980714D58C
:104B4000590704D53C498A6842F4E0528A601A0742
:104B500004D539498A6842F460428A603649A068BF
:104B60008A6822F0F00202438A60DF0721D562687A
:104B7000012A57D0931E012B2F4B1B684DD9990743
:104B8000D8D52D4EB36823F003031343B360FDF76C
:104B90009DFF41F28838074604E0FDF797FFC01BF0
:104BA000404544D8B368626803F00C03B3EB820F4E
:104BB000F3D1204A136803F00F03AB4206D9EBB2DE
:104BC0001370136803F00F03AB42B3D123685A0785
:104BD00006D51949E0688A6822F4E05202438A60E7
:104BE0001B0707D5144A2169936823F4604343EAFD
:104BF000C1039360FFF756FF0F4A104C92681049AB
:104C0000C2F303120346A25C0E48D34000680B6057
:104C1000FCF790FB0020BDE8F0819801B1D489E752
:104C200001207047044B1B689E03AAD482E703202F
:104C300081E700BF003C02400038024018BC000879
:104C40000400002070000020014B1868704700BF6E
:104C500004000020044B05499B68054A0868C3F31B
:104C60008223D35CD8407047003802400400002003
:104C700028BC0008044B05499B68054A0868C3F333
:104C80004233D35CD8407047003802400400002013
:104C900028BC00080E4B0F2202609A6802F0030243
:104CA00042609A6802F0F00282609A6802F4E05270
:104CB000C2609B68DB0810B403F4E053054C036149
:104CC00023685DF8044B03F00F030B60704700BFCF
:104CD00000380240003C0240836B1A68D36B43F4F7
:104CE0008073D363704700BF2DE9F04188B005465B
:104CF0000F46FDF7EBFE0022002306460821286838
:104D0000CDE9002301F04AFD044618B1204608B061
:104D1000BDE8F081296D2868090402F003FA044611
:104D20000028F3D14FF0FF320823CDE902233022CF
:104D30000223CDE9042302A9002201232868CDE93A
:104D4000062301F015FD286802F064FB04460028E4
:104D5000DCD140F22A482868426B12EA080F426B05
:104D600017D1910207D4FDF7B1FE801B0130F2D1BB
:104D70004FF00044CAE701F0DFFC08AB03EB84030B
:104D8000013443F8200CFDF7A1FE801B0130E2D175
:104D9000EEE7120713D4426B93070DD4446B14F063
:104DA00020040FD1DDE9002140F23A5309BA12BACA
:104DB0008363C7E90012A9E702248463A6E70824F5
:104DC0008463A3E720248463A0E700BF2DE9F041BA
:104DD000044686B0002958D090F834000128C5B2A6
:104DE00040D117461E46E26DB81900239042A363D6
:104DF00007D9A36B43F00073A363284606B0BDE850
:104E0000F0810A462168032084F83400CB62C86B25
:104E100040F44A7040F00200C863206C0365364BD2
:104E2000C3634FEA4628354BC36480314FEA980389
:104E3000FEF766FBD8B9324B2068C3F88C55636C1B
:104E40004FF40071012B18BF7F0201F0A7FC28B3BB
:104E500023682C4A9A63A36B01221843A06384F849
:104E60003420CAE70225284606B0BDE8F081236851
:104E70002449DA6B22F49572DA639963A36B43F0E9
:104E80008043A36384F83450B7E7836B012543F074
:104E900000638363284606B0BDE8F08101230593D3
:104EA0004FF0FF330490009390200223CDE90203DA
:104EB00069462068CDF8048001F05AFC012E12D911
:104EC000822320682363394601F0A6FD90B1236850
:104ED0000C4A9A63A36B012218430023A06384F851
:104EE0003420236389E7812320682363394601F056
:104EF000F3FCEBE7054680E765500008AD5000087D
:104F000000802542FF0540002DE9F041044686B0AF
:104F1000002976D0154690F83420012A5FFA82F8ED
:104F20003BD11F46C26D0E46E919002391428363AF
:104F300039D800684649032284F83420C362C26B22
:104F400042F4067242F00202C263E26B1365636CC4
:104F5000D1634049D164012B4FF4007118BF6D0239
:104F600001F01CFC002856D1012F294623D9A0238B
:104F70002068236301F08EFE054625B32368364A78
:104F80009A63A06B0122054300234046A56384F881
:104F90003420236306B0BDE8F0814FF0020840469C
:104FA00006B0BDE8F081836B43F000738363404635
:104FB00006B0BDE8F08190232068236301F0CCFDAA
:104FC0000546002DDAD12268244BE06B7F02314682
:104FD0000126C3F88C658032BB08FEF791FA38B31E
:104FE00022681D49D36B23F4067323F00203D363B5
:104FF0009163A36B43F08043A36384F8346025631B
:10500000CDE7836B4FF0010843F0006383634046B4
:1050100006B0BDE8F08123680F4A9A63A36B18437A
:10502000A0630122404684F8342006B0BDE8F08138
:105030004FF0FF3300932068059690236946CDE931
:105040000173CDE90355A84601F092FBA7E700BF25
:10505000D94C0008AD500008FF05400000802542F3
:10506000704700BF10B5846B236B822B10D0236870
:10507000DA6A40F23A5022F00802DA6201219863BB
:10508000002384F8341020462363FDF7C3F810BDD5
:10509000206801F09FFE03460028E8D0A26B13436E
:1050A0002046A363FFF7DCFFE1E700BF10B5846B88
:1050B000FEF768FB02280AD0D4E90F235B6D526D1E
:1050C000012B05D0012A03D02046FFF7C9FF10BDF0
:1050D0002068154B8363C36B216D23F49D73C363F9
:1050E000A36B43F080430904A36302F0FFFA014677
:1050F00058B1A36B1943A1630122002384F8342023
:1051000020462363FFF7ACFFE1E7206801F02CFBAA
:10511000C0F3432005380128EED8206801F05AFE7C
:10512000A36B1843A063E7E7FF05400038B5846B25
:10513000216D206840F23A538363090402F0D6FAE5
:10514000054680B1A06B012228430023A06384F8A8
:1051500034202363A36B204613B9FDF753F838BD01
:10516000FFF77EFF38BD2068294601F0FDFAC0F345
:10517000432001230538984284F834302563E9D868
:10518000206801F027FEA36B1843A063E2E700BF8D
:105190002DE9F04104460068256B436B1A0482B088
:1051A0001DD52B0700F1C080436BDB056BD54FF499
:1051B00080738363C36B23F4434323F03A03C363D5
:1051C000C36A23F00103C362290605D5AA0600F1CC
:1051D000FA80AB0700F0C98002B0BDE8F081436BF4
:1051E000DF0523D54FF480738363C36B23F44343FC
:1051F00023F03A03C363C36A2E0723F00103C3629B
:10520000E2D515F0220F40F0BE8040F23A5383639E
:105210000122002384F8342020462363AC0700F0E9
:10522000AD80FCF7F7FF02B0BDE8F081436B5F048F
:105230002AD52E0728D5666A002ECDD0276A07F119
:10524000040807F1240500E0206818F8043C0193E5
:1052500018F8032C43EA0223019318F8022C43EABE
:105260000243019318F8012C01A943EA026308F1F3
:105270000408019301F064FAA845E5D12037203EE7
:10528000C4E90876A8E7436B426B40F23A231A421E
:10529000A2D0436B990703D5A36B43F00203A3632A
:1052A000436B1A0703D5A36B43F00803A363436B57
:1052B0009B0603D5A36B43F02003A363436BDF0678
:1052C00003D5A36B43F01003A363436B9E0503D583
:1052D000A36B43F00803A36340F23A738363C36B89
:1052E00023F44E7323F00203C36301F073FDA36B39
:1052F000290740EA0300A0634BD42A067FF56CAF70
:1053000015F0300F55D115F0030569D0206C394BDD
:105310000365FEF735F900283FF45EAF206C02B05C
:10532000BDE8F041FFF702BFE66A002E3FF454AF3C
:10533000A76A07F1040807F1240500E0206801F0DE
:10534000FBF908F8040C020A030C000E08F8032C01
:1053500008F8023C08F8010C08F10408A845EDD152
:105360002037203EC4E90A7636E72268D36A012155
:1053700023F00803D362204684F83410FCF746FF7C
:1053800002B0BDE8F08101F025FD034650B9206868
:105390003BE70122002384F8342020462363FFF7F3
:1053A0005FFE19E7A26B13432046A363FFF758FE85
:1053B000EDE7E06B104B0365FEF7E2F800283FF4E1
:1053C0000BAFE06BABE701F005FD034600283FF4AF
:1053D00000AFA26B13432046A363FFF741FEF8E63C
:1053E0000123A563204684F834302563FCF70AFFC7
:1053F000F2E600BFFD5300082D51000838B5846B5C
:10540000216D206840F23A538363090402F06EF97B
:10541000054680B1A06B012228430023A06384F8D5
:1054200034202363A36B204613B9FCF7EBFE38BD91
:10543000FFF716FE38BD2068294601F095F9C0F344
:10544000432001230538984284F834302563E9D895
:10545000206801F0BFFCA36B1843A063E2E700BF24
:10546000426E10B40346940FC2F383600C70487010
:10547000C2F30164C2F307408C70C870C2F3072006
:10548000D2B208714A719A6E140DCC80C2F30344F3
:105490000C72C2F3C0344C72C2F380348C72C2F30B
:1054A0004034CC720020C2F300340C734873586C43
:1054B00000286FD1D86E40F6FC7404EA820242EAFA
:1054C0009072C0F3C2640A610C75C0F34252C0F31B
:1054D00002644C758A75C0F38244C0F3C232CC7545
:1054E0000A760A690C7E04F007040132023402FADB
:1054F00004F45C650A7A02F00F0C012202FA0CF245
:105500009A65520A04FB02F24FF40074C3E91724AF
:10551000C0F38034C0F3C61200F07F004C768A7668
:10552000C8761B6FDC0FC3F341720C774A77C3F365
:105530008264C3F383528C770020CA77C3F340544C
:10554000C3F3004281F8204081F82100C3F3C03446
:1055500081F82220C3F3803281F8234081F824208F
:10556000C3F34034C3F3003281F8254081F826208C
:10557000C3F38124C3F3012281F82740C3F3460318
:1055800081F82820012281F8293081F82A205DF84D
:10559000044B7047012810D1D86E120402F47C121B
:1055A00042EA10420A610A6901324FF40074920221
:1055B000C3E916425A651C66AAE71A680649916350
:1055C0009A6B012142F080529A6383F834100846A6
:1055D0005DF8044B704700BFFF054000F0B50022A6
:1055E00099B0002500247623CDE90845CDE90A23AA
:1055F00009ABCDE90645054693E807008DE80700AD
:1056000006AB0ECB286801F07BF818B101263046B6
:1056100019B0F0BD704E044601272868C6F8A040B6
:1056200001F094F8C6F8A0702868059401F018FD00
:10563000044658B9286801F039FD80B9AF6428687C
:10564000002101F06FFDA0B14FF08054012685F8D4
:105650003460AB6B30461C43AC6319B0F0BD2868B6
:10566000AC6401F0FDFC002840F0B180AB6C012B74
:10567000E5D0059A4FF6FE739A421FD8574E4FF663
:10568000FE7712E0286801F0EDFD21460028DBD10D
:10569000286801F069F8059B01330593059BBB421F
:1056A00004464FEAD07209D842B90021286801F0B7
:1056B00039FD314604460028E4D0C7E7059A4FF685
:1056C000FE739A4200F28580C4F380740123286837
:1056D0006C64ADF8123001F043F8002871D06B6CA7
:1056E000032B1FD10421286801F03EF8000DE86467
:1056F0000DA92846FFF7B4FE0646002864D12A6D9E
:1057000028681204334601F00BFC78B92B1D55F8BC
:10571000104B95E807008DE8070020460ECB00F0FF
:10572000EFFF74E7286801F017FF30B1012685F814
:105730003460AB6B1843A86369E70146286801F041
:1057400013F8034604216B67286801F00DF803463F
:10575000AB670821286801F007F80C21E867286882
:1057600001F002F86B6CC5F88000032BBAD02868F2
:105770000DF1120101F064FF0028D7D16B6C032BEF
:10578000B0D0BDF8121029652868090401F01CFF8B
:105790000028CBD10146286800F0E6FF034604212B
:1057A0006B66286800F0E0FF03460821AB662868B6
:1057B00000F0DAFF0C21E866286800F0D5FF2867C2
:1057C00090E74FF08060B1E74FF08050AEE70446BD
:1057D0003CE74FF0807439E700802542000010C19B
:1057E000C8B110B590F83430044603F0FF0273B12D
:1057F000032384F834302046FFF7F0FE28B9012354
:10580000A063206384F8343010BD012010BD0277FE
:10581000FBF7BAFBECE70120704700BFF0B4D0E91A
:1058200012C7D0E91465D0E91642036E406CC1E995
:105830000276C1E9000CC1E904540020F0BCC1E9C2
:105840000623704770B5436C032293428AB0044626
:1058500080F834200D4628D0B1F5805F25D0B1F511
:10586000006F51D0002930D0836B43F00063836315
:10587000A66B0EBBD4E90523CDE9075209930AAB09
:1058800013E90700636804938DE80700D4E9021266
:10589000CDE9051204AB0ECB206800F031FF0123E7
:1058A000304684F834300AB070BDA36B43F08053A7
:1058B000A363A66B002EDDD00123226825499163E6
:1058C000184684F834300AB070BD00220023006806
:1058D000CDE9042300F048FF820134D404A9204616
:1058E000FFF702FA60B9059BDB032FD5216D206815
:1058F000090401F017FC18B90146206801F0EAFC20
:10590000A36B1843A063D4E70022002300680021A2
:10591000CDE9042300F028FF800114D404A9204617
:10592000FFF7E2F90028EBD1059B59030ED5216D55
:105930002068090401F0F6FB0028E1D1206802216B
:1059400001F0C8FCDCE74FF40060D9E74FF080605D
:10595000D6E700BFFF054000016D10B509040446FD
:10596000006801F0C3FE014620B1A36B194300207B
:10597000A16310BD206800F0F7FEC0F3432010BD06
:10598000704700BF704700BF704700BF704700BF3F
:10599000704700BF704700BF704700BF704700BF2F
:1059A00000284CD038B5044690F851200020A06261
:1059B00002F0FF01BAB9244A2448A265244A84F8B7
:1059C0005010C4E917022349234A2448A36FC4E9AD
:1059D00019122349234A6267C4E91B01002B30D006
:1059E00020469847A06AE2682568D4E901310B4354
:1059F0001343D4E904120B431343E269022184F8F0
:105A000051101343226A29681343A26921F040010F
:105A1000296002F4007C616A120C43EA0C0302F074
:105A2000040203430A432B606A60EB69002023F4FD
:105A300000630122EB61606584F8512038BD0120CC
:105A40007047094BA367CBE78559000889590008BF
:105A50008D59000891590008955900089959000876
:105A60009D590008815900087D110008704700BF4A
:105A7000704700BF704700BF704700BF704700BF4E
:105A8000704700BF704700BF704700BF704700BF3E
:105A9000704700BF002800F0908010B590F83D30AE
:105AA000044603F0FF0203BB036C464884F83C2025
:105AB000454A4649A167C4E91F024549454A464847
:105AC000C4E92112454A4649C4E92302454A4648E9
:105AD000C4E92512454A4649C4E92702454AC4E9B2
