:020000040800F2
:1000000000000220A1980008111300081513000831
:10001000191300081D130008211300080000000038
:10002000000000000000000000000000517B0008FC
:100030002513000800000000E17B0008AD780008EF
:10004000F1980008F1980008F1980008F19800086C
:10005000F1980008F1980008F1980008F19800085C
:10006000F19800082913000831130008F1980008DE
:1000700039130008F1980008F1980008F198000879
:10008000F1980008F1980008F1980008451300085D
:1000900051130008F1980008F19800085D1300085A
:1000A000F1980008F1980008F1980008F19800080C
:1000B000F198000865130008F1980008F19800080D
:1000C000F1980008F1980008F1980008F1980008EC
:1000D000F198000871130008F198000889130008CE
:1000E000F1980008F1980008F1980008F1980008CC
:1000F000F1980008F1980008F1980008F1980008BC
:10010000F1980008F1980008F1980008F1980008AB
:10011000F1980008F1980008F1980008F19800089B
:10012000F1980008A1130008AD130008C9130008D6
:10013000F1980008F1980008F1980008D51300081C
:10014000E1130008F1980008F1980008ED13000889
:10015000F913000805140008111400081D14000804
:10016000F1980008F1980008F1980008F19800084B
:10017000F1980008F1980008F198000800000000CC
:08018000F1980008F198000855
:1001900010B5054C237833B9044B13B10448AFF3C1
:1001A00000800123237010BD6801002000000000C2
:1001B0008CBB000808B5034B1BB103490348AFF3E0
:1001C000008008BD000000006C0100208CBB00080E
:1001D00010F8012B11F8013B012A28BF9A42F7D0F1
:1001E000D01A704781F0004102E000BF83F0004365
:1001F00030B54FEA41044FEA430594EA050F08BFC2
:1002000090EA020F1FBF54EA000C55EA020C7FEA85
:10021000645C7FEA655C00F0E2804FEA5454D4EB02
:100220005555B8BF6D420CDD2C4480EA020281EACC
:10023000030382EA000083EA010180EA020281EA04
:100240000303362D88BF30BD11F0004F4FEA013156
:100250004FF4801C4CEA113102D0404261EB410165
:1002600013F0004F4FEA03334CEA133302D05242EB
:1002700063EB430394EA050F00F0A780A4F10104A7
:10028000D5F1200E0DDB02FA0EFC22FA05F28018E1
:1002900041F1000103FA0EF2801843FA05F35941C7
:1002A0000EE0A5F120050EF1200E012A03FA0EFC46
:1002B00028BF4CF0020C43FA05F3C01851EBE37170
:1002C00001F0004507D54FF0000EDCF1000C7EEB8D
:1002D00000006EEB0101B1F5801F1BD3B1F5001FCB
:1002E0000CD349085FEA30004FEA3C0C04F10104EA
:1002F0004FEA445212F5800F80F09A80BCF1004F13
:1003000008BF5FEA500C50F1000041EB045141EA94
:10031000050130BD5FEA4C0C404141EB0101013C5D
:1003200028BFB1F5801FE9D291F0000F04BF01464C
:100330000020B1FA81F308BF2033A3F10B03B3F11E
:1003400020020CDA0C3208DD02F1140CC2F10C02AE
:1003500001FA0CF021FA02F10CE002F11402D8BF0C
:10036000C2F1200C01FA02F120FA0CFCDCBF41EAD8
:100370000C019040E41AA2BF01EB0451294330BDA7
:100380006FEA04041F3C1CDA0C340EDC04F1140484
:10039000C4F1200220FA04F001FA02F340EA03005B
:1003A00021FA04F345EA030130BDC4F10C04C4F1A1
:1003B000200220FA02F001FA04F340EA0300294681
:1003C00030BD21FA04F0294630BD94F0000F83F4CB
:1003D000801306BF81F480110134013D4EE77FEAAE
:1003E000645C18BF7FEA655C29D094EA050F08BFFA
:1003F00090EA020F05D054EA000C04BF19461046DB
:1004000030BD91EA030F1EBF0021002030BD5FEA1E
:10041000545C05D14000494128BF41F0004130BD46
:1004200014F580043CBF01F5801130BD01F000459A
:1004300045F0FE4141F470014FF0000030BD7FEA0D
:10044000645C1ABF194610467FEA655C1CBF0B4608
:10045000024650EA013406BF52EA033591EA030F1F
:1004600041F4002130BD00BF90F0000F04BF002117
:10047000704730B54FF4806404F132044FF000054A
:100480004FF0000150E700BF90F0000F04BF0021C3
:10049000704730B54FF4806404F1320410F0004529
:1004A00048BF40424FF000013EE700BF42004FEA24
:1004B000E2014FEA31014FEA02701FBF12F07F43A1
:1004C00093F07F4F81F06051704732F07F4208BF58
:1004D000704793F07F4F04BF41F40021704730B55F
:1004E0004FF4607401F0004521F000411CE700BFAB
:1004F00050EA010208BF704730B54FF000050AE02E
:1005000050EA010208BF704730B511F0004502D52E
:10051000404261EB41014FF4806404F132045FEA30
:10052000915C3FF4D8AE4FF003025FEADC0C18BFD9
:1005300003325FEADC0C18BF033202EBDC02C2F1CB
:10054000200300FA03FC20FA02F001FA03FE40EA5D
:100550000E0021FA02F11444BDE600BF53B94AB9B6
:10056000002908BF00281CBF4FF0FF314FF0FF30BB
:1005700000F074B9ADF1080C6DE904CE00F006F896
:10058000DDF804E0DDE9022304B070472DE9F0470F
:10059000089D04468E46002B4DD18A42944669D967
:1005A000B2FA82F252B101FA02F3C2F1200120FA4A
:1005B00001F10CFA02FC41EA030E94404FEA1C4898
:1005C000210CBEFBF8F61FFA8CF708FB16E341EA94
:1005D000034306FB07F199420AD91CEB030306F11A
:1005E000FF3080F01F81994240F21C81023E63443B
:1005F0005B1AA4B2B3FBF8F008FB103344EA0344DF
:1006000000FB07F7A7420AD91CEB040400F1FF33F3
:1006100080F00A81A74240F207816444023840EA30
:100620000640E41B00261DB1D4400023C5E9004369
:100630003146BDE8F0878B4209D9002D00F0EF80EC
:100640000026C5E9000130463146BDE8F087B3FA1F
:1006500083F6002E4AD18B4202D3824200F2F98007
:10066000841A61EB030301209E46002DE0D0C5E90A
:10067000004EDDE702B9FFDEB2FA82F2002A40F056
:100680009280A1EB0C014FEA1C471FFA8CFE012659
:10069000200CB1FBF7F307FB131140EA01410EFBFD
:1006A00003F0884208D91CEB010103F1FF3802D2A4
:1006B000884200F2CB804346091AA4B2B1FBF7F09E
:1006C00007FB101144EA01440EFB00FEA64508D9C1
:1006D0001CEB040400F1FF3102D2A64500F2BB80FE
:1006E0000846A4EB0E0440EA03409CE7C6F120074D
:1006F000B34022FA07FC4CEA030C20FA07F401FA93
:1007000006F31C43F9404FEA1C4900FA06F3B1FB1B
:10071000F9F8200C1FFA8CFE09FB181140EA014180
:1007200008FB0EF0884202FA06F20BD91CEB01011D
:1007300008F1FF3A80F08880884240F28580A8F175
:1007400002086144091AA4B2B1FBF9F009FB1011C7
:1007500044EA014100FB0EFE8E4508D91CEB010165
:1007600000F1FF346CD28E456AD90238614440EA08
:100770000840A0FB0294A1EB0E01A142C846A64688
:1007800056D353D05DB1B3EB080261EB0E0101FA11
:1007900007F722FA06F3F1401F43C5E9007100266E
:1007A0003146BDE8F087C2F12003D8400CFA02FCC4
:1007B00021FA03F3914001434FEA1C471FFA8CFED4
:1007C000B3FBF7F007FB10360B0C43EA064300FBC4
:1007D0000EF69E4204FA02F408D91CEB030300F162
:1007E000FF382FD29E422DD9023863449B1B89B219
:1007F000B3FBF7F607FB163341EA034106FB0EF3A2
:100800008B4208D91CEB010106F1FF3816D28B424E
:1008100014D9023E6144C91A46EA004638E72E461A
:10082000284605E70646E3E61846F8E64B45A9D212
:10083000B9EB020864EB0C0E0138A3E74646EAE781
:10084000204694E74046D1E7D0467BE7023B61442F
:1008500032E7304609E76444023842E7704700BF98
:1008600038B51348134C0AF003FB68200AF0DCFA91
:100870000123114940F20522054609F0FFF81C202A
:1008800025600AF0D1FA216840F2052205460AF0F7
:100890007DFE0A4B1C201D600AF0C6FA216840F25A
:1008A000062204460AF072FE054B1C6038BD00BFEC
:1008B000600A0020840100209401002088010020AB
:1008C0008C01002000B583B009490A4C0422684617
:1008D00009F090FA002108460AF0ECFA0AF0ECFA66
:1008E000206803681B699847642007F065F8F1E702
:1008F000000402408C0100200D480E49032210B56F
:100900000023C0E900124FF001224FF400244FF4FD
:10091000401182618383C0E90233C0E9044101F0E0
:10092000D9FD00B910BDBDE8104000F0D5BB00BF37
:1009300094010020006400400D480E49032210B5C8
:100940000023C0E900124FF001224FF400244FF4BD
:10095000401182618383C0E90233C0E9044101F0A0
:10096000B9FD00B910BDBDE8104000F0B5BB00BF37
:10097000F80100200068004030B502684C498DB095
:1009800000238A42CDE90633CDE908330A933FD0EC
:1009900048498A4201D00DB030BD474A0393116CDB
:1009A000464841F080611164116C01F0806103914F
:1009B0000168039C01310129016065D03E4B002292
:1009C0000592186B40F0020018631B6B3C489FEDCA
:1009D000347B03F00203059306A9092303248DED5C
:1009E000067BCDE90943059D02F0AAFB0022052103
:1009F0003F2002F037F93F2002F072F90022052172
:100A0000402002F02FF9402002F06AF90DB030BD0D
:100A10002A490A680132012A0A6029D0264B00229D
:100A20000292186B40F0080018631B6B25489FED7D
:100A30001E7B03F00803029306A9092303248DED0E
:100A4000067BCDE90943029D02F07AFB00220521D5
:100A5000132002F007F9132002F042F900220521C9
:100A6000142002F0FFF8142002F03AF90DB030BD66
:100A7000114A0193136C43F000731364136C03F079
:100A800000730193019BC9E70493136C43F0007357
:100A90001364136C03F000730493049B8EE700BF90
:100AA00060000000020000000300000002000000DF
:100AB00000640040006800400038024090010020BF
:100AC00000040240000C024000B583B0274B002216
:100AD0000092186B40F480001863186B00F48000DB
:100AE000009000980192186B40F4001018631B6B83
:100AF00003F40013052101930C20019B02F0B2F8CE
:100B00000C2002F0EDF800220521392002F0AAF8AD
:100B1000392002F0E5F8002205213A2002F0A2F87F
:100B20003A2002F0DDF8002205213B2002F09AF87D
:100B30003B2002F0D5F800220521442002F092F873
:100B4000442002F0CDF800220521452002F08AF869
:100B5000452002F0C5F800224620052102F082F867
:100B6000462003B05DF804EB02F0BAB8003802404A
:100B7000704700BF704700BF704700BF704700BF9D
:100B8000704700BF704700BF00B583B0019001F00F
:100B9000A1F90198FFF796FE012006F00DFFFBE793
:100BA00008B5FFF75DFEFFF7E3FFFFF7E3FFFFF791
:100BB000E3FFFFF7E3FF064A0648002106F0B0FE18
:100BC000054B1860FFF7DCFFFFF7DCFF08BD00BF37
:100BD000B0BB0008890B00085C0200200000000088
:100BE0002DE9F04F2DED028B002491B0CDE90A44A0
:100BF000CDE90C44884B01940E941A6B874FDFF8B3
:100C00002CB2DFF82CA2864E42F002021A631A6B55
:100C100002F002020192019A02941A6B42F0400221
:100C20001A631A6B02F040020292029A03941A6B42
:100C300042F001021A631A6B02F001020392039A56
:100C400004941A6B42F008021A631A6B02F008024D
:100C50000492049A05941A6B42F004021A631A6B08
:100C600002F004020592059A06941A6B42F480720F
:100C70001A631A6B02F480720692069A07941A6B32
:100C800042F020021A631A6B02F020020792079AC0
:100C900008941A6B42F080021A631A6B02F0800209
:100CA0000892089A09941A6B42F010021A631B6B9F
:100CB00003F010030993224638464FF48071099BD4
:100CC00002F05EFB58460122402102F059FB5046DB
:100CD0000122102102F054FB01221146304602F09D
:100CE0004FFB224630464FF4404102F049FB0125BC
:100CF0000AA9C02200234B480C95CDE90A234FF0E6
:100D0000010802F01DFA4FF000099FED418B0AA97E
:100D100038464FF480720123CDE90A23CDE90C89CE
:100D200002F00EFA0AA9384640220023CDE90A2330
:100D30000C9502F005FA0AA9584640220123CDE994
:100D40000A238DED0C8B02F0FBF908224FF40413FB
:100D500058460AA9CDE90A230C9502F0F1F90AA92F
:100D600050464FF0020BCDE90A890C9502F0E8F9E4
:100D700050460AA94FF0010A10220123CDE90A23A7
:100D8000CDE90CAB02F0DCF938460AA930224FF469
:100D90000413CDE90A230C9502F0D2F94FF48042F6
:100DA00000230AA920480C95CDE90A2302F0C8F9CE
:100DB0000AA930468DED0A8BCDE90CAB02F0C0F9E3
:100DC00001230AA930464FF44042CDE90A23CDE978
:100DD0000C8902F0B5F922460521092001F042FFF5
:100DE000092001F07DFF224605210A2001F03AFF8B
:100DF0000A2001F075FF22460521172001F032FF7D
:100E0000172001F06DFF11B0BDEC028BBDE8F08F33
:100E1000010000000100000000380240000802400C
:100E2000000402400020024000100240001802406E
:100E30000000024010B50B480B4C0C4900234FF446
:100E40008042C0E90041C0E90233C0E90423C0E99F
:100E50000633036202F0A4FA00B910BDBDE81040E9
:100E600000F03AB96002002000580040801A0600E5
:100E700010B50B480B4C0C4900234FF48042C0E9DD
:100E80000041C0E90233C0E90423C0E9063303622C
:100E900002F086FA00B910BDBDE8104000F01CB9A0
:100EA000B4020020005C0040801A06002DE9704367
:100EB00003683A4A8CB000249342CDE90644CDE958
:100EC00008440A9405D0364A934228D00CB0BDE8B5
:100ED0007083344D01942B6B334843F020032B6314
:100EE0002B6B03F02003019303221223CDE9062389
:100EF00001220323CDE9082306A904230A93019ABA
:100F000002F01EF902942B6C43F480032B642B6CCB
:100F100003F480030293029B0CB0BDE87083214D63
:100F200003942B6B214843F004032B632B6B03F0DA
:100F300004030393039B04942B6B43F001032B6383
:100F40002B6B03F0010304934FF400724FF0010880
:100F50004FF00309042606A91223CDE90623CDE9A3
:100F60000889049B0A9602F0EBF84FF48072122372
:100F70000F480A9606A9CDE90623CDE9088902F0B3
:100F8000DFF805942B6C43F400032B642B6C03F403
:100F900000030593059B0CB0BDE87083005800402A
:100FA000005C00400038024000140240000802408B
:100FB000000002400000000010B5002394B0CDE90D
:100FC0000A33CDE90C33CDE90233CDE904332649A8
:100FD00000930693086C254A40F080500864096C21
:100FE00001F08051009100990193136843F480430C
:100FF000136013689FED187B03F480430221019373
:101000004FF480000623CDE90E10A822109308A803
:1010100007238DED087BCDE91121019C139303F08B
:1010200047FA08B172B6FEE79FED0D7B4FF4A0536F
:101030000022CDE9042302A84FF4805305218DED51
:10104000027B069303F04CFC08B172B6FEE714B0C5
:1010500010BD00BFAFF300800100000000000100E0
:101060000F00000002000000003802400070004045
:1010700008B501F0D7F9FFF79FFFFFF7B1FDFFF7C4
:1010800023FDFFF739FCFFF757FC00F059FD00F096
:1010900073FD00F091FDFFF7EBFE00F07DFC00F02A
:1010A0001DF800F0D9FC00F0DFFBFFF7C3FE00F0F5
:1010B00007FA00F0C9F906F007FCFFF771FD06F02A
:1010C00015FCFEE7034B02689A4200D0704701F01E
:1010D000C3B900BF0004004072B6FEE710B50F4868
:1010E0000F4C4FF48272C0E900420221012200231A
:1010F000C0E904124FF4007438210A22C0E9023317
:10110000C0E90641C0E90833C0E90A3203F0DEFC59
:1011100000B910BDBDE81040FFF7DEBFC8030020D6
:10112000003001402DE9F043424B02688BB00024AF
:101130009A42CDE90444CDE90644089402D00BB0AC
:10114000BDE8F08303F5843301945A6C3A4E42F4BF
:1011500080525A645A6C02F480520192019A0294AD
:101160001A6B42F002021A631A6B02F00202029238
:10117000029A03941A6B42F001021A631B6B03F08C
:1011800001030393182202234FF001084FF00309D3
:10119000052704A9054629480897CDE90423CDE988
:1011A0000689039B01F0CCFF802202232448089784
:1011B00004A9CDE90423CDE9068901F0C1FF214A44
:1011C00074624FF0C063C6E9002330464FF480627A
:1011D0004FF44033C6E90244C6E90424C6E9064494
:1011E000336201F08BFDF0B9174C1849EE644FF0F3
:1011F000C062C4E900124FF48062002340212261E2
:1012000020464FF40032C4E90213C4E90533C4E9AF
:101210000732B563636201F071FD38B9AC64A56350
:101220000BB0BDE8F083FFF757FFDDE7FFF754FF92
:10123000F4E700BF00300140080300200004024032
:1012400000000240406402406803002058640240ED
:1012500082B00E4B00220092596C41F480415964D7
:10126000586C00F48040009000980192186C40F097
:10127000805018641B6C03F080530193019B0F2175
:101280006FF0010002B001F0EDBC00BF0038024079
:1012900030B5014689B000221D2001F0E3FC1D207D
:1012A00001F01EFD0025164B02951A6C154C42F0FC
:1012B00002021A641B6C03F0020301A903A8029343
:1012C000029B03F0D1FB03F0AFFB0F4A0F492160F3
:1012D0004300A2FB03239B0C013B40F2E732204674
:1012E000C4E903256360A56003F08CFC10B1012004
:1012F00009B030BD204603F04FFD09B030BD00BF3E
:10130000003802404804002083DE1B4300040040F4
:10131000FEE700BFFEE700BFFEE700BFFEE700BF3D
:10132000FEE700BF704700BF082002F02DB800BFE5
:10133000102002F029B800BF014801F011BE00BF23
:1013400040090020014801F04FBB00BF940100207C
:10135000014801F049BB00BF94010020202002F0A9
:1013600013B800BF014803F01DBE00BF48040020B1
:1013700008B5044809F0EEFFBDE80840014804F054
:1013800063BB00BF600A002008B5044809F0E2FF13
:10139000BDE80840014804F057BB00BFD40A002054
:1013A000014801F0DDBD00BFA009002008B50448D8
:1013B00009F022FDBDE80840024801F0D1BD00BFA0
:1013C000C803002008030020014801F0C9BD00BF88
:1013D00068030020014801F007BB00BFF8010020AE
:1013E000014801F001BB00BFF8010020014802F0F4
:1013F0004DB900BF98200020014801F0B1BD00BFE9
:1014000080080020014801F0ABBD00BF000A0020A9
:10141000014801F0A5BD00BFE008002008B5044860
:1014200009F098FFBDE80840014804F00DBB00BF7B
:10143000480B0020034AD2F8883043F47003C2F806
:101440008830704700ED00E000B51B481B4A026081
:10145000A722002387B0426040F6C312CDE90233D1
:10146000CDE90433CDE90033C0E90232C0E90433E9
:10147000836103F0C7FB98B94FF480530E48029381
:1014800002A903F05DFF98B9002200230A486946CB
:10149000CDE9002304F004F828B907B05DF804FB97
:1014A000FFF71AFEE8E7FFF717FE07B05DF804FB49
:1014B000FFF712FEE8E700BFCC0700200004014060
:1014C00010B55D4C5D4992B00023A7222046CDE9BE
:1014D0000A33CDE90C33CDE90E33C4E90012C4E977
:1014E000023310932361A36103F08CFB50BB52487D
:1014F00003F08EFC18BB9FED467B00224E480C92F9
:101500000AA98DED0A7B0E9203F00AFEA0B92268AB
:101510004B4900238A42CDE90433CDE906330893D1
:101520002AD048498A4240D047498A4256D0434946
:101530008A420AD012B010BDFFF7CEFDE7E7FFF7F1
:10154000CBFDD8E7FFF7C8FDD1E7404A0393136B03
:101550003F4843F020031363136B9FED2F7B03F091
:1015600020030324039304A98DED047BCDE90744F4
:10157000039B01F0E5FDDDE7344A0093136B43F074
:1015800010031363136B9FED267B03F0100300938E
:10159000009830480322012304A98DED047B0792B3
:1015A000089301F0CDFD12B010BD284A0193136BD2
:1015B00043F008031363136B9FED1B7B03F00803D9
:1015C0000193019824480322022304A98DED047B92
:1015D0000792089301F0B4FD12B010BD1B4A0293AC
:1015E000136B43F080031363136B9FED117B03F0C8
:1015F00080030293029819480322022304A98DED67
:10160000047B0792089301F09BFD12B010BD00BF50
:101610006000000000000000400000000200000028
:10162000002A00000200000000400000020000004C
:10163000001C000002000000B00500200044014032
:101640000000014000080040000C0040003802404B
:101650000014024000100240000C0240001C024036
:101660002A4A0368934286B026D0294A934215D06D
:10167000284A93422ED0284A934239D0274A93428F
:1016800018D1274B002205925A6C42F400325A645A
:101690005B6C03F400330593059B0BE0204B0022A9
:1016A00002921A6C42F004021A641B6C03F00403E9
:1016B0000293029B06B07047194B002201925A6CAC
:1016C00042F001025A645B6C03F001030193019B39
:1016D00006B07047124B002203921A6C42F00802C7
:1016E0001A641B6C03F008030393039B06B0704756
:1016F0000B4B002204925A6C42F002025A645B6C5B
:1017000003F002030493049B06B0704700000140FD
:1017100000080040000C004000040140004401406B
:10172000003802400000000010B5026844498AB049
:1017300000238A42CDE90433CDE90633089321D052
:1017400040498A4237D040498A424DD03F498A4277
:1017500001D00AB010BD3E4A0393136B3D4843F0DD
:1017600020031363136B9FED2E7B03F020030324F0
:10177000039304A98DED047BCDE90744039B01F09D
:10178000DFFCE6E7324A0093136B43F01003136368
:10179000136B9FED257B03F01003009300982E48F8
:1017A0000322012304A98DED047B0792089301F025
:1017B000C7FC0AB010BD264A0193136B43F008031F
:1017C0001363136B9FED1A7B03F0080301930198D9
:1017D00022480322022304A98DED047B079208937B
:1017E00001F0AEFC0AB010BD194A0293136B43F02E
:1017F00080031363136B9FED107B03F08003029350
:10180000029817480322022304A98DED047B079256
:10181000089301F095FC0AB010BD00BFAFF3008043
:101820004000000002000000002A0000020000004A
:101830000040000002000000001C00000200000048
:101840000000014000080040000C0040004401403E
:10185000003802400014024000100240000C024018
:10186000001C02400000000010B5002496B02022A9
:1018700021460EA8CDE90344CDE90744CDE909444A
:10188000CDE90B44029400940694059401940AF067
:101890001FF93F483F4A8461A723C0E9002340F66F
:1018A000C313C0E90243C0E9044403F0ABF90028C4
:1018B0004BD14FF480533648029302A903F040FD08
:1018C00000285BD1324803F0A3FA002853D100224C
:1018D00000232F486946CDE9002303F0E1FD0028ED
:1018E00046D160204FF47A71CDE906010020002135
:1018F000CDE90801CDE90A01002225480C9206A98C
:1019000003F00EFC88BB2248042206A903F008FC61
:1019100040BB1F48082206A903F002FCF8B99FED5E
:101920001A7B00230022CDE90E23CDE910231848AD
:1019300000230EA98DED127B159303F0F1FD38B94C
:101940001348FFF7F1FE16B010BDFFF7C5FBB0E777
:10195000FFF7C2FB0E48FFF7E7FE16B010BDFFF71A
:10196000BBFBDCE7FFF7B8FBD3E7FFF7B5FBCAE744
:10197000FFF7B2FBB5E7FFF7AFFBA8E7FFF7ACFB5C
:10198000A0E700BFAFF300800000000000200000CF
:10199000FC0400200000014000B52D482D4A8FB006
:1019A0000023CDE90233CDE90433CDE90033CDE99D
:1019B0000633CDE90833CDE90A33C0E902330C938D
:1019C000036183615323C0E9002303F01BF938BB93
:1019D0004FF480531E48029302A903F0B1FC80BB70
:1019E0001B4803F015FA48BB00220023184869463B
:1019F000CDE9002303F054FDE8B99FED137B0023EC
:101A00001348089306A908228DED067B0A9303F07C
:101A100087FB40B90E48FFF787FE0FB05DF804FB67
:101A2000FFF75AFBD4E7FFF757FB0948FFF77CFEA7
:101A30000FB05DF804FBFFF74FFBDEE7FFF74CFB51
:101A4000D2E7FFF749FBCBE7600000000000000091
:101A5000640600200008004000B53748374A8FB0C0
:101A60000023CDE90233CDE90433CDE90033CDE9DC
:101A70000633CDE90833CDE90A33C0E902330C93CC
:101A8000036183615323C0E9002303F0BBF80028FE
:101A900034D14FF480532848029302A903F050FC3C
:101AA000002842D1244803F0B3F900283AD100229B
:101AB000002321486946CDE9002303F0F1FC70BB07
:101AC0009FED1B7B00221C48089206A98DED067B2A
:101AD0000A9203F025FBF8B91748042206A903F07F
:101AE0001FFBB0B91448082206A903F019FB40B93E
:101AF0001148FFF719FE0FB05DF804FBFFF7ECFA91
:101B0000C7E7FFF7E9FA0C48FFF70EFE0FB05DF8E4
:101B100004FBFFF7E1FAE5E7FFF7DEFADCE7FFF7A2
:101B2000DBFACDE7FFF7D8FAC1E7FFF7D5FAB9E757
:101B3000600000000000000018070020000C0040BA
:101B400010B50B480B4C00234FF4E1310C22C0E9D7
:101B50000041C0E90233C0E90432C0E9063303F0B2
:101B60000BFE00B910BDBDE81040FFF7B5BA00BFCD
:101B7000600A0020001001400C480D490D4A10B5C4
:101B80000023C0E900124FF480544FF48061042216
:101B9000C0E90243C0E90412C0E9063303F0ECFDDA
:101BA00000B910BDBDE81040FFF796BAD40A002076
:101BB00000480040A086010010B50B480B4C0023E4
:101BC0004FF4E1310C22C0E90041C0E90233C0E921
:101BD0000432C0E9063303F0CFFD00B910BDBDE803
:101BE0001040FFF779BA00BF480B002000140140F5
:101BF0002DE9F0430368A54A8FB000249342CDE954
:101C00000844CDE90A4405460C940AD0A04A934200
:101C100000F083809F4A934200F0C7800FB0BDE878
:101C2000F0839D4B01945A6C9C489D4E42F01002EB
:101C30005A645A6C02F010020192019A02941A6BD3
:101C400042F002021A631A6B02F002020292029A36
:101C500003941A6B42F001021A631B6B03F0010339
:101C60000393802202234FF001084FF00309072756
:101C700008A9CDE90823CDE90A89039B0C9701F057
:101C80005FFA4FF40072022386480C9708A9CDE949
:101C90000823CDE90A8901F053FA834A74624FF0B0
:101CA0000063C6E900234FF480634022336130466D
:101CB0004FF48033C6E90224C6E90544C6E9074368
:101CC00001F01CF8002840F0D480784C78496E630D
:101CD0004FF000620023C4E9001220464FF48061F7
:101CE0004FF48032C4E90233C4E90413C4E9063373
:101CF000B5632262636201F001F8002840F0B6800B
:101D0000AC63002205212520A56300F0ABFF252050
:101D100000F0E6FF0FB0BDE8F0835F4B04941A6C4F
:101D20006448654E42F480221A641A6C02F48022E0
:101D30000492049A05941A6B42F004021A631B6B16
:101D400003F0040305934FF440620223CDE9082316
:101D500001220323CDE90A2308A907230C93059B3D
:101D600001F0EEF9554A74624FF00063C6E90023B2
:101D700030464FF480624FF40033C6E90244C6E9AE
:101D80000424C6E90644336200F0B8FF002873D18A
:101D9000AE63002205212720B56300F063FF2720F2
:101DA00000F09EFF0FB0BDE8F0833B4B06945A6CE9
:101DB0004348444E42F020025A645A6C02F020021A
:101DC0000692069A07941A6B42F040021A631B6B44
:101DD00003F0400307934FF484420223CDE9082324
:101DE00001220323CDE90A2308A908230C93079BAA
:101DF00001F0A6F9344A74624FF02063C6E900236B
:101E000030464FF480624FF40033C6E90244C6E91D
:101E10000424C6E90644336200F070FF90BB2B4CEB
:101E20002B49AE634FF02062C4E900124FF4806288
:101E300000234021226120464FF48032C4E902137E
:101E4000C4E90533C4E90732B563636200F056FFA5
:101E5000A8B96C63002205214720A56300F002FFAA
:101E6000472000F03DFF0FB0BDE8F083FFF734F9E5
:101E700046E7FFF731F928E7FFF72EF988E7FFF784
:101E80002BF9E6E7FFF728F9C9E700BF001001408A
:101E900000480040001401400038024000040240A5
:101EA000E008002000000240B864024080080020E2
:101EB0008864024000080240400900202860024077
:101EC00000180240A009002028640240000A0020F7
:101ED000A064024008B518491848002205F004F82B
:101EE00070B91749154805F013F888B91549134812
:101EF00004F0B8FFA0B9114805F026F8B8B908BD3C
:101F0000FFF7EAF80E490D4805F002F80028EDD079
:101F1000FFF7E2F80B49094804F0A4FF0028EAD0D3
:101F2000FFF7DAF8054805F00FF80028E7D0BDE81C
:101F30000840FFF7D1B800BF1C000020BC0B0020F8
:101F4000700000200800002000207047002070472B
:101F50000020704710B5054C0146204604F09CFF58
:101F6000204604F0A5FF002010BD00BFBC0B0020E0
:101F700010B5064C06490022204604F07FFF0549B3
:101F8000204604F089FF002010BD00BFBC0B0020DC
:101F900098160020980E0020122301480B807047ED
:101FA00038000020042301480B8070474C000020BB
:101FB00010B5044C04480A46214605F009FC2046A9
:101FC00010BD00BF981E0020ECBB000810B5044CEB
:101FD00004480A46214605F0FBFB204610BD00BF21
:101FE000981E002000BC000810B5044C04480A46A6
:101FF000214605F0EDFB204610BD00BF981E0020D5
:102000001CBC000810B5044C04480A46214605F0E3
:10201000DFFB204610BD00BF981E002028BC000832
:10202000454AD2F8100AD2F8183A4FF01A0CC318E1
:10203000A1F800C001D141487047D2F8141A3F4AB4
:10204000180FB3F1204F2CBF373030309070C3F3EE
:10205000036009288CBF373030301071C3F3035050
:1020600009288CBF373030309071C3F30340092802
:102070008CBF373030301072C3F3033009288CBF67
:10208000373030309072C3F3032009288CBF3730CB
:1020900030301073C3F30310092803F00F038CBF13
:1020A00037303030092B94BF30333733137400236B
:1020B000B1F1204F53744FEA11732CBF37333033D3
:1020C0009374C1F30363092B8CBF3733303313751B
:1020D000C1F30353092B4FF0000C8CBF373330335F
:1020E00082F803C04FF0000C82F805C090734FF0E7
:1020F000000C00209375C1F30343092B82F807C03D
:10210000D0734FF0000C4FF0000094BF30333733E2
:1021100082F809C0D0744FF0000C002082F80BC088
:1021200050754FF0000C002013760023D07582F814
:102130000DC00248537670470070FF1F500000200A
:1021400030B5036889B00024B3F1A04FCDE9024453
:10215000CDE90444069401D009B030BD174D009478
:102160002B6B174843F001032B632B6B03F0010328
:1021700000934FF4C0520223CDE90223032302A9A6
:1021800005930A23009A069300F0DAFF6B6B43F085
:1021900080036B6301946B6C43F480436B646B6CE2
:1021A00003F480432246052101934320019B00F064
:1021B00059FD432000F094FD09B030BD00380240C5
:1021C0000000024000F2C441D0F8080504F0D0BE7F
:1021D00001EBC10300EB8303D0F80805D3F88C2290
:1021E00004F0F6BE01EBC10300EB8303D0F8080551
:1021F000DA6C04F027BF00BFD0F8080504F0C6BFB2
:10220000C16810B5044611B102290AD10121D4F8E0
:10221000080504F09FFFD4F80805BDE8104004F05D
:102220006BBFFEF759FF0121F1E700BF10B504466F
:10223000D0F8080504F092FF2268D2F8003E43F07F
:102240000103C2F8003E236A23B1034A136943F035
:102250000603136110BD00BF00ED00E0D0F80805D3
:1022600004F088BFD0F8080504F0B6BFD0F8080520
:1022700004F09CBFD0F8080504F0C4BFD0F80805EE
:1022800004F0C2BF0000000002780AB100207047CD
:102290009FED177B1A4B10B583ED067B9FED167BE8
:1022A0004FF0A041C3F808050424C0F8C8321960F3
:1022B00083ED087B02211846C3E90B225C60D960DC
:1022C0001A6101F035F978B980210D4802F0EAF879
:1022D000402200210A4802F0BBF880220121084870
:1022E00002F0B6F8002010BDFEF7F6FEECE700BFE6
:1022F00002000000000000000000000000000000DC
:102300009820002008B5D0F8C80201F09FF90328F2
:1023100096BF024B0320185C08BD00BF38BC000804
:10232000944608B51A46D0F8C802634601F04EFF3D
:10233000032896BF014B0320185C08BD38BC000879
:1023400008B5D0F8C80201F07FFF032896BF024B02
:102350000320185C08BD00BF38BC000808B5D0F8E1
:10236000C80201F0F9FF032896BF024B0320185C56
:1023700008BD00BF38BC000808B5D0F8C80202F09C
:102380002FF8032896BF024B0320185C08BD00BF3E
:1023900038BC00080A06D0F8C83206D401EBC101E7
:1023A00003EB810191F87E02704701F07F0101EBA0
:1023B000C10103EB810191F83E00704708B5D0F8E8
:1023C000C80201F0EFFE032896BF024B0320185C01
:1023D00008BD00BF38BC000808B5D0F8C80201F03D
:1023E00093FF032896BF024B0320185C08BD00BF73
:1023F00038BC000808B5D0F8C80201F053FF032824
:1024000096BF024B0320185C08BD00BF38BC000813
:10241000D0F8C80201F06EBF00487047A425002024
:10242000704700BF08B50B4B1A6842F400721A607F
:102430001A6842F480621A601A6842F480721A6064
:10244000032000F0FDFB0020FEF722FFFEF700FF57
:10245000002008BD003C0240034A044B11681B7871
:102460000B441360704700BFC42700206A0000209F
:10247000014B1868704700BFC427002038B50446D8
:10248000FFF7F6FF631C054602D0044B1B781C4483
:10249000FFF7EEFF431BA342FAD338BD6A000020CA
:1024A000704700BF704700BF704700BF704700BF54
:1024B000704700BF704700BF704700BF704700BF44
:1024C000704700BF704700BF704700BF704700BF34
:1024D000704700BF002800F0988038B590F8203091
:1024E0000446002B72D02268136843F00103136086
:1024F000FFF7BEFF054604E0FFF7BAFF431B0A2BB8
:102500005BD823685A68D107F6D51A6822F0020210
:102510001A60FFF7ADFF054604E0FFF7A9FF401B77
:102520000A284AD823685A689207F6D4227E012ADC
:102530001A680CBF42F0800222F080021A60627EAC
:10254000012A1A680CBF42F0400222F040021A60D1
:10255000A27E012A1A680CBF42F0200222F020025B
:102560001A60E27E012A1A680CBF22F0100242F0C3
:1025700010021A60227F012A1A680CBF42F008027A
:1025800022F008021A60627F012A1A680CBF42F02A
:10259000040222F004021A60D4E9022021690243F5
:1025A0000A4360696168024301390A43002001213E
:1025B000DA61606284F8201038BD636A052243F452
:1025C0000033636284F82020012038BD1149124A8B
:1025D000C36D1248C4E91012114A1249C4E912022B
:1025E000114A1248C4E90A12114A1249C4E90C02FC
:1025F000114A1248C4E90E121149124AA265C4E9EF
:10260000140123B1204698476DE7012070470E4B17
:10261000E365F7E7BD240008C1240008C5240008CD
:10262000C9240008A5240008A9240008AD24000836
:10263000B1240008B5240008B9240008CD240008FE
:10264000D1240008A1240008790900084AB190F8B3
:1026500020C0BCF1010F5FFA8CF311D090F820304C
:1026600033B1426A42F48002012342621846704745
:102670000D2929D00E29F4D100230266184670478F
:102680000E294CD80FF2040C5CF821F0D726000874
:10269000DD260008E3260008E9260008EF260008EA
:1026A000F5260008FB260008012700080727000878
:1026B0000D2700081327000819270008D126000855
:1026C000C9260008792600080023C265184670470D
:1026D00082650023CAE782620B46C7E7C262002315
:1026E000C4E702630023C1E742630023BEE78263BD
:1026F0000023BBE7C2630023B8E702640023B5E709
:1027000042640023B2E782640023AFE7C26400237F
:10271000ACE702650023A9E742650023A6E7426A09
:1027200042F480024262A1E790F82020013A012A97
:1027300006D9426A034642F4802201205A62704759
:10274000414BD3F8002230B401242243C3F80022C5
:10275000D3F8002222F47C52C3F80022D3F80022DE
:10276000486A42EA0022C3F800224A6902F01F00C8
:1027700004FA00F0D3F81C4224EA0004C3F81C4217
:10278000CD69C443002D45D1D3F80C522540C3F880
:102790000C52D200CD688B8802F1804202F5C8420B
:1027A00043EA0543C2F840328D680B8843EA05438B
:1027B000C2F844328B69244A33BBD2F80432234036
:1027C000C2F804320B69C3B91F4BD3F8142214406A
:1027D000C3F814420B6A012B05D11B4AD2F81C32F4
:1027E0001843C2F81C02184AD2F8003223F0010341
:1027F000002030BCC2F800327047134AD2F81432BD
:102800000343C2F81432E5E7D2F804320343C2F8B6
:102810000432D7E7012DCDD1D3F80C520543C3F8CC
:102820000C52D2000D688B8802F1804202F5C8423A
:1028300043EA0543C2F840328D688B8943EA054379
:10284000C2F84432B6E700BF0064004070B590F8AB
:102850002030012B044606D0436A012643F40023AE
:102860004362304670BD0268DEB2022380F8203039
:10287000136823F001031360FFF7FAFD054604E037
:10288000FFF7F6FD431B0A2B08D823685B6813F09B
:102890000103F5D11E466362304670BD636A0522AE
:1028A00043F40033636284F82020304670BD00BFDB
:1028B00070B590F820E00EF1FF3EBEF1010F8446A6
:1028C0006DD8006851B9C468A5070AD1DCF8243076
:1028D00043F400130120CCF8243070BD0469A40730
:1028E000F4D000EB011E0C01DEF8B05105F0040538
:1028F0009560002D5AD0DEF8B051ED085560DEF835
:10290000B05105F00205D560DEF8B451DEF8B461CF
:1029100005F00F0515612044DEF8B451C6F3072613
:1029200096612D0CD0F8B86155611E70DCF800205E
:102930002244D2F8B821120A5A70DCF8002022444E
:10294000D2F8B821120C9A70DCF800202244D2F898
:10295000B821120EDA70DCF800202244D2F8BC2133
:102960001A71DCF800202244D2F8BC21120A5A71F4
:10297000DCF800202244D2F8BC21120C9A71DCF859
:1029800000202244D2F8BC21120EDA71DCF80020BB
:1029900089B9D36843F020030846D36070BD436A09
:1029A00043F480230120CCF8243070BDDEF8B05110
:1029B0006D0D1560A3E7136943F020030020136138
:1029C00070BD00BF90F82020013A012A034605D9C6
:1029D000426A42F4802201205A62704702685369B9
:1029E00019430020516170472DE9F04F03685D697C
:1029F000D3F804809F68D3F80CA0D3F81090D3F8D4
:102A000018B015F0010681B0044625D017F0010674
:102A100040F0B9804FF400524FF48041F8050DD5D5
:102A200023684FF480709860BB0500F1CB80780577
:102A300000F1EC803B0540F1F2800E46F8030BD527
:102A400023684FF48032B9039A6000F1AF807A03B3
:102A500040F1D78046F400462F0703D51AF0100F37
:102A600040F08B80680702D51AF0080F7ED1A907C5
:102A700003D52368DB689A0774D16B0602D519F079
:102A8000100F69D1AF0602D519F0080F5DD1E80625
:102A900003D523681B69990753D1AA0302D518F0FF
:102AA000100F47D1EB0302D518F0080F3BD12F04CC
:102AB00005D518F0040F0DD1236804225A60002EAA
:102AC00071D0636AA26D1E432046666201B0BDE804
:102AD000F04F1047E80504D51BF0010F18BF46F072
:102AE0000106A90504D51BF0020F18BF46F0020627
:102AF0006A0504D51BF0040F18BF46F004062B0529
:102B0000DAD51BF0700BD7D0BBF1400F00F09580E9
:102B10005CD8BBF1200F00F08D80BBF1300F63D18A
:102B200046F020065AE0236808225A602046636D6A
:102B30009847BCE7236810225A602046236D9847C7
:102B4000B0E7A36C20469847A7E7236808221A61DC
:102B50002046E36C98479AE72368102246F4806683
:102B60001A618FE7236C2046984786E7236808227E
:102B7000DA602046636C984779E72368102246F4B0
:102B80000076DA606EE701229A60BB0712D47E07F6
:102B900030D417F008063BD04FF440524FF4A04118
:102BA0004FF480563AE701B0BDE8F08F236B204622
:102BB000984751E7836A984700264FF400524FF434
:102BC00080412BE7E36A2046984737E7BBF1500F77
:102BD0002DD0BBF1600F08BF46F4807623689A6958
:102BE00022F070029A6168E7BBF1100FF6D146F04F
:102BF0000806F3E74FF420524FF490414FF400667B
:102C00000CE73B030FD546F4803625E7164615E75B
:102C1000436B98474FF400524FF48041FEE6A36B9C
:102C2000204698470AE7E36B2046984714E746F0AA
:102C30008006D3E746F01006D0E746F04006CDE721
:102C40000749CA6803024FF6FF0003F4E06302403D
:102C5000134343F0BF6343F40033CB60704700BFBE
:102C600000ED00E01C4BDB68C3F3022300B5C3F1A9
:102C7000070EBEF1040F03F1040C28BF4FF0040E41
:102C8000BCF1060F1BD9033B4FF0FF3C0CFA03FCD1
:102C900022EA0C024FF0FF3C0CFA0EFC21EA0C0178
:102CA0009940002841EA02010CDB00F16040090173
:102CB00000F56140C9B280F800135DF804FB002202
:102CC0001346E7E7054B00F00F0009010344C9B2C2
:102CD00019765DF804FB00BF00ED00E0FCEC00E0BD
:102CE000002808DB4109044A00F01F00012303FA11
:102CF00000F042F82100704700E100E038B50446DA
:102D0000FFF7B6FB002C52D023680022022184F882
:102D1000351084F834201A6822F0010205461A6042
:102D200005E0FFF7A5FB431B052B39D823681A687C
:102D3000D107F6D4D4E90120E16802430A43D4E97B
:102D40000451A0692A430A43E1691D6802430A430A
:102D500033492940256A2A430A43616A042928D055
:102D60001A605A6922F007021143D8B22D4A5961FC
:102D70001038A2FB005212092B4923F47F73895C9F
:102D8000E16523F003035F2888BF04333F228A40B4
:102D9000A36500209A600123606584F8353038BD52
:102DA00003232022626584F83530184638BD01209F
:102DB00038BDD4E90B5129430A431A605969A26A04
:102DC00021F00701114341F00401002DCDD078B16D
:102DD000B0F5005F16D0022A03D9032AC5D1EA0153
:102DE000C3D501234022626584F83530184638BDCA
:102DF000012A03D032F00202B7D1F0E7B5F1C07F6B
:102E0000B3D1EEE7032AB0D801A050F822F000BFFA
:102E1000E32D0008DF2D0008E32D0008FD2D00083C
:102E20003F8010F0ABAAAAAA3CBC000870B490F88E
:102E30003440856D012C35D090F835404FF0010CB1
:102E4000644580F834C005D0002380F8343070BC6D
:102E500002207047022680F8356004680026466527
:102E6000266826F48026266063608368402B0EBFA8
:102E7000A260A160E260C26D08BFE1603F239340A1
:102E8000AB602368026C43F0160323601AB1236819
:102E900043F008032360236843F00103002023600C
:102EA00070BC7047022070BC704700BF70B504460C
:102EB000866DFFF7DDFA94F83530022B06D000233B
:102EC000802284F834306265012070BD23681A685E
:102ED00022F016021A605A6922F080025A61226CAE
:102EE000054632B31A6822F008021A601A6822F006
:102EF00001021A6005E0FFF7BBFA431B052B0FD850
:102F000023681B6813F00103F5D1E16D3F228A406D
:102F10000121B26084F8351084F83430184670BD51
:102F2000032020220023626584F8343084F83500C1
:102F300070BDA26C002AD5D1D8E700BF90F835301B
:102F4000022B03D0802343650120704702680523CC
:102F500080F83530136823F00103002013607047B8
:102F60002DE9F04182B0744A866D15680023019303
:102F7000C36D346808229A402242804604D001681A
:102F80000F68780700F18A8001229A40224204D01B
:102F9000D8F800104969090678D404229A402242E0
:102FA00004D0D8F8001009688F0767D410229A401F
:102FB000224204D0D8F800100F68380749D42022E4
:102FC0009A40224217D0D8F800100C68E00612D5BB
:102FD000B26098F83520052A73D00B6813F4802F5F
:102FE0000B6800F09080190340F19B80D8F83C30CA
:102FF0000BB140469847D8F854303BB3D8F854301A
:10300000DA071BD5D8F800204C49052388F835305D
:103010001368A1FB051523F00103AD0A136002E05C
:103020001368DB0704D5019B0133AB420193F7D949
:103030000122002388F8352088F83430D8F84C3045
:1030400023B1404602B0BDE8F041184702B0BDE8E8
:10305000F081B2600A6812F4802F0A682AD1D7057D
:1030600003D40A6822F008020A60D8F84020002A37
:10307000A5D040469047D8F85C30A0E7B260D8F8B9
:10308000542042F00402C8F854208FE7B260D8F808
:10309000542042F00202C8F854207EE70F6827F05F
:1030A00004070F60B260D8F8542042F00102C8F85B
:1030B000542069E71203D8D5D8F84820002AD8D17F
:1030C0007DE70A6822F016020A604A6922F080024F
:1030D0004A61D8F8402052B30A6822F008020A6018
:1030E0003F2202FA03F3D8F85010B3600122002304
:1030F00088F8352088F834300029A7D0404602B03F
:10310000BDE8F041084713F480737FF46FAF0A689D
:1031100022F010020A60012288F8352088F8343045
:1031200064E7D8F84430002B7FF463AF63E7D8F846
:103130004820002AD0D1D3E704000020B5814E1BDF
:103140002DE9F04F00220C68DFF82CA2834E85B0E9
:103150001346894605E00133102B02F1020200F00C
:1031600089800121994001EA040BA143F3D1D9F8E8
:1031700004C00CF003014D1E012D7ED9032940F03F
:10318000BE809140CD4307683D4029431CF4403F39
:103190000160E0D000210391DAF8441041F480414D
:1031A000CAF84410DAF8441001F4804103910399FD
:1031B00023F0030101F1804101F59C3103F0030785
:1031C000D1F808E0BF000F25BD402EEA0508644D88
:1031D000A84224D005F58065A84200F09480614D96
:1031E000A84200F09780604DA84200F09A805F4DA1
:1031F000A84200F09D805E4DA84200F0A0805D4D89
:10320000A84200F0A380DFF874E170450CBF4FF0D6
:10321000070E4FF0080E0EFA07F748EA0708C1F844
:103220000880B1686FEA0B071CF4801F0CBF39409F
:103230004BEA0101B160F5681CF4001F0CBF3D4072
:103240004BEA0505F56075681CF4003F0CBF3D4076
:103250004BEA0505756031681CF4803F03F10103FA
:103260000CBF39404BEA0101102B316002F1020220
:103270007FF477AF05B0BDE8F08FD9F80C508768C0
:1032800005FA02F8032505FA02FE27EA0E0748EAC6
:103290000707876047686FEA0E0527EA0B0ECCF335
:1032A00000179F4047EA0E074760C76807EA050E08
:1032B000D9F80870974047EA0E070229C76001FA5B
:1032C00002F17FF460AF4FEAD30E00EB8E0E03F0F5
:1032D0000708DEF820700097D9F810704FEA8808C8
:1032E00007FA08F701970F2707FA08F8009F27EA5F
:1032F0000808019F47EA0807CEF8207043E7032536
:103300009540ED43D1E74FF0010E0EFA07F748EA7A
:10331000070884E74FF0020E0EFA07F748EA07089D
:103320007DE74FF0030E0EFA07F748EA070876E745
:103330004FF0040E0EFA07F748EA07086FE74FF060
:10334000050E0EFA07F748EA070868E74FF0060E81
:103350000EFA07F748EA070861E700BF003C0140A2
:103360000000024000080240000C02400010024031
:10337000001402400018024000380240001C0240C5
:1033800002B9090481617047044A5169014200D1C0
:10339000704708B5506106F035FD08BD003C01409E
:1033A000002800F0B98070B590F83D30044603F075
:1033B000FF02002B00F098802368242284F83D202F
:1033C0001A6822F001021A601A6842F400421A6078
:1033D0001A6822F400421A6001F026FB63684F4924
:1033E0008B424FD84E4A90427CD94E4D5A00A5FB95
:1033F0000035431EB3FBF2F32268506820F03F0013
:1034000040EA95405060A90C01F1010C116A21F0CD
:103410003F0141EA0C011162D16940F6FC7E0133A3
:1034200021F44F4113EA0E0F21F0FF0161D1042373
:103430000B43D361D4E907301168034321F0C00185
:103440000B4313609168D4E9030321F40341034360
:1034500021F0FF010B439360D4E90530D1680343A9
:1034600021F0FF010B43D3601168002341F00101FB
:1034700020201160236484F83D00236384F83E30EB
:10348000184670BD284A90422CD9264D274EA5FBE0
:10349000002C2268556825F03F0545EA9C4555609B
:1034A0004FEA9C414FF4967505FB01F1A6FB0151D3
:1034B000156A890925F03F05013129431162D16957
:1034C000A56821F44F4121F0FF01ADB9013803EBAC
:1034D0004303B0FBF3F30133C3F30B03D3B143F462
:1034E0000043A5E7012070BD80F83C20FDF7DEFC1D
:1034F00062E7C3F30B039BE703EB8303013803EBA2
:103500008303B0FBF3F30133C3F30B0313B143F4B1
:1035100040438DE701238BE701207047A08601001F
:103520007F841E0083DE1B43FF083D00D34D6210E5
:10353000F0B58BB0002800F0858090F8BD340468A9
:10354000054603F0FF02002B76D02046032385F8C2
:10355000BD34E36B2E4613F4807308BF2B6102F079
:10356000FFFC56F810EBB446BCE80F006C460FC4E5
:10357000BCE80F000FC49CE8030084E803002F1D83
:1035800097E80E00704602F0E7FB044630B10124D4
:103590000223204685F8BD340BB0F0BD01462868F3
:1035A00002F0E6FC686858B322464FF0010E21464F
:1035B00002EBC20305EB830302F1010C83F83C200C
:1035C000A3F844205FFA8CF28242C3E9121183F817
:1035D0003DE083F840105965EAD3002204EBC403B0
:1035E00005EB8303611C83F87C42CCB28442C3E9BF
:1035F000A22283F87D2283F88022C3F89422EDD39F
:103600000FCE6C460FC40FCE0FC496E8030084E8BB
:10361000030097E80E00286802F0E2FC0446002848
:10362000B5D1012385F83800286885F8BD3403F04A
:1036300089F920460BB0F0BD80F8BC24FEF780FD70
:10364000286883E7012420460BB0F0BD10B590F840
:10365000BC34012B0446006816D0A36A01229342B1
:1036600084F8BC2408D002F073FC206803F05AF9F7
:10367000002084F8BC0410BDA3699342F3D0836B8F
:1036800043F480338363EEE7022010BD2DE9F04F51
:10369000056889B00446284603F092F910B109B0D4
:1036A000BDE8F08F8346206803F05CF90028F6D06F
:1036B000D5F808382068C3F30D23C4F8FC3403F0B0
:1036C00051F910F0020F206805F5006303931EBF47
:1036D000436903F00203436103F044F910F0100F53
:1036E000206812D0836923F0100383612E6AC6F329
:1036F0004343022B06F00F0700F0CB83062B00F0AC
:103700000783836943F01003836103F02BF90703F8
:1037100000F16982206803F025F9460300F1118267
:10372000206803F01FF90028C0F28281206803F0AE
:1037300019F9070500F13D81206803F013F9C00471
:1037400000F1A081206803F00DF910F4005F2068FB
:1037500040F0818103F006F9010700F1E98120685A
:1037600003F000F9020671D5AA69636822F08002AD
:10377000012BAA616AD994F8A322012A00F0EA83F6
:10378000022B63D994F8C722012A00F0FE83032B91
:103790005CD994F8EB22012A00F0B382042B55D9AE
:1037A00094F80F23012A00F0C682052B4ED994F815
:1037B0003323012A00F02684062B47D994F8572397
:1037C000012A00F03384072B40D994F87B23012A87
:1037D00000F04A84082B39D994F89F23012A00F07D
:1037E0005784092B32D994F8C323012A00F064844A
:1037F0000A2B2BD994F8E723012A00F071840B2BB4
:1038000024D994F80B24012A00F07E840C2B1DD9B6
:1038100094F82F24012A00F07F840D2B16D994F8F8
:103820005324012A00F09F840E2B0FD994F877249B
:10383000012A00F0A6840F2B08D994F89B34012BA1
:1038400004D1206804F5936102F080FF206803F042
:1038500089F8C30240F1AB806368012B40F2898094
:1038600094F86420D5F82019012A00F01382022B65
:103870007FD994F88820D5F84019012A00F01D82DC
:10388000032B76D994F8AC20D5F86019012A00F002
:103890002082042B6DD994F8D020D5F88019012A04
:1038A00000F02382052B64D994F8F420D5F8A019F0
:1038B000012A00F04383062B5BD994F81821D5F830
:1038C000C019012A00F05583072B52D994F83C21E6
:1038D000D5F8E019012A00F06083082B49D994F843
:1038E0006021D5F8001A012A00F06383092B40D922
:1038F00094F88421D5F8201A012A00F06E830A2B4F
:1039000037D994F8A821D5F8401A012A00F082830B
:103910000B2B2ED994F8CC21D5F8601A012A00F08F
:1039200097830C2B25D994F8F021D5F8801A012A19
:1039300000F0A2830D2B1CD994F81422D5F8A01AFC
:10394000012A00F0AD830E2B13D994F83822D5F854
:10395000C01A012A00F0B8830F2B0AD994F85C2210
:10396000D5F8E01A012A00F0C383102B01D9D5F84D
:10397000003B2068436903F48013436102F0F2FFC7
:10398000870221D4206802F0EDFF400000F1C780DB
:10399000206802F0E7FF41077FF581AE23685D688C
:1039A0006A0700F197825A682A435A6077E62068CE
:1039B000E4E7039B9B68DE0700F188822068436987
:1039C00003F400634361B8E6D4F804C0BCF1010F0E
:1039D00028D905F532622346012106E0013161450F
:1039E00002F1200203F124031CD093F8A40216680C
:1039F0000128F3D1002EF1DAD4F8FC7406F48036F5
:103A000007F00107BE42E9D183F8A302A86940F09C
:103A10008000A86168690606E0D4039A536843F4FD
:103A2000007353602068436903F400134361AAE7FD
:103A3000039A536823F00103536094F8F434012B84
:103A400000F034812046FEF709FC2068436903F04A
:103A5000004343616BE602F0B7FF206802F004FC0C
:103A6000E060266800F0DAFF227B0146304602F073
:103A7000F5F92046FEF7C4FB2068436903F40053C0
:103A8000436167E6039A2068536823F0010353609B
:103A9000102102F0BFFB6068E0B105F510634FF63E
:103AA0007F3199601A6822F400121A60C3F8081274
:103AB000D3F8002222F40012C3F80022D3F8002227
:103AC0000BF1010B42F000628345C3F8002203F1C1
:103AD0002003E6D10399226BCB6943F00113CB613C
:103AE000002A40F0CC804B6943F4005343F02B0391
:103AF0004B610B6943F00B030B61D5F80038217C57
:103B0000206823F4FE63C5F8003804F2C44202F0D2
:103B10006DFF2068436903F48053436113E6204638
:103B2000FEF7A8FB2068436903F08043436130E758
:103B30002046FEF761FB2068436903F008034361F8
:103B40000EE6206802F01AFF804600283FF4E8AD38
:103B50004FF0000A20680495274605F5106956467F
:103B6000CDF814B009E05FEA580806F1010607F144
:103B7000240709F1200900F0E58018F0010FF2D0C8
:103B80005FFA86FA514602F00BFFC207054613D5CD
:103B9000039901204B6B06F00F0200FA02F223EAB0
:103BA00002034B632169C9F80800814200F0978144
:103BB00051462046FEF716FB2B0744BF0823C9F8E1
:103BC0000830E80644BF1023C9F80830690644BF2E
:103BD0004023C9F80830AA0700F14E812B0600F1F6
:103BE000F5802068BFE7206802F0C0FE0646002886
:103BF0003FF490AD05F53067A2464FF00009CDF8CF
:103C000010B008E0760809F1010907F120070AF170
:103C1000240A00F09A80F007F4D55FFA89FB206847
:103C2000594602F0B3FE10F0010F804640F0AF801D
:103C300018F0080F40F08C8018F0100F1CBF1022F5
:103C4000BA6018F0020F0ED06A69110604D5039B02
:103C50005A6842F480625A609AF87F22012A00F082
:103C600080810223BB6018F0200F1CBF2023BB60A3
:103C700018F4005F1CBF4FF40053BB60C2E7D1F8DB
:103C8000843043F00B03C1F884304B6C43F00B03DA
:103C90004B6432E70029BFF6EAAD214684F8632081
:103CA00051F8600B02F052FD6368E0E5002184F8F2
:103CB000F414204600F0FAFBC7E60029BFF6E0AD99
:103CC000214684F8872051F8840B02F03FFD636899
:103CD000D6E50029BFF6DDAD214684F8AB2051F8CA
:103CE000A80B02F033FD6368D3E50029BFF6DAAD17
:103CF000214684F8CF2051F8CC0B02F027FD6368F1
:103D0000D0E5206804F53A7102F020FD636845E5CE
:103D1000082204F2C441284607EBC70702F070FDF1
:103D200004EB8702C6F30A13D2F89C1220680B44F6
:103D3000C2F89C32E5E4206804F5437102F006FD08
:103D4000636832E5DDE9045BEBE4DDF810B0E1E443
:103D50002168BD4B0822BA6001F53062096C02EBA4
:103D600049129942906840F2CB80000402D54FF48A
:103D7000004191602046FEF725FA216901297FF470
:103D80005BAF206804F2C44202F030FE54E72068C2
:103D900021690122BA6000F5306202EB4912012963
:103DA000D0F840C0936800F0AF80A8498C4500F07F
:103DB0000C81B9F1000F04D1D4F89422002A00F04C
:103DC000DA8159462046FEF703FA31E7FB6D7D6D37
:103DD000D4F800B0AB4258463FF6C5AE0BF51062C2
:103DE00002EB461211469646BA6C8969CDF81CB0B2
:103DF000A5EB030C624528BF624689B20332B1EBE2
:103E0000920FC0F0978052460696CA462646C14693
:103E10007446904619E0ED1ABB6CF96C9D4228BFC0
:103E20001D46337C00934246ABB2584602F0D2FCAA
:103E3000FB6CA1692B44FB64FB6D89B22B440335F9
:103E4000B1EB950FFB656DD37D6D9D42E3D8344694
:103E5000069ED4F800B0C846D146079B06F00F0274
:103E600003F500610125D3F8343805FA02F223EA9C
:103E7000020358464B6376E60498314602F0CAF9CD
:103E800097F83F30012B00F0B4800223C9F80830C6
:103E9000A4E647F6F0731E423FF433AC07EBC707C6
:103EA00004EB8707C6F30A12D7F88C122846164689
:103EB00002F0A6FCD7F88C3220683344C7F88C3265
:103EC000D7F89C323344C7F89C321AE42046FEF7F8
:103ED000ADF973E52046FEF7D1F9236863E5D7E92C
:103EE00012231344FB64002E7FF462AE636D002B3B
:103EF0007FF45EAE206804F2C44202F077FD57E61C
:103F00002046FEF75FF997E6190740F197804E4982
:103F10008C457FF68DAE18047FF58AAE4FF40041D4
:103F2000916085E634467D6DD4F800B0069EC846A3
:103F30005846D146AB42FFF416AE8EE70029BFF6D5
:103F4000BAAC214684F8F32051F8F00B02F0FEFBE6
:103F50006368B0E4206804F5287102F0F7FB636839
:103F60000EE4002359468AF87F322046FEF77AF99C
:103F700077E60029BFF6A8AC206884F8172104F57D
:103F80008A7102F0E3FB63689EE4206804F53171F6
:103F900002F0DCFB6368FFF7FABB0029BFF69DACBB
:103FA000206884F83B2104F59C7102F0CFFB636824
:103FB00093E40029BFF69AAC206884F85F2104F5E9
:103FC000AE7102F0C3FB636890E41904A6D49B06AB
:103FD0007FF5F7AE20219160F3E60029BFF68FACA4
:103FE000206884F8832104F5C07102F0AFFB636898
:103FF00085E44FF0000387F83F3051462046FEF736
:1040000035F942E7206804F54C7102F09FFB6368C4
:10401000FFF7D2BB0029BFF67BAC206884F8A7214C
:1040200004F5D27102F092FB636871E4206804F534
:10403000557102F08BFB6368FFF7C5BB990673D51A
:1040400020219160F4E500BF0A30544F0A31544FEB
:104050000029BFF666AC206884F8CB2104F5E47132
:1040600002F074FB63685CE4206804F55E7102F0A2
:104070006DFB6368FFF7AEBB0029BFF65BAC206841
:1040800084F8EF2104F5F67102F060FB636851E4F7
:10409000206804F5677102F059FB6368FFF7A1BB64
:1040A0000029BFF650AC206884F8132204F504718F
:1040B00002F04CFB636846E4206804F5707102F07E
:1040C00045FB6368FFF794BB0029BFF645AC206849
:1040D00084F8372204F50D7102F038FB63683BE485
:1040E000206804F5797102F031FB6368FFF787BB44
:1040F0000029BFF63AAC206884F85B2204F51671FB
:1041000002F024FB636830E4206804F5816102F06A
:104110001DFB6368FFF77ABB206804F22C4102F0B4
:1041200015FB6368FFF779BB13F0280F7FF480ADB0
:104130001B498C4502D91B043FF5F0AE1169DAF832
:104140009822C1F31201521ACAF89C22B9F1000F49
:104150007FF437AED4F89412D9B1D4F88C120A4453
:10416000C4F88C222DE6206804F58A6102F0EEFA8C
:104170006368FFF759BB04F2C442494602F036FCBB
:104180001FE6206804F2744102F0E0FA6368FFF76A
:1041900052BB04F2C442012102F028FC11E600BF28
:1041A0000A30544F90F8BC24012A0DD010B50446B3
:1041B0000122006884F8BC2484F8381002F0A2FBC5
:1041C000002084F8BC0410BD0220704710B501F037
:1041D0000F0E0906044627D44FF0240C0CFB0E0CDE
:1041E0000CF51F710EEBCE0C00EB8C0C00208CF844
:1041F0007D02CA604A7881F800E00B710AB1A1F82B
:1042000008E0022B04BF00234B7194F8BC34012B4F
:1042100018D0012384F8BC34206802F031F8002360
:1042200084F8BC34184610BD242000FB0E4000F179
:104230003C010EEBCE0004EB80004FF0010C80F847
:104240003DC0D6E7022010BD01F00F0303EBC3020F
:1042500011F0800F4FF0240110B500EB82020446EC
:1042600001FB030113D101F51F71002082F87D02CB
:104270000B7094F8BC34012B12D00123206884F811
:10428000BC3402F049F8002084F8BC0410BD3C3175
:10429000012082F83D000B7094F8BC34012BECD166
:1042A000022010BD10B501F00F0404EBC40C00EBAC
:1042B0008C0C2421CCF894320023CCF88C228CF87E
:1042C0007C42CCF89C328CF87D32036901FB0401FE
:1042D000012B08BFCCF89022006801F51F71DAB2FB
:1042E0001CB902F087F9002010BD02F077F8002019
:1042F00010BD00BF01F00F0101EBC10100EB810116
:10430000D1F89C02704700BF10B501F00F0404EB18
:10431000C40C00EB8C0C2421CCF854300023CCF8D6
:104320005C300123CCF84C208CF83C408CF83D30BC
:10433000036901FB0401012B08BFCCF85020006881
:104340003C31DAB21CB902F055F9002010BD02F080
:1043500045F8002010BD00BF38B5436801F00F05D7
:104360009D4233D80B0604461CD401EBC103242222
:1043700002FB010100EB830301F51F71002283F8AA
:104380007D2201238B700D7094F8BC249A421BD0BF
:10439000206884F8BC3402F05BFACDB1002084F8C8
:1043A000BC0438BD05EBC503242101FB050100EB6E
:1043B000830301223C3183F83D2001238B700D7073
:1043C00094F8BC249A42E3D1022038BD012038BDC4
:1043D000217C206804F2C44202F008FBDEE700BF43
:1043E000426838B501F00F0393422ED803EBC302A5
:1043F00011F0800F4FF02401044600EB820201FB14
:10440000030115D101F51F710020002582F87D02FE
:104410008D700B7094F8BC34012B14D001232068EC
:1044200084F8BC3402F042FA84F8BC54284638BD03
:104430003C310120002582F83D008D700B7094F80E
:10444000BC34012BEAD1022038BD012038BD00BFA9
:1044500010B40468606A31B940EA0240A0620020EA
:104460005DF8044B7047A36AB1F1010C00EB1340F7
:104470000BD0002303F1400104EB810101334968B3
:10448000DBB2634500EB1140F4D30CF1400C04EBBC
:104490008C0C40EA0240CCF804005DF8044B00208C
:1044A000704700BF0368002059627047704700BF23
:1044B000002800F0A2812DE9F0410368DD0782B0F9
:1044C00004462FD59E498A6802F00C02042A00F0A7
:1044D000ED808A6802F00C02082A00F0E38063682D
:1044E000B3F5803F00F0EC80B3F5A02F00F07581AC
:1044F000934D2A6822F480322A602A6822F48022AE
:104500002A60002B40F0E180FDF7B2FF064605E08F
:10451000FDF7AEFF801B642800F201812B689B032E
:10452000F6D423689F0728D5854A916811F00C0FAF
:1045300000F09080916801F00C01082900F086805D
:10454000E368002B00F00E817E4B7D4E01221A6045
:10455000FDF78EFF054605E0FDF78AFF401B0228A8
:1045600000F2DD8033689807F6D53368226923F0BE
:10457000F80343EAC203336023681A0751D458078B
:104580002FD56F4A136C13F080537FD000256E4EE9
:104590003368D90540F1B380A368012B00F0C380D4
:1045A000052B00F02C81664E326F22F0010232673B
:1045B000326F22F004023267002B40F0B980FDF721
:1045C00057FF41F28838074605E0FDF751FFC01B51
:1045D000404500F2A480336F9807F6D4002D40F0D8
:1045E0000681A069C8B1564DAB6803F00C03082BD7
:1045F00000F0C980534B002202281A6600F009819E
:10460000FDF736FF044605E0FDF732FF001B0228E8
:1046100000F285802B689B01F6D4002002B0BDE833
:10462000F08163690BB3474B454E0122C3F8802EDE
:10463000FDF71EFF054604E0FDF71AFF401B0228A8
:104640006DD8736F9B07F7D5236898E752685602B9
:104650003FF576AF3A4A1268950744D5E268012AD9
:1046600041D0012002B0BDE8F081364A344EC2F894
:10467000803EFDF7FDFE054604E0FDF7F9FE401B18
:1046800002284CD8736F9F07F7D4DDE70193136CB2
:1046900043F080531364136C03F080530193019B28
:1046A000012574E74A6850027FF519AF244A126861
:1046B00091037FF537AF6268002A7FF433AFD0E70C
:1046C0001F4A136843F480331360FDF7D1FE1C4E7C
:1046D000054604E0FDF7CCFE401B64281FD8336874
:1046E0009A03F7D51DE7164920690A6822F0F802F7
:1046F00042EAC0020A601A077FF541AF91E73368CA
:1047000043F480733360FDF7B3FE07463368DA0580
:104710003FF542AFFDF7ACFEC01B0228F6D90320DF
:1047200002B0BDE8F081064A136F43F0010313673E
:10473000FDF79EFE024F064641F288380BE000BFAF
:10474000003802400000474200700040FDF790FE34
:10475000801B4045E3D83B6F9B07F7D5002D3FF406
:1047600040AF44E0424A434E1360FDF781FE0546E8
:1047700004E0FDF77DFE401B0228D0D8336899077E
:10478000F7D42368F9E601283FF448AF6B68E26983
:1047900003F4800191427FF464AF226A03F03F0189
:1047A00091427FF45EAF616A47F6C0721A40B2EB85
:1047B000811F7FF456AFA26A520803F44031013AD8
:1047C000B1EB024F7FF44DAFE26A03F07063B3EBDD
:1047D000026F14BF0120002020E7264B1A6842F424
:1047E00080221A601A6842F480321A606DE7214A0A
:1047F000136C23F080531364F3E6012070471D4BC4
:104800001A6F42F004021A671A6F42F001021A6727
:104810008EE7FDF72DFE064605E0FDF729FE801B1D
:1048200002283FF67CAF2B689901F6D4D4E9073112
:10483000626A0B4343EA8213D4E90A21520843EA2D
:104840000163013A0A4943EA024301226B600A66A6
:10485000FDF70EFE074D044605E0FDF709FE001BBF
:1048600002283FF65CAF2B689A01F6D5D5E600BF6B
:104870000000474200380240164908B58B6803F033
:104880000C03042B1BD0082B17D14A684B684968CE
:1048900013F4800302F03F0213D10F48C1F38811D3
:1048A000A1FB0001FBF75AFE0A4B5B68C3F301430F
:1048B00001335B00B0FBF3F008BD074808BD0748B3
:1048C00008BD0648C1F388110023A1FB0001FBF7D6
:1048D00045FEE9E7003802400024F400001BB70061
:1048E000002800F08780484A136803F007038B42D2
:1048F0002DE9F0410D46044609D2CBB2137013687E
:1049000003F007038B4202D00120BDE8F081236849
:10491000980714D5590704D53C498A6842F4E052F7
:104920008A601A0704D539498A6842F460428A606D
:104930003649A0688A6822F0F00202438A60DF07E5
:1049400021D56268012A57D0931E012B2F4B1B687B
:104950004DD99907D8D52D4EB36823F003031343DF
:10496000B360FDF785FD41F28838074604E0FDF7A6
:104970007FFDC01B404544D8B368626803F00C0358
:10498000B3EB820FF3D1204A136803F00703AB4265
:1049900006D9EBB21370136803F00703AB42B3D12F
:1049A00023685A0706D51949E0688A6822F4E0525C
:1049B00002438A601B0707D5144A2169936823F4D0
:1049C000604343EAC1039360FFF756FF0F4A104C60
:1049D00092681049C2F303120346A25C0E48D3400A
:1049E00000680B60FCF754FC0020BDE8F0819801E2
:1049F000B1D489E701207047044B1B689E03AAD4F9
:104A000082E7032081E700BF003C024000380240FB
:104A1000D4BB0008040000206C000020014B186883
:104A2000704700BF04000020044B05499B68054AFD
:104A30000868C3F38223D35CD84070470038024033
:104A400004000020E4BB0008044B05499B68054AAC
:104A50000868C3F34233D35CD84070470038024043
:104A600004000020E4BB00080E4B0F2202609A688D
:104A700002F0030242609A6802F0F00282609A68D3
:104A800002F4E052C2609B68DB0810B403F4E05308
:104A9000054C036123685DF8044B03F007030B60CA
:104AA000704700BF00380240003C0240704700BF22
:104AB000704700BF704700BF704700BF704700BF1E
:104AC000704700BF704700BF704700BF00286ED01E
:104AD000416A70B50446002961D00023C0E904335F
:104AE00094F851200023A36202F0FF00002A5CD159
:104AF000314A324DA265324A324984F85000C4E945
:104B00001752314A3148A36FC4E919123049314A6A
:104B10006267C4E91B01002B4BD020469847D4E9BB
:104B2000091303F4005C2568A268022384F851305D
:104B30002B6823F040032B60636802F4044203F403
:104B400082731343E26802F400621343226902F0A5
:104B500002021343626902F001021A43E36901F0A1
:104B6000100003F03806A169236A03F0800E01F4F7
:104B7000007313433343090C43EA0E0301F00401AD
:104B800043EA0C0301432B606960EB69002023F4C6
:104B900000630122EB61606584F8512070BD4368B9
:104BA000B3F5827F9CD0C1619AE79C46BBE70120A8
:104BB0007047094BA367B0E7B14A0008B54A00083F
:104BC000B94A0008BD4A0008C14A0008C54A0008A1
:104BD000C94A0008AD4A000825110008704700BF07
:104BE000704700BF704700BF704700BF704700BFED
:104BF000704700BF704700BF704700BF704700BFDD
:104C0000704700BF002800F0A38010B590F83D3039
:104C1000044603F0FF020BBB836C504884F83C2031
:104C20004F4A5049C4F88010C4E921024E494F4A06
:104C30004F48C4E923124F4A4F49C4E925024F4A5D
:104C40004F48C4E927124F4A4F49C4E929024F4A45
:104C5000C4E92B12002B7DD02046984722684C498E
:104C6000022384F83D308A4213685DD0B2F1804F50
:104C700031D0A1F57C418A422DD001F580618A4274
:104C800029D001F580618A4225D001F578418A4218
:104C90004AD001F570518A4221D001F580618A42E3
:104CA0001DD001F580618A4219D0A1F598318A4260
:104CB00015D001F580618A4211D001F580618A42E8
:104CC0000DD0A069E16823F080030343136063689B
:104CD000D162936210E0A16823F070030B43206956
:104CE000A16923F44073034323F08003E0680B437E
:104CF00061681360D06291620123536184F8463089
:104D000084F83E3084F83F3084F8403084F84130F5
:104D100084F8423084F8433084F8443084F84530D5
:104D200084F83D30002010BDA068216923F0700395
:104D3000034323F440730B43A16923F080030B4327
:104D40001360E368D3626368936263691363D3E7B4
:104D5000012070470F4BA3647EE700BFE14B0008C2
:104D6000F94B0008C5100008FD4B0008E94B00088E
:104D7000ED4B0008E54B0008F14B0008F54B00082F
:104D8000014C000875550008795500087D5500084C
:104D9000000001406116000890F83D30012B2FD132
:104DA00003681949022280F83D20DA688B4242F0FC
:104DB0000102DA6019D0B3F1804F16D0134A934242
:104DC00013D002F5806293420FD002F580629342C5
:104DD0000BD002F57842934207D002F5705293420D
:104DE00003D0A2F59432934204D19A6802F00702EC
:104DF000062A07D01A6842F0010200201A607047A4
:104E0000012070470020704700000140000400406E
:104E1000002800F0A38010B590F83D30044603F060
:104E2000FF020BBB036E504884F83C204F4A5049A8
:104E3000C4F88010C4E921024E494F4A4F48C4E9E2
:104E400023124F4A4F49C4E925024F4A4F48C4E94B
:104E500027124F4A4F49C4E929024F4AC4E92B128D
:104E6000002B7DD02046984722684C49022384F8C5
:104E70003D308A4213685DD0B2F1804F31D0A1F548
:104E80007C418A422DD001F580618A4229D001F50A
:104E900080618A4225D001F578418A424AD001F5E5
:104EA00070518A4221D001F580618A421DD001F5FE
:104EB00080618A4219D0A1F598318A4215D001F556
:104EC00080618A4211D001F580618A420DD0A069CB
:104ED000E16823F08003034313606368D162936247
:104EE00010E0A16823F070030B432069A16923F44B
:104EF0004073034323F08003E0680B436168136051
:104F0000D06291620123536184F8463084F83E30C8
:104F100084F83F3084F8403084F8413084F84230DF
:104F200084F8433084F8443084F8453084F83D30C8
:104F3000002010BDA068216923F07003034323F40F
:104F400040730B43A16923F080030B431360E368B4
:104F5000D3626368936263691363D3E70120704788
:104F60000F4B23667EE700BFE14B0008F94B0008BA
:104F7000C5100008FD4B0008E94B0008ED4B000888
:104F8000E54B0008F14B0008F54B0008014C000808
:104F900075550008795500087D550008000001404E
:104FA000DD4B000803681A69910710B5044603D564
:104FB000DA68920700F18D801A69500702D5DA6825
:104FC000510771D41A69120702D5DA68100757D44D
:104FD0001A69D20602D5DA68D0063CD41A69D1071C
:104FE00002D5DA68D2072DD41A69100602D5DA681C
:104FF00011061ED41A69520602D5DA6850060FD47B
:105000001A6991060BD5DA68920608D56FF020016F
:10501000D4F8A82019612046BDE81040104710BD03
:105020006FF040021A612046D4F888309847236810
:10503000E6E76FF080021A612046D4F8B030984756
:105040002368D7E76FF001021A612046D4F8803058
:1050500098472368C8E76FF010010822196122778A
:10506000DB6913F4407F55D1D4F898302046984737
:10507000D4F89C3020469847002223682277ADE779
:105080006FF00801042219612277DB6999073CD18E
:10509000D4F8983020469847D4F89C30204698475A
:1050A00000222368227793E76FF00401022219613E
:1050B00022779B6913F4407F22D1D4F898302046A0
:1050C0009847D4F89C3020469847002223682277DE
:1050D00078E76FF002010122196102779B699B0753
:1050E0000AD1D0F898309847D4F89C302046984799
:1050F0000022236822775FE7D0F890309847F7E7DF
:10510000D4F8903020469847DFE7D4F89030204616
:105110009847C5E7D4F8903020469847ACE700BFE1
:1051200090F83C30012B00F0D280012370B584460A
:1051300080F83C300C2A08D8DFE802F03E07070769
:105140006B0707079B0707070C0000238CF83C3010
:10515000012070BD03680D681A6A22F480521A6239
:105160001A6A5C68D86920F4E64040EA05208D6838
:1051700022F4005242EA0532704DAB4200F0C88082
:1051800005F58065AB4200F0C3805C60D86148687B
:1051900018641A62D8690C6940F40060D861D96952
:1051A00021F48061D961DA6942EA0422DA610023DC
:1051B0008CF83C30002070BD03680D681A6A22F03C
:1051C00001021A621A6A5C68986920F07300284329
:1051D0008D6822F002022A43584DAB4279D005F582
:1051E0008065AB4275D05C609861486858631A620C
:1051F00098690C6940F008009861996921F00401F0
:1052000099619A6922439A6100238CF83C3000200E
:1052100070BD03680D681A6A22F010021A621A6AD9
:105220005C68986920F4E64040EA05208D6822F029
:10523000200242EA0512414DAB4259D005F5806586
:10524000AB4255D05C609861486898631A6298696F
:105250000C6940F400609861996921F4806199615A
:105260009A6942EA04229A6100238CF83C300020BB
:1052700070BD03680D681A6A22F480721A621A6A95
:105280005C68D86920F0730028438D6822F40072AE
:1052900042EA0522294DAB4240D005F58065AB427C
:1052A0003CD05C60D8614868D8631A62D8690C69E0
:1052B00040F00800D861D96921F00401D961DA69A8
:1052C0002243DA6100238CF83C30002070BD0220BC
:1052D0007047CD6822F008022A43D1E9056524F41D
:1052E000407446EA050E22F004024EEA04047AE70E
:1052F000CD6822F0800242EA0512D1E9056524F466
:10530000406446EA050E22F0400244EA8E0499E722
:105310004D6924F4804444EA851436E7CD6822F4CC
:10532000006242EA0522D1E9056524F4405446EAC8
:10533000050E22F4806244EA0E14B2E70000014038
:1053400090F83C30012B75D0024630B4022304683B
:1053500082F83D30012082F83C00A36823F47F43AB
:1053600023F07703A3600B68602B65D024D8402B13
:105370007CD04BD9502B17D14868CD68216A236A5D
:1053800023F001032362A36921F00A0123F0F00353
:10539000014343EA0513A3612162A36823F070036C
:1053A00043F057030020A3600121002382F83D1041
:1053B00082F83C3030BC7047B3F5805F38D0B3F52D
:1053C000005F10D1D1E90153A0682B43CD6820F4D0
:1053D0007F4143EA05230B43A360A36843F4804362
:1053E0000020A360E0E7702BDED1D1E90153A06873
:1053F0002B43CD6820F47F4143EA05230B43A36090
:10540000A36843F077030020A360CDE7202B02D0F0
:105410000AD9302BC8D1A16821F070010B4343F0A9
:1054200007030020A360BFE733F01001BCD1F2E70F
:105430000020B9E702207047206ACB684D6820F051
:1054400010002062A16921F4704141EA0331236A0E
:10545000A16123F0A00343EA05132362A36823F0AC
:10546000700343F067030020A3609DE74868CD68A0
:10547000216A236A23F001032362A36921F00A0150
:1054800023F0F003014343EA0513A3612162A368FB
:1054900023F0700343F047030020A36084E700BFBC
:1054A00090F83C30012B37D00368022230B480F8EA
:1054B0003D205A680D689C6822F070022A435A60A9
:1054C000164A93421AD0B3F1804F17D0A2F57C420E
:1054D000934213D002F5806293420FD002F58062AE
:1054E00093420BD002F57842934207D002F57052F6
:1054F000934203D0A2F59432934204D14A6824F037
:10550000800414439C600023012280F83D2080F831
:105510003C3030BC18467047022070470000014004
:1055200090F83C30012B23D010B4D1E9024323F48E
:1055300040730246234348680C6823F480630343A6
:1055400023F400630869234323F480530343486929
:10555000CC6923F40053034323F4804310680021F3
:105560002343436482F83C1008465DF8044B7047BF
:1055700002207047704700BF704700BF704700BFF0
:10558000704700BF0368806B1B6813F480731AD1E7
:105590000268C38402F1140353E8003F23F0800340
:1055A00002F1140040E800310029F3D102F10C03AC
:1055B00053E8003F43F0400302F10C0040E80031A3
:1055C0000029F3D17047836C184700BF806B436C90
:1055D000184700BF806B0023C385426DC38410470A
:1055E0008368B3F5805F2CD0826A13B303685B686D
:1055F00003F07F031370836A01338362C38D013B21
:105600009BB2C385E3B90268D16821F02001D16063
:10561000D16821F48071D16051694FF0200C21F0E4
:105620000101516180F83EC0016B012919D0036D61
:1056300018470369002BD9D103685B681370DAE758
:105640007047036943B90268836A5268C2F308026B
:1056500023F8022B8362D1E70368826A5B681370C8
:10566000C9E7036302F10C0353E8003F23F0100382
:1056700002F10C0C4CE800310029F3D11368DB0671
:105680000BD582B0002301931368019353680193F3
:10569000019B818D836E02B01847836E818D184700
:1056A000704700BF704700BF704700BF704700BF22
:1056B000704700BF704700BF704700BF704700BF12
:1056C000806B0368596990F83D20212A0AD05969F6
:1056D00090F83E20222A1DD0036C426D43F0100347
:1056E000036410470906F2D50022C28403F10C02BC
:1056F00052E8002F22F0C00203F10C0C4CE800210C
:105700000029F3D1202280F83D20596990F83E20ED
:10571000222AE1D14A06DFD50022C28503F10C021C
:1057200052E8002F22F4907203F10C0C4CE8002197
:105730000029F3D103F1140252E8002F22F00102F4
:1057400003F1140C4CE800210029F3D1026B012A6B
:1057500005D02022002380F83E200363BCE703F13C
:105760000C0252E8002F22F0100203F10C0C4CE85E
:1057700000210029F3D1ECE7002800F0A28038B521
:1057800090F83D30044603F0FF02CBB9C36E4F489A
:1057900084F83C204E4A4F496164C4E912024E49E4
:1057A0004E4A4F48C4E914124E4A4F492166C4E993
:1057B00016024E4AA266002B00F0858020469847CC
:1057C0002368E068242284F83D20DA6822F400523D
:1057D000DA601969A26821F4405101432069196116
:1057E00002436069D9680243E06921F4164121F05F
:1057F0000C0102430A43DA605A69A0693C4922F469
:10580000407202438B425A6135D03A4A934232D0B9
:10581000FFF70AF9E369B3F5004F32D06368192145
:105820009A00A0FB01019B0FFAF798FE3249A1FBF9
:1058300000325209642505FB120000013230236852
:10584000A1FB0010120102EB501098601A6922F4BB
:1058500090421A615A6922F02A025A61DA680025D8
:10586000202142F40052DA60256484F83D1084F867
:105870003E10284638BDFFF7E7F8E369B3F5004F5F
:10588000CCD16268192192184FF000035B41A0FB54
:105890000101FAF763FE184BA3FB00214D096422B6
:1058A00002FB1502D2003232A3FB0232C2F34211D4
:1058B0001209236801EB051102F4F8720A449A6098
:1058C000C4E7012070470D4BE36677E7A556000853
:1058D000B1560008A9560008AD560008B556000894
:1058E000B9560008BD560008A156000881550008A9
:1058F00000100140001401401F85EB51F11B00080E
:10590000034672B390F83C00012830D093F83DC0B4
:105910000120BCF1200F83F83C0011D010B493F8A3
:105920003D401CB90B2919D00C2914D01A6C42F037
:1059300020021A64002283F83C205DF8044B704773
:105940000C2916D8DFE801F02427303336392A2D08
:105950001515151E21001A670020EBE7DA660020F6
:10596000E8E7026C42F0200201201A64704702202E
:1059700070471A6C42F0200201201A64002283F85A
:105980003C207047DA660020F8E71A670020F5E748
:105990005A640846F2E79A640020EFE7DA650020CF
:1059A000ECE71A660020E9E7DA640020E6E71A650A
:1059B0000020E3E75A650020E0E79A650020DDE774
:1059C000F8B5044690F83D00202835D191B38AB34C
:1059D00094F83C0001282FD00120E28484F83C0098
:1059E000A284606BDFF85CC0144F154E2162134631
:1059F000226800254FF0210E2564043284F83DE032
:105A0000C0E90FC7C0E91365FDF710FA22686FF00F
:105A10004003136084F83C5002F1140353E8003F44
:105A200043F0800302F1140040E800310029F3D173
:105A30000020F8BD0120F8BD0220F8BDCD550008BA
:105A4000C15600088555000830B503681A68D96842
:105A50005D6912F00F0F83B004466CD1950602D534
:105A60008D0600F1BC80206B01280BD0100602D5FA
:105A70000D0600F1BE80500602D54A0600F1A28054
:105A800003B030BDD506F1D5C806EFD5002201928E
:105A90001A6801925A680192019A5A69550640F1B2
:105AA0001181A06B0268526892B2002AE8D0A18DE1
:105AB0009142E5D9E285C269B2F5807F36D003F123
:105AC0000C0252E8002F22F4807203F10C0545E825
:105AD00000210029F3D103F1140252E8002F22F033
