:020000040800F2
:1000000000000220E1910008810F0008850F000820
:10001000890F00088D0F0008910F000800000000F4
:1000200000000000000000000000000091740008C3
:10003000950F00080000000021750008E571000818
:100040003192000831920008319200083192000884
:100050003192000831920008319200083192000874
:1000600031920008990F0008A10F00083192000892
:10007000A90F00083192000831920008319200085F
:10008000319200083192000831920008B50F000843
:10009000C10F00083192000831920008CD0F00080E
:1000A0003192000831920008319200083192000824
:1000B00031920008D50F00083192000831920008F3
:1000C0003192000831920008319200083192000804
:1000D00031920008E10F000831920008F90F000882
:1000E00031920008319200083192000831920008E4
:1000F00031920008319200083192000831920008D4
:1001000031920008319200083192000831920008C3
:1001100031920008319200083192000831920008B3
:1001200031920008111000081D1000083910000855
:100130003192000831920008319200084510000801
:100140005110000831920008319200085D1000083B
:100150006910000875100008811000088D10000853
:100160003192000831920008319200083192000863
:10017000319200083192000831920008000000001E
:080180003192000831920008E1
:1001900010B5054C237833B9044B13B10448AFF3C1
:1001A00000800123237010BD00010020000000002A
:1001B000A0B0000808B5034B1BB103490348AFF3D7
:1001C000008008BD0000000004010020A0B000086D
:1001D00010F8012B11F8013B012A28BF9A42F7D0F1
:1001E000D01A704753B94AB9002908BF00281CBF6C
:1001F0004FF0FF314FF0FF3000F074B9ADF1080C53
:100200006DE904CE00F006F8DDF804E0DDE9022334
:1002100004B070472DE9F047089D04468E46002B38
:100220004DD18A42944669D9B2FA82F252B101FAAA
:1002300002F3C2F1200120FA01F10CFA02FC41EABA
:10024000030E94404FEA1C48210CBEFBF8F61FFA3F
:100250008CF708FB16E341EA034306FB07F19942DA
:100260000AD91CEB030306F1FF3080F01F8199428D
:1002700040F21C81023E63445B1AA4B2B3FBF8F067
:1002800008FB103344EA034400FB07F7A7420AD9EE
:100290001CEB040400F1FF3380F00A81A74240F216
:1002A00007816444023840EA0640E41B00261DB181
:1002B000D4400023C5E900433146BDE8F0878B42B6
:1002C00009D9002D00F0EF800026C5E90001304675
:1002D0003146BDE8F087B3FA83F6002E4AD18B424F
:1002E00002D3824200F2F980841A61EB03030120F9
:1002F0009E46002DE0D0C5E9004EDDE702B9FFDEE5
:10030000B2FA82F2002A40F09280A1EB0C014FEA8F
:100310001C471FFA8CFE0126200CB1FBF7F307FBEC
:10032000131140EA01410EFB03F0884208D91CEB8F
:10033000010103F1FF3802D2884200F2CB8043462C
:10034000091AA4B2B1FBF7F007FB101144EA01440B
:100350000EFB00FEA64508D91CEB040400F1FF319A
:1003600002D2A64500F2BB800846A4EB0E0440EA88
:1003700003409CE7C6F12007B34022FA07FC4CEA91
:10038000030C20FA07F401FA06F31C43F9404FEA84
:100390001C4900FA06F3B1FBF9F8200C1FFA8CFE99
:1003A00009FB181140EA014108FB0EF0884202FAED
:1003B00006F20BD91CEB010108F1FF3A80F08880AE
:1003C000884240F28580A8F102086144091AA4B26B
:1003D000B1FBF9F009FB101144EA014100FB0EFEEC
:1003E0008E4508D91CEB010100F1FF346CD28E451B
:1003F0006AD90238614440EA0840A0FB0294A1EBAC
:100400000E01A142C846A64656D353D05DB1B3EB08
:10041000080261EB0E0101FA07F722FA06F3F14038
:100420001F43C5E9007100263146BDE8F087C2F1DF
:100430002003D8400CFA02FC21FA03F39140014357
:100440004FEA1C471FFA8CFEB3FBF7F007FB103690
:100450000B0C43EA064300FB0EF69E4204FA02F43C
:1004600008D91CEB030300F1FF382FD29E422DD98F
:10047000023863449B1B89B2B3FBF7F607FB1633C4
:1004800041EA034106FB0EF38B4208D91CEB010144
:1004900006F1FF3816D28B4214D9023E6144C91AC4
:1004A00046EA004638E72E46284605E70646E3E6D4
:1004B0001846F8E64B45A9D2B9EB020864EB0C0EDE
:1004C0000138A3E74646EAE7204694E74046D1E7ED
:1004D000D0467BE7023B614432E7304609E764449B
:1004E000023842E7704700BF10B5064809F09AFF8E
:1004F000442009F073FF044904460AF077FB034BDC
:100500001C6010BDF0090020640A00201C010020BE
:1005100080B5124D124F134E82B00021084609F0EB
:10052000A3FF09F0A3FF2C68B4F92C30B4F92A20FA
:10053000B4F92810B4F92E400094384609F090FF21
:1005400029683046CB6B91F8312091F8301009F0D2
:1005500087FF642006F0CCFEDFE700BF1C0100200F
:10056000B8B00008E4B000080D480E49032210B5E9
:100570000023C0E900124FF001224FF400244FF491
:10058000401182618383C0E90233C0E9044101F074
:10059000D9FD00B910BDBDE8104000F0D5BB00BFCB
:1005A00024010020006400400D480E49032210B5CC
:1005B0000023C0E900124FF001224FF400244FF451
:1005C000401182618383C0E90233C0E9044101F034
:1005D000B9FD00B910BDBDE8104000F0B5BB00BFCB
:1005E000880100200068004030B502684C498DB099
:1005F00000238A42CDE90633CDE908330A933FD080
:1006000048498A4201D00DB030BD474A0393116C6E
:10061000464841F080611164116C01F080610391E2
:100620000168039C01310129016065D03E4B002225
:100630000592186B40F0020018631B6B3C489FED5D
:10064000347B03F00203059306A9092303248DEDEF
:10065000067BCDE90943059D02F00EFA0022052133
:100660003F2001F069FF3F2001F0A4FF0022052197
:10067000402001F061FF402001F09CFF0DB030BD33
:100680002A490A680132012A0A6029D0264B002231
:100690000292186B40F0080018631B6B25489FED11
:1006A0001E7B03F00803029306A9092303248DEDA2
:1006B000067BCDE90943029D02F0DEF90022052107
:1006C000132001F039FF132001F074FF00220521EF
:1006D000142001F031FF142001F06CFF0DB030BD8B
:1006E000114A0193136C43F000731364136C03F00D
:1006F00000730193019BC9E70493136C43F00073EB
:100700001364136C03F000730493049B8EE700BF23
:100710006000000002000000030000000200000072
:1007200000640040006800400038024020010020C2
:1007300000040240000C024000B583B0274B0022A9
:100740000092186B40F480001863186B00F480006E
:10075000009000980192186B40F4001018631B6B16
:1007600003F40013052101930C20019B01F0E4FE2A
:100770000C2001F01FFF00220521392001F0DCFED2
:10078000392001F017FF002205213A2001F0D4FEA4
:100790003A2001F00FFF002205213B2001F0CCFEA2
:1007A0003B2001F007FF00220521442001F0C4FE98
:1007B000442001F0FFFE00220521452001F0BCFE8F
:1007C000452001F0F7FE00224620052101F0B4FE8D
:1007D000462003B05DF804EB01F0ECBE00380240A7
:1007E000704700BF704700BF704700BF704700BF31
:1007F000704700BF704700BF00B583B0019001F0A3
:10080000A1F90198FFF784FE012006F071FDFBE7D6
:1008100008B5FFF769FEFFF7E3FFFFF7E3FFFFF718
:10082000E3FFFFF7E3FF064A0648002106F014FD48
:10083000054B1860FFF7DCFFFFF7DCFF08BD00BFCA
:100840000CB10008F9070008EC01002000000000CE
:100850002DE9F04F2DED028B002491B0CDE90A4433
:10086000CDE90C44884B01940E941A6B874FDFF846
:100870002CB2DFF82CA2864E42F002021A631A6BE9
:1008800002F002020192019A02941A6B42F04002B5
:100890001A631A6B02F040020292029A03941A6BD6
:1008A00042F001021A631A6B02F001020392039AEA
:1008B00004941A6B42F008021A631A6B02F00802E1
:1008C0000492049A05941A6B42F004021A631A6B9C
:1008D00002F004020592059A06941A6B42F48072A3
:1008E0001A631A6B02F480720692069A07941A6BC6
:1008F00042F020021A631A6B02F020020792079A54
:1009000008941A6B42F080021A631A6B02F080029C
:100910000892089A09941A6B42F010021A631B6B32
:1009200003F010030993224638464FF48071099B67
:1009300002F0C2F958460122402102F0BDF95046AA
:100940000122102102F0B8F901221146304602F0CE
:10095000B3F9224630464FF4404102F0ADF901258B
:100960000AA9C02200234B480C95CDE90A234FF079
:10097000010802F081F84FF000099FED418B0AA9B0
:1009800038464FF480720123CDE90A23CDE90C8962
:1009900002F072F80AA9384640220023CDE90A2362
:1009A0000C9502F069F80AA9584640220123CDE9C6
:1009B0000A238DED0C8B02F05FF808224FF404132C
:1009C00058460AA9CDE90A230C9502F055F80AA960
:1009D00050464FF0020BCDE90A890C9502F04CF815
:1009E00050460AA94FF0010A10220123CDE90A233B
:1009F000CDE90CAB02F040F838460AA930224FF49A
:100A00000413CDE90A230C9502F036F84FF4804226
:100A100000230AA920480C95CDE90A2302F02CF8FE
:100A20000AA930468DED0A8BCDE90CAB02F024F813
:100A300001230AA930464FF44042CDE90A23CDE90B
:100A40000C8902F019F822460521092001F074FDF5
:100A5000092001F0AFFD224605210A2001F06CFDBE
:100A60000A2001F0A7FD22460521172001F064FDB0
:100A7000172001F09FFD11B0BDEC028BBDE8F08F97
:100A800001000000010000000038024000080240A0
:100A90000004024000200240001002400018024002
:100AA0000000024010B50B480B4C0C4900234FF4DA
:100AB0008042C0E90041C0E90233C0E90423C0E933
:100AC0000633036202F008F900B910BDBDE810401A
:100AD00000F03AB9F001002000580040801A0600EA
:100AE00010B50B480B4C0C4900234FF48042C0E971
:100AF0000041C0E90233C0E90423C0E906330362C0
:100B000002F0EAF800B910BDBDE8104000F01CB9D1
:100B100044020020005C0040801A06002DE970436A
:100B200003683A4A8CB000249342CDE90644CDE9EB
:100B300008440A9405D0364A934228D00CB0BDE848
:100B40007083344D01942B6B334843F020032B63A7
:100B50002B6B03F02003019303221223CDE906231C
:100B600001220323CDE9082306A904230A93019A4D
:100B700001F082FF02942B6C43F480032B642B6CF6
:100B800003F480030293029B0CB0BDE87083214DF7
:100B900003942B6B214843F004032B632B6B03F06E
:100BA00004030393039B04942B6B43F001032B6317
:100BB0002B6B03F0010304934FF400724FF0010814
:100BC0004FF00309042606A91223CDE90623CDE937
:100BD0000889049B0A9601F04FFF4FF4807212239C
:100BE0000F480A9606A9CDE90623CDE9088901F048
:100BF00043FF05942B6C43F400032B642B6C03F42C
:100C000000030593059B0CB0BDE8708300580040BD
:100C1000005C00400038024000140240000802401E
:100C2000000002400000000010B5002394B0CDE9A0
:100C30000A33CDE90C33CDE90233CDE9043326493B
:100C400000930693086C254A40F080500864096CB4
:100C500001F08051009100990193136843F480439F
:100C6000136013689FED187B03F480430221019306
:100C70004FF480000623CDE90E10A822109308A897
:100C800007238DED087BCDE91121019C139303F01F
:100C9000ABF808B172B6FEE79FED0D7B4FF4A053A1
:100CA0000022CDE9042302A84FF4805305218DEDE5
:100CB000027B069303F0B0FA08B172B6FEE714B0F7
:100CC00010BD00BFAFF30080010000000000010074
:100CD0000F000000020000000038024000700040D9
:100CE00008B501F0D7F9FFF79FFFFFF7B1FDFFF758
:100CF00023FDFFF739FCFFF757FC00F059FD00F02A
:100D000073FD00F091FDFFF7EBFE00F07DFC00F0BD
:100D10001DF800F0D9FC00F0DFFBFFF7C3FE00F088
:100D200007FA00F0C9F906F06BFAFFF771FD06F05B
:100D300079FAFEE7034B02689A4200D0704701F04F
:100D4000C3B900BF0004004072B6FEE710B50F48FB
:100D50000F4C4FF48272C0E90042022101220023AD
:100D6000C0E904124FF4007438210A22C0E90233AA
:100D7000C0E90641C0E90833C0E90A3203F042FB8A
:100D800000B910BDBDE81040FFF7DEBF58030020DA
:100D9000003001402DE9F043424B02688BB0002443
:100DA0009A42CDE90444CDE90644089402D00BB040
:100DB000BDE8F08303F5843301945A6C3A4E42F453
:100DC00080525A645A6C02F480520192019A029441
:100DD0001A6B42F002021A631A6B02F002020292CC
:100DE000029A03941A6B42F001021A631B6B03F020
:100DF00001030393182202234FF001084FF0030967
:100E0000052704A9054629480897CDE90423CDE91B
:100E10000689039B01F030FE8022022324480897B4
:100E200004A9CDE90423CDE9068901F025FE214A74
:100E300074624FF0C063C6E9002330464FF480620D
:100E40004FF44033C6E90244C6E90424C6E9064427
:100E5000336201F0BDFBF0B9174C1849EE644FF056
:100E6000C062C4E900124FF4806200234021226175
:100E700020464FF40032C4E90213C4E90533C4E943
:100E80000732B563636201F0A3FB38B9AC64A563B4
:100E90000BB0BDE8F083FFF757FFDDE7FFF754FF26
:100EA000F4E700BF00300140980200200004024037
:100EB0000000024040640240F802002058640240F2
:100EC00082B00E4B00220092596C41F4804159646B
:100ED000586C00F48040009000980192186C40F02B
:100EE000805018641B6C03F080530193019B0F2109
:100EF0006FF0010002B001F01FBB00BF00380240DC
:100F000030B5014689B000221D2001F015FB1D20DF
:100F100001F050FB0025164B02951A6C154C42F05F
:100F200002021A641B6C03F0020301A903A80293D6
:100F3000029B03F035FA03F013FA0F4A0F492160C0
:100F40004300A2FB03239B0C013B40F2E732204607
:100F5000C4E903256360A56003F0F0FA10B1012035
:100F600009B030BD204603F0B3FB09B030BD00BF6F
:100F700000380240D803002083DE1B4300040040F9
:100F8000FEE700BFFEE700BFFEE700BFFEE700BFD1
:100F9000FEE700BF704700BF082001F091BE00BF10
:100FA000102001F08DBE00BF014801F043BC00BF1E
:100FB000D0080020014801F081B900BF24010020C1
:100FC000014801F07BB900BF24010020202001F07E
:100FD00077BE00BF014803F081BC00BFD8030020EA
:100FE00008B5044809F018FDBDE80840014804F0C0
:100FF000C7B900BFF009002008B5044809F00CFD8E
:10100000BDE80840014804F0BBB900BF640A0020F5
:10101000014801F00FBC00BF3009002008B50448AA
:1010200009F0C4F9BDE80840024801F003BC00BF64
:101030005803002098020020014801F0FBBB00BFCC
:10104000F8020020014801F039B900BF88010020F2
:10105000014801F033B900BF88010020014801F0C8
:10106000B1BF00BF28200020014801F0E3BB00BF52
:1010700010080020014801F0DDBB00BF90090020EE
:10108000014801F0D7BB00BF7008002008B5044834
:1010900009F0C2FCBDE80840014804F071B900BF86
:1010A000D80A0020034AD2F8883043F47003C2F80B
:1010B0008830704700ED00E000B51B481B4A026015
:1010C000A722002387B0426040F6C312CDE9023365
:1010D000CDE90433CDE90033C0E90232C0E904337D
:1010E000836103F02BFA98B94FF480530E480293B2
:1010F00002A903F0C1FD98B9002200230A486946FD
:10110000CDE9002303F068FE28B907B05DF804FBC1
:10111000FFF71AFEE8E7FFF717FE07B05DF804FBDC
:10112000FFF712FEE8E700BF5C0700200004014063
:1011300010B55D4C5D4992B00023A7222046CDE951
:101140000A33CDE90C33CDE90E33C4E90012C4E90A
:10115000023310932361A36103F0F0F950BB5248AE
:1011600003F0F2FA18BB9FED467B00224E480C922A
:101170000AA98DED0A7B0E9203F06EFCA0B92268DD
:101180004B4900238A42CDE90433CDE90633089365
:101190002AD048498A4240D047498A4256D04349DA
:1011A0008A420AD012B010BDFFF7CEFDE7E7FFF785
:1011B000CBFDD8E7FFF7C8FDD1E7404A0393136B97
:1011C0003F4843F020031363136B9FED2F7B03F025
:1011D00020030324039304A98DED047BCDE9074488
:1011E000039B01F049FCDDE7344A0093136B43F0A5
:1011F00010031363136B9FED267B03F01003009322
:10120000009830480322012304A98DED047B079246
:10121000089301F031FC12B010BD284A0193136B02
:1012200043F008031363136B9FED1B7B03F008036C
:101230000193019824480322022304A98DED047B25
:101240000792089301F018FC12B010BD1B4A0293DC
:10125000136B43F080031363136B9FED117B03F05B
:1012600080030293029819480322022304A98DEDFA
:10127000047B0792089301F0FFFB12B010BD00BF82
:1012800060000000000000004000000002000000BC
:10129000002A0000020000000040000002000000E0
:1012A000001C000002000000400500200044014036
:1012B0000000014000080040000C004000380240DF
:1012C0000014024000100240000C0240001C0240CA
:1012D0002A4A0368934286B026D0294A934215D001
:1012E000284A93422ED0284A934239D0274A934223
:1012F00018D1274B002205925A6C42F400325A64EE
:101300005B6C03F400330593059B0BE0204B00223C
:1013100002921A6C42F004021A641B6C03F004037C
:101320000293029B06B07047194B002201925A6C3F
:1013300042F001025A645B6C03F001030193019BCC
:1013400006B07047124B002203921A6C42F008025A
:101350001A641B6C03F008030393039B06B07047E9
:101360000B4B002204925A6C42F002025A645B6CEE
:1013700003F002030493049B06B070470000014091
:1013800000080040000C00400004014000440140FF
:10139000003802400000000010B5026844498AB0DD
:1013A00000238A42CDE90433CDE90633089321D0E6
:1013B00040498A4237D040498A424DD03F498A420B
:1013C00001D00AB010BD3E4A0393136B3D4843F071
:1013D00020031363136B9FED2E7B03F02003032484
:1013E000039304A98DED047BCDE90744039B01F031
:1013F00043FBE6E7324A0093136B43F01003136399
:10140000136B9FED257B03F01003009300982E488B
:101410000322012304A98DED047B0792089301F0B8
:101420002BFB0AB010BD264A0193136B43F008034F
:101430001363136B9FED1A7B03F00803019301986C
:1014400022480322022304A98DED047B079208930E
:1014500001F012FB0AB010BD194A0293136B43F05E
:1014600080031363136B9FED107B03F080030293E3
:10147000029817480322022304A98DED047B0792EA
:10148000089301F0F9FA0AB010BD00BFAFF3008075
:101490004000000002000000002A000002000000DE
:1014A0000040000002000000001C000002000000DC
:1014B0000000014000080040000C004000440140D2
:1014C000003802400014024000100240000C0240AC
:1014D000001C02400000000010B5002496B020223D
:1014E00021460EA8CDE90344CDE90744CDE90944DE
:1014F000CDE90B440294009406940594019409F0FC
:10150000C7FD3F483F4A8461A723C0E9002340F656
:10151000C313C0E90243C0E9044403F00FF80028F4
:101520004BD14FF480533648029302A903F0A4FB39
:1015300000285BD1324803F007F9002853D100227C
:1015400000232F486946CDE9002303F045FC00281D
:1015500046D160204FF47A71CDE9060100200021C8
:10156000CDE90801CDE90A01002225480C9206A91F
:1015700003F072FA88BB2248042206A903F06CFA31
:1015800040BB1F48082206A903F066FAF8B99FED90
:101590001A7B00230022CDE90E23CDE91023184841
:1015A00000230EA98DED127B159303F055FC38B97D
:1015B0001348FFF7F1FE16B010BDFFF7C5FBB0E70B
:1015C000FFF7C2FB0E48FFF7E7FE16B010BDFFF7AE
:1015D000BBFBDCE7FFF7B8FBD3E7FFF7B5FBCAE7D8
:1015E000FFF7B2FBB5E7FFF7AFFBA8E7FFF7ACFBF0
:1015F000A0E700BFAFF30080000000000020000063
:101600008C0400200000014000B52D482D4A8FB009
:101610000023CDE90233CDE90433CDE90033CDE930
:101620000633CDE90833CDE90A33C0E902330C9320
:10163000036183615323C0E9002302F07FFF38BBBD
:101640004FF480531E48029302A903F015FB80BBA0
:101650001B4803F079F848BB00220023184869466C
:10166000CDE9002303F0B8FBE8B99FED137B00231D
:101670001348089306A908228DED067B0A9303F010
:10168000EBF940B90E48FFF787FE0FB05DF804FB99
:10169000FFF75AFBD4E7FFF757FB0948FFF77CFE3B
:1016A0000FB05DF804FBFFF74FFBDEE7FFF74CFBE5
:1016B000D2E7FFF749FBCBE7600000000000000025
:1016C000F40500200008004000B53748374A8FB0C5
:1016D0000023CDE90233CDE90433CDE90033CDE970
:1016E0000633CDE90833CDE90A33C0E902330C9360
:1016F000036183615323C0E9002302F01FFF002828
:1017000034D14FF480532848029302A903F0B4FA6D
:10171000002842D1244803F017F800283AD10022CB
:10172000002321486946CDE9002303F055FB70BB37
:101730009FED1B7B00221C48089206A98DED067BBD
:101740000A9203F089F9F8B91748042206A903F0B0
:1017500083F9B0B91448082206A903F07DF940B90D
:101760001148FFF719FE0FB05DF804FBFFF7ECFA24
:10177000C7E7FFF7E9FA0C48FFF70EFE0FB05DF878
:1017800004FBFFF7E1FAE5E7FFF7DEFADCE7FFF736
:10179000DBFACDE7FFF7D8FAC1E7FFF7D5FAB9E7EB
:1017A0006000000000000000A8060020000C0040BF
:1017B00010B50B480B4C00234FF4E1310C22C0E96B
:1017C0000041C0E90233C0E90432C0E9063303F046
:1017D0006FFC00B910BDBDE81040FFF7B5BA00BFFF
:1017E000F0090020001001400C480D490D4A10B5C9
:1017F0000023C0E900124FF480544FF480610422AA
:10180000C0E90243C0E90412C0E9063303F050FC0A
:1018100000B910BDBDE81040FFF796BA640A002079
:1018200000480040A086010010B50B480B4C002377
:101830004FF4E1310C22C0E90041C0E90233C0E9B4
:101840000432C0E9063303F033FC00B910BDBDE833
:101850001040FFF779BA00BFD80A002000140140F9
:101860002DE9F0430368A54A8FB000249342CDE9E7
:101870000844CDE90A4405460C940AD0A04A934294
:1018800000F083809F4A934200F0C7800FB0BDE80C
:10189000F0839D4B01945A6C9C489D4E42F010027F
:1018A0005A645A6C02F010020192019A02941A6B67
:1018B00042F002021A631A6B02F002020292029ACA
:1018C00003941A6B42F001021A631B6B03F00103CD
:1018D0000393802202234FF001084FF003090727EA
:1018E00008A9CDE90823CDE90A89039B0C9701F0EB
:1018F000C3F84FF40072022386480C9708A9CDE97B
:101900000823CDE90A8901F0B7F8834A74624FF0E1
:101910000063C6E900234FF4806340223361304600
:101920004FF48033C6E90224C6E90544C6E90743FB
:1019300000F04EFE002840F0D480784C78496E6369
:101940004FF000620023C4E9001220464FF480618A
:101950004FF48032C4E90233C4E90413C4E9063306
:10196000B5632262636200F033FE002840F0B68067
:10197000AC63002205212520A56300F0DDFD2520B4
:1019800000F018FE0FB0BDE8F0835F4B04941A6CB2
:101990006448654E42F480221A641A6C02F4802274
:1019A0000492049A05941A6B42F004021A631B6BAA
:1019B00003F0040305934FF440620223CDE90823AA
:1019C00001220323CDE90A2308A907230C93059BD1
:1019D00001F052F8554A74624FF00063C6E90023E3
:1019E00030464FF480624FF40033C6E90244C6E942
:1019F0000424C6E90644336200F0EAFD002873D1EE
:101A0000AE63002205212720B56300F095FD272055
:101A100000F0D0FD0FB0BDE8F0833B4B06945A6C4C
:101A20004348444E42F020025A645A6C02F02002AD
:101A30000692069A07941A6B42F040021A631B6BD7
:101A400003F0400307934FF484420223CDE90823B7
:101A500001220323CDE90A2308A908230C93079B3D
:101A600001F00AF8344A74624FF02063C6E900239B
:101A700030464FF480624FF40033C6E90244C6E9B1
:101A80000424C6E90644336200F0A2FD90BB2B4C4F
:101A90002B49AE634FF02062C4E900124FF480621C
:101AA00000234021226120464FF48032C4E9021312
:101AB000C4E90533C4E90732B563636200F088FD09
:101AC000A8B96C63002205214720A56300F034FD0E
:101AD000472000F06FFD0FB0BDE8F083FFF734F949
:101AE00046E7FFF731F928E7FFF72EF988E7FFF718
:101AF0002BF9E6E7FFF728F9C9E700BF001001401E
:101B00000048004000140140003802400004024038
:101B10007008002000000240B86402401008002055
:101B20008864024000080240D0080020286002407B
:101B3000001802403009002028640240900900206B
:101B4000A064024008B518491848002204F068FE55
:101B500070B91749154804F077FE88B9154913483C
:101B600004F01CFEA0B9114804F08AFEB8B908BD03
:101B7000FFF7EAF80E490D4804F066FE0028EDD0A4
:101B8000FFF7E2F80B49094804F008FE0028EAD004
:101B9000FFF7DAF8054804F073FE0028E7D0BDE847
:101BA0000840FFF7D1B800BF1C0000204C0B0020FC
:101BB00070000020080000200020704700207047BF
:101BC0000020704710B5054C0146204604F000FE89
:101BD000204604F009FE002010BD00BF4C0B002081
:101BE00010B5064C06490022204604F0E3FD0549E5
:101BF000204604F0EDFD002010BD00BF4C0B00207E
:101C000028160020280E0020122301480B80704760
:101C100038000020042301480B8070474C0000204E
:101C200010B5044C04480A46214605F06DFA2046DA
:101C300010BD00BF281E002048B1000810B5044C9C
:101C400004480A46214605F05FFA204610BD00BF51
:101C5000281E00205CB1000810B5044C04480A4658
:101C6000214605F051FA204610BD00BF281E002075
:101C700078B1000810B5044C04480A46214605F026
:101C800043FA204610BD00BF281E002084B1000882
:101C9000454AD2F8100AD2F8183A4FF01A0CC31875
:101CA000A1F800C001D141487047D2F8141A3F4A48
:101CB000180FB3F1204F2CBF373030309070C3F382
:101CC000036009288CBF373030301071C3F30350E4
:101CD00009288CBF373030309071C3F30340092896
:101CE0008CBF373030301072C3F3033009288CBFFB
:101CF000373030309072C3F3032009288CBF37305F
:101D000030301073C3F30310092803F00F038CBFA6
:101D100037303030092B94BF3033373313740023FE
:101D2000B1F1204F53744FEA11732CBF3733303366
:101D30009374C1F30363092B8CBF373330331375AE
:101D4000C1F30353092B4FF0000C8CBF37333033F2
:101D500082F803C04FF0000C82F805C090734FF07A
:101D6000000C00209375C1F30343092B82F807C0D0
:101D7000D0734FF0000C4FF0000094BF3033373376
:101D800082F809C0D0744FF0000C002082F80BC01C
:101D900050754FF0000C002013760023D07582F8A8
:101DA0000DC00248537670470070FF1F500000209E
:101DB00030B5036889B00024B3F1A04FCDE90244E7
:101DC000CDE90444069401D009B030BD174D00940C
:101DD0002B6B174843F001032B632B6B03F00103BC
:101DE00000934FF4C0520223CDE90223032302A93A
:101DF00005930A23009A069300F03EFE6B6B43F0B6
:101E000080036B6301946B6C43F480436B646B6C75
:101E100003F480432246052101934320019B00F0F7
:101E20008BFB432000F0C6FB09B030BD00380240F8
:101E30000000024000F2C441D0F8080504F034BDAF
:101E400001EBC10300EB8303D0F80805D3F88C2223
:101E500004F05ABD01EBC10300EB8303D0F8080581
:101E6000DA6C04F08BBD00BFD0F8080504F02ABE80
:101E7000C16810B5044611B102290AD10121D4F874
:101E8000080504F003FED4F80805BDE8104004F08E
:101E9000CFBDFEF759FF0121F1E700BF10B50446A1
:101EA000D0F8080504F0F6FD2268D2F8003E43F0B1
:101EB0000103C2F8003E236A23B1034A136943F0C9
:101EC0000603136110BD00BF00ED00E0D0F8080567
:101ED00004F0ECBDD0F8080504F01ABED0F80805EF
:101EE00004F000BED0F8080504F028BED0F80805BC
:101EF00004F026BE0000000002780AB100207047FE
:101F00009FED177B1A4B10B583ED067B9FED167B7B
:101F10004FF0A041C3F808050424C0F8C832196086
:101F200083ED087B02211846C3E90B225C60D9606F
:101F30001A6100F099FF78B980210D4801F04EFF39
:101F4000402200210A4801F01FFF80220121084899
:101F500001F01AFF002010BDFEF7F6FEECE700BF0F
:101F6000020000000000000000000000000000006F
:101F70002820002008B5D0F8C80201F003F8032893
:101F800096BF024B0320185C08BD00BF94B1000847
:101F9000944608B51A46D0F8C802634601F0B2FD6F
:101FA000032896BF014B0320185C08BD94B10008BC
:101FB00008B5D0F8C80201F0E3FD032896BF024B34
:101FC0000320185C08BD00BF94B1000808B5D0F824
:101FD000C80201F05DFE032896BF024B0320185C87
:101FE00008BD00BF94B1000808B5D0F8C80201F0E0
:101FF00093FE032896BF024B0320185C08BD00BF68
:1020000094B100080A06D0F8C83206D401EBC10129
:1020100003EB810191F87E02704701F07F0101EB33
:10202000C10103EB810191F83E00704708B5D0F87B
:10203000C80201F053FD032896BF024B0320185C31
:1020400008BD00BF94B1000808B5D0F8C80201F07F
:10205000F7FD032896BF024B0320185C08BD00BFA4
:1020600094B1000808B5D0F8C80201F0B7FD032804
:1020700096BF024B0320185C08BD00BF94B1000856
:10208000D0F8C80201F0D2BD0048704734250020C6
:10209000704700BF08B50B4B1A6842F400721A6013
:1020A0001A6842F480621A601A6842F480721A60F8
:1020B000032000F02FFA0020FEF722FFFEF700FFBA
:1020C000002008BD003C0240034A044B11681B7805
:1020D0000B441360704700BF542700206A000020A3
:1020E000014B1868704700BF5427002038B50446DC
:1020F000FFF7F6FF631C054602D0044B1B781C4417
:10210000FFF7EEFF431BA342FAD338BD6A0000205D
:10211000704700BF704700BF704700BF704700BFE7
:10212000704700BF704700BF704700BF704700BFD7
:10213000704700BF704700BF704700BF704700BFC7
:10214000704700BF002800F0988038B590F8203024
:102150000446002B72D02268136843F00103136019
:10216000FFF7BEFF054604E0FFF7BAFF431B0A2B4B
:102170005BD823685A68D107F6D51A6822F00202A4
:102180001A60FFF7ADFF054604E0FFF7A9FF401B0B
:102190000A284AD823685A689207F6D4227E012A70
:1021A0001A680CBF42F0800222F080021A60627E40
:1021B000012A1A680CBF42F0400222F040021A6065
:1021C000A27E012A1A680CBF42F0200222F02002EF
:1021D0001A60E27E012A1A680CBF22F0100242F057
:1021E00010021A60227F012A1A680CBF42F008020E
:1021F00022F008021A60627F012A1A680CBF42F0BE
:10220000040222F004021A60D4E902202169024388
:102210000A4360696168024301390A4300200121D1
:10222000DA61606284F8201038BD636A052243F4E5
:102230000033636284F82020012038BD1149124A1E
:10224000C36D1248C4E91012114A1249C4E91202BE
:10225000114A1248C4E90A12114A1249C4E90C028F
:10226000114A1248C4E90E121149124AA265C4E982
:10227000140123B1204698476DE7012070470E4BAB
:10228000E365F7E72D21000831210008352100081A
:102290003921000815210008192100081D21000816
:1022A0002121000825210008292100083D210008DE
:1022B0004121000811210008E90500082DE9F04F2F
:1022C00003685D69D3F804809F68D3F80CA0D3F845
:1022D0001090D3F818B015F0010681B0044625D04F
:1022E00017F0010640F0B9804FF400524FF48041DE
:1022F000F8050DD523684FF480709860BB0500F198
:10230000CB80780500F1EC803B0540F1F2800E4671
:10231000F8030BD523684FF48032B9039A6000F1BB
:10232000AF807A0340F1D78046F400462F0703D5EB
:102330001AF0100F40F08B80680702D51AF0080FD2
:102340007ED1A90703D52368DB689A0774D16B0691
:1023500002D519F0100F69D1AF0602D519F0080F98
:102360005DD1E80603D523681B69990753D1AA03F9
:1023700002D518F0100F47D1EB0302D518F0080F63
:102380003BD12F0405D518F0040F0DD1236804228A
:102390005A60002E71D0636AA26D1E4320466662A9
:1023A00001B0BDE8F04F1047E80504D51BF0010F60
:1023B00018BF46F00106A90504D51BF0020F18BF8F
:1023C00046F002066A0504D51BF0040F18BF46F05C
:1023D00004062B05DAD51BF0700BD7D0BBF1400FEC
:1023E00000F095805CD8BBF1200F00F08D80BBF130
:1023F000300F63D146F020065AE0236808225A6065
:102400002046636D9847BCE7236810225A60204637
:10241000236D9847B0E7A36C20469847A7E7236849
:1024200008221A612046E36C98479AE72368102235
:1024300046F480661A618FE7236C2046984786E74A
:1024400023680822DA602046636C984779E723689E
:10245000102246F40076DA606EE701229A60BB072C
:1024600012D47E0730D417F008063BD04FF4405208
:102470004FF4A0414FF480563AE701B0BDE8F08F29
:10248000236B2046984751E7836A984700264FF40C
:1024900000524FF480412BE7E36A2046984737E724
:1024A000BBF1500F2DD0BBF1600F08BF46F4807612
:1024B00023689A6922F070029A6168E7BBF1100FF5
:1024C000F6D146F00806F3E74FF420524FF490415E
:1024D0004FF400660CE73B030FD546F4803625E742
:1024E000164615E7436B98474FF400524FF480416E
:1024F000FEE6A36B204698470AE7E36B2046984721
:1025000014E746F08006D3E746F01006D0E746F021
:102510004006CDE70749CA6803024FF6FF0003F4FF
:10252000E0630240134343F0BF6343F40033CB60E6
:10253000704700BF00ED00E01C4BDB68C3F30223D3
:1025400000B5C3F1070EBEF1040F03F1040C28BF60
:102550004FF0040EBCF1060F1BD9033B4FF0FF3CBC
:102560000CFA03FC22EA0C024FF0FF3C0CFA0EFCC2
:1025700021EA0C019940002841EA02010CDB00F13C
:102580006040090100F56140C9B280F800135DF8B0
:1025900004FB00221346E7E7054B00F00F0009019A
:1025A0000344C9B219765DF804FB00BF00ED00E0FA
:1025B000FCEC00E0002808DB4109044A00F01F00A1
:1025C000012303FA00F042F82100704700E100E027
:1025D00038B50446FFF784FD002C52D02368002252
:1025E000022184F8351084F834201A6822F00102A0
:1025F00005461A6005E0FFF773FD431B052B39D82C
:1026000023681A68D107F6D4D4E90120E1680243AF
:102610000A43D4E90451A0692A430A43E1691D68C9
:1026200002430A4333492940256A2A430A43616A1F
:10263000042928D01A605A6922F007021143D8B23F
:102640002D4A59611038A2FB005212092B4923F47C
:102650007F73895CE16523F003035F2888BF04333F
:102660003F228A40A36500209A600123606584F8B8
:10267000353038BD03232022626584F83530184692
:1026800038BD012038BDD4E90B5129430A431A60F3
:102690005969A26A21F00701114341F00401002D9C
:1026A000CDD078B1B0F5005F16D0022A03D9032A45
:1026B000C5D1EA01C3D501234022626584F83530D3
:1026C000184638BD012A03D032F00202B7D1F0E734
:1026D000B5F1C07FB3D1EEE7032AB0D801A050F81E
:1026E00022F000BFB7260008B3260008B72600086E
:1026F000D12600083F8010F0ABAAAAAA98B1000822
:1027000070B490F83440856D012C35D090F8354088
:102710004FF0010C644580F834C005D0002380F8E8
:10272000343070BC02207047022680F8356004689F
:1027300000264665266826F4802626606360836846
:10274000402B0EBFA260A160E260C26D08BFE160D5
:102750003F239340AB602368026C43F01603236071
:102760001AB1236843F008032360236843F0010390
:102770000020236070BC7047022070BC704700BF0F
:1027800070B50446866DFFF7ABFC94F83530022B2C
:1027900006D00023802284F834306265012070BDA9
:1027A00023681A6822F016021A605A6922F0800221
:1027B0005A61226C054632B31A6822F008021A6088
:1027C0001A6822F001021A6005E0FFF789FC431B3A
:1027D000052B0FD823681B6813F00103F5D1E16DB9
:1027E0003F228A400121B26084F8351084F83430E9
:1027F000184670BD032020220023626584F834301F
:1028000084F8350070BDA26C002AD5D1D8E700BF8E
:1028100090F83530022B03D08023436501207047A8
:102820000268052380F83530136823F00103002087
:10283000136070472DE9F04182B0744A866D1568C7
:1028400000230193C36D346808229A4022428046D7
:1028500004D001680F68780700F18A8001229A404D
:10286000224204D0D8F800104969090678D404221D
:102870009A40224204D0D8F8001009688F0767D424
:1028800010229A40224204D0D8F800100F6838076E
:1028900049D420229A40224217D0D8F800100C6860
:1028A000E00612D5B26098F83520052A73D00B687F
:1028B00013F4802F0B6800F09080190340F19B8087
:1028C000D8F83C300BB140469847D8F854303BB369
:1028D000D8F85430DA071BD5D8F800204C49052326
:1028E00088F835301368A1FB051523F00103AD0A04
:1028F000136002E01368DB0704D5019B0133AB4290
:102900000193F7D90122002388F8352088F8343064
:10291000D8F84C3023B1404602B0BDE8F04118472A
:1029200002B0BDE8F081B2600A6812F4802F0A6834
:102930002AD1D70503D40A6822F008020A60D8F821
:102940004020002AA5D040469047D8F85C30A0E748
:10295000B260D8F8542042F00402C8F854208FE73F
:10296000B260D8F8542042F00202C8F854207EE742
:102970000F6827F004070F60B260D8F8542042F0C7
:102980000102C8F8542069E71203D8D5D8F84820C6
:10299000002AD8D17DE70A6822F016020A604A6947
:1029A00022F080024A61D8F8402052B30A6822F02F
:1029B00008020A603F2202FA03F3D8F85010B3600D
:1029C0000122002388F8352088F834300029A7D068
:1029D000404602B0BDE8F041084713F480737FF42D
:1029E0006FAF0A6822F010020A60012288F83520D1
:1029F00088F8343064E7D8F84430002B7FF463AFB4
:102A000063E7D8F84820002AD0D1D3E7040000209B
:102A1000B5814E1B30B48568802D27D090F83440A6
:102A2000012C07D090F835404FF0010C644580F838
:102A300034C002D0022030BC704704684FF0020C52
:102A400080F835C0206840F480202060402D23614C
:102A5000029B63600BBFA260A160E160E26023683B
:102A600043F001030020236030BC70474FF48073B3
:102A7000436530BC012070472DE9F04F00220C68FF
:102A8000DFF82CA2834E85B01346894605E001335A
:102A9000102B02F1020200F089800121994001EA25
:102AA000040BA143F3D1D9F804C00CF003014D1E6F
:102AB000012D7ED9032940F0BE809140CD430768A7
:102AC0003D4029431CF4403F0160E0D000210391C8
:102AD000DAF8441041F48041CAF84410DAF844109E
:102AE00001F480410391039923F0030101F1804136
:102AF00001F59C3103F00307D1F808E0BF000F2572
:102B0000BD402EEA0508644DA84224D005F5806535
:102B1000A84200F09480614DA84200F09780604D7B
:102B2000A84200F09A805F4DA84200F09D805E4D63
:102B3000A84200F0A0805D4DA84200F0A380DFF81D
:102B400074E170450CBF4FF0070E4FF0080E0EFAFF
:102B500007F748EA0708C1F80880B1686FEA0B0771
:102B60001CF4801F0CBF39404BEA0101B160F568CD
:102B70001CF4001F0CBF3D404BEA0505F56075686D
:102B80001CF4003F0CBF3D404BEA05057560316801
:102B90001CF4803F03F101030CBF39404BEA0101F3
:102BA000102B316002F102027FF477AF05B0BDE86F
:102BB000F08FD9F80C50876805FA02F8032505FA5A
:102BC00002FE27EA0E0748EA0707876047686FEAB0
:102BD0000E0527EA0B0ECCF300179F4047EA0E07BD
:102BE0004760C76807EA050ED9F80870974047EABA
:102BF0000E070229C76001FA02F17FF460AF4FEAC5
:102C0000D30E00EB8E0E03F00708DEF8207000975D
:102C1000D9F810704FEA880807FA08F701970F27CC
:102C200007FA08F8009F27EA0808019F47EA080703
:102C3000CEF8207043E703259540ED43D1E74FF0F0
:102C4000010E0EFA07F748EA070884E74FF0020E74
:102C50000EFA07F748EA07087DE74FF0030E0EFA71
:102C600007F748EA070876E74FF0040E0EFA07F771
:102C700048EA07086FE74FF0050E0EFA07F748EA33
:102C8000070868E74FF0060E0EFA07F748EA07084C
:102C900061E700BF003C0140000002400008024024
:102CA000000C0240001002400014024000180240D4
:102CB00000380240001C024002B9090481617047DB
:102CC000044A5169014200D1704708B5506106F0CD
:102CD00073FB08BD003C0140002800F0B98070B5CE
:102CE00090F83D30044603F0FF02002B00F098807E
:102CF0002368242284F83D201A6822F001021A6019
:102D00001A6842F400421A601A6822F400421A60FB
:102D100001F026FB63684F498B424FD84E4A9042E0
:102D20007CD94E4D5A00A5FB0035431EB3FBF2F390
:102D30002268506820F03F0040EA95405060A90C9E
:102D400001F1010C116A21F03F0141EA0C0111620D
:102D5000D16940F6FC7E013321F44F4113EA0E0F96
:102D600021F0FF0161D104230B43D361D4E9073083
:102D70001168034321F0C0010B4313609168D4E94B
:102D8000030321F40341034321F0FF010B4393604C
:102D9000D4E90530D168034321F0FF010B43D36030
:102DA0001168002341F0010120201160236484F8A0
:102DB0003D00236384F83E30184670BD284A904297
:102DC0002CD9264D274EA5FB002C2268556825F0EE
:102DD0003F0545EA9C4555604FEA9C414FF4967586
:102DE00005FB01F1A6FB0151156A890925F03F0594
:102DF000013129431162D169A56821F44F4121F0C5
:102E0000FF01ADB9013803EB4303B0FBF3F301332A
:102E1000C3F30B03D3B143F40043A5E7012070BD16
:102E200080F83C20FDF77AFE62E7C3F30B039BE7D3
:102E300003EB8303013803EB8303B0FBF3F30133AC
:102E4000C3F30B0313B143F440438DE701238BE736
:102E500001207047A08601007F841E0083DE1B4393
:102E6000FF083D00D34D6210F0B58BB0002800F094
:102E7000858090F8BD340468054603F0FF02002BFE
:102E800076D02046032385F8BD34E36B2E4613F439
:102E9000807308BF2B6102F0FFFC56F810EBB446BC
:102EA000BCE80F006C460FC4BCE80F000FC49CE8E0
:102EB000030084E803002F1D97E80E00704602F01F
:102EC000E7FB044630B101240223204685F8BD34D7
:102ED0000BB0F0BD0146286802F0E6FC686858B304
:102EE00022464FF0010E214602EBC20305EB83039D
:102EF00002F1010C83F83C20A3F844205FFA8CF225
:102F00008242C3E9121183F83DE083F8401059650D
:102F1000EAD3002204EBC40305EB8303611C83F8AE
:102F20007C42CCB28442C3E9A22283F87D2283F89A
:102F30008022C3F89422EDD30FCE6C460FC40FCE7F
:102F40000FC496E8030084E8030097E80E002868A1
:102F500002F0E2FC04460028B5D1012385F83800D0
:102F6000286885F8BD3403F089F920460BB0F0BD20
:102F700080F8BC24FEF71CFF286883E70124204664
:102F80000BB0F0BD10B590F8BC34012B04460068BE
:102F900016D0A36A0122934284F8BC2408D002F020
:102FA00073FC206803F05AF9002084F8BC0410BDBB
:102FB000A3699342F3D0836B43F480338363EEE7DA
:102FC000022010BD2DE9F04F056889B0044628465F
:102FD00003F092F910B109B0BDE8F08F8346206884
:102FE00003F05CF90028F6D0D5F808382068C3F360
:102FF0000D23C4F8FC3403F051F910F0020F2068DF
:1030000005F5006303931EBF436903F002034361A8
:1030100003F044F910F0100F206812D0836923F0F8
:10302000100383612E6AC6F34343022B06F00F0799
:1030300000F0CB83062B00F00783836943F0100375
:10304000836103F02BF9070300F16982206803F024
:1030500025F9460300F11182206803F01FF90028CA
:10306000C0F28281206803F019F9070500F13D8163
:10307000206803F013F9C00400F1A081206803F078
:103080000DF910F4005F206840F0818103F006F92B
:10309000010700F1E981206803F000F9020671D50B
:1030A000AA69636822F08002012BAA616AD994F8A8
:1030B000A322012A00F0EA83022B63D994F8C722E5
:1030C000012A00F0FE83032B5CD994F8EB22012A3D
:1030D00000F0B382042B55D994F80F23012A00F095
:1030E000C682052B4ED994F83323012A00F026849A
:1030F000062B47D994F85723012A00F03384072B75
:1031000040D994F87B23012A00F04A84082B39D94E
:1031100094F89F23012A00F05784092B32D994F8A0
:10312000C323012A00F064840A2B2BD994F8E723E7
:10313000012A00F071840B2B24D994F80B24012A66
:1031400000F07E840C2B1DD994F82F24012A00F066
:103150007F840D2B16D994F85324012A00F09F8404
:103160000E2B0FD994F87724012A00F0A6840F2B98
:1031700008D994F89B34012B04D1206804F593619D
:1031800002F080FF206803F089F8C30240F1AB80B1
:103190006368012B40F2898094F86420D5F82019E7
:1031A000012A00F01382022B7FD994F88820D5F8E9
:1031B0004019012A00F01D82032B76D994F8AC2027
:1031C000D5F86019012A00F02082042B6DD994F8FB
:1031D000D020D5F88019012A00F02382052B64D96C
:1031E00094F8F420D5F8A019012A00F04383062BA7
:1031F0005BD994F81821D5F8C019012A00F055833D
:10320000072B52D994F83C21D5F8E019012A00F097
:103210006083082B49D994F86021D5F8001A012A57
:1032200000F06383092B40D994F88421D5F8201A43
:10323000012A00F06E830A2B37D994F8A821D5F81B
:10324000401A012A00F082830B2B2ED994F8CC214E
:10325000D5F8601A012A00F097830C2B25D994F831
:10326000F021D5F8801A012A00F0A2830D2B1CD979
:1032700094F81422D5F8A01A012A00F0AD830E2B81
:1032800013D994F83822D5F8C01A012A00F0B8836F
:103290000F2B0AD994F85C22D5F8E01A012A00F025
:1032A000C383102B01D9D5F8003B2068436903F490
:1032B0008013436102F0F2FF870221D4206802F0FC
:1032C000EDFF400000F1C780206802F0E7FF4107F2
:1032D0007FF581AE23685D686A0700F197825A68BE
:1032E0002A435A6077E62068E4E7039B9B68DE0781
:1032F00000F188822068436903F400634361B8E603
:10330000D4F804C0BCF1010F28D905F53262234678
:10331000012106E00131614502F1200203F124039D
:103320001CD093F8A40216680128F3D1002EF1DA1C
:10333000D4F8FC7406F4803607F00107BE42E9D1E8
:1033400083F8A302A86940F08000A86168690606B6
:10335000E0D4039A536843F40073536020684369D0
:1033600003F400134361AAE7039A536823F00103AF
:10337000536094F8F434012B00F034812046FEF7BA
:10338000A5FD2068436903F0004343616BE602F04A
:10339000B7FF206802F004FCE060266800F0DAFF66
:1033A000227B0146304602F0F5F92046FEF760FD2B
:1033B0002068436903F40053436167E6039A206879
:1033C000536823F001035360102102F0BFFB6068D3
:1033D000E0B105F510634FF67F3199601A6822F469
:1033E00000121A60C3F80812D3F8002222F4001267
:1033F000C3F80022D3F800220BF1010B42F0006267
:103400008345C3F8002203F12003E6D10399226B20
:10341000CB6943F00113CB61002A40F0CC804B69AB
:1034200043F4005343F02B034B610B6943F00B0350
:103430000B61D5F80038217C206823F4FE63C5F8C1
:10344000003804F2C44202F06DFF2068436903F4BF
:103450008053436113E62046FEF744FD206843692C
:1034600003F08043436130E72046FEF7FDFC20680F
:10347000436903F0080343610EE6206802F01AFF77
:10348000804600283FF4E8AD4FF0000A206804951C
:10349000274605F510695646CDF814B009E05FEAF5
:1034A000580806F1010607F1240709F1200900F088
:1034B000E58018F0010FF2D05FFA86FA514602F06B
:1034C0000BFFC207054613D5039901204B6B06F08D
:1034D0000F0200FA02F223EA02034B632169C9F8E2
:1034E0000800814200F0978151462046FEF7B2FC69
:1034F0002B0744BF0823C9F80830E80644BF10234F
:10350000C9F80830690644BF4023C9F80830AA0743
:1035100000F14E812B0600F1F5802068BFE720689E
:1035200002F0C0FE064600283FF490AD05F5306776
:10353000A2464FF00009CDF810B008E0760809F176
:10354000010907F120070AF1240A00F09A80F00728
:10355000F4D55FFA89FB2068594602F0B3FE10F0FB
:10356000010F804640F0AF8018F0080F40F08C80CB
:1035700018F0100F1CBF1022BA6018F0020F0ED006
:103580006A69110604D5039B5A6842F480625A6046
:103590009AF87F22012A00F080810223BB6018F094
:1035A000200F1CBF2023BB6018F4005F1CBF4FF42A
:1035B0000053BB60C2E7D1F8843043F00B03C1F87D
:1035C00084304B6C43F00B034B6432E70029BFF6A9
:1035D000EAAD214684F8632051F8600B02F052FDF9
:1035E0006368E0E5002184F8F414204600F0FAFB5B
:1035F000C7E60029BFF6E0AD214684F8872051F8E0
:10360000840B02F03FFD6368D6E50029BFF6DDAD0F
:10361000214684F8AB2051F8A80B02F033FD636813
:10362000D3E50029BFF6DAAD214684F8CF2051F862
:10363000CC0B02F027FD6368D0E5206804F53A71F1
:1036400002F020FD636845E5082204F2C4412846E3
:1036500007EBC70702F070FD04EB8702C6F30A13FD
:10366000D2F89C1220680B44C2F89C32E5E4206832
:1036700004F5437102F006FD636832E5DDE9045BA1
:10368000EBE4DDF810B0E1E42168BD4B0822BA603C
:1036900001F53062096C02EB49129942906840F2E0
:1036A000CB80000402D54FF4004191602046FEF724
:1036B000C1FB216901297FF45BAF206804F2C44299
:1036C00002F030FE54E7206821690122BA6000F55B
:1036D000306202EB49120129D0F840C0936800F033
:1036E000AF80A8498C4500F00C81B9F1000F04D1DE
:1036F000D4F89422002A00F0DA8159462046FEF7D9
:103700009FFB31E7FB6D7D6DD4F800B0AB425846AE
:103710003FF6C5AE0BF5106202EB46121146964617
:10372000BA6C8969CDF81CB0A5EB030C624528BFC3
:10373000624689B20332B1EB920FC0F097805246D5
:103740000696CA462646C1467446904619E0ED1ACA
:10375000BB6CF96C9D4228BF1D46337C00934246EA
:10376000ABB2584602F0D2FCFB6CA1692B44FB645F
:10377000FB6D89B22B440335B1EB950FFB656DD31F
:103780007D6D9D42E3D83446069ED4F800B0C8460D
:10379000D146079B06F00F0203F500610125D3F81F
:1037A000343805FA02F223EA020358464B6376E600
:1037B0000498314602F0CAF997F83F30012B00F027
:1037C000B4800223C9F80830A4E647F6F0731E421D
:1037D0003FF433AC07EBC70704EB8707C6F30A12C5
:1037E000D7F88C122846164602F0A6FCD7F88C3281
:1037F00020683344C7F88C32D7F89C323344C7F87A
:103800009C321AE42046FEF749FB73E52046FEF79A
:103810006DFB236863E5D7E912231344FB64002E94
:103820007FF462AE636D002B7FF45EAE206804F21D
:10383000C44202F077FD57E62046FEF7FBFA97E612
:10384000190740F197804E498C457FF68DAE1804DC
:103850007FF58AAE4FF40041916085E634467D6D78
:10386000D4F800B0069EC8465846D146AB42FFF495
:1038700016AE8EE70029BFF6BAAC214684F8F320D5
:1038800051F8F00B02F0FEFB6368B0E4206804F529
:10389000287102F0F7FB63680EE4002359468AF8AA
:1038A0007F322046FEF716FB77E60029BFF6A8AC6C
:1038B000206884F8172104F58A7102F0E3FB63683D
:1038C0009EE4206804F5317102F0DCFB6368FFF7C9
:1038D000FABB0029BFF69DAC206884F83B2104F5B3
:1038E0009C7102F0CFFB636893E40029BFF69AACA9
:1038F000206884F85F2104F5AE7102F0C3FB6368B1
:1039000090E41904A6D49B067FF5F7AE20219160C0
:10391000F3E60029BFF68FAC206884F8832104F514
:10392000C07102F0AFFB636885E44FF0000387F8D5
:103930003F3051462046FEF7D1FA42E7206804F5B1
:103940004C7102F09FFB6368FFF7D2BB0029BFF602
:103950007BAC206884F8A72104F5D27102F092FBB9
:10396000636871E4206804F5557102F08BFB6368AD
:10397000FFF7C5BB990673D520219160F4E500BF20
:103980000A30544F0A31544F0029BFF666AC206804
:1039900084F8CB2104F5E47102F074FB63685CE405
:1039A000206804F55E7102F06DFB6368FFF7AEBB43
:1039B0000029BFF65BAC206884F8EF2104F5F671AE
:1039C00002F060FB636851E4206804F5677102F05F
:1039D00059FB6368FFF7A1BB0029BFF650AC206814
:1039E00084F8132204F5047102F04CFB636846E48A
:1039F000206804F5707102F045FB6368FFF794BB23
:103A00000029BFF645AC206884F8372204F50D7113
:103A100002F038FB63683BE4206804F5797102F03A
:103A200031FB6368FFF787BB0029BFF63AAC20681B
:103A300084F85B2204F5167102F024FB636830E41D
:103A4000206804F5816102F01DFB6368FFF77ABB13
:103A5000206804F22C4102F015FB6368FFF779BB84
:103A600013F0280F7FF480AD1B498C4502D91B044D
:103A70003FF5F0AE1169DAF89822C1F31201521A3B
:103A8000CAF89C22B9F1000F7FF437AED4F8941233
:103A9000D9B1D4F88C120A44C4F88C222DE62068DF
:103AA00004F58A6102F0EEFA6368FFF759BB04F28D
:103AB000C442494602F036FC1FE6206804F2744115
:103AC00002F0E0FA6368FFF752BB04F2C44201213E
:103AD00002F028FC11E600BF0A30544F90F8BC24D5
:103AE000012A0DD010B504460122006884F8BC24D8
:103AF00084F8381002F0A2FB002084F8BC0410BD4A
:103B00000220704710B501F00F0E0906044627D4B5
:103B10004FF0240C0CFB0E0C0CF51F710EEBCE0CB1
:103B200000EB8C0C00208CF87D02CA604A7881F88A
:103B300000E00B710AB1A1F808E0022B04BF0023DA
:103B40004B7194F8BC34012B18D0012384F8BC3499
:103B5000206802F031F8002384F8BC34184610BD08
:103B6000242000FB0E4000F13C010EEBCE0004EBE4
:103B700080004FF0010C80F83DC0D6E7022010BD58
:103B800001F00F0303EBC30211F0800F4FF024018B
:103B900010B500EB8202044601FB030113D101F5CD
:103BA0001F71002082F87D020B7094F8BC34012B49
:103BB00012D00123206884F8BC3402F049F80020B8
:103BC00084F8BC0410BD3C31012082F83D000B702C
:103BD00094F8BC34012BECD1022010BD10B501F0DB
:103BE0000F0404EBC40C00EB8C0C2421CCF89432B1
:103BF0000023CCF88C228CF87C42CCF89C328CF8D8
:103C00007D32036901FB0401012B08BFCCF890222F
:103C1000006801F51F71DAB21CB902F087F90020C3
:103C200010BD02F077F8002010BD00BF01F00F01B9
:103C300001EBC10100EB8101D1F89C02704700BF8C
:103C400010B501F00F0404EBC40C00EB8C0C242124
:103C5000CCF854300023CCF85C300123CCF84C2055
:103C60008CF83C408CF83D30036901FB0401012BCA
:103C700008BFCCF8502000683C31DAB21CB902F021
:103C800055F9002010BD02F045F8002010BD00BF1E
:103C900038B5436801F00F059D4233D80B06044642
:103CA0001CD401EBC103242202FB010100EB8303BE
:103CB00001F51F71002283F87D2201238B700D70A6
:103CC00094F8BC249A421BD0206884F8BC3402F0DB
:103CD0005BFACDB1002084F8BC0438BD05EBC50308
:103CE000242101FB050100EB830301223C3183F811
:103CF0003D2001238B700D7094F8BC249A42E3D1CF
:103D0000022038BD012038BD217C206804F2C44265
:103D100002F008FBDEE700BF426838B501F00F0390
:103D200093422ED803EBC30211F0800F4FF0240111
:103D3000044600EB820201FB030115D101F51F715E
:103D40000020002582F87D028D700B7094F8BC3441
:103D5000012B14D00123206884F8BC3402F042FA0D
:103D600084F8BC54284638BD3C310120002582F837
:103D70003D008D700B7094F8BC34012BEAD1022009
:103D800038BD012038BD00BF10B40468606A31B985
:103D900040EA0240A06200205DF8044B7047A36A2D
:103DA000B1F1010C00EB13400BD0002303F14001F3
:103DB00004EB810101334968DBB2634500EB11403C
:103DC000F4D30CF1400C04EB8C0C40EA0240CCF82C
:103DD00004005DF8044B0020704700BF036800201A
:103DE00059627047704700BF002800F0A2812DE99A
:103DF000F0410368DD0782B004462FD59E498A68EA
:103E000002F00C02042A00F0ED808A6802F00C0235
:103E1000082A00F0E3806368B3F5803F00F0EC808F
:103E2000B3F5A02F00F07581934D2A6822F48032FB
:103E30002A602A6822F480222A60002B40F0E18068
:103E4000FEF74EF9064605E0FEF74AF9801B6428A6
:103E500000F201812B689B03F6D423689F0728D5C5
:103E6000854A916811F00C0F00F09080916801F084
:103E70000C01082900F08680E368002B00F00E8119
:103E80007E4B7D4E01221A60FEF72AF9054605E0B9
:103E9000FEF726F9401B022800F2DD803368980700
:103EA000F6D53368226923F0F80343EAC20333608E
:103EB00023681A0751D458072FD56F4A136C13F093
:103EC00080537FD000256E4E3368D90540F1B38012
:103ED000A368012B00F0C380052B00F02C81664EF7
:103EE000326F22F001023267326F22F00402326731
:103EF000002B40F0B980FEF7F3F841F2883807460E
:103F000005E0FEF7EDF8C01B404500F2A480336FDA
:103F10009807F6D4002D40F00681A069C8B1564D2F
:103F2000AB6803F00C03082B00F0C980534B002250
:103F300002281A6600F00981FEF7D2F8044605E06F
:103F4000FEF7CEF8001B022800F285802B689B014B
:103F5000F6D4002002B0BDE8F08163690BB3474B93
:103F6000454E0122C3F8802EFEF7BAF8054604E05C
:103F7000FEF7B6F8401B02286DD8736F9B07F7D584
:103F8000236898E7526856023FF576AF3A4A1268BE
:103F9000950744D5E268012A41D0012002B0BDE86E
:103FA000F081364A344EC2F8803EFEF799F8054655
:103FB00004E0FEF795F8401B02284CD8736F9F076A
:103FC000F7D4DDE70193136C43F080531364136C53
:103FD00003F080530193019B012574E74A68500266
:103FE0007FF519AF244A126891037FF537AF6268F5
:103FF000002A7FF433AFD0E71F4A136843F48033BD
:104000001360FEF76DF81C4E054604E0FEF768F8F5
:10401000401B64281FD833689A03F7D51DE716495B
:1040200020690A6822F0F80242EAC0020A601A0710
:104030007FF541AF91E7336843F480733360FEF757
:104040004FF807463368DA053FF542AFFEF748F808
:10405000C01B0228F6D9032002B0BDE8F081064A51
:10406000136F43F001031367FEF73AF8024F064659
:1040700041F288380BE000BF0038024000004742A0
:1040800000700040FEF72CF8801B4045E3D83B6FE2
:104090009B07F7D5002D3FF440AF44E0424A434E22
:1040A0001360FEF71DF8054604E0FEF719F8401B03
:1040B0000228D0D833689907F7D42368F9E6012895
:1040C0003FF448AF6B68E26903F4800191427FF4EA
:1040D00064AF226A03F03F0191427FF45EAF616AF0
:1040E00047F6C0721A40B2EB811F7FF456AFA26A46
:1040F000520803F44031013AB1EB024F7FF44DAF67
:10410000E26A03F07063B3EB026F14BF012000207A
:1041100020E7264B1A6842F480221A601A6842F49B
:1041200080321A606DE7214A136C23F080531364C8
:10413000F3E6012070471D4B1A6F42F004021A6724
:104140001A6F42F001021A678EE7FDF7C9FF0646B3
:1041500005E0FDF7C5FF801B02283FF67CAF2B680A
:104160009901F6D4D4E90731626A0B4343EA82131A
:10417000D4E90A21520843EA0163013A0A4943EAB1
:10418000024301226B600A66FDF7AAFF074D044651
:1041900005E0FDF7A5FF001B02283FF65CAF2B688A
:1041A0009A01F6D5D5E600BF00004742003802402C
:1041B000164908B58B6803F00C03042B1BD0082BA1
:1041C00017D14A684B68496813F4800302F03F0234
:1041D00013D10F48C1F38811A1FB0001FCF702F8CD
:1041E0000A4B5B68C3F3014301335B00B0FBF3F0A0
:1041F00008BD074808BD074808BD0648C1F3881137
:104200000023A1FB0001FBF7EDFFE9E700380240C6
:104210000024F400001BB700002800F08780484A03
:10422000136803F007038B422DE9F0410D46044665
:1042300009D2CBB21370136803F007038B4202D08C
:104240000120BDE8F0812368980714D5590704D5EB
:104250003C498A6842F4E0528A601A0704D5394919
:104260008A6842F460428A603649A0688A6822F00F
:10427000F00202438A60DF0721D56268012A57D025
:10428000931E012B2F4B1B684DD99907D8D52D4E66
:10429000B36823F003031343B360FDF721FF41F23A
:1042A0008838074604E0FDF71BFFC01B404544D893
:1042B000B368626803F00C03B3EB820FF3D1204ABA
:1042C000136803F00703AB4206D9EBB2137013680F
:1042D00003F00703AB42B3D123685A0706D5194947
:1042E000E0688A6822F4E05202438A601B0707D51F
:1042F000144A2169936823F4604343EAC10393603D
:10430000FFF756FF0F4A104C92681049C2F3031290
:104310000346A25C0E48D34000680B60FCF7F0FD3A
:104320000020BDE8F0819801B1D489E701207047F1
:10433000044B1B689E03AAD482E7032081E700BFD9
:10434000003C02400038024030B100080400002068
:104350006C000020014B1868704700BF040000206B
:10436000044B05499B68054A0868C3F38223D35C64
:10437000D8407047003802400400002040B10008D7
:10438000044B05499B68054A0868C3F34233D35C74
:10439000D8407047003802400400002040B10008B7
:1043A0000E4B0F2202609A6802F0030242609A6884
:1043B00002F0F00282609A6802F4E052C2609B68E8
:1043C000DB0810B403F4E053054C036123685DF887
:1043D000044B03F007030B60704700BF0038024036
:1043E000003C0240704700BF704700BF704700BFED
:1043F000704700BF704700BF704700BF704700BFE5
:10440000704700BF00286ED0416A70B5044600298D
:1044100061D00023C0E9043394F851200023A36243
:1044200002F0FF00002A5CD1314A324DA265324AC7
:10443000324984F85000C4E91752314A3148A36F19
:10444000C4E919123049314A6267C4E91B01002BE3
:104450004BD020469847D4E9091303F4005C256843
:10446000A268022384F851302B6823F040032B60AC
:10447000636802F4044203F482731343E26802F4B3
:1044800000621343226902F002021343626902F0E0
:1044900001021A43E36901F0100003F03806A16934
:1044A000236A03F0800E01F4007313433343090CB5
:1044B00043EA0E0301F0040143EA0C0301432B60BD
:1044C0006960EB69002023F400630122EB61606501
:1044D00084F8512070BD4368B3F5827F9CD0C161E0
:1044E0009AE79C46BBE701207047094BA367B0E7FA
:1044F000E9430008ED430008F1430008F5430008D4
:10450000F9430008FD43000801440008E5430008A2
:10451000950D0008704700BF704700BF704700BF8F
:10452000704700BF704700BF704700BF704700BFB3
:10453000704700BF704700BF704700BF002800F001
:10454000A38010B590F83D30044603F0FF020BBB8A
:10455000836C504884F83C204F4A5049C4F880107E
:10456000C4E921024E494F4A4F48C4E923124F4A39
:104570004F49C4E925024F4A4F48C4E927124F4A20
:104580004F49C4E929024F4AC4E92B12002B7DD0C0
:104590002046984722684C49022384F83D308A42DD
:1045A00013685DD0B2F1804F31D0A1F57C418A42D1
:1045B0002DD001F580618A4229D001F580618A42BF
:1045C00025D001F578418A424AD001F570518A42DE
:1045D00021D001F580618A421DD001F580618A42B7
:1045E00019D0A1F598318A4215D001F580618A422F
:1045F00011D001F580618A420DD0A069E16823F0F5
:104600008003034313606368D162936210E0A16882
:1046100023F070030B432069A16923F44073034323
:1046200023F08003E0680B4361681360D0629162FD
:104630000123536184F8463084F83E3084F83F30DB
:1046400084F8403084F8413084F8423084F84330B4
:1046500084F8443084F8453084F83D30002010BDA3
:10466000A068216923F07003034323F440730B43D4
:10467000A16923F080030B431360E368D36263688E
:10468000936263691363D3E7012070470F4BA36400
:104690007EE700BF1945000831450008350D0008C8
:1046A0003545000821450008254500081D4500083E
:1046B000294500082D45000839450008AD4E000881
:1046C000B14E0008B54E000800000140D1120008AC
:1046D00090F83D30012B2FD103681949022280F850
:1046E0003D20DA688B4242F00102DA6019D0B3F162
:1046F000804F16D0134A934213D002F58062934242
:104700000FD002F5806293420BD002F578429342BB
:1047100007D002F57052934203D0A2F5943293422F
:1047200004D19A6802F00702062A07D01A6842F0FC
:10473000010200201A607047012070470020704776
:104740000000014000040040002800F0A38010B5E4
:1047500090F83D30044603F0FF020BBB036E504857
:1047600084F83C204F4A5049C4F88010C4E9210223
:104770004E494F4A4F48C4E923124F4A4F49C4E9B2
:1047800025024F4A4F48C4E927124F4A4F49C4E90E
:1047900029024F4AC4E92B12002B7DD020469847AE
:1047A00022684C49022384F83D308A4213685DD068
:1047B000B2F1804F31D0A1F57C418A422DD001F574
:1047C00080618A4229D001F580618A4225D001F5B5
:1047D00078418A424AD001F570518A4221D001F5D0
:1047E00080618A421DD001F580618A4219D0A1F50D
:1047F00098318A4215D001F580618A4211D001F5C5
:1048000080618A420DD0A069E16823F080030343F0
:1048100013606368D162936210E0A16823F07003B3
:104820000B432069A16923F44073034323F0800301
:10483000E0680B4361681360D062916201235361A9
:1048400084F8463084F83E3084F83F3084F84030B5
:1048500084F8413084F8423084F8433084F844309E
:1048600084F8453084F83D30002010BDA0682169EF
:1048700023F07003034323F440730B43A16923F037
:1048800080030B431360E368D362636893626369D8
:104890001363D3E7012070470F4B23667EE700BF09
:1048A0001945000831450008350D00083545000858
:1048B00021450008254500081D4500082945000838
:1048C0002D45000839450008AD4E0008B14E0008DE
:1048D000B54E0008000001401545000803681A693C
:1048E000910710B5044603D5DA68920700F18D8070
:1048F0001A69500702D5DA68510771D41A6912078C
:1049000002D5DA68100757D41A69D20602D5DA68D8
:10491000D0063CD41A69D10702D5DA68D2072DD463
:104920001A69100602D5DA6811061ED41A695206F1
:1049300002D5DA6850060FD41A6991060BD5DA68E9
:10494000920608D56FF02001D4F8A82019612046FE
:10495000BDE81040104710BD6FF040021A612046BC
:10496000D4F8883098472368E6E76FF080021A6130
:104970002046D4F8B03098472368D7E76FF001029B
:104980001A612046D4F8803098472368C8E76FF052
:104990001001082219612277DB6913F4407F55D199
:1049A000D4F8983020469847D4F89C302046984751
:1049B000002223682277ADE76FF008010422196115
:1049C0002277DB6999073CD1D4F898302046984784
:1049D000D4F89C302046984700222368227793E73A
:1049E0006FF004010222196122779B6913F4407F62
:1049F00022D1D4F8983020469847D4F89C302046ED
:104A0000984700222368227778E76FF0020101229D
:104A1000196102779B699B070AD1D0F898309847B3
:104A2000D4F89C30204698470022236822775FE71D
:104A3000D0F890309847F7E7D4F890302046984760
:104A4000DFE7D4F8903020469847C5E7D4F8903097
:104A500020469847ACE700BF90F83C30012B00F0AF
:104A6000D280012370B5844680F83C300C2A08D8E7
:104A7000DFE802F03E0707076B0707079B070707FA
:104A80000C0000238CF83C30012070BD03680D68D9
:104A90001A6A22F480521A621A6A5C68D86920F491
:104AA000E64040EA05208D6822F4005242EA0532D1
:104AB000704DAB4200F0C88005F58065AB4200F058
:104AC000C3805C60D861486818641A62D8690C6950
:104AD00040F40060D861D96921F48061D961DA6954
:104AE00042EA0422DA6100238CF83C30002070BDD9
:104AF00003680D681A6A22F001021A621A6A5C6879
:104B0000986920F0730028438D6822F002022A433E
:104B1000584DAB4279D005F58065AB4275D05C60ED
:104B20009861486858631A6298690C6940F00800F7
:104B30009861996921F0040199619A6922439A6107
:104B400000238CF83C30002070BD03680D681A6AA1
:104B500022F010021A621A6A5C68986920F4E64032
:104B600040EA05208D6822F0200242EA0512414DFC
:104B7000AB4259D005F58065AB4255D05C60986179
:104B8000486898631A6298690C6940F400609861FB
:104B9000996921F4806199619A6942EA04229A61D3
:104BA00000238CF83C30002070BD03680D681A6A41
:104BB00022F480721A621A6A5C68D86920F0730065
:104BC00028438D6822F4007242EA0522294DAB4247
:104BD00040D005F58065AB423CD05C60D861486848
:104BE000D8631A62D8690C6940F00800D861D969A5
:104BF00021F00401D961DA692243DA6100238CF8DB
:104C00003C30002070BD02207047CD6822F00802C1
:104C10002A43D1E9056524F4407446EA050E22F0E2
:104C200004024EEA04047AE7CD6822F0800242EAE8
:104C30000512D1E9056524F4406446EA050E22F028
:104C4000400244EA8E0499E74D6924F4804444EA22
:104C5000851436E7CD6822F4006242EA0522D1E9E4
:104C6000056524F4405446EA050E22F4806244EAC5
:104C70000E14B2E70000014090F83C30012B75D0D3
:104C8000024630B40223046882F83D30012082F8E5
:104C90003C00A36823F47F4323F07703A3600B68F1
:104CA000602B65D024D8402B7CD04BD9502B17D10A
:104CB0004868CD68216A236A23F001032362A3694F
:104CC00021F00A0123F0F003014343EA0513A36135
:104CD0002162A36823F0700343F057030020A36010
:104CE0000121002382F83D1082F83C3030BC70472F
:104CF000B3F5805F38D0B3F5005F10D1D1E901532F
:104D0000A0682B43CD6820F47F4143EA05230B4381
:104D1000A360A36843F480430020A360E0E7702B06
:104D2000DED1D1E90153A0682B43CD6820F47F4147
:104D300043EA05230B43A360A36843F077030020F5
:104D4000A360CDE7202B02D00AD9302BC8D1A168AF
:104D500021F070010B4343F007030020A360BFE77D
:104D600033F01001BCD1F2E70020B9E70220704710
:104D7000206ACB684D6820F010002062A16921F400
:104D8000704141EA0331236AA16123F0A00343EAA1
:104D900005132362A36823F0700343F06703002028
:104DA000A3609DE74868CD68216A236A23F0010368
:104DB0002362A36921F00A0123F0F003014343EACF
:104DC0000513A3612162A36823F0700343F0470336
:104DD0000020A36084E700BF90F83C30012B37D05F
:104DE0000368022230B480F83D205A680D689C6840
:104DF00022F070022A435A60164A93421AD0B3F145
:104E0000804F17D0A2F57C42934213D002F5806206
:104E100093420FD002F5806293420BD002F57842A4
:104E2000934207D002F57052934203D0A2F5943218
:104E3000934204D14A6824F0800414439C60002308
:104E4000012280F83D2080F83C3030BC1846704785
:104E5000022070470000014090F83C30012B23D025
:104E600010B4D1E9024323F4407302462343486857
:104E70000C6823F48063034323F40063086923432D
:104E800023F4805303434869CC6923F4005303435C
:104E900023F48043106800212343436482F83C10CC
:104EA00008465DF8044B704702207047704700BF0A
:104EB000704700BF704700BF704700BF0368806B3A
:104EC0001B6813F480731AD10268C38402F11403BF
:104ED00053E8003F23F0800302F1140040E8003162
:104EE0000029F3D102F10C0353E8003F43F04003E3
:104EF00002F10C0040E800310029F3D17047836CC7
:104F0000184700BF806B436C184700BF806B0023BD
:104F1000C385426DC38410478368B3F5805F2CD08E
:104F2000826A13B303685B6803F07F031370836ABC
:104F300001338362C38D013B9BB2C385E3B9026831
:104F4000D16821F02001D160D16821F48071D16055
:104F500051694FF0200C21F00101516180F83EC0F1
:104F6000016B012919D0036D18470369002BD9D1B2
:104F700003685B681370DAE77047036943B9026836
:104F8000836A5268C2F3080223F8022B8362D1E7D6
:104F90000368826A5B681370C9E7036302F10C035C
:104FA00053E8003F23F0100302F10C0C4CE80031F1
:104FB0000029F3D11368DB060BD582B000230193DF
:104FC0001368019353680193019B818D836E02B036
:104FD0001847836E818D1847704700BF704700BF28
:104FE000704700BF704700BF704700BF704700BFE9
:104FF000704700BF704700BF806B0368596990F825
:105000003D20212A0AD0596990F83E20222A1DD03D
:10501000036C426D43F01003036410470906F2D598
:105020000022C28403F10C0252E8002F22F0C002D9
:1050300003F10C0C4CE800210029F3D1202280F868
:105040003D20596990F83E20222AE1D14A06DFD559
:105050000022C28503F10C0252E8002F22F4907264
:1050600003F10C0C4CE800210029F3D103F11402E8
:1050700052E8002F22F0010203F1140C4CE8002149
:105080000029F3D1026B012A05D02022002380F8E9
:105090003E200363BCE703F10C0252E8002F22F02C
:1050A000100203F10C0C4CE800210029F3D1ECE7CD
:1050B000002800F0A28038B590F83D30044603F097
:1050C000FF02CBB9C36E4F4884F83C204E4A4F498B
:1050D0006164C4E912024E494E4A4F48C4E91412B1
:1050E0004E4A4F492166C4E916024E4AA266002B79
:1050F00000F08580204698472368E068242284F8E1
:105100003D20DA6822F40052DA601969A26821F4BD
:10511000405101432069196102436069D968024323
:10512000E06921F4164121F00C0102430A43DA60E0
:105130005A69A0693C4922F4407202438B425A6189
:1051400035D03A4A934232D0FFF70AF9E369B3F512
:10515000004F32D0636819219A00A0FB01019B0F18
:10516000FBF740F83249A1FB00325209642505FBE8
:105170001200000132302368A1FB0010120102EB83
:10518000501098601A6922F490421A615A6922F00C
:105190002A025A61DA680025202142F40052DA60BE
:1051A000256484F83D1084F83E10284638BDFFF78A
:1051B000E7F8E369B3F5004FCCD162681921921882
:1051C0004FF000035B41A0FB0101FBF70BF8184B0C
:1051D000A3FB00214D09642202FB1502D2003232EA
:1051E000A3FB0232C2F342111209236801EB05113D
:1051F00002F4F8720A449A60C4E7012070470D4B2C
:10520000E36677E7DD4F0008E94F0008E14F00084B
:10521000E54F0008ED4F0008F14F0008F54F00087A
:10522000D94F0008B94E0008001001400014014099
:105230001F85EB5161180008034672B390F83C00DB
:10524000012830D093F83DC00120BCF1200F83F835
:105250003C0011D010B493F83D401CB90B2919D073
:105260000C2914D01A6C42F020021A64002283F830
:105270003C205DF8044B70470C2916D8DFE801F09C
:105280002427303336392A2D1515151E21001A67AB
:105290000020EBE7DA660020E8E7026C42F020022B
:1052A00001201A647047022070471A6C42F02002F5
:1052B00001201A64002283F83C207047DA6600203F
:1052C000F8E71A670020F5E75A640846F2E79A649F
:1052D0000020EFE7DA650020ECE71A660020E9E736
:1052E000DA640020E6E71A650020E3E75A6500204B
:1052F000E0E79A650020DDE7F8B5044690F83D0048
:10530000202835D191B38AB394F83C0001282FD0DE
:105310000120E28484F83C00A284606BDFF85CC06A
:10532000144F154E21621346226800254FF0210EBE
:105330002564043284F83DE0C0E90FC7C0E9136575
:10534000FDF7DEF922686FF04003136084F83C50EB
:1053500002F1140353E8003F43F0800302F114000C
:1053600040E800310029F3D10020F8BD0120F8BD4C
:105370000220F8BD054F0008F94F0008BD4E000897
:1053800030B503681A68D9685D6912F00F0F83B0F1
:1053900004466CD1950602D58D0600F1BC80206BC9
:1053A00001280BD0100602D50D0600F1BE80500674
:1053B00002D54A0600F1A28003B030BDD506F1D572
:1053C000C806EFD5002201921A6801925A6801922C
:1053D000019A5A69550640F11181A06B0268526822
:1053E00092B2002AE8D0A18D9142E5D9E285C26946
:1053F000B2F5807F36D003F10C0252E8002F22F480
:10540000807203F10C0545E800210029F3D103F176
:10541000140252E8002F22F0010203F1140545E8BE
:1054200000210029F3D103F1140252E8002F22F0E9
:10543000400203F1140545E800210029F3D12022A0
:1054400084F83E20216303F10C0252E8002F22F081
:10545000100203F10C0545E800210029F3D1FDF706
:105460008FF9A18DE28DA36E891A89B2FCE005F057
:10547000010501F49070284391D0D00705D5C805E7
:1054800003D5206C40F001002064500731D54DB1A8
:10549000206C40F002002064900703D5206C40F09F
:1054A00004002064100707D501F02000284303D032
:1054B000206C40F008002064206C00283FF47CAF92
:1054C000900609D5890607D594F83E20222A03D1F3
:1054D0002046FFF721FD23685A69256C02F040023F
:1054E00005F0080515433FD1636D204698472564B4
:1054F00062E79007D6D5002DD0D1D3E7DA6822F045
:105500004002DA602021A36C84F83D10204603B0ED
:10551000BDE83040184790F83E30222B7FF44CAF66
:1055200003B0BDE83040FFF7F7BC94F83D20212AD6
:105530007FF442AFA268B2F5805F00F09A80226AE1
:10554000511C216212785A60E28C013A92B2E284D4
:10555000002A7FF431AFDA6822F08002DA60DA687C
:1055600042F04002DA6027E703F10C0252E8002F14
:1055700022F4907203F10C0040E800210029F3D1DD
:1055800003F1140252E8002F22F0010203F114008B
:1055900040E800210029F3D1226B012A1FD000220C
:1055A000202184F83E1022635A69520624D503F163
:1055B000140252E8002F22F0400203F1140040E8E8
:1055C00000210029F3D1A06BB0B1304B0365FDF78A
:1055D0001FF900283FF4F0AEA06B036D97E703F1CD
:1055E0000C0252E8002F22F0100203F10C0040E8F8
:1055F00000210029F3D1D2E7636D87E7E18DE28DC9
:1056000092B289B2002A3FF4D7AEA28D511A89B264
:1056100000293FF4D1AE03F10C0252E8002F22F42E
:10562000907203F10C0545E800200028F3D103F146
:10563000140252E8002F22F0010203F1140545E89C
:1056400000200028F3D1202284F83E20206303F1BB
:105650000C0252E8002F22F0100203F10C0545E87D
:1056600000200028F3D1A36E204603B0BDE83040EF
:1056700018472269002A7FF462AF226A32F8021BBF
:10568000C1F30801596022625EE700BF0D4F0008B8
:1056900084B082B00DF10C0C8CE80E00089A012A3F
:1056A00003462CD1826B0F9922F480328263C26848
:1056B00022F4840222F04002C260C268012922F46E
:1056C0004012C2605FD000223149009202E01A69A4
:1056D000002A2DDB009A01320092009A8A42F6D904
:1056E0000320069A012A07D19A6842F006029A60BE
:1056F0009A6842F020029A6002B004B07047C26813
:105700002349002042F04002DA60019002E01A6969
:10571000002A25DB019A01320192019A8A42F6D9C8
:1057200003200C9ABAB99A6B42F480329A63D8E794
:10573000002200921A69164942F001021A6103E040
:10574000186910F00100CCD0009A01320092009A42
:105750008A42F5D9C4E79A6B22F480329A63C0E793
:10576000002201921A690A4942F001021A6103E01B
:10577000186910F00100D4D0019A01320192019A07
:105780008A42F5D9CCE7C26842F48012C2609AE737
:10579000400D0300022A03460BD04FF4105CD96879
:1057A00021F47051D960DA6842EA0C020020DA6014
:1057B0007047264A26480A44824232D9254A26485A
:1057C0000A44824230D92548A1F57402A2F510524C
:1057D00082422CD92248A1F18372A2F5E74282428B
:1057E00028D3204A20480A44824226D91F4A20480A
:1057F0000A44824224D31F4A1F480A448242CCD31F
:105800001E48A1F1B772A2F5585282421BD31C4A1E
:105810001C480A44824234BF4FF4E05C4FF4C05C41
:10582000BDE74FF4705CBAE74FF4605CB7E74FF444
:10583000505CB4E74FF4405CB1E74FF4305CAEE746
:105840004FF4205CABE74FF4005CA8E7405327FF20
:10585000FF340C00401E1BFF3F420F007F4F120021
:1058600020D6130060B6E5FE5FE3160000D3CEFE3F
:1058700040771B00C05BB3FEC0912100207538004B
:10588000E05459FEE09C4100034600209A6842F033
:1058900001029A60704700BF034600209A6822F018
:1058A00001029A60704700BF38B5C368012923F030
:1058B000C0430546C36018D0A9B9C36843F080430C
:1058C0000C46C36001E0322C0DD00120FCF70EFC29
:1058D0006B69DB0704F10104F5D4A4F13200B0FADE
:1058E00080F0400938BD012038BDC36843F0005343
:1058F0000024C36001E0322CF5D00120FCF7F6FB58
:105900006B69DA0704F10104F5D5A4F13200B0FAAD
:1059100080F04009E6E700BF84B02DE9F04383B092
:105920000BAC159D84E80E000023C0F804310C4632
:10593000C0F80831C0F80C31C0F81031C0F814318B
:10594000C0F81831C0F81C31C0F82031C0F824313B
:10595000C0F82831C0F82C31C0F83031C0F83431EB
:10596000C0F83831C0F83C31002D40F0AE80D0F89E
:10597000043800F5006C43F00203CCF80430836B6C
:1059800043F400138363836B23F400238363836BEB
:1059900023F4802383630023C0F8003EDCF800304A
:1059A000CCF80030109B012B00F0BE80DCF80030FA
:1059B00043F00303CCF800300023624A009303E075
:1059C0000369002BC0F29D80009B01330093009B74
:1059D0009342F5D9012100235A4A019302E0036959
:1059E000002B7DDB019B01330193019B9342F6D990
:1059F00001210022CCF81020CCF81420CCF81C2077
:105A0000E4B100F5106317464FF090484FF000697D
:105A10004FF67F3E08E01F60013294421F61C3F8D9
:105A200008E003F1200332D01E68002EF3DA12B131
:105A3000C3F80080F0E7C3F80090EDE7DCF8103021
:105A400023F48073CCF8103000220E9B82616FF03B
:105A5000804242611BB9836943F01003836182690C
:105A6000394B1343119A83611AB1836943F00803D8
:105A70008361012D05D1836943F0804343F0040322
:105A80008361084603B0BDE8F04304B070470022CC
:105A900000F5306317464FF090484FF000694FF61D
:105AA0007F3E08E01F60013294421F61C3F808E0A6
:105AB00003F12003C2D01E68002EF3DA12B1C3F83E
:105AC0000080F0E7C3F80090EDE7836B23F4001348
:105AD0008363836B43F4002300F5006C83635AE710
