:020000040800F2
:1000000000000220A5DA0008993D00089D3D000887
:10001000A13D0008A53D0008A93D00080000000022
:1000200000000000000000000000000001BA00080D
:10003000AD3D00080000000091BA0008C5B50008F9
:10004000F5DA0008F5DA0008F5DA0008F5DA000854
:10005000F5DA0008F5DA0008F5DA0008F5DA000844
:10006000F5DA0008B13D0008B93D0008F5DA0008EE
:10007000C13D0008F5DA0008F5DA0008F5DA0008F5
:10008000F5DA0008F5DA0008F5DA0008CD3D0008D9
:10009000D93D0008F5DA0008F5DA0008E53D00086A
:1000A000F5DA0008F5DA0008F5DA0008F5DA0008F4
:1000B000F5DA0008ED3D0008F5DA0008F5DA000889
:1000C000F5DA0008F5DA0008F5DA0008F5DA0008D4
:1000D000F5DA0008F93D0008F5DA0008113E0008DD
:1000E000F5DA0008F5DA0008F5DA0008F5DA0008B4
:1000F000F5DA0008F5DA0008F5DA0008F5DA0008A4
:10010000F5DA0008F5DA0008F5DA0008F5DA000893
:10011000F5DA0008F5DA0008F5DA0008F5DA000883
:10012000F5DA0008293E0008353E0008513E000877
:10013000F5DA0008F5DA0008F5DA00085D3E000897
:10014000693E0008F5DA0008F5DA0008753E000897
:10015000813E00088D3E0008993E0008A53E00083B
:10016000F5DA0008F5DA0008F5DA0008F5DA000833
:10017000F5DA0008F5DA0008F5DA000800000000FA
:08018000F5DA0008F5DA0008C9
:1001900010B5054C237833B9044B13B10448AFF3C1
:1001A00000800123237010BDE00500200000000046
:1001B000FC90010808B5034B1BB103490348AFF39A
:1001C000008008BD00000000E4050020FC9001084C
:1001D00010F8012B11F8013B012A28BF9A42F7D0F1
:1001E000D01A704781F0004102E000BF83F0004365
:1001F00030B54FEA41044FEA430594EA050F08BFC2
:1002000090EA020F1FBF54EA000C55EA020C7FEA85
:10021000645C7FEA655C00F0E2804FEA5454D4EB02
:100220005555B8BF6D420CDD2C4480EA020281EACC
:10023000030382EA000083EA010180EA020281EA04
:100240000303362D88BF30BD11F0004F4FEA013156
:100250004FF4801C4CEA113102D0404261EB410165
:1002600013F0004F4FEA03334CEA133302D05242EB
:1002700063EB430394EA050F00F0A780A4F10104A7
:10028000D5F1200E0DDB02FA0EFC22FA05F28018E1
:1002900041F1000103FA0EF2801843FA05F35941C7
:1002A0000EE0A5F120050EF1200E012A03FA0EFC46
:1002B00028BF4CF0020C43FA05F3C01851EBE37170
:1002C00001F0004507D54FF0000EDCF1000C7EEB8D
:1002D00000006EEB0101B1F5801F1BD3B1F5001FCB
:1002E0000CD349085FEA30004FEA3C0C04F10104EA
:1002F0004FEA445212F5800F80F09A80BCF1004F13
:1003000008BF5FEA500C50F1000041EB045141EA94
:10031000050130BD5FEA4C0C404141EB0101013C5D
:1003200028BFB1F5801FE9D291F0000F04BF01464C
:100330000020B1FA81F308BF2033A3F10B03B3F11E
:1003400020020CDA0C3208DD02F1140CC2F10C02AE
:1003500001FA0CF021FA02F10CE002F11402D8BF0C
:10036000C2F1200C01FA02F120FA0CFCDCBF41EAD8
:100370000C019040E41AA2BF01EB0451294330BDA7
:100380006FEA04041F3C1CDA0C340EDC04F1140484
:10039000C4F1200220FA04F001FA02F340EA03005B
:1003A00021FA04F345EA030130BDC4F10C04C4F1A1
:1003B000200220FA02F001FA04F340EA0300294681
:1003C00030BD21FA04F0294630BD94F0000F83F4CB
:1003D000801306BF81F480110134013D4EE77FEAAE
:1003E000645C18BF7FEA655C29D094EA050F08BFFA
:1003F00090EA020F05D054EA000C04BF19461046DB
:1004000030BD91EA030F1EBF0021002030BD5FEA1E
:10041000545C05D14000494128BF41F0004130BD46
:1004200014F580043CBF01F5801130BD01F000459A
:1004300045F0FE4141F470014FF0000030BD7FEA0D
:10044000645C1ABF194610467FEA655C1CBF0B4608
:10045000024650EA013406BF52EA033591EA030F1F
:1004600041F4002130BD00BF90F0000F04BF002117
:10047000704730B54FF4806404F132044FF000054A
:100480004FF0000150E700BF90F0000F04BF0021C3
:10049000704730B54FF4806404F1320410F0004529
:1004A00048BF40424FF000013EE700BF42004FEA24
:1004B000E2014FEA31014FEA02701FBF12F07F43A1
:1004C00093F07F4F81F06051704732F07F4208BF58
:1004D000704793F07F4F04BF41F40021704730B55F
:1004E0004FF4607401F0004521F000411CE700BFAB
:1004F00050EA010208BF704730B54FF000050AE02E
:1005000050EA010208BF704730B511F0004502D52E
:10051000404261EB41014FF4806404F132045FEA30
:10052000915C3FF4D8AE4FF003025FEADC0C18BFD9
:1005300003325FEADC0C18BF033202EBDC02C2F1CB
:10054000200300FA03FC20FA02F001FA03FE40EA5D
:100550000E0021FA02F11444BDE600BF70B54FF061
:10056000FF0C4CF4E06C1CEA11541DBF1CEA13553F
:1005700094EA0C0F95EA0C0F00F0DEF82C4481EAA7
:10058000030621EA4C5123EA4C5350EA013518BFC7
:1005900052EA033541F4801143F4801338D0A0FBB4
:1005A00002CE4FF00005E1FB02E506F00042E0FB61
:1005B00003E54FF00006E1FB03569CF0000F18BF67
:1005C0004EF0010EA4F1FF04B6F5007F64F540740F
:1005D00004D25FEA4E0E6D4146EB060642EAC621A2
:1005E00041EA55514FEAC52040EA5E504FEACE2E0F
:1005F000B4F1FD0C88BFBCF5E06F1ED8BEF1004F12
:1006000008BF5FEA500E50F1000041EB045170BD8D
:1006100006F0004646EA010140EA020081EA0301D1
:10062000B4EB5C04C2BFD4EB0C0541EA045170BDCD
:1006300041F480114FF0000E013C00F3AB8014F147
:10064000360FDEBF002001F0004170BDC4F1000490
:10065000203C35DA0C341BDC04F11404C4F1200511
:1006600000FA05F320FA04F001FA05F240EA02006C
:1006700001F0004221F0004110EBD37021FA04F6A2
:1006800042EB06015EEA430E08BF20EAD37070BD5C
:10069000C4F10C04C4F1200500FA04F320FA05F0BB
:1006A00001FA04F240EA020001F0004110EBD370BD
:1006B00041F100015EEA430E08BF20EAD37070BD2D
:1006C000C4F1200500FA05F24EEA020E20FA04F306
:1006D00001FA05F243EA020321FA04F001F00041B5
:1006E00021FA04F220EA020000EBD3705EEA430E26
:1006F00008BF20EAD37070BD94F0000F0FD101F055
:100700000046400041EB010111F4801F08BF013C8D
:10071000F7D041EA060195F0000F18BF704703F0CB
:100720000046520043EB030313F4801F08BF013D52
:10073000F7D043EA0603704794EA0C0F0CEA13550E
:1007400018BF95EA0C0F0CD050EA410618BF52EAC8
:100750004306D1D181EA030101F000414FF00000CE
:1007600070BD50EA410606BF1046194652EA4306DC
:1007700019D094EA0C0F02D150EA013613D195EA50
:100780000C0F05D152EA03361CBF104619460AD198
:1007900081EA030101F0004141F0FE4141F47001A2
:1007A0004FF0000070BD41F0FE4141F4780170BD92
:1007B00070B54FF0FF0C4CF4E06C1CEA11541DBFF7
:1007C0001CEA135594EA0C0F95EA0C0F00F0A7F8F9
:1007D000A4EB050481EA030E52EA03354FEA013126
:1007E00000F088804FEA03334FF0805545EA131339
:1007F00043EA12634FEA022245EA111545EA106501
:100800004FEA00260EF000419D4208BF964244F197
:10081000FD0404F5407402D25B084FEA3202B61AB6
:1008200065EB03055B084FEA32024FF480104FF48A
:10083000002CB6EB020E75EB030E22BFB61A7546FE
:1008400040EA0C005B084FEA3202B6EB020E75EB91
:10085000030E22BFB61A754640EA5C005B084FEAF9
:100860003202B6EB020E75EB030E22BFB61A7546C6
:1008700040EA9C005B084FEA3202B6EB020E75EBD1
:10088000030E22BFB61A754640EADC0055EA060E92
:1008900018D04FEA051545EA16754FEA06164FEAD5
:1008A000C30343EA52734FEAC2025FEA1C1CC0D181
:1008B00011F4801F0BD141EA00014FF000004FF00E
:1008C000004CB6E711F4801F04BF01430020B4F1CF
:1008D000FD0C88BFBCF5E06F3FF6AFAEB5EB030C87
:1008E00004BFB6EB020C5FEA500C50F1000041EB84
:1008F000045170BD0EF0004E4EEA113114EB5C0451
:10090000C2BFD4EB0C0541EA045170BD41F4801123
:100910004FF0000E013C90E645EA060E8DE60CEA2B
:10092000135594EA0C0F08BF95EA0C0F3FF43BAF48
:1009300094EA0C0F0AD150EA01347FF434AF95EAFF
:100940000C0F7FF425AF104619462CE795EA0C0FE3
:1009500006D152EA03353FF4FDAE1046194622E7B0
:1009600050EA410618BF52EA43067FF4C5AE50EA8A
:1009700041047FF40DAF52EA43057FF4EBAE12E77A
:100980004FF0FF3C06E000BF4FF0010C02E000BF5B
:100990004FF0010C4DF804CD4FEA410C7FEA6C5C3E
:1009A0004FEA430C18BF7FEA6C5C1BD001B050EAE1
:1009B000410C0CBF52EA430C91EA030F02BF90EACC
:1009C000020F0020704710F1000F91EA030F58BF8B
:1009D000994208BF90422CBFD8176FEAE37040F0ED
:1009E000010070474FEA410C7FEA6C5C02D150EA8B
:1009F000013C07D14FEA430C7FEA6C5CD6D152EA46
:100A0000033CD3D05DF8040B704700BF844610460A
:100A100062468C461946634600E000BF01B5FFF709
:100A2000B7FF002848BF10F1000F01BD4DF808EDD9
:100A3000FFF7F4FF0CBF012000205DF808FB00BFAA
:100A40004DF808EDFFF7EAFF34BF012000205DF804
:100A500008FB00BF4DF808EDFFF7E0FF94BF012051
:100A600000205DF808FB00BF4DF808EDFFF7CEFF52
:100A700094BF012000205DF808FB00BF4DF808ED91
:100A8000FFF7C4FF34BF012000205DF808FB00BF62
:100A90004FEA410C7FEA6C5C02D150EA013C0AD17A
:100AA0004FEA430C7FEA6C5C02D152EA033C02D16C
:100AB0004FF0000070474FF0010070474FEA4102CD
:100AC00012F5001215D211D56FF47873B3EB6252A0
:100AD00012D94FEAC12343F0004343EA505311F0C7
:100AE000004F23FA02F018BF404270474FF0000059
:100AF000704750EA013005D111F0004008BF6FF097
:100B0000004070474FF00000704700BF4A0011D20C
:100B100012F5001211D20DD56FF47873B3EB625257
:100B20000ED44FEAC12343F0004343EA505323FA63
:100B300002F070474FF00000704750EA013002D1D8
:100B40004FF0FF3070474FF0000070474FEA41020E
:100B5000B2F1E04324BFB3F5001CDCF1FE5C0DD91B
:100B600001F0004C4FEAC0024CEA5070B2F1004F65
:100B700040EB830008BF20F00100704711F0804F68
:100B800021D113F13872BCBF01F00040704741F42D
:100B900080114FEA5252C2F11802C2F1200C10FA31
:100BA0000CF320FA02F018BF40F001004FEAC12315
:100BB0004FEAD32303FA0CFC40EA0C0023FA02F3B9
:100BC0004FEA4303CCE77FEA625307D150EA01338F
:100BD0001EBF4FF0FE4040F44000704701F000405F
:100BE00040F0FE4040F40000704700BF53B94AB9DE
:100BF000002908BF00281CBF4FF0FF314FF0FF3025
:100C000000F074B9ADF1080C6DE904CE00F006F8FF
:100C1000DDF804E0DDE9022304B070472DE9F04778
:100C2000089D04468E46002B4DD18A42944669D9D0
:100C3000B2FA82F252B101FA02F3C2F1200120FAB3
:100C400001F10CFA02FC41EA030E94404FEA1C4801
:100C5000210CBEFBF8F61FFA8CF708FB16E341EAFD
:100C6000034306FB07F199420AD91CEB030306F183
:100C7000FF3080F01F81994240F21C81023E6344A4
:100C80005B1AA4B2B3FBF8F008FB103344EA034448
:100C900000FB07F7A7420AD91CEB040400F1FF335D
:100CA00080F00A81A74240F207816444023840EA9A
:100CB0000640E41B00261DB1D4400023C5E90043D3
:100CC0003146BDE8F0878B4209D9002D00F0EF8056
:100CD0000026C5E9000130463146BDE8F087B3FA89
:100CE00083F6002E4AD18B4202D3824200F2F98071
:100CF000841A61EB030301209E46002DE0D0C5E974
:100D0000004EDDE702B9FFDEB2FA82F2002A40F0BF
:100D10009280A1EB0C014FEA1C471FFA8CFE0126C2
:100D2000200CB1FBF7F307FB131140EA01410EFB66
:100D300003F0884208D91CEB010103F1FF3802D20D
:100D4000884200F2CB804346091AA4B2B1FBF7F007
:100D500007FB101144EA01440EFB00FEA64508D92A
:100D60001CEB040400F1FF3102D2A64500F2BB8067
:100D70000846A4EB0E0440EA03409CE7C6F12007B6
:100D8000B34022FA07FC4CEA030C20FA07F401FAFC
:100D900006F31C43F9404FEA1C4900FA06F3B1FB85
:100DA000F9F8200C1FFA8CFE09FB181140EA0141EA
:100DB00008FB0EF0884202FA06F20BD91CEB010187
:100DC00008F1FF3A80F08880884240F28580A8F1DF
:100DD00002086144091AA4B2B1FBF9F009FB101131
:100DE00044EA014100FB0EFE8E4508D91CEB0101CF
:100DF00000F1FF346CD28E456AD90238614440EA72
:100E00000840A0FB0294A1EB0E01A142C846A646F1
:100E100056D353D05DB1B3EB080261EB0E0101FA7A
:100E200007F722FA06F3F1401F43C5E900710026D7
:100E30003146BDE8F087C2F12003D8400CFA02FC2D
:100E400021FA03F3914001434FEA1C471FFA8CFE3D
:100E5000B3FBF7F007FB10360B0C43EA064300FB2D
:100E60000EF69E4204FA02F408D91CEB030300F1CB
:100E7000FF382FD29E422DD9023863449B1B89B282
:100E8000B3FBF7F607FB163341EA034106FB0EF30B
:100E90008B4208D91CEB010106F1FF3816D28B42B8
:100EA00014D9023E6144C91A46EA004638E72E4684
:100EB000284605E70646E3E61846F8E64B45A9D27C
:100EC000B9EB020864EB0C0E0138A3E74646EAE7EB
:100ED000204694E74046D1E7D0467BE7023B614499
:100EE00032E7304609E76444023842E7704700BF02
:100EF0008180704710B5064C01214FF0FF32084643
:100F00000AF022FCC307F7D520680DF03BFFF3E79A
:100F1000500600200AF0AABC2DE9F04FAE4AAF4BB4
:100F200012681B68DFF8F082AD48AE4FAE4D2DED74
:100F3000048B83B0CDE900230FF030FCAB49D8F827
:100F4000000013F079F838680FF0D4FB2B6893F8A1
:100F50003B20510607D50CE00AF088FC2B6893F87B
:100F60003B20520605D493F83130022B4FF0640039
:100F7000F2D1DFF8A8A29E4C9FED9E8A00269FED3D
:100F80009D0A2068F0EE480A10F068FF206810F013
:100F900023FF0221684611F047FA013601200AF0CA
:100FA00065FCB6F57A7FEADBDAF800000DF084FE26
:100FB0000028E4D090489FED8F8A0FF0EFFB6FF090
:100FC000FF01D8F8000013F037F838680FF094FBF1
:100FD000DAF800000DF068FEDAF800000DF06CFEA3
:100FE00020B1DAF800000DF063FE88B99FED810AA8
:100FF0002068F0EE480A10F031FF206810F0ECFE97
:101000006846022111F010FA01200AF02FFCE3E7F4
:101010007A489FED788ADFF808B20FF0BFFBD8F866
:1010200000004FF0FF2113F007F838680FF062FB63
:10103000F0EE488A724B1B781BB164200AF016FC54
:10104000F8E72F68B7F92E004042FFF71DFA6D4B05
:101050000022FFF7ADFB6C4B0022FFF7A9FB804697
:10106000B7F934008946FFF70FFA59A3D3E90023F3
:10107000FFF79EFBFFF76AFDFFF718FA02460B46E3
:1010800040464946FFF7B4F88046B7F92C00404285
:101090008946FFF7F9F95B4B0022FFF789FB002235
:1010A000594BFFF785FBB7F93230064658420F46D9
:1010B000FFF7EAF946A3D3E90023FFF779FBFFF72F
:1010C00045FDFFF7F3F90B46024639463046FFF778
:1010D0008FF8FFF73BFD494609EE100A4046FFF73F
:1010E00035FDDBF8003007EE900A93ED027A77EEDB
:1010F000A87AF1EE478AF4EEE87AF1EE10FA08D415
:10110000F4EEC77AF1EE10FAD4BFF0EE678AF0EE93
:10111000478A38EE098ADFED3D7AB4EEE78AF1EED0
:1011200010FA38D5DFED3A7A38EE278ADAF800304F
:10113000DFED367A93ED060AD3ED050A38EEC00AE4
:10114000B4EEE70AF1EE10FA3DD4DFED327AB4EEF8
:10115000670AF1EE10FAC8BFB0EE670A78EE600ACF
:10116000DFED2A7AF4EEE70AF1EE10FA1FD5DFED93
:10117000287A70EEA70AB1EE400A206810F0C6FE89
:10118000206810F029FE6846022111F04DF9012077
:101190000AF06CFB4EE7DFED1F7AB4EEE78AF1EE62
:1011A00010FAC4BFDFED1A7A38EE678ABEE7DFEDCA
:1011B000197AF4EEE70AF1EE10FAC4BFDFED147A03
:1011C00070EEE70AD7E7B0EE670AC7E7AFF3008033
:1011D00000000000C0FFDF4008060020B00600202D
:1011E000A89201086C060020640600200000FFFFA2
:1011F0007806002000000000C8920108E092010873
:101200005406002000A0844000406A40DB0F49C023
:10121000DB0FC940DB0F49404C0600205006002080
:101220001406002070B50C4E0C4D84B002AC4FF08B
:10123000FF32012102200AF087FA8307F7D501A9BE
:1012400030680FF001FE019BCDE90230286894E878
:10125000060012F01FFEEAE71C06002080060020B0
:1012600080B5DFF858814A484A4AD8F800301268F9
:101270000068494984B0CDE9010293F83B20096830
:101280000391540608D50DE00AF0F0FAD8F80030C2
:1012900093F83B20500605D493F83130022B4FF0E1
:1012A0006400F1D13D4C01E00AF0E0FA20680DF055
:1012B000FFFC03466420002BF6D0394D394E3A4FDF
:1012C0003A4C9FED3B8ADFED3B8A9FED3B9A2B78B2
:1012D0002BB164200AF0CAFA2B78002BF9D13368BD
:1012E00093F8B722510730D5B3F8A522B3F8C2124C
:1012F000143A9142D8F8001006DA91F8382062BB0F
:1013000091F83120012A28D091F83A2012F04002B9
:101310001BD191F83110022917D0B3F8A7320F2B47
:101320002DD0112B24D9012320683B70B0EE680A20
:1013300012F0FAFE206812F02FFF01A8032111F02D
:1013400073F80A200AF092FAC1E7002320683B7084
:10135000B0EE480A12F0E8FEECE7206812F00AFF4F
:10136000336893F8B7225207EFD5D8F80010CBE7CF
:1013700020683A70B0EE480A12F0D6FEDAE7012390
:1013800020683B70B0EE490A12F0CEFED2E700BFF3
:10139000A4060020A8060020A00600205006002079
:1013A000540600208006002013060020840600203A
:1013B000000000000080F2430000DC4364060020CF
:1013C0002DE9F0437148724E724A33681268006822
:1013D000714985B0CDE9010293F83B20096803917A
:1013E000510607D50CE00AF041FA336893F83B2028
:1013F000520605D493F83130022B4FF06400F2D13D
:10140000664C01E00AF032FA20680DF051FC034608
:101410006420002BF6D0624C624D206810F020FA58
:1014200018B119E064200AF021FA2B78002BF9D1C9
:10143000206810F005FB58BB2068012110F00CFB60
:1014400001A8032110F0F0FF02200AF00FFA206833
:1014500010F006FA0028E8D0DFF85481524D534FBF
:10146000336893F83B103846C1F3001114F0BAF911
:10147000384614F0CDF928B198F8003083F0010314
:1014800088F8003098F800304FF0010983BB58E02D
:101490002068002110F0E0FA2068012110F0DCFA49
:1014A00001A8032110F0C0FF64200AF0DFF9EFE784
:1014B000206810F051FA2B682068B3F8C022D3EDF1
:1014C000AF0A01EE102AB3F8B52200EE102AB8EEEA
:1014D000411AB8EE400A012110F086FA032101A852
:1014E00010F0A2FF02200AF0C1F9B9F1320F46DC78
:1014F000206810F0A5FA09F1010901210028D7D0D0
:101500002068002110F0A8FA2068012110F0A4FA48
:1015100001A8032110F088FF64200AF0A7F9EFE783
:10152000206810F019FA2068012110F095FA0321C3
:1015300001A810F079FF02200AF098F9B9F1320FF2
:1015400017DC206810F07CFA09F101090146002837
:10155000E6D02068002110F07FFA2068012110F009
:101560007BFA01A8032110F05FFF64200AF07EF9E6
:10157000EFE7206810F094FA0028E2D070E72068C6
:1015800010F08EFA00287FF46BAFB1E74006002020
:10159000640600204406002030060020500600208B
:1015A0009806002054060020800600203C060020FB
:1015B0000C0600202DE98048AD4DAE4F2868DFF8BD
:1015C0005083DFF85093DFF850A3DFF850B3AA4EF2
:1015D0008DB012F0E3F9A94BA94A1868A9490CF09B
:1015E0009BFA2868002111F073FB00221146A64BDC
:1015F000286812F073F9A54B28680522002112F023
:101600006DF9A34B28680022012112F067F9A14B64
:1016100028680522012112F061F99F4B28680A22EF
:10162000012112F05BF99D4B28680022022112F083
:1016300055F99B4B28680522022112F04FF9994B6E
:1016400028680A22022112F049F9974B28680F22D4
:10165000022112F043F9954B28680022032112F071
:101660003DF9934B28680722032112F037F9914B7B
:1016700028680022042112F031F98F4B28680622D5
:10168000042112F02BF98D4B28680D22042112F051
:1016900025F900230A93ADF82C30894CD9F80010B5
:1016A00024680494874C039124680594864C396817
:1016B00024680694854CD8F8000024680794844C6C
:1016C000DAF8002024680894824CDBF800302468A3
:1016D000099400248C71039984718C719471049A1B
:1016E0009C719471059A9471069A9471079A9471F9
:1016F000089A1471099A642082F840400AF0B6F8FA
:101700003B68754A9B7975497548DBB21370D8F808
:101710000030744A9B79DBB20B70D9F80030724903
:101720009B79DBB20370DAF8003070489B79DBB24A
:101730000B70DBF800306E499B79DBB21370604BA5
:101740006C4A1B689B79DBB203705E4B6A481B686E
:101750009B79DBB20B705C4B1B689B79DBB213701F
:101760005A4B1B689B79DBB2037030680DF0A0FA0E
:10177000624B63491870564B624A1B6828681B7994
:10178000DBB20B70534B1B6893F84030DBB2137025
:10179000514A21461378022211F0C6FC4F4B2868AB
:1017A0001B782146072211F0BFFC4D480222037826
:1017B0002868012111F0B8FC4B4928680B780722F2
:1017C000012111F0B1FC474A2868137801210C224D
:1017D00011F0AAFC4548022203782868114611F04E
:1017E000A3FC434928680B780722022111F09CFCD6
:1017F000404A2868137802210C2211F095FC3E48DB
:10180000112203782868022111F08EFC30682C68C0
:101810000DF04EFA042203460321204611F084FC09
:101820003368186AFEF742FE374ACDE90001062107
:101830000AA815F0A7FD28680AAB0C22032112F0B4
:101840004DF82F4928680B780322042111F06CFC15
:101850002C4A2868137804210A2211F065FC2B4BCE
:1018600028681B781222042111F05EFC286857E0DA
:1018700058060020080600205006002074060020AC
:10188000150F000804000020F0920108F4920108EE
:10189000F8920108FC9201080093010804930108E2
:1018A000089301080C930108109301081493010890
:1018B0001C93010824930108289301083093010820
:1018C000940600209C0600208C0600209006002034
:1018D00080060020640600203A060020380600201A
:1018E00029060020270600202A06002025060020C1
:1018F00026060020230600202406002039060020AA
:1019000018060020AF0600203893010800060020CA
:10191000B0060020A4060020A8060020A006002093
:1019200011F0F4FF024B4FF001021A70B5E600BF50
:1019300028060020000000002DE9F04FB84C2DEDE6
:10194000028B2378ADF5697D2BB9642009F08EFFF9
:101950002378002BF9D0B34CB34D2368286893F853
:101960009D12DFF8F4A29FEDB18A12F0E5FDB0A858
:1019700098AA279007AE0BA82092A0ABA8A9C0AA4E
:101980002E902F962B9003AE01A82493269132928D
:101990000FA9324674AB1D900DF1060008EE903A87
:1019A0002D912C91309229921E90BAE80F00B8AF79
:1019B0002897209F1F960FC70AF1100003460AF1CF
:1019C00030004FF000090DF11C0B20900AF150017E
:1019D0000AF17000CDF8A8B0CDF87892ADF87C92FD
:1019E000CDF89692CDF89A92CDF8C4D0219122905C
:1019F0000AF190010AF1B000239133900AF1D0016D
:101A00000AF1F000349135909AE80300C7E900012B
:101A10001F460FCF2597249F854E0FC7259A92E822
:101A200003003B46209F43F8040B19800FCF2097FB
:101A3000269F0FC72098ADF8BC9207C887E807001B
:101A4000219FADF8DC920FCF2197279F0FC72198D8
:101A500007C887E80700229F0FCF2297289FCDF85D
:101A6000F7920FC72298CDF81A9303C83B46239FDD
:101A700043F8040B23F8021B090C19700FCF2397AE
:101A8000329FCDF8FA920FC7239A07CA3B4603C389
:101A9000339F1A800FCF0DF54878A8E80F0097E81C
:101AA0000700A8E80300349FA8F800200FCF0DF529
:101AB000507EAEE80F0097E807008DF85D93CDF8F3
:101AC0003A93CDF85993AEE80300359F8EF8002085
:101AD0000FCF0DF5587CACE80F0097E80700ACE895
:101AE00003008CF8002048AA019244AA0092514AAF
:101AF0008DF87D931278CDF879930DF1E00E734651
:101B00005FFA82FE4C4ACDF880E012785FFA82FEDE
:101B10004A4ACDF884E012785FFA82FE484ACDF84E
:101B200088E012785FFA82FE464ACDF88CE012789F
:101B30005FFA82FE444ACDF890E012785FFA82FEA6
:101B4000424ACDF894E0127828685FFA82FE404A53
:101B5000CDF898E012785FFA82FE3E4ACDF89CE01C
:101B600012785FFA82FECDF8A0E00DF5807E724615
:101B70000DF1F00E714612F00DFF0DF5907E9EE80E
:101B80000F002D9F07C739463B801B0C01F8023F11
:101B90000DF5887E2D919EE80F002E9F07C73846D1
:101BA0003B801B0C00F8023F0DF1E00E2E909EE8EA
:101BB0000F002F9F07C73B801B0C07F8023F0DF556
:101BC000807E2F979EE80F001F9F07C73A463B80F5
:101BD0001B0C02F8023F0DF1F40E1F929EE8070065
:101BE000EC463C9BACE8030020682CF8022B120C5E
:101BF0008CF8002000F233310522286812F008FD2D
:101C00002068042112F0D2F90DF1D80E7046216837
:101C100040F2013212F092F9DDE9361230681DE02F
:101C2000280600208006002048060020A46A573FAE
:101C30001C0600203A060020380600202906002055
:101C40002A06002027060020250600202606002060
:101C50002306002024060020189101080FF024F923
:101C6000142009F003FE64AB039360AB02935CABFA
:101C700001930DF5A87E58AB009373460DF5A07E39
:101C800072460DF5987E7146286813F0EFF8DDE98D
:101C90002B381F462A9B329364AB0FCB0DF15C0EA1
:101CA000AEE807002EF8023B1B0C8EF800300DF555
:101CB000C07E9EE80F000DF14C0CACE807002CF83C
:101CC000023B1B0C8CF800300DF5B87E9EE80F002F
:101CD000A8E80700A8F800302D991B0C0DF5B07E80
:101CE0000B709EE80F0007C73B802E981B0C0370FB
:101CF00054A80FC8329F07C73B802F9F1B0C3B7017
:101D000050AB0FCB309F07C730973B801F9A1B0CFF
:101D10004DA8137007C8319F4C9B03C720683197AB
:101D20003A80120C00F561718DF80A2028680722AC
:101D300012F06EFC2068052112F038F9216840F29B
:101D4000013236A812F0FAF8DDE9361230680FF0E9
:101D5000ABF8142009F08AFD6CAB1A4668AB194643
:101D6000286813F0FDF96CAB0FCBDDF8A4C0ACE82C
:101D70000700309F3B801F9A1B0C13700DF5D27823
:101D800098E80700EE46689BAEE80300319F3A8072
:101D9000120C8DF80A202268286802F20F31022204
:101DA00012F036FC2068032112F000F9216840F29D
:101DB000013236A812F0C2F8DDE9361230680FF0B1
:101DC00073F8142009F052FD286870A913F0B6FAD0
:101DD0002B682268996E039103F14801029172A960
:101DE00003C9ADF80410090C00908DF806101846D0
:101DF00070AB02F2F3310CCB12F078FD20680621B3
:101E000012F0D4F8216840F2013236A812F096F8A8
:101E1000DDE9361230680FF047F8142009F026FD8E
:101E20002868CDF8989318EE901A1E22CDE9E09913
:101E3000CDE9E299CDE9E499ADF89C9313F0E0FA8D
:101E400076AB93E80300ADF80410090C00908DF810
:101E50000610022321680393E0AB029318EE903A38
:101E600001F2F3310CCB286812F040FD2068062106
:101E700012F09CF8216840F2013236A812F05EF8A8
:101E8000DDE9361230680FF00FF8142009F0EEFC8F
:101E90000AF5887207CA0AF5907C84AF87E80700C4
:101EA0009CE8070088AB03C323F8022B2868ADF831
:101EB0001C92120C78A91A708DF81E92CDF82B92F4
:101EC00013F0DEFB0F23029703937AAA92E8030034
:101ED0002368ADF80410090C00908DF8061003F289
:101EE000F33178AB0CCB286812F000FD2068062196
:101EF00012F05CF8216840F2013236A812F01EF8A8
:101F0000DDE9361230680EF0CFFF142009F0AEFC88
:101F1000BD4B28688C937CA9CDE98D99CDF83B9277
:101F200013F0FAFB8CAB02930F2303937EAB93E881
:101F30000300ADF80410090C00908DF8061021681C
:101F400028687CAB0CCB01F2F33112F0CFFC206897
:101F5000062112F02BF8216840F2013236A811F068
:101F6000EDFFDDE9361230680EF09EFF142009F017
:101F70007DFC0AF5987207CA0AF5A07390AF87E84E
:101F800007000FCB0DF5147CACE8070028688CF82F
:101F9000003080A9ADF84C928DF84E92ADF85D926C
:101FA00013F0D8FB0F23039394AB029382AA92E819
:101FB00003002368ADF80410090C00908DF806109A
:101FC00003F2F33180AB0CCB286812F08FFC206851
:101FD000062111F0EBFF216840F2013236A811F022
:101FE000ADFFDDE9361230680EF05EFF142009F017
:101FF0003DFC29684FF07E5B844B93ED000A844BD7
:102000000846197812F0C8FD48AB0FCBDDE92B9AD2
:10201000DDE929CEAAE807002AF8023B1B0C8AF862
:10202000003044AB0FCBA9E8070029F8023B1B0C9A
:1020300089F8003038AB0FCBAEE807002EF8023B32
:102040001B0C8EF8003040AB0FCBACE807002CF82F
:10205000023B1B0C8CF800303DAA07CAE8463C9BAB
:10206000A8E803002168A8F80020120C08F8022F45
:1020700001F233310522286812F0CAFA20680421DF
:1020800011F094FF216840F2013236A811F056FF9A
:10209000DDE9361230680EF007FF142009F0E6FB88
:1020A000B0EEC80A286813F0CFF86DAA07CAEC464C
:1020B0006C9BACE80300ACF80020120C88F8002000
:1020C0002268286802F2FA21012212F0A1FA20689F
:1020D000022111F06BFF216840F2013236A811F0A5
:1020E0002DFFDDE9361230680EF0DEFE5846FEF7B1
:1020F000DDF943A3D3E90023FEF77AF8FEF726FDC6
:102100008346142009F0B2FB286813F041F92B68CC
:102110002268996E039103F14801029172A903C9E3
:1021200000901D9801801E98090C0170184670AB34
:1021300002F2F3310CCB12F0D9FB2068062111F02A
:1021400035FF36AB1846216840F2013211F0F6FE39
:10215000DDE9361230680EF0A7FE142009F086FB88
:102160002C4928680B7884AF0DF50878002B08BF40
:10217000B8460B78002B14BF0222032278A913F073
:10218000A3FA0F23CDF8088003937AA903C9236823
:1021900000901D9801801E9A090C117003F2F33112
:1021A00078AB0CCB286812F0A1FB2068062111F057
:1021B000FDFE36AB1846216840F2013211F0BEFE3A
:1021C000DDE9361230680EF06FFE142009F04EFB88
:1021D000114928680B780DF5107894AF002B08BFD3
:1021E000B8460B78002B14BF0522022280A913F0F9
:1021F000D5FA0F23CDF80880039382A903C90DE017
:102200009A9999999999B93F302E30003406002057
:10221000390600208906002013060020236800905C
:102220001D9801801E9A090C117003F2F33180ABE6
:102230000CCB286812F05AFB2068062111F0B6FE7C
:10224000216840F2013236A811F078FEDDE936123D
:1022500030680EF029FE142009F008FB209B23B9FA
:10226000A24B1B78002B00F08680219B23B9A04B4A
:102270001B78002B00F09E80229B23B99D4B1B787E
:10228000002B00F0B680239B23B99B4B1B78002BBF
:1022900000F0CE80249B23B9984B1B78002B00F0D4
:1022A000E680259B23B9964B1B78002B00F0FE801F
:1022B000269B23B9934B1B78002B00F02B81279B87
:1022C00023B9914B1B78002B00F04381289B13B955
:1022D0008E4B1B7883B38E4B29681B6893F83B3079
:1022E0009B0620D58B6F002B1DDD4FF00108CDF82C
:1022F000008018EE903A0846226813F037F92168FA
:1023000040F2013236A811F019FEDDE936123068CC
:102310000EF0CAFD142009F0A9FA29688B6F08F1A4
:1023200001084345E3DA00EE10BA1F9115F028FCCE
:102330001F99B0EE408A5FE62B68CDED018A2268D6
:10234000009218461E22D8A913F07EF820680621B4
:1023500011F02CFE216840F2013236A811F0EEFD9A
:10236000DDE9361230680EF09FFD142009F07EFA88
:1023700001232893AFE72B68CDED018A22680092F4
:1023800018461E2298A913F05FF82068062111F064
:102390000DFE216840F2013236A811F0CFFDDDE9D3
:1023A000361230680EF080FD142009F05FFA012328
:1023B00020935AE72B68CDED018A226800921846D7
:1023C0001E22A0A913F040F82068062111F0EEFDAE
:1023D000216840F2013236A811F0B0FDDDE9361275
:1023E00030680EF061FD142009F040FA01232193BA
:1023F00042E72B68CDED018A2268009218461E2222
:10240000A8A913F021F82068062111F0CFFD21685A
:1024100040F2013236A811F091FDDDE93612306844
:102420000EF042FD142009F021FA012322932AE73D
:102430002B68CDED018A2268009218461E22B0A9B1
:1024400013F002F82068062111F0B0FD216840F277
:10245000013236A811F072FDDDE9361230680EF057
:1024600023FD142009F002FA0123239312E72B68BD
:10247000CDED018A2268009218461E22B8A912F0FA
:10248000E3FF2068062111F091FD216840F201323E
:1024900036A811F053FDDDE9361230680EF004FD68
:1024A000142009F0E3F901232493FAE62B68CDED1B
:1024B000018A2268009218461E22C0A912F0C4FFA9
:1024C0002068062111F072FD216840F2013236A821
:1024D00011F034FDDDE9361230680EF0E5FC142011
:1024E00009F0C4F901232593E2E600BF3A06002073
:1024F00038060020290600202A0600202706002092
:1025000025060020260600202306002024060020A1
:10251000640600202B68CDED018A226800921846DF
:102520001E22C8A912F090FF2068062111F03EFD7E
:10253000216840F2013236A811F000FDDDE93612C3
:1025400030680EF0B1FC142009F090F901232693B5
:10255000B5E62B68CDED018A2268009218461E224E
:10256000D0A912F071FF2068062111F01FFD21682B
:1025700040F2013236A811F0E1FCDDE93612306894
:102580000EF092FC142009F071F9012327939DE6C7
:10259000024B0121186809F09BB800BFC00600205B
:1025A000024B0221186809F093B800BFC40600204E
:1025B00010B5034B036004460EF074F9204610BDBD
:1025C000A093010810B5054B036004460EF06AF9AC
:1025D000204628210EF096F8204610BDA093010851
:1025E0002DE9F04F2DED0C8BB94BBA4D1B6887B020
:1025F0000293B94B1B680393B84B1B680493B84B09
:102600001B6805932B6893F83B2056060DD406E013
:1026100009F02CF92B6893F83B20540605D493F865
:102620003130022B4FF06400F2D1AE4C01E009F0E2
:102630001DF920680CF03CFB03466420002BF6D00B
:10264000DFEDBD8A9FEDA8AADFEDA8AA9FEDA8BA8D
:102650009FEDA8CADFEDA8CADFF8CC92DFF8CC82E4
:10266000DFF8CCB2A54CA64FDFF8C8A2A54E019367
:10267000B0EE689AF0EE68BA99F8003033B1642091
:1026800009F0F4F899F80030002BF8D12B6893F892
:102690003A20D00600F1198193F83010A1F1010120
:1026A000B1FA81F14909984813F09CF8964813F063
:1026B000AFF828B198F8003083F0010388F80030B3
:1026C0002A6892F83A30590744BFDFED907A39EE24
:1026D000679A180744BFDFED8D7A39EE279AD9073C
:1026E00044BFDFED8A7A78EEA78A9B0748BFDFED0B
:1026F000877AB4EECA9A48BF78EEE78AF1EE10FA0C
:10270000C0F2B180DFED827AB4EEE79AF1EE10FA12
:1027100000F2A980F4EECA8AF1EE10FAC0F2468106
:10272000F4EEE78AF1EE10FA00F240819FED829A12
:10273000F0EE498ADFED777AB4EE679AF1EE10FA9F
:10274000F4EEEA8AC8BFB0EE679AF1EE10FA00F133
:10275000B980DFED707AF4EE678AF1EE10FAC8BF47
:10276000F0EE678AB2F9283009EE903AB2F92A30D1
:1027700008EE103AF8EEE99AB8EEC88A9BF80030F5
:1027800079EE899A38EE288A002B00F00681624B98
:102790001868624B1B6893ED010A03689B699847B0
:1027A00084ED000A98F8003094ED000A002B00F048
:1027B000C78014F057FEB0EE40DA94ED000A14F032
:1027C00015FE68EE0D7A68EE000AE9EE807A9FED5C
:1027D000541AEDEE670A3868B0EE670A0EF0AAFCEC
:1027E000DAF800303868B3F8C022D3EDAF0AB3F896
:1027F000B53201EE102A00EE103AB8EE411AB8EEEA
:10280000400A01210EF0E4FC464B1B781BB3304B11
:10281000186803689B68B34240F0DB800023838024
:102820002D4B186803689B68B34240F0CF800023AB
:1028300083802A4B186803689B68B34240F0C380CA
:1028400000238380264B186803689B68B34240F0DE
:10285000B7800023838002A804210FF0E5FD022049
:1028600009F004F808E7F4EECA8AF1EE10FA08DB82
:10287000DFED277AF4EEE78AF1EE10FA98BFDFED8C
:102880002E8AB5EEC09AF1EE10FA40F39280DFED99
:102890002B7A39EE679AF5EEC08AF1EE10FA7FDDF9
:1028A000DFED267A78EEE78AB4EEEA9AF1EE10FAD6
:1028B0007FF540AFF4EEEA8AF1EE10FA9FED0B9A45
:1028C0007FF547AFDFED098A4CE70199EBE600BFE2
:1028D00094060020640600209C0600208C06002040
:1028E000900600205006002000000CC2000096C494
:1028F0000000C8430AD723BD0AD7233D3406002071
:102900007C060020F10E00082C0600200000764214
:1029100000000C4200009644B0060020140600207F
:10292000000016440C0600205406002089060020F2
:1029300038060020800600200000000000007042E1
:1029400014F090FDB0EE40DA94ED000A14F04EFD64
:1029500094ED001A94ED007A68EE0D7A21EE0B1AD0
:10296000E9EE807AB4EECB1AF1EE10FA68EE000AC6
:10297000B4EECC7A58BFB0EE4B1AF1EE10FAEDEE91
:10298000670A7FF728AF94ED007AB4EE6C7AF1EE27
:1029900010FA48BFB0EE6B1A1DE7C4ED00BA01E7AC
:1029A00044BF5FED1A7A78EEA78A7DE71FED1E9A85
:1029B00071E77FF570AF5FED1F7A39EE279A6AE70E
:1029C0000021984747E7002198473BE700219847B7
:1029D0002FE70021984723E72DE9F04FD14ED24849
:1029E000DFF8D083D14DA7B00DF0BAFE30460DF020
:1029F000A9FE68200DF082FECD49012340F201229C
:102A000004460BF06BF96820C8F800400DF076FE24
:102A100040F201220023C74904460BF05FF944202D
:102A20002C600DF06BFEC44904460EF051FEC34B02
:102A30003C201C600DF062FE3146C14E4FF0010A91
:102A4000CDE900A603220223044611F0B3FABD4BE0
:102A50004FF4D4701C600DF051FEBB4B2193BB4B67
:102A6000199322934FF04003ADF86030B84B1593A3
:102A7000B84B1793A3F5C0531A9303F580631C93C7
:102A8000B54B1E93B54B2393B54B2493B54B259370
:102A90000024082710232096ADF858700E94ADF846
:102AA00074A08DF87CA0ADF86C300DF1600E064678
:102AB000BEE80F00EC46ACE80F00BEE80F00ACE843
:102AC0000F00BEE80F00ACE80F009EE803008CE8A2
:102AD00003000DF1540B9BE80E0030460CF02CFB6C
:102AE000A14B1E60A14B336038460DF007FEA04994
:102AF0004FF4807206460DF0F7FD9E4B1C201E60C1
:102B00000DF0FCFDD8F8001040F2052206460FF04B
:102B100083FD994B1C201E600DF0F0FDD8F80010CD
:102B200040F2062206460FF077FD934B8DF85C408D
:102B30001B68CDE91536914B4C201E600DF0DEFD73
:102B40009BE80E0006460EF0D7FF8D4B30461E6008
:102B50000FF040F98B4B186028200DF0CFFD8A490B
:102B600006460DF09DFF894B4FF496791E60884B09
:102B70003360494630460EF0BBF8844B494618682E
:102B80000EF00AF94FF485600DF0B8FD4A4606468E
:102B90000471846021460C3016F052FA4A462146F0
:102BA00006F59C7016F04CFA7A48C6F86842C6F8EA
:102BB000644221463060C6F86B4286F86F4222229A
:102BC00006F51C7016F03CFAC6F8B142C6F8DB42B6
:102BD000C6E9AE44C6E9B044C6E9B244C6E9B44465
:102BE000C6E9BA44C6F89242C6F89642A6F89A4296
:102BF00086F89C42C6F89D42C6F8A142C6F8A54296
:102C0000C6F8A942C6F8AD42C6F8B44286F8D84222
:102C100086F8D94286F8DA42C6F8DE42C6F8E242C1
:102C2000A6F8E642A6F8F042C6F8F242C6F8F64226
:102C3000C6F8FA422146C6F8FE422422C6F80243EC
:102C4000C6F80643C6F80A4386F80E4306F20F306C
:102C500016F0F6F92146512206F2333016F0F0F95B
:102C600021466F2206F5617016F0EAF921463322FB
:102C700006F2F33016F0E4F9474B86F826441C20A0
:102C80001E600DF03BFD296840F2012206460FF060
:102C90007DFC424B1C201E600DF030FD296840F287
:102CA000022206460FF072FC3D4A1C2016600DF011
:102CB00025FD296840F2032206460FF067FC3949DA
:102CC0001C200E600DF01AFD29684FF401720646B3
:102CD0000FF05CFC314B324A1B6832491193136888
:102CE00012930B688DF85840CDE913362E4B942083
:102CF0001E6011AB15930DF001FD9BE80600064622
:102D00000EF062F9294B1C201E600DF0F7FCD8F87C
:102D1000001040F2012206460FF038FC244B1C2024
:102D20001E6049E0580C0020A00F00206006002023
:102D3000D40600203807002014100020640600206C
:102D400040420F004C0600200000344208090020D9
:102D5000F407002000180240F00A00204808002074
:102D6000A8080020100020005006002094930108BD
:102D7000000802406C06002008060020B006002073
:102D80007806002014060020881000201C06002071
:102D9000A09301086CA00108800600209406002082
:102DA0009C0600208C060020900600207C06002057
:102DB000A40600205C0600200DF0A0FCD8F800104E
:102DC00040F2022206460FF0E1FB594A1C20166031
:102DD0000DF094FCD8F8001040F2032206460FF0E4
:102DE00061FC534A179613681693524B8DF860A0F6
:102DF0001B681593504B24201E600DF07FFC189B20
:102E000000939BE80E00064611F0C6FA4B4B38467D
:102E10001E600DF073FC4A49802206460BF046F90D
:102E2000484B38461E600DF069FC474F444940222C
:102E300006460BF03BF91C203E600DF05FFC296854
:102E400040F2052206460FF0A1FB404A1C20166006
:102E50000DF054FC29684FF4027206460FF096FB01
:102E60003B491C200E600DF049FC296840F2072206
:102E700005460FF0D1FB354A3B6835491693136878
:102E800017930B6818932F4B19951B681593314BAB
:102E900038201D600DF032FC18AB054693E80300A6
:102EA0008DE8030028469BE80E000EF023FC2A4B19
:102EB00014201D600DF022FC2849294B03220546F1
:102EC0000AF01AFE274B40F20C401D600DF016FC74
:102ED00025493C2205460FF0EFFE244B84201D605F
:102EE0000DF00CFC21468422044616F0A9F8204B74
:102EF0004FF470721C604FF40773C4E90A2340F268
:102F000014517823C4E90C1340F2DC504FF4AF7332
:102F1000C4E9100340F2BE5540F28E33C4E91C539D
:102F200040F2C4462D23C4E91F6327B0BDE8F08FEB
:102F3000A8060020A4060020A00600208406002089
:102F40000020024068060020700600204006002095
:102F5000440600203006002098060020A40B002024
:102F600040420F0074060020A007002058060020F1
:102F70004806002010B5204A2048002108F05CFBDC
:102F80001F4B204A044600211F481C6008F054FBD8
:102F90001E4B1F4A044600211E481C6008F04CFBD3
:102FA0001D4B1E4A044600211D481C6008F044FBCE
:102FB0001C4B1D4A044600211C481C6008F03CFBC9
:102FC0001B4B1C4A044600211B481C6008F034FBC4
:102FD0001A4B1B4A044600211A481C6008F02CFBBF
:102FE000194B1A4A0446002119481C6008F024FBBA
:102FF000184B186010BD00BF30940108F50E000892
:10300000C006002054940108190F0008BC060020D7
:103010009C94010825120008C40600207894010839
:10302000E1250008B4060020C094010861120008E0
:10303000CC060020E4940108C1130008B806002063
:1030400008950108B5150008C80600200C94010871
:1030500039190008FC0500202DE9F04FDFF874B2A3
:10306000894A8A48DFF870A2DFF87092DFF8708230
:10307000874F884E884D894C8DB040F263410AF0ED
:10308000F5FFDBF800300093DAF800300193D9F84F
:1030900000300893D8F8003009933B680A933368EE
:1030A0000B937F4B7F491B6805937F4B1B680693EF
:1030B0007E4B1B6807937E4B1B6803937D4B1B68FD
:1030C00004937D4B1B6802937C4B186810F0B4FF8F
:1030D0007B4B18680DF010FB8CE093F83010A1F1D9
:1030E0000201B1FA81F12846490912F07BFB28461A
:1030F00012F08EFB002840F08E80DBF80020136871
:103100009B68A34240F0BC809080DAF8000003681E
:103110009B68A34240F0B180002383800121684670
:103120000FF082F901A801210FF07EF9D9F8000013
:1031300003689B68A34240F09D8000238380386829
:1031400003689B68A34240F0928000238380D8F8F4
:10315000000003689B68A34240F0868000238380C0
:10316000306803689B68A3427BD10023838008A852
:1031700004210FF059F94A4B186803689B68A34271
:103180006CD100238380484B186803689B68A34276
:1031900061D100238380454B186803689B68A34274
:1031A00056D10023838005A803210FF03DF9404B41
:1031B000186803689B68A34247D1002383803D4B76
:1031C000186803689B68A3423CD1002383803A4B74
:1031D000186803689B68A34231D10023838003A849
:1031E00002210FF021F902A801210FF01DF964203E
:1031F00008F03CFB334B1B6893F93B20002ABFF6D9
:103200006CAF2846012112F0EDFA284612F000FBBF
:1032100000283FF472AF2C482C492D4A002303703C
:1032200026480B70006813704FF0FF2110F004FF68
:10323000234B18680DF05EFA0DB0BDE8F08F002149
:103240009847CCE700219847C1E700219847B6E7A7
:1032500000219847A7E7002198479CE7002198475D
:1032600091E70021984782E70021984778E70021FD
:1032700098476CE70021984761E7002198474DE7A0
:1032800001461046984740E74093010854930108CF
:103290008C06002090060020AC060020F10E0008ED
:1032A000A4060020FF0000FFA8060020A0060020C2
:1032B0004006002044060020300600204C06002076
:1032C0006C06002064060020890600208806002085
:1032D0005406002008060020B006002094060020B6
:1032E0009C06002080B5114D114F124C012602E0C2
:1032F000642008F0BBFA2B6893F93B20002A4FF0BA
:10330000010106DB93F83010A1F10201B1FA81F15D
:103310004909204612F066FA204612F079FA002890
:10332000E6D03E70FFF798FEE2E700BF640600209B
:1033300054060020AC06002008B500210C4812F00D
:103340004FFA00210B4812F04BFA00210A4812F004
:1033500047FA0021094812F043FA0021084812F008
:103360003FFABDE808400748002112F039BA00BF13
:10337000AC0600202C0600201006002020060020AD
:103380003C060020040600200D480E49032210B51B
:103390000023C0E900124FF001224FF400244FF443
:1033A000401182618383C0E90233C0E9044101F026
:1033B000D5FD00B910BDBDE8104000F0D1BB00BF85
:1033C000D4060020006400400D480E49032210B5C9
:1033D0000023C0E900124FF001224FF400244FF403
:1033E000401182618383C0E90233C0E9044101F0E6
:1033F000B5FD00B910BDBDE8104000F0B1BB00BF85
:10340000380700200068004030B502684C498DB094
:1034100000238A42CDE90633CDE908330A933FD031
:1034200048498A4201D00DB030BD474A0393116C20
:10343000464841F080611164116C01F08061039194
:103440000168039C01310129016065D03E4B0022D7
:103450000592186B40F0020018631B6B3C489FED0F
:10346000347B03F00203059306A9092303248DEDA1
:10347000067BCDE90943059D02F04EFC00220521A3
:103480003F2002F0A9F93F2002F0E4F900220521D3
:10349000402002F0A1F9402002F0DCF90DB030BD6F
:1034A0002A490A680132012A0A6029D0264B0022E3
:1034B0000292186B40F0080018631B6B25489FEDC3
:1034C0001E7B03F00803029306A9092303248DED54
:1034D000067BCDE90943029D02F01EFC0022052176
:1034E000132002F079F9132002F0B4F9002205212B
:1034F000142002F071F9142002F0ACF90DB030BDC7
:10350000114A0193136C43F000731364136C03F0BE
:1035100000730193019BC9E70493136C43F000739C
:103520001364136C03F000730493049B8EE700BFD5
:103530006000000002000000030000000200000024
:10354000006400400068004000380240D0060020BF
:1035500000040240000C024000B583B0274B00225B
:103560000092186B40F480001863186B00F4800020
:10357000009000980192186B40F4001018631B6BC8
:1035800003F40013052101930C20019B02F024F9A0
:103590000C2002F05FF900220521392002F01CF90D
:1035A000392002F057F9002205213A2002F014F9DF
:1035B0003A2002F04FF9002205213B2002F00CF9DD
:1035C0003B2002F047F900220521442002F004F9D3
:1035D000442002F03FF900220521452002F0FCF8CA
:1035E000452002F037F900224620052102F0F4F8C8
:1035F000462003B05DF804EB02F02CB9003802401D
:10360000704700BF704700BF704700BF704700BFE2
:10361000704700BF00B583B0019001F09FF9019899
:10362000FFF760FE012008F021F9FBE708B5FFF77E
:10363000D3F9FFF7E5FFFFF7E5FFFFF7E5FFFFF73A
:10364000E5FF064A0648002107F0F6FF054B186023
:10365000FFF790FCFFF7DCFF08BD00BF38950108BD
:10366000153600089C0700202DE9F04F2DED028B48
:10367000002491B0CDE90A44CDE90C44884B019473
:103680000E941A6B874FDFF82CB2DFF82CA2864E0F
:1036900042F002021A631A6B02F002020192019ACE
:1036A00002941A6B42F040021A631A6B02F0400255
:1036B0000292029A03941A6B42F001021A631A6B87
:1036C00002F001020392039A04941A6B42F008027A
:1036D0001A631A6B02F008020492049A05941A6B9A
:1036E00042F004021A631A6B02F004020592059A72
:1036F00006941A6B42F480721A631A6B02F4807299
:103700000692069A07941A6B42F020021A631A6B0B
:1037100002F020020792079A08941A6B42F0800286
:103720001A631A6B02F080020892089A09941A6BC5
:1037300042F010021A631B6B03F010030993224638
:1037400038464FF48071099B02F00CFC5846012268
:10375000402102F007FC50460122102102F002FC39
:1037600001221146304602F0FDFB224630464FF45E
:10377000404102F0F7FB01250AA9C02200234B4873
:103780000C95CDE90A234FF0010802F0C5FA4FF07D
:1037900000099FED418B0AA938464FF4807201233E
:1037A000CDE90A23CDE90C8902F0B6FA0AA9384618
:1037B00040220023CDE90A230C9502F0ADFA0AA9B4
:1037C000584640220123CDE90A238DED0C8B02F0EF
:1037D000A3FA08224FF4041358460AA9CDE90A2394
:1037E0000C9502F099FA0AA950464FF0020BCDE968
:1037F0000A890C9502F090FA50460AA94FF0010A86
:1038000010220123CDE90A23CDE90CAB02F084FAA2
:1038100038460AA930224FF40413CDE90A230C9547
:1038200002F07AFA4FF4804200230AA920480C954E
:10383000CDE90A2302F070FA0AA930468DED0A8B11
:10384000CDE90CAB02F068FA01230AA930464FF427
:103850004042CDE90A23CDE90C8902F05DFA224607
:103860000521092001F0B8FF092001F0F3FF2246ED
:1038700005210A2001F0B0FF0A2001F0EBFF2246EB
:103880000521172001F0A8FF172001F0E3FF11B078
:10389000BDEC028BBDE8F08F0100000001000000CC
:1038A00000380240000802400004024000200240AC
:1038B00000100240001802400000024010B50B4802
:1038C0000B4C0C4900234FF48042C0E90041C0E991
:1038D0000233C0E90423C0E90633036202F09CFD11
:1038E00000B910BDBDE8104000F03AB9A0070020B3
:1038F00000580040801A060010B50B480B4C0C49CC
:1039000000234FF48042C0E90041C0E90233C0E91E
:103910000423C0E90633036202F07EFD00B910BD46
:10392000BDE8104000F01CB9F4070020005C004026
:10393000801A06002DE9704303683A4A8CB00024CF
:103940009342CDE90644CDE908440A9405D0364AAD
:10395000934228D00CB0BDE87083344D01942B6B9A
:10396000334843F020032B632B6B03F020030193B8
:1039700003221223CDE9062301220323CDE90823E4
:1039800006A904230A93019A02F0C6F902942B6C4B
:1039900043F480032B642B6C03F480030293029B9B
:1039A0000CB0BDE87083214D03942B6B214843F08C
:1039B00004032B632B6B03F004030393039B049416
:1039C0002B6B43F001032B632B6B03F00103049378
:1039D0004FF400724FF001084FF00309042606A9C6
:1039E0001223CDE90623CDE90889049B0A9602F04B
:1039F00093F94FF4807212230F480A9606A9CDE975
:103A00000623CDE9088902F087F905942B6C43F46D
:103A100000032B642B6C03F400030593059B0CB08F
:103A2000BDE8708300580040005C00400038024050
:103A300000140240000802400000024000000000A4
:103A400010B5002394B0CDE90A33CDE90C33CDE9AC
:103A50000233CDE90433264900930693086C254AC6
:103A600040F080500864096C01F080510091009989
:103A70000193136843F48043136013689FED187B30
:103A800003F48043022101934FF480000623CDE923
:103A90000E10A822109308A807238DED087BCDE90E
:103AA0001121019C139304F073F908B172B6FEE77B
:103AB0009FED0D7B4FF4A0530022CDE9042302A813
:103AC0004FF4805305218DED027B069304F078FBC3
:103AD00008B172B6FEE714B010BD00BFAFF30080AE
:103AE00001000000000001000F00000002000000C3
:103AF000003802400070004008B501F0D7F9FFF728
:103B00009FFFFFF7B1FDFFF727FDFFF73DFCFFF734
:103B10005BFC00F059FD00F073FD00F091FDFFF734
:103B2000EBFE00F07DFC00F01DF800F0D9FC00F089
:103B3000DFFBFFF7C3FE00F007FA00F0C9F907F05A
:103B40004FFDFFF773FD07F05DFDFEE7034B0268D5
:103B50009A4200D0704701F0C3B900BF0004004092
:103B600072B6FEE710B50F480F4C4FF48272C0E9F1
:103B70000042022101220023C0E904124FF4007424
:103B800038210A22C0E90233C0E90641C0E90833FE
:103B9000C0E90A3204F06AFC00B910BDBDE810406B
:103BA000FFF7DEBF08090020003001402DE9F04397
:103BB000424B02688BB000249A42CDE90444CDE91F
:103BC0000644089402D00BB0BDE8F08303F58433BB
:103BD00001945A6C3A4E42F480525A645A6C02F480
:103BE00080520192019A02941A6B42F002021A6307
:103BF0001A6B02F002020292029A03941A6B42F0CC
:103C000001021A631B6B03F00103039318220223C2
:103C10004FF001084FF00309052704A9054629487C
:103C20000897CDE90423CDE90689039B02F074F8D7
:103C3000802202232448089704A9CDE90423CDE972
:103C4000068902F069F8214A74624FF0C063C6E940
:103C5000002330464FF480624FF44033C6E90244FB
:103C6000C6E90424C6E90644336201F001FEF0B956
:103C7000174C1849EE644FF0C062C4E900124FF4CB
:103C8000806200234021226120464FF40032C4E9C3
:103C90000213C4E90533C4E90732B563636201F076
:103CA000E7FD38B9AC64A5630BB0BDE8F083FFF75E
:103CB00057FFDDE7FFF754FFF4E700BF0030014096
:103CC0004808002000040240000002404064024016
:103CD000A80800205864024082B00E4B00220092D7
:103CE000596C41F480415964586C00F48040009054
:103CF00000980192186C40F0805018641B6C03F01F
:103D000080530193019B0F216FF0010002B001F07D
:103D100063BD00BF0038024030B5014689B00022C3
:103D20001D2001F059FD1D2001F094FD0025164BCA
:103D300002951A6C154C42F002021A641B6C03F0D7
:103D4000020301A903A80293029B04F0FDFA04F008
:103D5000DBFA0F4A0F4921604300A2FB03239B0CAF
:103D6000013B40F2E7322046C4E903256360A560C9
:103D700004F062FD10B1012009B030BD204604F00E
:103D800025FE09B030BD00BF003802408809002080
:103D900083DE1B4300040040FEE700BFFEE700BFD8
:103DA000FEE700BFFEE700BFFEE700BF704700BFB1
:103DB000082002F0DBB800BF102002F0D7B800BF27
:103DC000014801F087BE00BF800E0020014801F0CD
:103DD000C5BB00BFD4060020014801F0BFBB00BF37
:103DE000D4060020202002F0C1B800BF014804F032
:103DF00065BF00BF8809002008B504480DF086F8AB
:103E0000BDE80840014805F0ABBC00BFA00F002092
:103E100008B504480DF07AF8BDE80840014805F0FF
:103E20009FBC00BF14100020014801F053BE00BF2A
:103E3000E00E002008B504480CF03EFCBDE8084048
:103E4000024801F047BE00BF0809002048080020D2
:103E5000014801F03FBE00BFA8080020014801F062
:103E60007DBB00BF38070020014801F077BB00BFD1
:103E700038070020014803F079B800BFD82500209A
:103E8000014801F027BE00BFC00D0020014801F02D
:103E900021BE00BF400F0020014801F01BBE00BF43
:103EA000200E002008B504480DF030F8BDE80840A9
:103EB000014805F055BC00BF88100020034AD2F825
:103EC000883043F47003C2F88830704700ED00E09A
:103ED00000B51B481B4A0260A722002387B042603E
:103EE00040F6C312CDE90233CDE90433CDE9003306
:103EF000C0E90232C0E90433836104F09DFC98B943
:103F00004FF480530E48029302A905F0A5F898B922
:103F1000002200230A486946CDE9002305F04CF948
:103F200028B907B05DF804FBFFF71AFEE8E7FFF7D2
:103F300017FE07B05DF804FBFFF712FEE8E700BFCD
:103F40000C0D00200004014010B55D4C5D4992B09D
:103F50000023A7222046CDE90A33CDE90C33CDE971
:103F60000E33C4E90012C4E9023310932361A36144
:103F700004F062FC50BB524804F064FD18BB9FED96
:103F8000467B00224E480C920AA98DED0A7B0E92C8
:103F900004F052FFA0B922684B4900238A42CDE9C0
:103FA0000433CDE9063308932AD048498A4240D0E9
:103FB00047498A4256D043498A420AD012B010BDBE
:103FC000FFF7CEFDE7E7FFF7CBFDD8E7FFF7C8FD2A
:103FD000D1E7404A0393136B3F4843F02003136338
:103FE000136B9FED2F7B03F020030324039304A99D
:103FF0008DED047BCDE90744039B01F08DFEDDE7E9
:10400000344A0093136B43F010031363136B9FED5B
:10401000267B03F01003009300983048032201230D
:1040200004A98DED047B0792089301F075FE12B090
:1040300010BD284A0193136B43F008031363136BFD
:104040009FED1B7B03F00803019301982448032292
:10405000022304A98DED047B0792089301F05CFE16
:1040600012B010BD1B4A0293136B43F0800313631D
:10407000136B9FED117B03F08003029302981948A4
:104080000322022304A98DED047B0792089301F01B
:1040900043FE12B010BD00BF600000000000000031
:1040A0004000000002000000002A000002000000A2
:1040B0000040000002000000001C000002000000A0
:1040C000F00A0020004401400000014000080040C8
:1040D000000C004000380240001402400010024072
:1040E000000C0240001C02402A4A0368934286B03A
:1040F00026D0294A934215D0284A93422ED0284AE6
:10410000934239D0274A934218D1274B0022059277
:104110005A6C42F400325A645B6C03F4003305932A
:10412000059B0BE0204B002202921A6C42F0040225
:104130001A641B6C03F004030293029B06B07047E1
:10414000194B002201925A6C42F001025A645B6CD6
:1041500003F001030193019B06B07047124B00224C
:1041600003921A6C42F008021A641B6C03F00803F5
:104170000393039B06B070470B4B002204925A6CCA
:1041800042F002025A645B6C03F002030493049B46
:1041900006B070470000014000080040000C0040DD
:1041A00000040140004401400038024000000000CB
:1041B00010B5026844498AB000238A42CDE904332D
:1041C000CDE90633089321D040498A4237D040498F
:1041D0008A424DD03F498A4201D00AB010BD3E4AC2
:1041E0000393136B3D4843F020031363136B9FED60
:1041F0002E7B03F020030324039304A98DED047B9D
:10420000CDE90744039B01F087FDE6E7324A0093BE
:10421000136B43F010031363136B9FED257B03F0C7
:104220001003009300982E480322012304A98DED6A
:10423000047B0792089301F06FFD0AB010BD264A77
:104240000193136B43F008031363136B9FED1A7B09
:1042500003F008030193019822480322022304A9D2
:104260008DED047B0792089301F056FD0AB010BD56
:10427000194A0293136B43F080031363136B9FED92
:10428000107B03F080030293029817480322022355
:1042900004A98DED047B0792089301F03DFD0AB05F
:1042A00010BD00BFAFF3008040000000020000001E
:1042B000002A000002000000004000000200000090
:1042C000001C000002000000000001400008004047
:1042D000000C00400044014000380240001402403D
:1042E00000100240000C0240001C024000000000D0
:1042F00010B5002496B0202221460EA8CDE9034433
:10430000CDE90744CDE90944CDE90B44029400947A
:1043100006940594019414F093FE3F483F4A84614B
:10432000A723C0E9002340F6C313C0E90243C0E954
:10433000044404F081FA00284BD14FF480533648EE
:10434000029302A904F088FE00285BD1324804F0F1
:1043500079FB002853D1002200232F486946CDE97C
:10436000002304F029FF002846D160204FF47A7121
:10437000CDE9060100200021CDE90801CDE90A01BF
:10438000002225480C9206A904F056FD88BB22485D
:10439000042206A904F050FD40BB1F48082206A9CC
:1043A00004F04AFDF8B99FED1A7B00230022CDE905
:1043B0000E23CDE91023184800230EA98DED127BA2
:1043C000159304F039FF38B91348FFF7F1FE16B022
:1043D00010BDFFF7C5FBB0E7FFF7C2FB0E48FFF7C4
:1043E000E7FE16B010BDFFF7BBFBDCE7FFF7B8FB3D
:1043F000D3E7FFF7B5FBCAE7FFF7B2FBB5E7FFF777
:10440000AFFBA8E7FFF7ACFBA0E700BFAFF300806E
:1044100000000000002000003C0A002000000140D5
:1044200000B52D482D4A8FB00023CDE90233CDE9E8
:104430000433CDE90033CDE90633CDE90833CDE9C6
:104440000A33C0E902330C93036183615323C0E94B
:10445000002304F0F1F938BB4FF480531E48029357
:1044600002A904F0F9FD80BB1B4804F0EBFA48BB3D
:104470000022002318486946CDE9002304F09CFE81
:10448000E8B99FED137B00231348089306A908227F
:104490008DED067B0A9304F0CFFC40B90E48FFF780
:1044A00087FE0FB05DF804FBFFF75AFBD4E7FFF778
:1044B00057FB0948FFF77CFE0FB05DF804FBFFF7E0
:1044C0004FFBDEE7FFF74CFBD2E7FFF749FBCBE7FB
:1044D0006000000000000000A40B00200008004065
:1044E00000B53748374A8FB00023CDE90233CDE914
:1044F0000433CDE90033CDE90633CDE90833CDE906
:104500000A33C0E902330C93036183615323C0E98A
:10451000002304F091F9002834D14FF48053284847
:10452000029302A904F098FD002842D1244804F027
:1045300089FA00283AD10022002321486946CDE9B2
:10454000002304F039FE70BB9FED1B7B00221C484A
:10455000089206A98DED067B0A9204F06DFCF8B96D
:104560001748042206A904F067FCB0B914480822D1
:1045700006A904F061FC40B91148FFF719FE0FB01D
:104580005DF804FBFFF7ECFAC7E7FFF7E9FA0C4820
:10459000FFF70EFE0FB05DF804FBFFF7E1FAE5E769
:1045A000FFF7DEFADCE7FFF7DBFACDE7FFF7D8FA33
:1045B000C1E7FFF7D5FAB9E760000000000000008E
:1045C000580C0020000C004010B50B480B4C002389
:1045D0004FF4E1310C22C0E90041C0E90233C0E9E7
:1045E0000432C0E9063304F053FF00B910BDBDE842
:1045F0001040FFF7B5BA00BFA00F00200010014027
:104600000C480D490D4A10B50023C0E900124FF4C3
:1046100080544FF480610422C0E90243C0E90412CF
:10462000C0E9063304F034FF00B910BDBDE8104006
:10463000FFF796BA1410002000480040A086010041
:1046400010B50B480B4C00234FF4E1310C22C0E9AC
:104650000041C0E90233C0E90432C0E9063304F086
:1046600017FF00B910BDBDE81040FFF779BA00BFD1
:1046700088100020001401402DE9F0430368A54A8A
:104680008FB000249342CDE90844CDE90A440546A1
:104690000C940AD0A04A934200F083809F4A934230
:1046A00000F0C7800FB0BDE8F0839D4B01945A6CB9
:1046B0009C489D4E42F010025A645A6C02F010025F
:1046C0000192019A02941A6B42F002021A631A6B69
:1046D00002F002020292029A03941A6B42F0010263
:1046E0001A631B6B03F001030393802202234FF034
:1046F00001084FF00309072708A9CDE90823CDE9F0
:104700000A89039B0C9701F007FB4FF40072022308
:1047100086480C9708A9CDE90823CDE90A8901F05C
:10472000FBFA834A74624FF00063C6E900234FF43A
:1047300080634022336130464FF48033C6E902245F
:10474000C6E90544C6E9074301F092F8002840F0A5
:10475000D480784C78496E634FF000620023C4E93E
:10476000001220464FF480614FF48032C4E90233D6
:10477000C4E90413C4E90633B5632262636201F03D
:1047800077F8002840F0B680AC6300220521252090
:10479000A56301F021F8252001F05CF80FB0BDE819
:1047A000F0835F4B04941A6C6448654E42F4802297
:1047B0001A641A6C02F480220492049A05941A6B0B
:1047C00042F004021A631B6B03F0040305934FF4D9
:1047D00040620223CDE9082301220323CDE90A2305
:1047E00008A907230C93059B01F096FA554A7462B9
:1047F0004FF00063C6E9002330464FF480624FF467
:104800000033C6E90244C6E90424C6E9064433621B
:1048100001F02EF8002873D1AE6300220521272075
:10482000B56300F0D9FF272001F014F80FB0BDE800
:10483000F0833B4B06945A6C4348444E42F02002AE
:104840005A645A6C02F020020692069A07941A6B78
:1048500042F040021A631B6B03F0400307934FF4CE
:1048600084420223CDE9082301220323CDE90A2350
:1048700008A908230C93079B01F04EFA344A74628E
:104880004FF02063C6E9002330464FF480624FF4B6
:104890000033C6E90244C6E90424C6E9064433628B
:1048A00000F0E6FF90BB2B4C2B49AE634FF020622B
:1048B000C4E900124FF480620023402122612046A7
:1048C0004FF48032C4E90213C4E90533C4E9073266
:1048D000B563636200F0CCFFA8B96C6300220521C8
:1048E0004720A56300F078FF472000F0B3FF0FB02A
:1048F000BDE8F083FFF734F946E7FFF731F928E721
:10490000FFF72EF988E7FFF72BF9E6E7FFF728F91D
:10491000C9E700BF001001400048004000140140FA
:104920000038024000040240200E00200000024037
:10493000B8640240C00D00208864024000080240B4
:10494000800E00202860024000180240E00E002087
:1049500028640240400F0020A064024008B51849B6
:104960001848002206F04CF970B91749154806F0AE
:104970005BF988B91549134806F000F9A0B9114848
:1049800006F06EF9B8B908BDFFF7EAF80E490D4810
:1049900006F04AF90028EDD0FFF7E2F80B49094884
:1049A00006F0ECF80028EAD0FFF7DAF8054806F040
:1049B00057F90028E7D0BDE80840FFF7D1B800BF9D
:1049C00094000020FC100020E8000020800000205F
:1049D00000207047002070470020704710B5054C3C
:1049E0000146204606F0E4F8204606F0EDF80020E7
:1049F00010BD00BFFC10002010B5064C0649002277
:104A0000204606F0C7F80549204606F0D1F80020F8
:104A100010BD00BFFC100020D81B0020D8130020C0
:104A2000122301480B807047B00000200423014886
:104A30000B807047C400002010B5044C04480A469F
:104A4000214606F051FD204610BD00BFD8230020AE
:104A50007495010810B5044C04480A46214606F036
:104A600043FD204610BD00BFD823002088950108D3
:104A700010B5044C04480A46214606F035FD204690
:104A800010BD00BFD8230020A495010810B5044C28
:104A900004480A46214606F027FD204610BD00BF07
:104AA000D8230020B0950108454AD2F8100AD2F860
:104AB000183A4FF01A0CC318A1F800C001D14148B0
:104AC0007047D2F8141A3F4A180FB3F1204F2CBF89
:104AD000373030309070C3F3036009288CBF373013
:104AE00030301071C3F3035009288CBF3730303099
:104AF0009071C3F3034009288CBF373030301072F7
:104B0000C3F3033009288CBF373030309072C3F3C1
:104B1000032009288CBF373030301073C3F30310E3
:104B2000092803F00F038CBF37303030092B94BFB6
:104B30003033373313740023B1F1204F53744FEAED
:104B400011732CBF373330339374C1F30363092BD4
:104B50008CBF373330331375C1F30353092B4FF038
:104B6000000C8CBF3733303382F803C04FF0000C99
:104B700082F805C090734FF0000C00209375C1F3CC
:104B80000343092B82F807C0D0734FF0000C4FF09D
:104B9000000094BF3033373382F809C0D0744FF02F
:104BA000000C002082F80BC050754FF0000C002064
:104BB00013760023D07582F80DC0024853767047F3
:104BC0000070FF1FC800002030B5036889B00024C2
:104BD000B3F1A04FCDE90244CDE90444069401D0DD
:104BE00009B030BD174D00942B6B174843F00103FB
:104BF0002B632B6B03F0010300934FF4C05202238D
:104C0000CDE90223032302A905930A23009A069300
:104C100001F082F86B6B43F080036B6301946B6C63
:104C200043F480436B646B6C03F48043224605219C
:104C300001934320019B00F0CFFD432000F00AFECA
:104C400009B030BD003802400000024000F2C4410B
:104C5000D0F8080506F018B801EBC10300EB830398
:104C6000D0F80805D3F88C2206F03EB801EBC1035A
:104C700000EB8303D0F80805DA6C06F06FB800BFCC
:104C8000D0F8080506F00EB9C16810B5044611B198
:104C900002290AD10121D4F8080506F0E7F8D4F872
:104CA0000805BDE8104006F0B3B8FEF759FF012132
:104CB000F1E700BF10B50446D0F8080506F0DAF8B1
:104CC0002268D2F8003E43F00103C2F8003E236A96
:104CD00023B1034A136943F00603136110BD00BFFB
:104CE00000ED00E0D0F8080506F0D0B8D0F80805CF
:104CF00006F0FEB8D0F8080506F0E4B8D0F80805CC
:104D000006F00CB9D0F8080506F00AB9000000005A
:104D100002780AB1002070479FED177B1A4B10B53F
:104D200083ED067B9FED167B4FF0A041C3F808058D
:104D30000424C0F8C832196083ED087B02211846AC
:104D4000C3E90B225C60D9601A6102F061F878B99E
:104D500080210D4803F016F8402200210A4802F095
:104D6000E7FF80220121084802F0E2FF002010BD89
:104D7000FEF7F6FEECE700BF0200000000000000B6
:104D80000000000000000000D825002008B5D0F881
:104D9000C80202F0CBF8032896BF024B0320185C30
:104DA00008BD00BFC0950108944608B51A46D0F862
:104DB000C802634602F07AFE032896BF014B032027
:104DC000185C08BDC095010808B5D0F8C80202F00B
:104DD000ABFE032896BF024B0320185C08BD00BF42
:104DE000C095010808B5D0F8C80202F025FF0328D5
:104DF00096BF024B0320185C08BD00BFC095010898
:104E000008B5D0F8C80202F05BFF032896BF024B3A
:104E10000320185C08BD00BFC09501080A06D0F841
:104E2000C83206D401EBC10103EB810191F87E0287
:104E3000704701F07F0101EBC10103EB810191F8A3
:104E40003E00704708B5D0F8C80202F01BFE0328E8
:104E500096BF024B0320185C08BD00BFC095010837
:104E600008B5D0F8C80202F0BFFE032896BF024B77
:104E70000320185C08BD00BFC095010808B5D0F834
:104E8000C80202F07FFE032896BF024B0320185C85
:104E900008BD00BFC0950108D0F8C80202F09ABE54
:104EA00000487047E42A0020704700BF08B50B4B4C
:104EB0001A6842F400721A601A6842F480621A603A
:104EC0001A6842F480721A60032000F073FC00201C
:104ED000FEF722FFFEF700FF002008BD003C024065
:104EE000034A044B11681B780B441360704700BFE2
:104EF000042D0020E2000020014B1868704700BF1D
:104F0000042D002038B50446FFF7F6FF631C054664
:104F100002D0044B1B781C44FFF7EEFF431BA34257
:104F2000FAD338BDE2000020704700BF704700BFD1
:104F3000704700BF704700BF704700BF704700BF99
:104F4000704700BF704700BF704700BF704700BF89
:104F5000704700BF704700BF704700BF002800F0D7
:104F6000988038B590F820300446002B72D0226823
:104F7000136843F001031360FFF7BEFF054604E02A
:104F8000FFF7BAFF431B0A2B5BD823685A68D10787
:104F9000F6D51A6822F002021A60FFF7ADFF054647
:104FA00004E0FFF7A9FF401B0A284AD823685A6883
:104FB0009207F6D4227E012A1A680CBF42F08002C2
:104FC00022F080021A60627E012A1A680CBF42F049
:104FD000400222F040021A60A27E012A1A680CBF29
:104FE00042F0200222F020021A60E27E012A1A68B2
:104FF0000CBF22F0100242F010021A60227F012A38
:105000001A680CBF42F0080222F008021A60627FA0
:10501000012A1A680CBF42F0040222F004021A604E
:10502000D4E90220216902430A43606961680243AE
:1050300001390A4300200121DA61606284F82010FE
:1050400038BD636A052243F40033636284F820208C
:10505000012038BD1149124AC36D1248C4E910122B
:10506000114A1249C4E91202114A1248C4E90A124B
:10507000114A1249C4E90C02114A1248C4E90E123D
:105080001149124AA265C4E9140123B12046984788
:105090006DE7012070470E4BE365F7E7454F0008C9
:1050A000494F00084D4F0008514F00082D4F000890
:1050B000314F0008354F0008394F00083D4F0008B8
:1050C000414F0008554F0008594F0008294F00086C
:1050D000093400084AB190F820C0BCF1010F5FFA12
:1050E0008CF311D090F8203033B1426A42F4800240
:1050F00001234262184670470D2929D00E29F4D1A8
:1051000000230266184670470E294CD80FF2040C93
:105110005CF821F05F510008655100086B510008F0
:1051200071510008775100087D5100088351000833
:10513000895100088F510008955100089B510008C3
:10514000A1510008595100085151000801510008AF
:105150000023C2651846704782650023CAE7826251
:105160000B46C7E7C2620023C4E702630023C1E71E
:1051700042630023BEE782630023BBE7C2630023D0
:10518000B8E702640023B5E742640023B2E7826413
:105190000023AFE7C2640023ACE702650023A9E760
:1051A00042650023A6E7426A42F480024262A1E718
:1051B00090F82020013A012A06D9426A034642F4B7
:1051C000802201205A627047414BD3F8002230B44C
:1051D00001242243C3F80022D3F8002222F47C5297
:1051E000C3F80022D3F80022486A42EA0022C3F83A
:1051F00000224A6902F01F0004FA00F0D3F81C42B2
:1052000024EA0004C3F81C42CD69C443002D45D1F3
:10521000D3F80C522540C3F80C52D200CD688B88CD
:1052200002F1804202F5C84243EA0543C2F8403227
:105230008D680B8843EA0543C2F844328B69244ADF
:1052400033BBD2F804322340C2F804320B69C3B92D
:105250001F4BD3F814221440C3F814420B6A012BDD
:1052600005D11B4AD2F81C321843C2F81C02184A56
:10527000D2F8003223F00103002030BCC2F8003223
:105280007047134AD2F814320343C2F81432E5E7E8
:10529000D2F804320343C2F80432D7E7012DCDD14E
:1052A000D3F80C520543C3F80C52D2000D688B881A
:1052B00002F1804202F5C84243EA0543C2F8403297
:1052C0008D688B8943EA0543C2F84432B6E700BFD4
:1052D0000064004070B590F82030012B044606D0E1
:1052E000436A012643F400234362304670BD0268DE
:1052F000DEB2022380F82030136823F0010313602C
:10530000FFF7FAFD054604E0FFF7F6FD431B0A2B05
:1053100008D823685B6813F00103F5D11E46636269
:10532000304670BD636A052243F40033636284F83B
:105330002020304670BD00BF30B4844690F8200075
:10534000DCF8005001380128AC6835D814F0E05F73
:105350003BD0C4F30164032C49D00120A040186065
:105360008B68002B3AD0C8680343486843EAC003FF
:1053700004F1180000012B5005EB041C0B69CCF85C
:105380008431097D01294FEA041305D1DCF8841129
:1053900041F48071CCF884112B445168C3F88C110E
:1053A0001268C3F88821DCF8803143F00103002043
:1053B00030BCCCF880317047DCF8243043F48023D3
:1053C000012030BCCCF824307047DCF8243043F4A2
:1053D0000013012030BCCCF824307047CB6808683B
:1053E00043EA405004F118031B01E850C4E7DCF81D
:1053F000243043F40003012030BCCCF82430704743
:1054000090F82030013B012B01D900207047036840
:105410009B6803EA8163B3EB816F14BF0120002016
:10542000704700BF70B590F820E00EF1FF3EBEF16E
:10543000010F84466DD8006851B9C468A5070AD128
:10544000DCF8243043F400130120CCF8243070BD84
:105450000469A407F4D000EB011E0C01DEF8B05182
:1054600005F004059560002D5AD0DEF8B051ED0826
:105470005560DEF8B05105F00205D560DEF8B45194
:10548000DEF8B46105F00F0515612044DEF8B45173
:10549000C6F3072696612D0CD0F8B86155611E70D1
:1054A000DCF800202244D2F8B821120A5A70DCF845
:1054B00000202244D2F8B821120C9A70DCF80020A7
:1054C0002244D2F8B821120EDA70DCF8002022440F
:1054D000D2F8BC211A71DCF800202244D2F8BC2199
:1054E000120A5A71DCF800202244D2F8BC21120CB6
:1054F0009A71DCF800202244D2F8BC21120EDA7135
:10550000DCF8002089B9D36843F020030846D36053
:1055100070BD436A43F480230120CCF8243070BD71
:10552000DEF8B0516D0D1560A3E7136943F0200359
:105530000020136170BD00BF90F82020013A012ABD
:10554000034605D9426A42F4802201205A6270471C
:105550000268536919430020516170472DE9F04FEB
:1055600003685D69D3F804809F68D3F80CA0D3F872
:105570001090D3F818B015F0010681B0044625D07C
:1055800017F0010640F0B9804FF400524FF480410B
:10559000F8050DD523684FF480709860BB0500F1C5
:1055A000CB80780500F1EC803B0540F1F2800E469F
:1055B000F8030BD523684FF48032B9039A6000F1E9
:1055C000AF807A0340F1D78046F400462F0703D519
:1055D0001AF0100F40F08B80680702D51AF0080F00
:1055E0007ED1A90703D52368DB689A0774D16B06BF
:1055F00002D519F0100F69D1AF0602D519F0080FC6
:105600005DD1E80603D523681B69990753D1AA0326
:1056100002D518F0100F47D1EB0302D518F0080F90
:105620003BD12F0405D518F0040F0DD123680422B7
:105630005A60002E71D0636AA26D1E4320466662D6
:1056400001B0BDE8F04F1047E80504D51BF0010F8D
:1056500018BF46F00106A90504D51BF0020F18BFBC
:1056600046F002066A0504D51BF0040F18BF46F089
:1056700004062B05DAD51BF0700BD7D0BBF1400F19
:1056800000F095805CD8BBF1200F00F08D80BBF15D
:10569000300F63D146F020065AE0236808225A6092
:1056A0002046636D9847BCE7236810225A60204665
:1056B000236D9847B0E7A36C20469847A7E7236877
:1056C00008221A612046E36C98479AE72368102263
:1056D00046F480661A618FE7236C2046984786E778
:1056E00023680822DA602046636C984779E72368CC
:1056F000102246F40076DA606EE701229A60BB075A
:1057000012D47E0730D417F008063BD04FF4405235
:105710004FF4A0414FF480563AE701B0BDE8F08F56
:10572000236B2046984751E7836A984700264FF439
:1057300000524FF480412BE7E36A2046984737E751
:10574000BBF1500F2DD0BBF1600F08BF46F480763F
:1057500023689A6922F070029A6168E7BBF1100F22
:10576000F6D146F00806F3E74FF420524FF490418B
:105770004FF400660CE73B030FD546F4803625E76F
:10578000164615E7436B98474FF400524FF480419B
:10579000FEE6A36B204698470AE7E36B204698474E
:1057A00014E746F08006D3E746F01006D0E746F04F
:1057B0004006CDE70749CA6803024FF6FF0003F42D
:1057C000E0630240134343F0BF6343F40033CB6014
:1057D000704700BF00ED00E01C4BDB68C3F3022301
:1057E00000B5C3F1070EBEF1040F03F1040C28BF8E
:1057F0004FF0040EBCF1060F1BD9033B4FF0FF3CEA
:105800000CFA03FC22EA0C024FF0FF3C0CFA0EFCEF
:1058100021EA0C019940002841EA02010CDB00F169
:105820006040090100F56140C9B280F800135DF8DD
:1058300004FB00221346E7E7054B00F00F000901C7
:105840000344C9B219765DF804FB00BF00ED00E027
:10585000FCEC00E0002808DB4109044A00F01F00CE
:10586000012303FA00F042F82100704700E100E054
:1058700038B50446FFF740FB002C52D023680022C5
:10588000022184F8351084F834201A6822F00102CD
:1058900005461A6005E0FFF72FFB431B052B39D89F
:1058A00023681A68D107F6D4D4E90120E1680243DD
:1058B0000A43D4E90451A0692A430A43E1691D68F7
:1058C00002430A4333492940256A2A430A43616A4D
:1058D000042928D01A605A6922F007021143D8B26D
:1058E0002D4A59611038A2FB005212092B4923F4AA
:1058F0007F73895CE16523F003035F2888BF04336D
:105900003F228A40A36500209A600123606584F8E5
:10591000353038BD03232022626584F835301846BF
:1059200038BD012038BDD4E90B5129430A431A6020
:105930005969A26A21F00701114341F00401002DC9
:10594000CDD078B1B0F5005F16D0022A03D9032A72
:10595000C5D1EA01C3D501234022626584F8353000
:10596000184638BD012A03D032F00202B7D1F0E761
:10597000B5F1C07FB3D1EEE7032AB0D801A050F84B
:1059800022F000BF57590008535900085759000822
:10599000715900083F8010F0ABAAAAAAC49501086B
:1059A00070B490F83440856D012C35D090F83540B6
:1059B0004FF0010C644580F834C005D0002380F816
:1059C000343070BC02207047022680F835600468CD
:1059D00000264665266826F4802626606360836874
:1059E000402B0EBFA260A160E260C26D08BFE16003
:1059F0003F239340AB602368026C43F0160323609F
:105A00001AB1236843F008032360236843F00103BD
:105A10000020236070BC7047022070BC704700BF3C
:105A200070B50446866DFFF767FA94F83530022B9F
:105A300006D00023802284F834306265012070BDD6
:105A400023681A6822F016021A605A6922F080024E
:105A50005A61226C054632B31A6822F008021A60B5
:105A60001A6822F001021A6005E0FFF745FA431BAD
:105A7000052B0FD823681B6813F00103F5D1E16DE6
:105A80003F228A400121B26084F8351084F8343016
:105A9000184670BD032020220023626584F834304C
:105AA00084F8350070BDA26C002AD5D1D8E700BFBC
:105AB00090F83530022B03D08023436501207047D6
:105AC0000268052380F83530136823F001030020B5
:105AD000136070472DE9F04182B0744A866D1568F5
