:020000040800F2
:100000000000032009C60008851E0008891E00089C
:100010008D1E0008911E0008951E000800000000BB
:1000200000000000000000000000000061A60008C1
:10003000991E000800000000F1A6000855A700085E
:1000400059C6000859C6000859C6000859C6000814
:1000500059C6000859C6000859C6000859C6000804
:1000600059C6000859C600089D1E0008A51E0008B4
:10007000B11E000859C60008BD1E0008C91E0008B0
:1000800059C60008D51E0008E11E0008ED1E000834
:10009000F91E000859C6000859C60008051F0008C7
:1000A00059C6000859C6000859C6000859C60008B4
:1000B00059C60008191F000859C6000859C600088B
:1000C00059C6000859C6000859C6000859C6000894
:1000D00059C60008251F000859C600083D1F000822
:1000E00059C6000859C6000859C60008551F00081F
:1000F00059C6000859C6000859C6000859C6000864
:1001000059C60008611F000859C6000859C60008F2
:1001100059C6000859C6000859C6000859C6000843
:100120006D1F0008791F0008851F0008911F000837
:100130009D1F000859C6000859C60008A91F0008DD
:10014000B51F000859C6000859C60008C11F00089D
:10015000CD1F0008D91F0008E51F0008F11F000887
:1001600059C6000859C6000859C6000859C60008F3
:1001700059C6000859C6000859C60008000000000A
:1001800059C6000859C600080920000821200008A7
:1001900059C6000859C6000859C6000859C60008C3
:0C01A000000000000000000059C600082C
:1001B00010B5054C237833B9044B13B10448AFF3A1
:1001C00000800123237010BDF0010020000000001A
:1001D000DCEC000808B5034B1BB103490348AFF33F
:1001E000008008BD00000000F4010020DCEC0008E5
:1001F00010F8012B11F8013B012A28BF9A42F7D0D1
:10020000D01A704781F0004102E000BF83F0004344
:1002100030B54FEA41044FEA430594EA050F08BFA1
:1002200090EA020F1FBF54EA000C55EA020C7FEA65
:10023000645C7FEA655C00F0E2804FEA5454D4EBE2
:100240005555B8BF6D420CDD2C4480EA020281EAAC
:10025000030382EA000083EA010180EA020281EAE4
:100260000303362D88BF30BD11F0004F4FEA013136
:100270004FF4801C4CEA113102D0404261EB410145
:1002800013F0004F4FEA03334CEA133302D05242CB
:1002900063EB430394EA050F00F0A780A4F1010487
:1002A000D5F1200E0DDB02FA0EFC22FA05F28018C1
:1002B00041F1000103FA0EF2801843FA05F35941A7
:1002C0000EE0A5F120050EF1200E012A03FA0EFC26
:1002D00028BF4CF0020C43FA05F3C01851EBE37150
:1002E00001F0004507D54FF0000EDCF1000C7EEB6D
:1002F00000006EEB0101B1F5801F1BD3B1F5001FAB
:100300000CD349085FEA30004FEA3C0C04F10104C9
:100310004FEA445212F5800F80F09A80BCF1004FF2
:1003200008BF5FEA500C50F1000041EB045141EA74
:10033000050130BD5FEA4C0C404141EB0101013C3D
:1003400028BFB1F5801FE9D291F0000F04BF01462C
:100350000020B1FA81F308BF2033A3F10B03B3F1FE
:1003600020020CDA0C3208DD02F1140CC2F10C028E
:1003700001FA0CF021FA02F10CE002F11402D8BFEC
:10038000C2F1200C01FA02F120FA0CFCDCBF41EAB8
:100390000C019040E41AA2BF01EB0451294330BD87
:1003A0006FEA04041F3C1CDA0C340EDC04F1140464
:1003B000C4F1200220FA04F001FA02F340EA03003B
:1003C00021FA04F345EA030130BDC4F10C04C4F181
:1003D000200220FA02F001FA04F340EA0300294661
:1003E00030BD21FA04F0294630BD94F0000F83F4AB
:1003F000801306BF81F480110134013D4EE77FEA8E
:10040000645C18BF7FEA655C29D094EA050F08BFD9
:1004100090EA020F05D054EA000C04BF19461046BA
:1004200030BD91EA030F1EBF0021002030BD5FEAFE
:10043000545C05D14000494128BF41F0004130BD26
:1004400014F580043CBF01F5801130BD01F000457A
:1004500045F0FE4141F470014FF0000030BD7FEAED
:10046000645C1ABF194610467FEA655C1CBF0B46E8
:10047000024650EA013406BF52EA033591EA030FFF
:1004800041F4002130BD00BF90F0000F04BF0021F7
:10049000704730B54FF4806404F132044FF000052A
:1004A0004FF0000150E700BF90F0000F04BF0021A3
:1004B000704730B54FF4806404F1320410F0004509
:1004C00048BF40424FF000013EE700BF42004FEA04
:1004D000E2014FEA31014FEA02701FBF12F07F4381
:1004E00093F07F4F81F06051704732F07F4208BF38
:1004F000704793F07F4F04BF41F40021704730B53F
:100500004FF4607401F0004521F000411CE700BF8A
:1005100050EA010208BF704730B54FF000050AE00D
:1005200050EA010208BF704730B511F0004502D50E
:10053000404261EB41014FF4806404F132045FEA10
:10054000915C3FF4D8AE4FF003025FEADC0C18BFB9
:1005500003325FEADC0C18BF033202EBDC02C2F1AB
:10056000200300FA03FC20FA02F001FA03FE40EA3D
:100570000E0021FA02F11444BDE600BF70B54FF041
:10058000FF0C4CF4E06C1CEA11541DBF1CEA13551F
:1005900094EA0C0F95EA0C0F00F0DEF82C4481EA87
:1005A000030621EA4C5123EA4C5350EA013518BFA7
:1005B00052EA033541F4801143F4801338D0A0FB94
:1005C00002CE4FF00005E1FB02E506F00042E0FB41
:1005D00003E54FF00006E1FB03569CF0000F18BF47
:1005E0004EF0010EA4F1FF04B6F5007F64F54074EF
:1005F00004D25FEA4E0E6D4146EB060642EAC62182
:1006000041EA55514FEAC52040EA5E504FEACE2EEE
:10061000B4F1FD0C88BFBCF5E06F1ED8BEF1004FF1
:1006200008BF5FEA500E50F1000041EB045170BD6D
:1006300006F0004646EA010140EA020081EA0301B1
:10064000B4EB5C04C2BFD4EB0C0541EA045170BDAD
:1006500041F480114FF0000E013C00F3AB8014F127
:10066000360FDEBF002001F0004170BDC4F1000470
:10067000203C35DA0C341BDC04F11404C4F12005F1
:1006800000FA05F320FA04F001FA05F240EA02004C
:1006900001F0004221F0004110EBD37021FA04F682
:1006A00042EB06015EEA430E08BF20EAD37070BD3C
:1006B000C4F10C04C4F1200500FA04F320FA05F09B
:1006C00001FA04F240EA020001F0004110EBD3709D
:1006D00041F100015EEA430E08BF20EAD37070BD0D
:1006E000C4F1200500FA05F24EEA020E20FA04F3E6
:1006F00001FA05F243EA020321FA04F001F0004195
:1007000021FA04F220EA020000EBD3705EEA430E05
:1007100008BF20EAD37070BD94F0000F0FD101F034
:100720000046400041EB010111F4801F08BF013C6D
:10073000F7D041EA060195F0000F18BF704703F0AB
:100740000046520043EB030313F4801F08BF013D32
:10075000F7D043EA0603704794EA0C0F0CEA1355EE
:1007600018BF95EA0C0F0CD050EA410618BF52EAA8
:100770004306D1D181EA030101F000414FF00000AE
:1007800070BD50EA410606BF1046194652EA4306BC
:1007900019D094EA0C0F02D150EA013613D195EA30
:1007A0000C0F05D152EA03361CBF104619460AD178
:1007B00081EA030101F0004141F0FE4141F4700182
:1007C0004FF0000070BD41F0FE4141F4780170BD72
:1007D00070B54FF0FF0C4CF4E06C1CEA11541DBFD7
:1007E0001CEA135594EA0C0F95EA0C0F00F0A7F8D9
:1007F000A4EB050481EA030E52EA03354FEA013106
:1008000000F088804FEA03334FF0805545EA131318
:1008100043EA12634FEA022245EA111545EA1065E0
:100820004FEA00260EF000419D4208BF964244F177
:10083000FD0404F5407402D25B084FEA3202B61A96
:1008400065EB03055B084FEA32024FF480104FF46A
:10085000002CB6EB020E75EB030E22BFB61A7546DE
:1008600040EA0C005B084FEA3202B6EB020E75EB71
:10087000030E22BFB61A754640EA5C005B084FEAD9
:100880003202B6EB020E75EB030E22BFB61A7546A6
:1008900040EA9C005B084FEA3202B6EB020E75EBB1
:1008A000030E22BFB61A754640EADC0055EA060E72
:1008B00018D04FEA051545EA16754FEA06164FEAB5
:1008C000C30343EA52734FEAC2025FEA1C1CC0D161
:1008D00011F4801F0BD141EA00014FF000004FF0EE
:1008E000004CB6E711F4801F04BF01430020B4F1AF
:1008F000FD0C88BFBCF5E06F3FF6AFAEB5EB030C67
:1009000004BFB6EB020C5FEA500C50F1000041EB63
:10091000045170BD0EF0004E4EEA113114EB5C0430
:10092000C2BFD4EB0C0541EA045170BD41F4801103
:100930004FF0000E013C90E645EA060E8DE60CEA0B
:10094000135594EA0C0F08BF95EA0C0F3FF43BAF28
:1009500094EA0C0F0AD150EA01347FF434AF95EADF
:100960000C0F7FF425AF104619462CE795EA0C0FC3
:1009700006D152EA03353FF4FDAE1046194622E790
:1009800050EA410618BF52EA43067FF4C5AE50EA6A
:1009900041047FF40DAF52EA43057FF4EBAE12E75A
:1009A0004FF0FF3C06E000BF4FF0010C02E000BF3B
:1009B0004FF0010C4DF804CD4FEA410C7FEA6C5C1E
:1009C0004FEA430C18BF7FEA6C5C1BD001B050EAC1
:1009D000410C0CBF52EA430C91EA030F02BF90EAAC
:1009E000020F0020704710F1000F91EA030F58BF6B
:1009F000994208BF90422CBFD8176FEAE37040F0CD
:100A0000010070474FEA410C7FEA6C5C02D150EA6A
:100A1000013C07D14FEA430C7FEA6C5CD6D152EA25
:100A2000033CD3D05DF8040B704700BF84461046EA
:100A300062468C461946634600E000BF01B5FFF7E9
:100A4000B7FF002848BF10F1000F01BD4DF808EDB9
:100A5000FFF7F4FF0CBF012000205DF808FB00BF8A
:100A60004DF808EDFFF7EAFF34BF012000205DF8E4
:100A700008FB00BF4DF808EDFFF7E0FF94BF012031
:100A800000205DF808FB00BF4DF808EDFFF7CEFF32
:100A900094BF012000205DF808FB00BF4DF808ED71
:100AA000FFF7C4FF34BF012000205DF808FB00BF42
:100AB0004A0011D212F5001211D20DD56FF47873DD
:100AC000B3EB62520ED44FEAC12343F0004343EA32
:100AD000505323FA02F070474FF00000704750EA7D
:100AE000013002D14FF0FF3070474FF000007047E7
:100AF0004FEA4102B2F1E04324BFB3F5001CDCF140
:100B0000FE5C0DD901F0004C4FEAC0024CEA507077
:100B1000B2F1004F40EB830008BF20F001007047A6
:100B200011F0804F21D113F13872BCBF01F00040A9
:100B3000704741F480114FEA5252C2F11802C2F1DB
:100B4000200C10FA0CF320FA02F018BF40F001005C
:100B50004FEAC1234FEAD32303FA0CFC40EA0C000E
:100B600023FA02F34FEA4303CCE77FEA625307D14B
:100B700050EA01331EBF4FF0FE4040F44000704782
:100B800001F0004040F0FE4040F40000704700BF1C
:100B900053B94AB9002908BF00281CBF4FF0FF31E4
:100BA0004FF0FF3000F074B9ADF1080C6DE904CEE0
:100BB00000F006F8DDF804E0DDE9022304B0704738
:100BC0002DE9F047089D04468E46002B4DD18A4200
:100BD000944669D9B2FA82F252B101FA02F3C2F133
:100BE000200120FA01F10CFA02FC41EA030E9440C4
:100BF0004FEA1C48210CBEFBF8F61FFA8CF708FBE5
:100C000016E341EA034306FB07F199420AD91CEBBC
:100C1000030306F1FF3080F01F81994240F21C81EE
:100C2000023E63445B1AA4B2B3FBF8F008FB103336
:100C300044EA034400FB07F7A7420AD91CEB04046B
:100C400000F1FF3380F00A81A74240F2078164443B
:100C5000023840EA0640E41B00261DB1D4400023C0
:100C6000C5E900433146BDE8F0878B4209D9002D24
:100C700000F0EF800026C5E9000130463146BDE8AE
:100C8000F087B3FA83F6002E4AD18B4202D3824218
:100C900000F2F980841A61EB030301209E46002DC7
:100CA000E0D0C5E9004EDDE702B9FFDEB2FA82F21C
:100CB000002A40F09280A1EB0C014FEA1C471FFA7A
:100CC0008CFE0126200CB1FBF7F307FB131140EA61
:100CD00001410EFB03F0884208D91CEB010103F12E
:100CE000FF3802D2884200F2CB804346091AA4B2F0
:100CF000B1FBF7F007FB101144EA01440EFB00FEC4
:100D0000A64508D91CEB040400F1FF3102D2A64528
:100D100000F2BB800846A4EB0E0440EA03409CE7C7
:100D2000C6F12007B34022FA07FC4CEA030C20FA74
:100D300007F401FA06F31C43F9404FEA1C4900FA94
:100D400006F3B1FBF9F8200C1FFA8CFE09FB181111
:100D500040EA014108FB0EF0884202FA06F20BD984
:100D60001CEB010108F1FF3A80F08880884240F2D4
:100D70008580A8F102086144091AA4B2B1FBF9F018
:100D800009FB101144EA014100FB0EFE8E4508D913
:100D90001CEB010100F1FF346CD28E456AD9023898
:100DA000614440EA0840A0FB0294A1EB0E01A1427D
:100DB000C846A64656D353D05DB1B3EB080261EBEB
:100DC0000E0101FA07F722FA06F3F1401F43C5E9C5
:100DD000007100263146BDE8F087C2F12003D840FB
:100DE0000CFA02FC21FA03F3914001434FEA1C473D
:100DF0001FFA8CFEB3FBF7F007FB10360B0C43EA2F
:100E0000064300FB0EF69E4204FA02F408D91CEBDE
:100E1000030300F1FF382FD29E422DD902386344DC
:100E20009B1B89B2B3FBF7F607FB163341EA03417C
:100E300006FB0EF38B4208D91CEB010106F1FF38CB
:100E400016D28B4214D9023E6144C91A46EA0046C2
:100E500038E72E46284605E70646E3E61846F8E654
:100E60004B45A9D2B9EB020864EB0C0E0138A3E79D
:100E70004646EAE7204694E74046D1E7D0467BE77E
:100E8000023B614432E7304609E76444023842E7F6
:100E9000704700BF2DE9F0412C482D4E2D4D86B0F6
:100EA0000BF0A8FF68200BF079FF2B49012340F2DB
:100EB000072204460BF096FC202034600BF06EFFF6
:100EC0004FF487674FF4FA78244B254901970122A4
:100ED000CDF8008004460CF029FF20202C600BF098
:100EE0005DFF1E4B1E49CDE9008702221D4F0446BF
:100EF0000CF01CFF1C203C600BF050FF316840F2EE
:100F0000072204460CF0CEFE17483A6829680460B0
:100F100000232420CDE9032402918DF814300BF036
:100F20003DFF059A009202AB0ECB04460DF0CAF9C4
:100F30000E4B44201C600BF031FF0D4904460CF0B1
:100F40006FFC0C4B1C6006B0BDE8F081B00F0020B8
:100F50000C02002014020020D402002040420F00A6
:100F6000A80900201C0200201802002024020020F2
:100F7000000E00201002002000B5234E234A3368E3
:100F8000116893F8302083B0022A019135D0204DAA
:100F9000204CDFED218A9FED218A11E00DF07CFAD3
:100FA00028BB28680DF08EF8012101A80CF0C8FDBF
:100FB0000A2009F09BF9336893F83020022A1CD0EC
:100FC00093F83110A1F10101B1FA81F120464909EC
:100FD0000DF04AFA20460DF05DFA0346B0EE480ADD
:100FE0002046002BDAD028680DF046F8D9E72868AB
:100FF000B0EE680A0DF040F8D3E7094A09483C21F1
:101000000BF0B8FDFEE700BF100200201802002020
:1010100024020020200200200000000000001643EF
:10102000F4EC000808ED0008014800210DF01ABAA0
:10103000200200200000000000B52F482F49016069
:101040000122002385B04FF480310261027680F8DE
:1010500030202B4A80F82030CDE90033CDE902332F
:10106000C0E90113C36043610023C0E90A230423DC
:10107000C36102F0ABFA40BB9FED1D7B06231E4807
:10108000029369468DED007B02F0EAFB58BB0A2211
:10109000022319486946CDE9002302F0E1FBF8B9C3
:1010A0000B22032314486946CDE9002302F0D8FB44
:1010B00098B90622042310486946CDE9002302F0BE
:1010C000CFFB28B905B05DF804FB00F0B3FCD3E713
:1010D00000F0B0FC05B05DF804FB00F0ABFCE8E705
:1010E00000F0A8FCDCE700F0A5FCD0E7AFF300803F
:1010F0000E00000001000000280200200020014036
:101100000100000F70B5334B02688AB000249A4288
:10111000CDE90444CDE90644089401D00AB070BD7D
:1011200003F58C3301945A6C2B4E42F480725A644E
:101130005A6C02F480720192019A02941A6B42F086
:1011400004021A631A6B02F004020292029A0394D8
:101150001A6B42F001021A631B6B03F00103039345
:101160001322032304A905461C48CDE90423039B4D
:1011700003F0E8FA402203231948069404A9CDE9B4
:10118000042303F0DFFA174A74624FF48063C6E960
:10119000002433614FF400624FF40053C6E9052385
:1011A00030464FF48073C6E90244C6E9073403F0C1
:1011B000BBF858B9AE63002205211220B56303F0D5
:1011C00067F8122003F0A2F80AB070BD00F032FCFC
:1011D000F0E700BF0020014070020020000802403C
:1011E00000000240106402400D480E49032210B571
:1011F0000023C0E900124FF001224FF400244FF405
:10120000401182618383C0E90233C0E9044102F0E6
:1012100001FC00B910BDBDE8104000F00BBC00BFE0
:10122000D4020020006400400D480E49032210B58E
:101230000023C0E900124FF001224FF400244FF4C4
:10124000401182618383C0E90233C0E9044102F0A6
:10125000E1FB00B910BDBDE8104000F0EBBB00BFE2
:10126000380300200068004030B502684C498DB05A
:1012700000238A42CDE90633CDE908330A933FD0F3
:1012800048498A4201D00DB030BD474A0393116CE2
:10129000464841F080611164116C01F08061039156
:1012A0000168039C01310129016065D03E4B002299
:1012B0000592186B40F0020018631B6B3C489FEDD1
:1012C000347B03F00203059306A9092303248DED63
:1012D000067BCDE90943059D03F034FA0022052180
:1012E0003F2002F0D5FF3F2003F010F80022052137
:1012F000402002F0CDFF402003F008F80DB030BDD3
:101300002A490A680132012A0A6029D0264B0022A4
:101310000292186B40F0080018631B6B25489FED84
:101320001E7B03F00803029306A9092303248DED15
:10133000067BCDE90943029D03F004FA0022052152
:10134000132002F0A5FF132002F0E0FF0022052188
:10135000142002F09DFF142002F0D8FF0DB030BD24
:10136000114A0193136C43F000731364136C03F080
:1013700000730193019BC9E70493136C43F000735E
:101380001364136C03F000730493049B8EE700BF97
:101390000030000002000000030000000200000016
:1013A000006400400068004000380240D002002085
:1013B00000040240000C024010B582B00024404BF3
:1013C00000941A6B42F480021A63186B00F48000D8
:1013D000009000980194186B40F4001018631B6B88
:1013E00003F400132246052101930B20019B02F018
:1013F0004FFF0B2002F08AFF224605210C2002F04D
:1014000047FF0C2002F082FF224605210E2002F049
:101410003FFF0E2002F07AFF224605210F2002F046
:1014200037FF0F2002F072FF22460521112002F043
:101430002FFF112002F06AFF22460521382002F01A
:1014400027FF382002F062FF22460521392002F0F2
:101450001FFF392002F05AFF224605213A2002F0F0
:1014600017FF3A2002F052FF224605213B2002F0EE
:101470000FFF3B2002F04AFF224605213C2002F0EC
:1014800007FF3C2002F042FF22460521442002F0E3
:10149000FFFE442002F03AFF22460521452002F0DB
:1014A000F7FE452002F032FF22464620052102F0D9
:1014B000EFFE462002B0BDE8104002F027BF00BF9B
:1014C00000380240704700BF704700BF704700BF40
:1014D000704700BF704700BF704700BF00B583B0C2
:1014E000019001F053FD0198FFF746FD012008F03F
:1014F000FDFEFBE708B5FFF7CDFCFFF7E3FFFFF7C5
:10150000E3FFFFF7E3FFFFF7E3FF064A064800218A
:1015100008F092FE054B1860FFF7DCFFFFF7DCFFD9
:1015200008BD00BF2CED0008DD1400089C0300205E
:101530002DE9F04F2DED028B002491B0CDE90A4446
:10154000CDE90C44B04B01940E941A6BDFF8D082B5
:10155000AE4EDFF8D0B2DFF8D0A2AD4FAD4D42F0C5
:1015600010021A631A6B02F010020192019A02949F
:101570001A6B42F002021A631A6B02F00202029224
:10158000029A03941A6B42F040021A631A6B02F03B
:1015900040020392039A04941A6B42F004021A6305
:1015A0001A6B02F004020492049A05941A6B42F03A
:1015B00001021A631A6B02F001020592059A069461
:1015C0001A6B42F008021A631A6B02F008020692C4
:1015D000069A07941A6B42F480721A631A6B02F42B
:1015E00080720792079A08941A6B42F020021A63DD
:1015F0001A6B02F020020892089A09941A6B42F0C2
:1016000080021A631B6B03F0800309932246404655
:1016100042F2FE11099B03F0E5F92246304640F202
:10162000036103F0DFF97C4B224618464FF400714A
:1016300003F0D8F9584601223C2103F0D3F92246A1
:10164000504644F2400103F0CDF9224638461021BD
:1016500003F0C8F9224628464FF4C05103F0C2F9FE
:101660009FED5D7B0AA930468DED0A7B0C9403F05B
:1016700069F89FED5B7B4FF0000940460AA94FF0E7
:1016800000088DED0A7BCDE90C8903F05BF89FED36
:10169000567B0AA928468DED0A7B0C9403F052F87C
:1016A0009FED537B0AA928468DED0A7B0C9403F02D
:1016B00049F89FED517B0AA930468DED0A7B9FEDDD
:1016C000508BCDE90C8903F03DF8534B0AA918461D
:1016D0004FF400720123CDE90A238DED0C8B03F04A
:1016E00031F858460AA93C220123CDE90A23CDE965
:1016F0000C8903F027F80AA9504644F2400201235E
:10170000CDE90A23CDE90C8903F01CF850460AA95B
:101710004FF480620023CDE90A230C9403F012F801
:101720000AA90C2200233D480C94CDE90A2303F0BA
:1017300009F80AA9304604220023CDE90A230C94B3
:1017400003F000F80AA9384610220123CDE90A2344
:101750008DED0C8B02F0F6FF38460AA920220023FB
:10176000CDE90A230C9402F0EDFF0AA928464FF4B4
:1017700000620123CDE90A23CDE90C8902F0E2FFE2
:1017800030460AA903220123CDE90A238DED0C8BF3
:1017900002F0D8FF01230AA928464FF48052CDE970
:1017A0000A238DED0C8B02F0CDFF224605210A2085
:1017B00002F06EFD0A2002F0A9FD22460521172045
:1017C00002F066FD172002F0A1FD11B0BDEC028B06
:1017D000BDE8F08FAFF300800001000000001110A1
:1017E000FE21000001000000300000000000111088
:1017F0004080000000000000000600000100000022
:101800000000000003000000003802400004024015
:101810000000024000100240002002400008024088
:1018200000180240001C02400014024010B5184885
:10183000184C194900234FF48042C0E90041C0E927
:101840000233C0E90423C0E90633036203F0DAF887
:1018500050B90F48002103F09DF968B90C480021E8
:1018600003F0B8F980B910BD00F0E4F80848002191
:1018700003F090F90028F1D000F0DCF804480021D2
:1018800003F0A8F90028EED0BDE8104000F0D2B86F
:10189000A003002000580040A086010030B5194B7D
:1018A000026889B000249A42CDE90244CDE904449B
:1018B000069401D009B030BD134D00942B6B134832
:1018C00043F020032B632B6B03F0200300930322D0
:1018D0001223CDE9022301220323CDE9042302A927
:1018E00004230693009A02F02DFF01942B6C43F41D
:1018F00080032B642B6C03F480030193019B09B0DC
:1019000030BD00BF005800400038024000140240C3
:1019100010B5002394B0CDE90A33CDE90C33CDE9FD
:101920000233CDE90433224900930693086C214A1F
:1019300040F080500864096C01F0805100910099DA
:101940000193136843F44043136013689FED147BC5
:1019500003F44043022101934FF480000623CDE9B4
:101960000E10A822109308A80723CDE911218DEDB0
:10197000087B1393019C03F08FFE9FED0B7B0022ED
:101980004FF4A053CDE9042302A84FF4805305215E
:101990008DED027B069304F08FF814B010BD00BFEC
:1019A00001000000000001000F0000000200000024
:1019B000003802400070004008B501F0C9FDFFF793
:1019C000A7FFFFF7B5FDFFF7F7FC00F035F800F0D3
:1019D0001BFF00F049FE00F0F5F8FFF72DFB00F0CB
:1019E00013F9FFF701FCFFF71FFC00F0F1FE00F018
:1019F00097FE00F0B1FE00F033FD00F0B5FD00F001
:101A0000C7FE00F0A1FCFFF711FF01F027F900F07D
:101A10003BFB08F0A7FBFFF76DFD08F0D1FBFEE7ED
:101A2000034B02689A4200D0704701F0ABBD00BF83
:101A300000040040704700BF054B06490022C3E97F
:101A40000012C3E90222C3E904229A61704700BF71
:101A5000B4040020002C01402DE9F041524B0268F3
:101A60008AB000249A42CDE90444CDE906440894A2
:101A700002D00AB0BDE8F08103F5863301945A6CB8
:101A80004A4E42F400625A645A6C02F400620192B7
:101A9000019A02941A6B42F004021A631A6B02F064
:101AA00004020292029A03941A6B42F008021A632B
:101AB0001B6B03F0080303934FF4F8520223032730
:101AC0004FF00C0804A905463948CDE90423CDE9B7
:101AD0000778039B02F036FE04220223CDE904239B
:101AE0003448CDF820800022032304A9CDE9062341
:101AF00002F028FE304A4FF00063C6E9002340237D
:101B0000B3604FF48063C6E903434FF480514FF450
:101B10008043C6E905132023F3610423C6E9084383
:101B20004FF400024FF400133046C6E90A723363E3
:101B300002F0FAFB88BB214C2149EE634FF00062B2
:101B4000C4E900124FF480614FF48052C4E90412DA
:101B50004FF4804120220023C4E906120422C4E984
:101B60000832C4E9023303214FF400024FF400139A
:101B70002046C4E90A12B563236302F0D5FB78B9A5
:101B80000022052131202C64A56302F081FB312065
:101B900002F0BCFB0AB0BDE8F081FFF74BFFCAE7DB
:101BA000FFF748FFECE700BF002C01405404002081
:101BB00000080240000C024058640240F403002078
:101BC000A06402400E480F494FF4827210B5002302
:101BD000C0E900124FF4007428210A22C0E9023340
:101BE000C0E90433C0E90641C0E90833C0E90A325C
:101BF00004F0ACFE00B910BDBDE81040FFF71ABFFD
:101C0000F8050020003001400E480F494FF4827261
:101C100010B50023C0E900124FF4007430210A22ED
:101C2000C0E90233C0E90433C0E90641C0E9083322
:101C3000C0E90A3204F08AFE00B910BDBDE81040C8
:101C4000FFF7F8BE780600200050014070B5036829
:101C5000524A8CB000249342CDE90644CDE90844B1
:101C60000A9404D04E4A93423BD00CB070BD4D4B09
:101C700001945A6C4C4842F480525A645A6C02F4F3
:101C800080520192019A02941A6B42F002021A6386
:101C90001A6B02F002020292029A03941A6B42F04B
:101CA00001021A631B6B03F0010303931822022342
:101CB000CDE90623052406A90323CDE90934039AB7
:101CC00002F040FD80220223CDE9062337480A9422
:101CD0000022032306A9CDE9082302F033FD0CB04E
:101CE00070BD304B04945A6C314E42F480125A64E9
:101CF0005A6C02F480120492049A05941A6B42F012
:101D000020021A631B6B03F0200305934FF46072EB
:101D10000223CDE90623032309930546059B2548A5
:101D2000052306A90A9302F00DFD234A74624FF0C1
:101D30006063C6E9002330464FF480624FF40033FD
:101D4000C6E90244C6E90424C6E90644336202F047
:101D5000EBFAE8B9194C1A49EE644FF08062C4E915
:101D600000124FF4806200234021226120464FF48C
:101D70000032C4E90213C4E90533C4E90732B5638C
:101D8000636202F0D1FA30B9AC64A5630CB070BDE7
:101D9000FFF750FEDEE7FFF74DFEF5E700300140AC
:101DA00000500140003802400004024000000240A0
:101DB0003805002000140240886402409805002085
:101DC0007064024082B00E4B00220092596C41F4C4
:101DD00080415964586C00F4804000900098019252
:101DE000186C40F0805018641B6C03F08053019312
:101DF000019B0F216FF0010002B002F049BA00BF51
:101E00000038024030B5014689B000221D2002F0A2
:101E10003FFA1D2002F07AFA0025164B02951A6C43
:101E2000154C42F002021A641B6C03F0020301A974
:101E300003A80293029B03F003FF03F0E1FE0F4AA5
:101E40000F4921604300A2FB03239B0C013B40F29E
:101E5000E7322046C4E903256360A56004F0F0FD85
:101E600010B1012009B030BD204604F09FFE09B03A
:101E700030BD00BF00380240F806002083DE1B435F
:101E800000040040704700BFFEE700BFFEE700BF50
:101E9000FEE700BFFEE700BF704700BF102002F062
:101EA000A5BD00BF014802F029BB00BFC00B002048
:101EB000014802F023BB00BF800C0020014802F063
:101EC0001DBB00BF000B0020014802F017BB00BF84
:101ED000E00C0020014802F011BB00BF600B0020A5
:101EE000014801F027BC00BF28020020014802F091
:101EF00091B800BFD4020020014802F08BB800BFA7
:101F0000D402002008B5202002F070FDBDE8084092
:101F10004FF4807002F06ABD014804F033BF00BF87
:101F2000F806002008B504480BF0CAFABDE80840DE
:101F3000014805F009BC00BF000E002008B50448A8
:101F40000BF0BEFABDE80840014805F0FDBB00BF3C
:101F50006C0E0020014804F015BF00BF500800209F
:101F6000014804F0EBB800BFB4040020014802F0BF
:101F7000C5BA00BF70020020014802F0BFBA00BF1E
:101F8000400D0020014802F0B9BA00BF200C00202B
:101F9000014802F0B3BA00BF54040020014802F027
:101FA000ADBA00BF98050020014802F033B800BF69
:101FB00038030020014802F02DB800BF380300208C
:101FC000014802F0D9BE00BF00250020014802F000
:101FD00095BA00BF38050020014802F08FBA00BF53
:101FE000F4030020014802F089BA00BFA00D0020D0
:101FF00008B504480BF064FABDE80840014805F054
:10200000A3BB00BFD80E002008B504480BF058FA57
:10201000BDE80840014805F097BB00BF440F002011
:1020200008B504480BF04CFABDE80840014805F03B
:102030008BBB00BFB00F00201049114BD1F8882096
:1020400042F4700210B4C1F888201A680D4C0020C8
:1020500042F001021A6098601A6822F0847222F439
:1020600080321A605C601A684FF0006422F48022AB
:102070001A60D8608C605DF8044B704700ED00E09A
:10208000003802401030002400B51B484FF0804259
:1020900002605322002387B042604FF0FF32CDE947
:1020A0000233CDE90433CDE90033C0E902320361E4
:1020B000836104F0C5FC98B94FF480530E48029335
:1020C00002A905F023F898B9002200230A486946BE
:1020D000CDE9002305F0BEF828B907B05DF804FB90
:1020E000FFF7A8FCE8E7FFF7A5FC07B05DF804FBE5
:1020F000FFF7A0FCE8E700BFFC08002000B5324A6B
:102100000368934287B031D0B3F1804F1ED02F4A7D
:1021100093423AD02E4A934246D02E4A934222D13D
:102120002D4B00220592196C41F0400119641B6C83
:1021300003F0400305932B200521059B02F0A8F82E
:102140002B2007B05DF804EB02F0E0B803F50E3386
:10215000002202921A6C42F001021A641B6C03F016
:1021600001030293029B07B05DF804FB1A4B0022A7
:1021700001925A6C42F001025A645B6C03F0010355
:102180000193019B07B05DF804FB134B00220392FF
:102190001A6C42F004021A641B6C03F004030393EC
:1021A000039B07B05DF804FB0B4B002204921A6CF2
:1021B00042F008021A641B6C03F008030493049BAA
:1021C00007B05DF804FB00BF0000014000080040BC
:1021D000000C0040001800400038024000000000E1
:1021E00010B502684E498CB000238A42CDE906330F
:1021F000CDE908330A9320D04A498A424DD04A4952
:102200008A4261D049498A4201D00CB010BD484A87
:102210000593136B474843F080031363136B9FEDE3
:102220003C7B03F08003059306A909238DED067B13
:10223000059A0A9302F086FAE7E73D4A0093116B8C
:102240003D4841F001011163116B01F00101009162
:1022500000990193136B43F010031363136B03F0A6
:10226000100301934FF480720223012406A9CDE9E3
:1022700006230A94019B02F065FA30484FF480422D
:102280000223CDE9062306A900220023CDE9082375
:102290000A9402F057FA0CB010BD254A0293136B52
:1022A000274843F008031363136B9FED1B7B03F078
:1022B0000803029306A902238DED067B029A0A9376
:1022C00002F040FA0CB010BD194A0393116B1D487F
:1022D00041F480711163116B01F4807103910399D2
:1022E0000493136B43F080031363136B03F08003B9
:1022F000049301220223022406A9CDE906230A94AD
:10230000049B02F01FFA0B484FF4E0520223B8E797
:10231000400200000200000000F000000200000087
:102320000000014000080040000C00400018004080
:1023300000380240001C0240000002400010024031
:10234000000C02400020024010B5002496B020226C
:1023500021460EA8CDE90344CDE90744CDE909445F
:10236000CDE90B44029400940694059401940CF07A
:1023700057FC3948394A8461A723C0E9002340F655
:10238000C313C0E90243C0E9044404F059FB002828
:1023900045D14FF480533048029302A904F0B6FEB1
:1023A000002852D12C4804F011FC00284AD1002208
:1023B000002329486946CDE9002304F04BFF00289B
:1023C0003DD160204FF47A71CDE906010020002153
:1023D000CDE90801CDE90A0100221F480C9206A9A7
:1023E00004F08CFD40BB1C480C2206A904F086FDBD
:1023F000F8B99FED177B00230022CDE90E23CDE92C
:102400001023154800230EA98DED127B159304F0BF
:1024100061FF38B91048FFF7E3FE16B010BDFFF7B3
:1024200009FBB6E7FFF706FB0B48FFF7D9FE16B02E
:1024300010BDFFF7FFFADCE7FFF7FCFAD3E7FFF781
:10244000F9FABEE7FFF7F6FAB1E7FFF7F3FAA9E703
:102450000000000000200000A40700200000014050
:1024600000B53F483F4A8FB00023CDE90233CDE9A4
:102470000433CDE90033CDE90633CDE90833CDE9A6
:102480000A330C938360036183615323C0E9002303
:1024900040F6C313C36004F0D3FA00283DD14FF4D3
:1024A00080532F48029302A904F030FE00284ED139
:1024B0002B4804F08BFB002846D10022002328483B
:1024C0006946CDE9002304F0C5FE002839D19FED0F
:1024D000227B00222248089206A98DED067B0A92F3
:1024E00004F00CFD50BB1E48042206A904F006FDB2
:1024F00008BB00231A480793082206A904F0FEFC33
:10250000B0B917480C2206A904F0F8FC40B91448E9
:10251000FFF766FE0FB05DF804FBFFF78BFABEE72E
:10252000FFF788FA0E48FFF75BFE0FB05DF804FB7B
:10253000FFF780FAE5E7FFF77DFADAE7FFF77AFAC7
:10254000D1E7FFF777FAC2E7FFF774FAB5E7FFF7CD
:1025500071FAADE7AFF3008060000000E80300000F
:10256000A80900200008004000B53D488FB00023B6
:10257000CDE90233CDE90433CDE90033CDE90633AB
:10258000CDE90833CDE90A33C0E901330C93036187
:102590008361344B03604FF0FF33C36004F050FAA3
:1025A00000283BD14FF480532D48029302A904F038
:1025B000ADFD00284CD12A4804F008FB002844D186
:1025C0000022002326486946CDE9002304F042FE9C
:1025D000002837D19FED207B00222148089206A9D0
:1025E0008DED067B0A9204F089FC40BB1C48042256
:1025F00006A904F083FCF8B91948082206A904F0DA
:102600007DFCB0B916480C2206A904F077FC40B94D
:102610001348FFF7E5FD0FB05DF804FBFFF70AFA7A
:10262000C0E7FFF707FA0E48FFF7DAFD0FB05DF8D5
:1026300004FBFFF7FFF9E5E7FFF7FCF9DCE7FFF73D
:10264000F9F9D3E7FFF7F6F9C4E7FFF7F3F9B7E7CE
:10265000FFF7F0F9AFE700BF6000000000000000E6
:10266000540A0020000C004000B52B482B4A0260A1
:102670008DB000235322CDE90033CDE90233CDE9FB
:102680000433CDE90633CDE90833C0E90123C0E9BD
:1026900003330A93836104F0D3F918BB4FF48053DA
:1026A0001D480093694604F031FD60BB1A4804F0F0
:1026B0008DFA28BB9FED167B00221748069204A9CD
:1026C0008DED047B089204F019FCB0B91248042285
:1026D00004A904F013FC40B90F48FFF781FD0DB0C9
:1026E0005DF804FBFFF7A6F9D8E7FFF7A3F90A485E
:1026F000FFF776FD0DB05DF804FBFFF79BF9E5E70A
:10270000FFF798F9D6E7FFF795F9CFE7AFF3008029
:102710006000000000000000500800200018004089
:1027200010B50B480B4C00234FF4E1310C22C0E9EB
:102730000041C0E90233C0E90432C0E9063304F0C5
:102740000FFF00B910BDBDE81040FFF773B900BF1F
:10275000440F00200078004010B50B480B4C0023BC
:102760004FF4E1310C22C0E90041C0E90233C0E975
:102770000432C0E9063304F0F3FE00B910BDBDE831
:102780001040FFF757B900BFB00F0020007C004099
:102790000C480D490D4A10B50023C0E900124FF452
:1027A00080544FF480610C22C0E90243C0E9041256
:1027B000C0E9063304F0D4FE00B910BDBDE81040F6
:1027C000FFF738B9000E002000100140A08601007C
:1027D00010B50B480B4C00234FF4E1310C22C0E93B
:1027E0000041C0E90233C0E90432C0E9063304F015
:1027F000B7FE00B910BDBDE81040FFF71BB900BF20
:102800006C0E00200048004010B50B480B4C002314
:102810004FF4E1310C22C0E90041C0E90233C0E9C4
:102820000432C0E9063304F09BFE00B910BDBDE8D8
:102830001040FFF7FFB800BFD80E00200014014081
:1028400070B50368B14A90B000249342CDE90A44C0
:10285000CDE90C4405460E946DD0AD4A934200F08C
:10286000B080AC4A934200F00B81AB4A934205D052
:10287000AA4A934200F0748110B070BDA84B069430
:102880001A6CA848A84E42F480221A641A6C02F40A
:1028900080220692069A07941A6B42F008021A6385
:1028A0001B6B03F0080307934FF440720223CDE93A
:1028B0000A2303230D930AA9079B07230E9301F014
:1028C00041FF9A4A4FF00063C6E9002330464FF4B7
:1028D0008063C6E90244C6E90434C6E90644C6E991
:1028E000084401F021FD002840F0A281904C91495C
:1028F0006E634FF060620023C4E90012204640215D
:102900004FF48062C4E90213C4E90533C4E9073314
:10291000B5632261636201F007FD002840F0858104
:102920002C63002205212720A56301F0B1FC27209C
:1029300001F0ECFCA0E77A4B00941A6C7E487F4EC5
:1029400042F080421A641A6C02F080420092009AAF
:1029500001941A6B42F010021A631B6B03F0100310
:1029600001934FF4C0720223CDE90A23012203230D
:10297000CDE90C230AA908230E93019B01F0E2FE86
:102980006F4A4FF02063C6E9002330464FF480635E
:10299000C6E90244C6E90434C6E90644C6E9084467
:1029A00001F0C2FC002840F034816E630022052152
:1029B0005220B56301F06CFC522001F0A7FC10B06E
:1029C00070BD574B02941A6C5B485E4E42F0004259
:1029D0001A641A6C02F000420292029A03941A6B73
:1029E00042F010021A631B6B03F0100303930322DF
:1029F0000223CDE90A2301220323CDE90C230AA9EE
:102A000008230E93039B01F09DFE4F4A4FF0206375
:102A1000C6E9002330464FF48063C6E90244C6E9A4
:102A20000434C6E90644C6E9084401F07DFC0028E8
:102A300040F0F280454C46496E634FF0206200231F
:102A4000C4E90012204640214FF48062C4E9021319
:102A5000C4E90533C4E90733B5632261636201F059
:102A600063FC002840F0DB802C630022052153200A
:102A7000A56301F00DFC532001F048FC10B070BDBF
:102A8000274B04945A6C3348334E42F010025A6478
:102A90005A6C02F010020492049A05941A6B42F0E8
:102AA00002021A631B6B03F002030593C022022388
:102AB000CDE90A2303230D930AA9059B07230E934F
:102AC00001F040FE254A74624FF00063C6E900231E
:102AD00030464FF480624FF40033C6E90244C6E941
:102AE0000424C6E90644336201F01EFC002840F0CD
:102AF00099806E63002205212520B56301F0C8FB93
:102B0000252001F003FC10B070BD00BF007800402C
:102B1000007C0040001001400048004000140140CB
:102B200000380240000C0240800C00202860024067
:102B3000E00C00207060024000100240000B0020FA
:102B400058600240600B0020A0600240C00B0020D3
:102B50001060024000040240200C0020406402404B
:102B6000384B08945A6C3848384E42F020025A6468
:102B70005A6C02F020020892089A09941A6B42F0EB
:102B800040021A631B6B03F0400309934FF4844225
:102B90000223CDE90A2303230D930AA9099B0823E5
:102BA0000E9301F0CFFD2A4A4FF02063C6E90023BF
:102BB00030464FF48063C6E90244C6E90434C6E9EE
:102BC0000644C6E9084401F0AFFBB8BB214C2249DA
:102BD0006E634FF020620023C4E9001220464021BA
:102BE0004FF48062C4E90213C4E90533C4E9073332
:102BF000B5632261636201F097FBE0B92C63472063
:102C000000220521A56301F043FB472001F07EFB74
:102C100032E6FEF70FFFC8E6FEF70CFF0AE7FEF705
:102C200009FF21E7FEF706FF63E7FEF703FF77E6FC
:102C3000FEF700FF5AE6FEF7FDFEDFE7FEF7FAFEBD
:102C4000C4E700BF0038024000180240400D0020D9
:102C500028640240A00D0020B864024008B5034972
:102C6000034807F05BFA034B187008BD1C100020E6
:102C700068ED000820100020844608B5044813467B
:102C80000A46614603F078F8003818BF012008BDF5
:102C9000B4040020844608B5044813460A46614639
:102CA00003F008F9003818BF012008BDB404002063
:102CB00008B5034803F026FE043818BF012008BDFC
:102CC000B40400200146014803F07EBDB404002096
:102CD000704700BF08B5FFF7FBFF08BD08B500F05F
:102CE0002DF908BD08B500F03DF908BD00B583B069
:102CF00001238DF8073000F021F808B98DF807009E
:102D00009DF8070003B05DF804FB00BF08B5FFF7AE
:102D1000EDFF012801D0012008BD074803F036FD72
:102D20000028F9D14FF40061034803F061FD003839
:102D300018BF012008BD00BFB404002008B54FF43F
:102D40000041034801F048FEB0FA80F0400908BD98
:102D50000010024038B5154C0125257007F01EFA09
:102D6000022801D0207838BDFFF7D0FF90B123783A
:102D7000012BF7D00E4D2A68002AF3D102210A2038
:102D800007F0D4FA28600028ECD1237843F001033F
:102D90002370E7E72570FFF78BFF18B9237803F05E
:102DA000FE0323702378DBB22370E0E708000020E5
:102DB0002410002010B5064C01232370FFF778FF84
:102DC00018B9237803F0FE032370207810BD00BFEC
:102DD0000800002030B5184B187810F0010489B0B5
:102DE00006D11546032924D8DFE801F0060A121A95
:102DF0000324204609B030BD0C46204609B030BD42
:102E00006846FFF75FFF069B2B60204609B030BD88
:102E10006846FFF757FF079B2B80204609B030BD5F
:102E20006846FFF74FFF079B20465B0A2B6009B0FF
:102E300030BD0424DDE700BF080000202DE9F0418B
:102E400082B00D4616461F4607F0DCF947F22F58B0
:102E5000044602E0FFF72CFF40B107F0D3F9001B56
:102E60004045F7D9012002B0BDE8F0813A4631462D
:102E70002846FFF701FF02460028F3D10E4947F22A
:102E8000305308680DF1060107F0E4FA0028E9D193
:102E9000BDF80630012BE5D107F0B4F947F22F5504
:102EA000044603E0FFF704FF0028DCD007F0AAF98E
:102EB000001BA842F6D9D5E7241000202DE9F041E7
:102EC00082B00D4616461F4607F09CF947F22F5870
:102ED000044602E0FFF7ECFE40B107F093F9001B57
:102EE0004045F7D9012002B0BDE8F0813A463146AD
:102EF0002846FFF7CFFE02460028F3D10E4947F2DD
:102F0000305308680DF1060107F0A4FA0028E9D152
:102F1000BDF80630022BE5D107F074F947F22F55C2
:102F2000044603E0FFF7C4FE0028DCD007F06AF98E
:102F3000001BA842F6D9D5E72410002000B5084AA6
:102F400083B000234FF0020C1068ADF806C01A469B
:102F50000DF1060107F036FA03B05DF804FB00BF7F
:102F60002410002000B5084A83B000234FF0010C64
:102F70001068ADF806C01A460DF1060107F022FAF6
:102F800003B05DF804FB00BF2410002008B5184909
:102F90001848002206F06EFC70B91749154806F073
:102FA00081FC88B91549134806F01CFCA0B91148EA
:102FB00006F08EFCB8B908BDFEF73CFD0E490D4881
:102FC00006F070FC0028EDD0FEF734FD0B490948EF
:102FD00006F008FC0028EAD0FEF72CFD054806F0B4
:102FE00077FC0028E7D0BDE80840FEF723BD00BF0E
:102FF0002000002028100020740000200C00002079
:103000000020704710B5064C06490022204606F005
:10301000F1FB0549204606F0F5FB002010BD00BF7E
:1030200028100020F81A0020F812002020280CD0C8
:10303000212808D10D4B1A680A601A790A715A7949
:103040004A719B798B7100207047084B91F804C03E
:1030500048798A7910B40C681C60587183F804C0F0
:103060009A7100205DF8044B704700BFF8220020E1
:1030700010B5094CD4F8BC32D3F814320BB101208E
:1030800010BD0A460146204606F0B4FB2046BDE8C6
:10309000104006F0BDBB00BF2810002008B50AF0A4
:1030A0006FFA002008BD00BF70B5084E04460D46FB
:1030B0000146304606F0A6FB304606F0C1FB20462E
:1030C00029680AF07FFA002070BD00BF2810002098
:1030D000122301480B8070473C0000200423014864
:1030E0000B8070475000002010B5044C04480A467D
:1030F000214606F0A5FF204610BD00BF002300209A
:103100007CED000810B5044C04480A46214606F040
:1031100097FF204610BD00BF0023002090ED00085F
:1031200010B5044C04480A46214606F089FF2046A3
:1031300010BD00BF00230020A8ED000810B5044C0E
:1031400004480A46214606F07BFF204610BD00BF1A
:1031500000230020B4ED0008454AD2F8100AD2F846
:10316000183A4FF01A0CC318A1F800C001D1414819
:103170007047D2F8141A3F4A180FB3F1204F2CBFF2
:10318000373030309070C3F3036009288CBF37307C
:1031900030301071C3F3035009288CBF3730303002
:1031A0009071C3F3034009288CBF37303030107260
:1031B000C3F3033009288CBF373030309072C3F32B
:1031C000032009288CBF373030301073C3F303104D
:1031D000092803F00F038CBF37303030092B94BF20
:1031E0003033373313740023B1F1204F53744FEA57
:1031F00011732CBF373330339374C1F30363092B3E
:103200008CBF373330331375C1F30353092B4FF0A1
:10321000000C8CBF3733303382F803C04FF0000C02
:1032200082F805C090734FF0000C00209375C1F335
:103230000343092B82F807C0D0734FF0000C4FF006
:10324000000094BF3033373382F809C0D0744FF098
:10325000000C002082F80BC050754FF0000C0020CD
:1032600013760023D07582F80DC00248537670475C
:103270000070FF1F5400002030B5036889B000249F
:10328000B3F1A04FCDE90244CDE90444069401D046
:1032900009B030BD174D00942B6B174843F0010364
:1032A0002B632B6B03F0010300934FF4C0520223F6
:1032B000CDE90223032302A905930A23009A06936A
:1032C00001F040FA6B6B43F080036B6301946B6C0D
:1032D00043F480436B646B6C03F480432246052106
:1032E00001934320019B00F0D3FF432001F00EF82F
:1032F00009B030BD003802400000024000F5717195
:10330000D0F8040406F0F6BAC1EBC10300EB830366
:10331000D0F80404D3F8082206F01CBBC1EBC103AB
:1033200000EB8303D0F804049A6C06F049BB00BF9D
:10333000D0F8040406F0DCBBC16810B5044611B136
:1033400002290AD10121D4F8040406F0B9FBD4F80B
:103350000404BDE8104006F08BBBFEF76BFB0121B7
:10336000F1E700BF10B50446D0F8040406F0ACFB4A
:103370002268D2F8003E43F00103C2F8003E236AFF
:1033800023B1034A136943F00603136110BD00BF64
:1033900000ED00E0D0F8040406F0A0BBD0F804046F
:1033A00006F0B6BBD0F8040406F0B0BBD0F80404B5
:1033B00006F0B0BBD0F8040406F0AEBB000000007D
:1033C00002780AB1002070479FED177B1A4B10B5A9
:1033D00083ED067B9FED167B4FF0A041C3F80404FC
:1033E0000424C0F8C432196083ED087B022118461A
:1033F000C3E90B225C60D9601A6101F00FFC78B957
:1034000080210D4802F042F9402200210A4802F0D2
:1034100013F980220121084802F00EF9002010BDA6
:10342000FEF708FBECE700BF020000000000000010
:1034300000000000000000000025002008B5D0F8C2
:10344000C40201F079FC032896BF024B0320185CEC
:1034500008BD00BFC4ED0008944608B51A46D0F870
:10346000C402634601F0A6FF032896BF014B032068
:10347000185C08BDC4ED000808B5D0F8C40201F01E
:10348000D7FF032896BF024B0320185C08BD00BF7E
:10349000C4ED000808B5D0F8C40202F051F80328C2
:1034A00096BF024B0320185C08BD00BFC4ED0008A6
:1034B00008B5D0F8C40202F087F8032896BF024B83
:1034C0000320185C08BD00BFC4ED00080A06D0F850
:1034D000C43206D4C1EBC10103EB810191F8FE01B6
:1034E000704701F07F01C1EBC10103EB810191F84D
:1034F0003E00704708B5D0F8C40201F047FF03282A
:1035000096BF024B0320185C08BD00BFC4ED000845
:1035100008B5D0F8C40201F0EBFF032896BF024BB8
:103520000320185C08BD00BFC4ED000808B5D0F842
:10353000C40201F0ABFF032896BF024B0320185CC6
:1035400008BD00BFC4ED0008D0F8C40201F0C6BF3A
:1035500008B50B4B1A6842F400721A601A6842F4FC
:1035600080621A601A6842F480721A60032000F0C8
:103570007DFE0020FEF746FCFEF724FC002008BD7F
:10358000003C0240034A044B11681B780B44136053
:10359000704700BF082900206E000020014B18680A
:1035A000704700BF0829002038B50446FFF7F6FF32
:1035B000631C054602D0044B1B781C44FFF7EEFF4A
:1035C000431BA342FAD338BD6E000020002800F050
:1035D0009F8038B5056C04463DB1236CDB060CD5E5
:1035E000002384F83C30012038BDFDF78BFD656475
:1035F000236C84F83C50DB06F2D4236C484A23F455
:10360000885323F0020343F00203236451682368C4
:1036100021F44031516051686068014351605A683B
:103620002569A06822F480725A60596841EA052130
:103630005960596821F0407159605A6802435A60D4
:103640009968E06821F4006199609A68A16A024370
:103650009A60344A914252D09868E56A20F07060CE
:1036600098609A6811439960996821F04051996077
:103670009A682A439A609A6822F002029A609A68CD
:10368000217E42EA41029A6094F82020002A41D02B
:103690005968626A41F400615960586820F46040DA
:1036A0005860511E5A6842EA41325A60DA6AE1694A
:1036B000656922F47002DA62DA6A013942EA01527B
:1036C000DA62996821F400719960996894F8302061
:1036D00041EA42219960996821F4806199609A6871
:1036E000002042EA85229A606064236C23F0030381
:1036F00043F001032364002384F83C3038BD9A680A
:1037000022F070629A609A6822F040529A60B2E7A2
:10371000012070475A6822F400625A60C6E700BF71
:10372000002301400100000F704700BF704700BF39
:10373000704700BF38B503681A6859680446900797
:1037400001D58A0653D41A685968520701D50D0667
:103750001BD41A685968D00701D54A0606D41A68DE
:103760005968900601D54A0169D438BD1A68D50751
:10377000F5D5236C43F4803323642046FFF7D6FF4E
:1037800023686FF001021A60E9E7226CD00603D4C7
:10379000226C42F4005222649A6812F4401F1ED137
:1037A0009A6B12F4401F02D09A68510517D45A68D8
:1037B000520514D49A6812F0405F10D1227E72B97B
:1037C0005A6822F080025A60236C23F480532364E9
:1037D000236CDD0503D4236C43F0010323642046EE
:1037E00000F0FCF823686FF00C021A60B1E7226C5D
:1037F000D50603D4226C42F4007222649A6812F057
:10380000405F14D1227E92B9DA6A12F4700F23D18C
:103810005A6822F020025A60236C23F480732364D8
:10382000236CD90403D4236C43F0010323642046A2
:10383000FFF77AFF23686FF012021A6083E7626C69
:103840006FF0200542F00202626420461D60FFF71F
:103850006FFF23681D6038BD9A685005E7D4D7E72D
:1038600030B590F83C3083B00022012B019200F07B
:103870009B80012380F83C300C680368092C2DD80C
:103880001D698A6804EB440E4FF0070C0CFA0EFC1D
:1038900025EA0C051D611D6902FA0EF22A431A6120
:1038A0004A68062AA4462FD802EB8202596B053AD1
:1038B0004FF01F0E0CFA02FC0EFA02F221EA02028D
:1038C0005A635A6B4CEA02025A633F4A934230D021
:1038D000002380F83C30184603B030BD1FFA84FC4A
:1038E0000CEB4C02DD68A2F11E0E072202FA0EF26A
:1038F00025EA0202DA608A68DD6802FA0EF22A43DB
:10390000DA604A68062ACFD90C2A02EB820232D842
:10391000196B233A1F250CFA02FC05FA02F221EA80
:1039200002021A631A6B4CEA02021A63264A934295
:10393000CED1122C2ED0254B9C4238D1244A254B77
:103940005168254C21F480015160516841F4000117
:1039500051601B68A4FB03239B0C03EB83035B00F8
:103960000193019B002BB3D0019B013B0193019B71
:10397000002BF9D1ACE7D96A413A1F250CFA02FCB9
:1039800005FA02F221EA0202DA62DA6A4CEA02027B
:10399000DA629AE70E4B5A6822F400025A605A68BB
:1039A00042F480025A6093E7022003B030BD112C2C
:1039B0008ED1074B5A6822F480025A605A6842F44A
:1039C00000025A6084E700BF00200140120000108E
:1039D000002301400400002083DE1B43704700BF2A
:1039E000704700BF704700BF704700BF704700BFFF
:1039F000704700BF704700BF704700BF704700BFEF
:103A0000704700BF704700BF704700BF704700BFDE
:103A1000704700BF002800F0988038B590F820303B
:103A20000446002B72D02268136823F0020313604F
:103A3000FFF7B4FD054604E0FFF7B0FD431B0A2B7A
:103A40005BD823685A689107F6D41A6842F00102DD
:103A50001A60FFF7A3FD054604E0FFF79FFD401B3A
:103A60000A284AD823685A68D207F6D5227E012A46
:103A70001A680CBF42F0800222F080021A60627E57
:103A8000012A1A680CBF42F0400222F040021A607C
:103A9000A27E012A1A680CBF42F0200222F0200206
:103AA0001A60E27E012A1A680CBF22F0100242F06E
:103AB00010021A60227F012A1A680CBF42F0080225
:103AC00022F008021A60627F012A1A680CBF42F0D5
:103AD000040222F004021A60D4E9022021690243A0
:103AE0000A4360696168024301390A4300200121E9
:103AF000DA61606284F8201038BD636A052243F4FD
:103B00000033636284F82020012038BD1149124A35
:103B1000C36D1248C4E91012114A1249C4E91202D5
:103B2000114A1248C4E90A12114A1249C4E90C02A6
:103B3000114A1248C4E90E121149124AA265C4E999
:103B4000140123B1204698476DE7012070470E4BC2
:103B5000E365F7E7FD390008013A0008053A000877
:103B6000093A0008E5390008E9390008ED3900088C
:103B7000F1390008F5390008F93900080D3A000854
:103B8000113A0008E1390008691200084AB190F8BA
:103B900020C0BCF1010F5FFA8CF311D090F82030F7
:103BA00033B1426A42F480020123426218467047F0
:103BB0000D2929D00E29F4D100230266184670473A
:103BC0000E294CD80FF2040C5CF821F0173C0008C9
:103BD0001D3C0008233C0008293C00082F3C00083D
:103BE000353C00083B3C0008413C0008473C0008CD
:103BF0004D3C0008533C0008593C0008113C0008AB
:103C0000093C0008B93B00080023C265184670470C
:103C100082650023CAE782620B46C7E7C2620023BF
:103C2000C4E702630023C1E742630023BEE7826367
:103C30000023BBE7C2630023B8E702640023B5E7B3
:103C400042640023B2E782640023AFE7C26400232A
:103C5000ACE702650023A9E742650023A6E7426AB4
:103C600042F480024262A1E790F82020013A012A42
:103C700006D9426A034642F4802201205A62704704
:103C8000414BD3F8002230B401242243C3F8002270
:103C9000D3F8002222F47C52C3F80022D3F8002289
:103CA000486A42EA0022C3F800224A6902F01F0073
:103CB00004FA00F0D3F81C4224EA0004C3F81C42C2
:103CC000CD69C443002D45D1D3F80C522540C3F82B
:103CD0000C52D200CD688B8802F1804202F5C842B6
:103CE00043EA0543C2F840328D680B8843EA054336
:103CF000C2F844328B69244A33BBD2F804322340E1
:103D0000C2F804320B69C3B91F4BD3F81422144014
:103D1000C3F814420B6A012B05D11B4AD2F81C329E
:103D20001843C2F81C02184AD2F8003223F00103EB
:103D3000002030BCC2F800327047134AD2F8143267
:103D40000343C2F81432E5E7D2F804320343C2F861
:103D50000432D7E7012DCDD1D3F80C520543C3F877
:103D60000C52D2000D688B8802F1804202F5C842E5
:103D700043EA0543C2F840328D688B8943EA054324
:103D8000C2F84432B6E700BF0064004070B590F856
:103D90002030012B044606D0436A012643F4002359
:103DA0004362304670BD0268DEB2022380F82030E4
:103DB000136823F001031360FFF7F0FB054604E0EE
:103DC000FFF7ECFB431B0A2B08D823685B6813F052
:103DD0000103F5D11E466362304670BD636A052259
:103DE00043F40033636284F82020304670BD00BF86
:103DF00030B4844690F82000DCF8005001380128E7
:103E0000AC6835D814F0E05F3BD0C4F30164032CF8
:103E100049D00120A04018608B68002B3AD0C868B8
:103E20000343486843EAC00304F1180000012B5023
:103E300005EB041C0B69CCF88431097D01294FEA9C
:103E4000041305D1DCF8841141F48071CCF884119D
:103E50002B445168C3F88C111268C3F88821DCF830
:103E6000803143F00103002030BCCCF88031704732
:103E7000DCF8243043F48023012030BCCCF824301B
:103E80007047DCF8243043F40013012030BCCCF838
:103E900024307047CB68086843EA405004F11803A7
:103EA0001B01E850C4E7DCF8243043F40003012090
:103EB00030BCCCF82430704790F82030013B012B07
:103EC00001D90020704703689B6803EA8163B3EB64
:103ED000816F14BF01200020704700BF70B590F8BB
:103EE00020E00EF1FF3EBEF1010F84466DD8006860
:103EF00051B9C468A5070AD1DCF8243043F4001393
:103F00000120CCF8243070BD0469A407F4D000EB84
:103F1000011E0C01DEF8B05105F004059560002D7E
:103F20005AD0DEF8B051ED085560DEF8B05105F01A
:103F30000205D560DEF8B451DEF8B46105F00F0576
:103F400015612044DEF8B451C6F3072696612D0CA6
:103F5000D0F8B86155611E70DCF800202244D2F818
:103F6000B821120A5A70DCF800202244D2F8B82195
:103F7000120C9A70DCF800202244D2F8B821120EFC
:103F8000DA70DCF800202244D2F8BC211A71DCF887
:103F900000202244D2F8BC21120A5A71DCF8002019
:103FA0002244D2F8BC21120C9A71DCF80020224481
:103FB000D2F8BC21120EDA71DCF8002089B9D3687E
:103FC00043F020030846D36070BD436A43F4802366
:103FD0000120CCF8243070BDDEF8B0516D0D1560B5
:103FE000A3E7136943F020030020136170BD00BFF5
:103FF00090F82020013A012A034605D9426A42F48A
:10400000802201205A6270470268536919430020D8
:10401000516170472DE9F04F03685D69D3F8048062
:104020009F68D3F80CA0D3F81090D3F818B015F00F
:10403000010681B0044625D017F0010640F0B98092
:104040004FF400524FF48041F8050DD523684FF42A
:1040500080709860BB0500F1CB80780500F1EC80A2
:104060003B0540F1F2800E46F8030BD523684FF470
:104070008032B9039A6000F1AF807A0340F1D780B3
:1040800046F400462F0703D51AF0100F40F08B803E
:10409000680702D51AF0080F7ED1A90703D5236857
:1040A000DB689A0774D16B0602D519F0100F69D13D
:1040B000AF0602D519F0080F5DD1E80603D52368D5
:1040C0001B69990753D1AA0302D518F0100F47D1E5
:1040D000EB0302D518F0080F3BD12F0405D518F0DB
:1040E000040F0DD1236804225A60002E71D0636A38
:1040F000A26D1E432046666201B0BDE8F04F104736
:10410000E80504D51BF0010F18BF46F00106A9050C
:1041100004D51BF0020F18BF46F002066A0504D54D
:104120001BF0040F18BF46F004062B05DAD51BF070
:10413000700BD7D0BBF1400F00F095805CD8BBF17D
:10414000200F00F08D80BBF1300F63D146F02006C8
:104150005AE0236808225A602046636D9847BCE7FE
:10416000236810225A602046236D9847B0E7A36C5D
:1041700020469847A7E7236808221A612046E36C87
:1041800098479AE72368102246F480661A618FE701
:10419000236C2046984786E723680822DA60204689
:1041A000636C984779E72368102246F40076DA605A
:1041B0006EE701229A60BB0712D47E0730D417F055
:1041C00008063BD04FF440524FF4A0414FF48056C4
:1041D0003AE701B0BDE8F08F236B2046984751E7DE
:1041E000836A984700264FF400524FF480412BE732
:1041F000E36A2046984737E7BBF1500F2DD0BBF15B
:10420000600F08BF46F4807623689A6922F0700236
:104210009A6168E7BBF1100FF6D146F00806F3E7A4
:104220004FF420524FF490414FF400660CE73B03EB
:104230000FD546F4803625E7164615E7436B9847B9
:104240004FF400524FF48041FEE6A36B204698479E
:104250000AE7E36B2046984714E746F08006D3E769
:1042600046F01006D0E746F04006CDE70749CA6899
:1042700003024FF6FF0003F4E0630240134343F0F0
:10428000BF6343F40033CB60704700BF00ED00E034
:104290001C4BDB68C3F3022300B5C3F1070EBEF16C
:1042A000040F03F1040C28BF4FF0040EBCF1060FFD
:1042B0001BD9033B4FF0FF3C0CFA03FC22EA0C0233
:1042C0004FF0FF3C0CFA0EFC21EA0C01994000284B
:1042D00041EA02010CDB00F16040090100F5614098
:1042E000C9B280F800135DF804FB00221346E7E72B
:1042F000054B00F00F0009010344C9B219765DF8BF
:1043000004FB00BF00ED00E0FCEC00E0002808DB4F
:104310004109044A00F01F00012303FA00F042F8AB
:104320002100704700E100E038B50446FFF736F998
:10433000002C52D023680222002184F8341084F823
:1043400035201A6822F0010205461A6005E0FFF7E1
:1043500025F9431B052B39D823681A68D107F6D4F1
:10436000D4E90120E16802430A43D4E90451A06979
:104370002A430A43E1691D6802430A43334929403D
:10438000256A2A430A43616A042928D01A605A69B7
:1043900022F007021143D8B22D4A59611038A2FB0E
:1043A000005212092B4923F47F73895CE16523F0E5
:1043B00003035F2888BF04333F228A40A36500209F
:1043C0009A600123606584F8353038BD03232022CC
:1043D000626584F83530184638BD012038BDD4E90F
:1043E0000B5129430A431A605969A26A21F0070157
:1043F000114341F00401002DCDD078B1B0F5005F3C
:1044000016D0022A03D9032AC5D1EA01C3D5012354
:104410004022626584F83530184638BD012A03D041
:1044200032F00202B7D1F0E7B5F1C07FB3D1EEE7C9
:10443000032AB0D801A050F822F000BF0F440008B2
:104440000B4400080F440008294400083F8010F086
:10445000ABAAAAAAC8ED000870B490F83440856DE4
:10446000012C35D090F835404FF0010C644580F8B0
:1044700034C005D0002380F8343070BC022070476F
:10448000022680F83560046800264665266826F412
:104490008026266063608368402B0EBFA260A16007
:1044A000E260C26D08BFE1603F239340AB602368C8
:1044B000026C43F0160323601AB1236843F008032B
:1044C0002360236843F001030020236070BC704721
:1044D000022070BC704700BF90F83530022B03D02B
:1044E00080234365012070470268052380F835303A
:1044F000136823F001030020136070472DE9F04199
:1045000082B0744A866D156800230193C36D3468C8
:1045100008229A402242804604D001680F6878073A
:1045200000F18A8001229A40224204D0D8F800107B
:104530004969090678D404229A40224204D0D8F866
:10454000001009688F0767D410229A40224204D0D5
:10455000D8F800100F68380749D420229A40224228
:1045600017D0D8F800100C68E00612D5B26098F8A1
:104570003520052A73D00B6813F4802F0B6800F0E8
:104580009080190340F19B80D8F83C300BB1404635
:104590009847D8F854303BB3D8F85430DA071BD5D5
:1045A000D8F800204C49052388F835301368A1FB62
:1045B000051523F00103AD0A136002E01368DB0761
:1045C00004D5019B0133AB420193F7D900220123AB
:1045D00088F8342088F83530D8F84C3023B140467C
:1045E00002B0BDE8F041184702B0BDE8F081B2600A
:1045F0000A6812F4802F0A682AD1D70503D40A6802
:1046000022F008020A60D8F84020002AA5D04046CF
:104610009047D8F85C30A0E7B260D8F8542042F058
:104620000402C8F854208FE7B260D8F8542042F052
:104630000202C8F854207EE70F6827F004070F60D5
:10464000B260D8F8542042F00102C8F8542069E75B
:104650001203D8D5D8F84820002AD8D17DE70A68B7
:1046600022F016020A604A6922F080024A61D8F8F4
:10467000402052B30A6822F008020A603F2202FA80
:1046800003F3D8F85010B3600022012388F83420D7
:1046900088F835300029A7D0404602B0BDE8F04187
:1046A000084713F480737FF46FAF0A6822F010029A
:1046B0000A60012288F8343088F8352064E7D8F899
:1046C0004430002B7FF463AF63E7D8F84820002A1A
:1046D000D0D1D3E704000020B5814E1B406D704758
:1046E00030B48568802D27D090F83440012C07D055
:1046F00090F835404FF0010C644580F834C002D08A
:10470000022030BC704704684FF0020C80F835C0BE
:10471000206840F480202060402D2361029B63606C
:104720000BBFA260A160E160E260236843F0010377
:104730000020236030BC70474FF48073436530BC69
:10474000012070472DE9F04F00220D68DFF878A2B4
:1047500085B0134605E00133102B02F1020200F090
:10476000AA8001249C4004EA050BAC43F3D14F68B6
:1047700027F0100E0EF1FF34012C40F29F80D0F88C
:104780000CE08C684FF0030C0CFA02FC94402EEA0B
:104790000C0E44EA0E04C4606FEA0C04D0F800C0AA
:1047A0000CEA040C07F00304944044EA0C0404608F
:1047B000FC00D0D500240394DAF844407B4E44F446
:1047C0008044CAF84440DAF8444004F48044039436
:1047D000039C23F0030404F1804404F59C3403F0AB
:1047E000030ED4F808804FEA8E0E4FF00F0C0CFA2F
:1047F0000EFCB04228EA0C0C2ED006F58066B042C2
:1048000000F09C806A4EB04200F09F80694EB0423A
:1048100000F0A280684EB04200F0A580674EB04222
:1048200000F0AF80664EB04200F0B280DFF89C81AD
:10483000404500F09F80DFF89881404500F0AF8050
:10484000DFF8908140450CBF4FF009084FF00A088F
:1048500008FA0EFE4CEA0E0CC4F808C0594C246845
:104860006FEA0B0CFE03574E54BF0CEA04044BEAEC
:10487000040434607468BE03524E54BF0CEA04044E
:104880004BEA04047460B468FE024E4E54BF0CEA56
:1048900004044BEA0404B460F4680133BE02494ED8
:1048A00054BF0CEA04044BEA0404102BF46002F138
:1048B00002027FF456AF05B0BDE8F08FD0F808C013
:1048C000CC688E684FF0030909FA02F92CEA090C4A
:1048D000944044EA0C048460446824EA0B0CC7F357
:1048E00000149C4044EA0C044460C46806FA02FCCC
:1048F00024EA09084CEA080CBEF1020F6FEA090429
:10490000C0F80CC07FF44AAF4FEAD30E00EB8E0E16
:1049100003F00708DEF8206001960E694FEA880868
:1049200006FA08FC4FF00F09019E09FA08F826EA7A
:1049300008094CEA090CCEF820C02FE74FF0010817
:1049400008FA0EFE4CEA0E0C86E74FF0020808FA51
:104950000EFE4CEA0E0C7FE74FF0030808FA0EFE3D
:104960004CEA0E0C78E74FF0040808FA0EFE4CEA09
:104970000E0C71E74FF0070808FA0EFE4CEA0E0C19
:104980006AE74FF0050808FA0EFE4CEA0E0C63E7E2
:104990004FF0060808FA0EFE4CEA0E0C5CE74FF0EA
:1049A000080808FA0EFE4CEA0E0C55E7000002401B
:1049B00000080240000C02400010024000140240B7
:1049C00000180240003C014000380240001C024038
:1049D00000200240002402400369194214BF012054
:1049E0000020704702B9090481617047044A516987
:1049F000014200D1704708B5506108F0DBF808BDEE
:104A0000003C0140002800F0B98070B590F83D30BE
:104A1000044603F0FF02002B00F098802368242254
:104A200084F83D201A6822F001021A601A6842F4E4
:104A300000421A601A6822F400421A6001F0E0F89D
:104A400063684F498B424FD84E4A90427CD94E4DB5
:104A50005A00A5FB0035431EB3FBF2F322685068F1
:104A600020F03F0040EA95405060A90C01F1010C94
:104A7000116A21F03F0141EA0C011162D16940F64F
:104A8000FC7E013321F44F4113EA0E0F21F0FF01A8
:104A900061D104230B43D361D4E907301168034388
:104AA00021F0C0010B4313609168D4E9030321F4A2
:104AB0000341034321F0FF010B439360D4E9053028
:104AC000D168034321F0FF010B43D3601168002339
:104AD00041F0010120201160236484F83D0023632C
:104AE00084F83E30184670BD284A90422CD9264D95
:104AF000274EA5FB002C2268556825F03F0545EAA6
:104B00009C4555604FEA9C414FF4967505FB01F1B9
:104B1000A6FB0151156A890925F03F05013129439A
:104B20001162D169A56821F44F4121F0FF01ADB9AF
:104B3000013803EB4303B0FBF3F30133C3F30B037F
:104B4000D3B143F40043A5E7012070BD80F83C20B9
:104B5000FCF7A4FE62E7C3F30B039BE703EB8303BD
:104B6000013803EB8303B0FBF3F30133C3F30B030F
:104B700013B143F440438DE701238BE701207047D5
:104B8000A08601007F841E0083DE1B43FF083D00DA
:104B9000D34D621090F83D20202A03465FFA82FC34
:104BA00001D0022070470268242083F83D0010687D
:104BB00020F001001060506A20F010005062506A2E
:104BC00001435162116841F001011160002083F836
:104BD0003DC0704790F83D20202A01D00220704748
:104BE00010B45FFA82FC0468242280F83D20226819
:104BF00022F0010222600346606A4FF6F072024022
:104C00000A4392B26262226842F00102226083F893
:104C10003DC000205DF8044B704700BFF0B58BB07D
:104C2000002800F0858090F8BD330468054603F045
:104C3000FF02002B76D02046032385F8BD33E36BBB
:104C40002E4613F4807308BF2B6103F0BDFF56F8A6
:104C500010EBB446BCE80F006C460FC4BCE80F0074
:104C60000FC49CE8030084E803002F1D97E80E00A2
:104C7000704603F0BDFE044630B1012402232046F5
:104C800085F8BD330BB0F0BD0146286803F0A4FFE2
:104C9000686858B322464FF0010E2146C2EBC203AA
:104CA00005EB830302F1010C83F83C20A3F84220BA
:104CB0005FFA8CF28242C3E9111183F83DE083F878
:104CC0003F101965EAD30022C4EBC40305EB83034C
:104CD000611C83F8FC41CCB28442C3E9812283F891
:104CE000FD2183F8FF21C3F81022EDD30FCE6C46CF
:104CF0000FC40FCE0FC496E8030084E8030097E8C2
:104D00000E00286803F080FF04460028B5D1012377
:104D100085F83800286885F8BD3304F089FB204603
:104D20000BB0F0BD80F8BC23FEF7A6FA286883E735
:104D3000012420460BB0F0BD10B590F8BC33012B18
:104D40000446006816D0A36A0122934284F8BC236B
:104D500008D003F031FF206804F05AFB002084F8EB
:104D6000BC0310BDA3699342F3D0836B43F480333B
:104D70008363EEE7022010BD2DE9F04F076887B08E
:104D80000446384604F092FB10B107B0BDE8F08F3E
:104D90008346206804F05CFB0028F6D0206804F00D
:104DA00057FB10F0020F20681EBF436903F0020397
:104DB000436104F04DFB10F0100F206812D083699E
:104DC00023F0100383613D6AC5F34343022B05F0D2
:104DD0000F0600F04382062B00F09881836943F0B0
:104DE0001003836104F034FB10F4002F206840F0BE
:104DF000B48004F02DFB10F4802F20685AD104F009
:104E000027FB002842DB206804F022FB010532D496
:104E1000206804F01DFBC30400F11581206804F034
:104E200017FB10F4005F206840F0F68004F010FBE0
:104E3000070700F1E880206804F00AFBC60200F1D1
:104E4000D880206804F004FB850200F1C880206847
:104E500004F0FEFA400000F1B980206804F0F8FA8E
:104E6000410792D523685D686A0700F118825A6885
:104E70002A435A6089E7D7F80838DA0700F10B822D
:104E80002068436903F400634361C2E7D7F804284C
:104E900022F00102C7F8042894F8F433012B00F043
:104EA0002E812046FEF776FA2068436903F000431E
:104EB0004361A9E704F0D8FA80462068B8F1000FF2
:104EC0009DD0CDE9027B264607F510694FF0000A18
:104ED00009E05FEA58080AF1010A06F11C0609F127
:104EE000200900F0288118F0010FF2D05FFA8AF74C
:104EF000394604F0CBFAC307054615D502990120BF
:104F0000D1F834380AF00F0200FA02F223EA020361
:104F1000C1F834382169C9F80800814200F0C48121
:104F200039462046FEF7FAF9280744BF0823C9F896
:104F30000830E90644BF1023C9F808306A0644BFA8
:104F40004023C9F80830AB0744BF0223C9F8083032
:104F5000280600F12D812068BBE704F07DFA0546A4
:104F60002068002D3FF445AF07F53066A2464FF0AC
:104F70000008029708E06D0808F1010806F1200614
:104F80000AF11C0A00F0D580EF07F4D55FFA88F724
:104F9000394604F071FA814619F0010F206840F09B
:104FA000E88019F0080F40F0C98019F0100F1CBFFD
:104FB0001023B36019F0200F1CBF2023B36019F435
:104FC000005F1CBF4FF40053B360D4E72046FEF7E8
:104FD000EDF92068436903F0804343613EE72046D2
:104FE0000021FEF7DBF92068436903F400134361F5
:104FF0002EE720460021FEF7D5F92068436903F427
:10500000801343611EE72046FEF792F9206843694A
:1050100003F0080343610FE704F04CFA206803F043
:10502000F7FEE060256800F0E5FD227B014628469A
:1050300003F048FD2046FEF77FF92068436903F43A
:1050400000534361F2E6D7F80438206823F00103E7
:105050001021C7F8043803F0C9FE606807F5006541
:1050600000B307F510634FF67F3199601A6822F498
:1050700000121A601A6842F000621A60C3F808123F
:10508000D3F8002222F40012C3F80022D3F8002241
:105090000BF1010B42F000628345C3F8002203F1DB
:1050A0002003E2D1EB69226B43F00113EB61DAB923
:1050B0006B6943F4005343F02B036B612B6943F09E
:1050C0000B032B61D7F80038217C206823F4FE63A2
:1050D000C7F8003804F5717204F0FEF920684369DE
:1050E00003F4805343619AE6D5F8843043F00B0310
:1050F000C5F884306B6C43F00B036B64E2E700216E
:1051000084F8F413204600F0C5FACDE6082204F531
:1051100071713846C6EBC60604F000F904EB86024E
:10512000C5F30A13D2F8141220680B44C2F81432E3
:1051300054E6029F5DE6DDE9027B60E60823B3608A
:10514000026C00EB48138F48D3F8081B824203F52A
:10515000306340F2BB800A0402D54FF400429A60EB
:105160002046FEF7CBF82169012900F0DA8020689B
:105170001BE70122B2602169D0F840C000F530621F
:1051800002EB48120129936800F0A5807E498C4506
:1051900000F0BA80B8F1000F04D1D4F81022002A30
:1051A00000F0EA8020463946FEF7AEF82068F8E6BF
:1051B000D6E91453D4F800B0AB4258463FF689AE56
:1051C0000BF5106202EB4A1211469646726C896921
:1051D000CDF814B0A5EB030C624528BF624689B236
:1051E0000332B1EB920FC0F08B80CDF81090C14626
:1051F000A046744619E0736CB16C9D4228BF1D46F1
:1052000098F8103000933A46ABB2584604F070F864
:10521000B36CA1692B44B364736D89B22B4403351D
:10522000B1EB950F736563D3356DAB42A5EB030509
:10523000E1D34446C846D4F800B0DDF81090059B91
:105240000AF00F0203F500610125D3F8343805FA9E
:1052500002F223EA020358464B633AE647F6F0733C
:105260001D423FF4BBADC6EBC60604EB8606C5F394
:105270000A12D6F808123846154604F04FF8D6F848
:10528000083220682B44C6F80832D6F814322B4472
:10529000C6F81432A2E52046FEF764F8F0E5204691
:1052A000FEF788F82368E2E5D6E911231344B364D6
:1052B000BAF1000F7FF434AE236D002B7FF430AED3
:1052C000206804F5717204F007F929E62046FEF71C
:1052D00015F8206869E619071ED52A498C457FF61E
:1052E00060AE1F047FF55DAE4FF40043936058E657
:1052F0004446356DD4F800B0C846DDF810905846E5
:105300009D423FF6E6AD9AE71904EDD499067FF584
:1053100049AF2021916045E7990608D52023936085
:105320003FE6206804F5717204F0D6F81FE713F029
:10533000280F7FF436AE13498C4501D91B04D3D412
:105340001269DAF80412C2F312028A1ACAF8142295
:10535000DAF808220A44CAF80822B8F1000F7FF4EC
:1053600021AFD4F81022002A7FF41CAF04F571722B
:10537000012104F0B1F815E704F57172414604F01B
:10538000ABF80FE70A30544F0A31544F90F8BC2362
:10539000012A0DD010B504460122006884F8BC2310
:1053A00084F8381004F024F8002084F8BC0310BD01
:1053B0000220704710B501F00F0E0906044627D4ED
:1053C0004FF01C0C0CFB0E0C0CF5FE71CEEBCE0C52
:1053D00000EB8C0C00208CF8FD018A604A7881F883
:1053E00000E0CB700AB1A1F806E0022B04BF002355
:1053F0000B7194F8BC33012B18D0012384F8BC3313
:10540000206803F011FD002384F8BC33184610BD5A
:105410001C2000FB0E4000F13C01CEEBCE0004EB63
:1054200080004FF0010C80F83DC0D6E7022010BD8F
:1054300001F00F03C3EBC30211F0800F4FF01C010A
:1054400010B500EB8202044601FB030113D101F504
:10545000FE71002082F8FD010B7094F8BC33012B23
:1054600012D00123206884F8BC3303F029FD00200A
:1054700084F8BC0310BD3C31012082F83D000B7064
:1054800094F8BC33012BECD1022010BD10B501F013
:105490000F04C4EBC40C00EB8C0C1C21CCF81032B4
:1054A0000023CCF808228CF8FC41CCF814328CF89C
:1054B000FD31036901FB0401012B08BFCCF80C226C
:1054C000006801F5FE71DAB21CB903F067FE002036
:1054D00010BD03F057FD002010BD00BF01F00F010B
:1054E000C1EBC10100EB8101D1F81402704700BF8C
:1054F00010B501F00F04C4EBC40C00EB8C0C1C21A4
:10550000CCF850300023CCF854300123CCF848209C
:105510008CF83C408CF83D30036901FB0401012B01
:1055200008BFCCF84C2000683C31DAB21CB903F05B
:1055300035FE002010BD03F025FD002010BD00BF8A
:1055400038B5436801F00F059D4233D80B06044679
:105550001CD4C1EBC1031C2202FB010100EB83033D
:1055600001F5FE71002283F8FD2101238B700D707F
:1055700094F8BC239A421BD0206884F8BC3303F013
:10558000DDFECDB1002084F8BC0338BDC5EBC503FA
:105590001C2101FB050100EB830301223C3183F850
:1055A0003D2001238B700D7094F8BC239A42E3D107
:1055B000022038BD012038BD217C206804F57172BD
:1055C00003F08AFFDEE700BF426838B501F00F0341
:1055D00093422ED8C3EBC30211F0800F4FF01C0191
:1055E000044600EB820201FB030115D101F5FE71B7
:1055F0000020002582F8FD018D700B7094F8BC33FB
:10560000012B14D00123206884F8BC3303F0C4FEBE
:1056100084F8BC53284638BD3C310120002582F86F
:105620003D008D700B7094F8BC33012BEAD1022041
:1056300038BD012038BD00BF10B40468606A31B9BC
:1056400040EA0240A06200205DF8044B7047A36A64
:10565000B1F1010C00EB13400BD0002303F140012A
:1056600004EB810101334968DBB2634500EB114073
:10567000F4D30CF1400C04EB8C0C40EA0240CCF863
:1056800004005DF8044B0020704700BF0368002051
:1056900059627047704700BF002800F09C812DE9D7
:1056A000F0410368DD0782B004462FD59E498A6821
:1056B00002F00C02042A00F0ED808A6802F00C026D
:1056C000082A00F0E3806368B3F5803F00F0EC80C7
:1056D000B3F5A02F00F06F81934D2A6822F4803239
:1056E0002A602A6822F480222A60002B40F0E180A0
:1056F000FDF754FF064605E0FDF750FF801B6428C8
:1057000000F201812B689B03F6D423689F0728D5FC
:10571000854A916811F00C0F00F09080916801F0BB
:105720000C01082900F08680E368002B00F00E8150
:105730007E4B7D4E01221A60FDF730FF054605E0E5
:10574000FDF72CFF401B022800F2DD80336898072C
:10575000F6D53368226923F0F80343EAC2033360C5
:1057600023681A0751D458072FD56F4A136C13F0CA
:1057700080537FD000256E4E3368D90540F1B38049
:10578000A368012B00F0C380052B00F02681664E34
:10579000326F22F001023267326F22F00402326768
:1057A000002B40F0B980FDF7F9FE41F2883807463A
:1057B00005E0FDF7F3FEC01B404500F2A480336F07
:1057C0009807F6D4002D40F00081A069C8B1564D6D
:1057D000AB6803F00C03082B00F0C980534B002288
:1057E00002281A6600F00381FDF7D8FE044605E0A2
:1057F000FDF7D4FE001B022800F285802B689B0178
:10580000F6D4002002B0BDE8F08163690BB3474BCA
:10581000454E0122C3F8802EFDF7C0FE054604E088
:10582000FDF7BCFE401B02286DD8736F9B07F7D5B0
:10583000236898E7526856023FF576AF3A4A1268F5
:10584000950744D5E268012A41D0012002B0BDE8A5
:10585000F081364A344EC2F8803EFDF79FFE054681
:1058600004E0FDF79BFE401B02284CD8736F9F0796
:10587000F7D4DDE70193136C43F080531364136C8A
:1058800003F080530193019B012574E74A6850029D
:105890007FF519AF244A126891037FF537AF62682C
:1058A000002A7FF433AFD0E71F4A136843F48033F4
:1058B0001360FDF773FE1C4E054604E0FDF76EFE17
:1058C000401B64281FD833689A03F7D51DE7164993
:1058D00020690A6822F0F80242EAC0020A601A0748
:1058E0007FF541AF91E7336843F480733360FDF790
:1058F00055FE07463368DA053FF542AFFDF74EFE29
:10590000C01B0228F6D9032002B0BDE8F081064A88
:10591000136F43F001031367FDF740FE024F064685
:1059200041F288380BE000BF0038024000004742D7
:1059300000700040FDF732FE801B4045E3D83B6F0E
:105940009B07F7D5002D3FF440AF3EE03E4A3F4E67
:105950001360FDF723FE054604E0FDF71FFE401B24
:105960000228D0D833689907F7D42368F9E60128CC
:105970003FF448AF6B68E26903F4800191427FF421
:1059800064AF226A03F03F0191427FF45EAF616A27
:1059900047F6C0721A408A427FF457AFA26A03F4F6
:1059A000403191427FF451AFE06A03F07063181AFE
:1059B00018BF012026E7254B1A6842F480221A609E
:1059C0001A6842F480321A6073E7204A136C23F09D
:1059D00080531364F9E6012070471C4B1A6F42F0A4
:1059E00004021A671A6F42F001021A6794E7FDF782
:1059F000D5FD064604E0FDF7D1FD801B022882D8C4
:105A00002B689901F7D4D4E90731626A0B4343EA62
:105A10008213D4E90A21520843EA0163013A0A4990
:105A200043EA024301226B600A66FDF7B7FD074DAA
:105A3000044605E0FDF7B2FD001B02283FF663AF08
:105A40002B689A01F6D5DCE6000047420038024098
:105A5000164908B58B6803F00C03042B1BD0082BE8
:105A600017D14A684B68496813F4800302F03F027B
:105A700013D10F48C1F38811A1FB0001FBF788F88F
:105A80000A4B5B68C3F3014301335B00B0FBF3F0E7
:105A900008BD074808BD074808BD0648C1F388117E
:105AA0000023A1FB0001FBF773F8E9E7003802408F
:105AB0000024F400001BB700002800F08780484A4B
:105AC000136803F00F038B422DE9F0410D460446A5
:105AD00009D2CBB21370136803F00F038B4202D0CC
